{
  "contracts/BoxV2.sol": {
    "BoxV2": {
      "abi": [
        {
          "constant": true,
          "inputs": [
            {
              "name": "",
              "type": "uint256"
            }
          ],
          "name": "students",
          "outputs": [
            {
              "name": "slNo",
              "type": "uint256"
            },
            {
              "name": "name",
              "type": "string"
            },
            {
              "name": "rollNo",
              "type": "uint256"
            },
            {
              "name": "dob",
              "type": "string"
            },
            {
              "name": "score",
              "type": "uint256"
            },
            {
              "name": "complete",
              "type": "bool"
            },
            {
              "name": "StudentAddress",
              "type": "address"
            },
            {
              "name": "amount",
              "type": "uint256"
            },
            {
              "name": "otp",
              "type": "uint256"
            }
          ],
          "payable": false,
          "stateMutability": "view",
          "type": "function"
        },
        {
          "constant": true,
          "inputs": [],
          "name": "getListOfStudents",
          "outputs": [
            {
              "components": [
                {
                  "name": "slNo",
                  "type": "uint256"
                },
                {
                  "name": "name",
                  "type": "string"
                },
                {
                  "name": "rollNo",
                  "type": "uint256"
                },
                {
                  "name": "dob",
                  "type": "string"
                },
                {
                  "name": "score",
                  "type": "uint256"
                },
                {
                  "name": "complete",
                  "type": "bool"
                },
                {
                  "name": "StudentAddress",
                  "type": "address"
                },
                {
                  "name": "amount",
                  "type": "uint256"
                },
                {
                  "name": "otp",
                  "type": "uint256"
                }
              ],
              "name": "",
              "type": "tuple[]"
            }
          ],
          "payable": false,
          "stateMutability": "view",
          "type": "function"
        },
        {
          "constant": true,
          "inputs": [
            {
              "name": "",
              "type": "uint256"
            }
          ],
          "name": "deviceIssue",
          "outputs": [
            {
              "name": "name",
              "type": "string"
            },
            {
              "name": "vendorName",
              "type": "string"
            },
            {
              "name": "vendorIndex",
              "type": "uint256"
            },
            {
              "name": "rollNo",
              "type": "uint256"
            },
            {
              "name": "deviceIMEI",
              "type": "string"
            },
            {
              "name": "amount",
              "type": "uint256"
            },
            {
              "name": "remark",
              "type": "string"
            }
          ],
          "payable": false,
          "stateMutability": "view",
          "type": "function"
        },
        {
          "constant": true,
          "inputs": [],
          "name": "scholarshipAmout",
          "outputs": [
            {
              "name": "",
              "type": "uint256"
            }
          ],
          "payable": false,
          "stateMutability": "view",
          "type": "function"
        },
        {
          "constant": false,
          "inputs": [
            {
              "name": "name",
              "type": "string"
            },
            {
              "name": "registrationNo",
              "type": "string"
            },
            {
              "name": "vendorAddress",
              "type": "string"
            },
            {
              "name": "pincode",
              "type": "uint256"
            }
          ],
          "name": "registerVendor",
          "outputs": [],
          "payable": true,
          "stateMutability": "payable",
          "type": "function"
        },
        {
          "constant": false,
          "inputs": [
            {
              "name": "deviceIMEI",
              "type": "string"
            },
            {
              "name": "studentIndex",
              "type": "uint256"
            },
            {
              "name": "otp",
              "type": "uint256"
            },
            {
              "name": "vendorIndex",
              "type": "uint256"
            },
            {
              "name": "amount",
              "type": "uint256"
            },
            {
              "name": "remark",
              "type": "string"
            }
          ],
          "name": "issueNewDevice",
          "outputs": [],
          "payable": true,
          "stateMutability": "payable",
          "type": "function"
        },
        {
          "constant": true,
          "inputs": [],
          "name": "manager",
          "outputs": [
            {
              "name": "",
              "type": "address"
            }
          ],
          "payable": false,
          "stateMutability": "view",
          "type": "function"
        },
        {
          "constant": true,
          "inputs": [],
          "name": "getListOfVendors",
          "outputs": [
            {
              "components": [
                {
                  "name": "slNo",
                  "type": "uint256"
                },
                {
                  "name": "name",
                  "type": "string"
                },
                {
                  "name": "registrationNo",
                  "type": "string"
                },
                {
                  "name": "vendorAddress",
                  "type": "string"
                },
                {
                  "name": "pincode",
                  "type": "uint256"
                },
                {
                  "name": "vendorWalletAddress",
                  "type": "address"
                },
                {
                  "name": "status",
                  "type": "bool"
                },
                {
                  "name": "approverAddress",
                  "type": "address"
                },
                {
                  "name": "amount",
                  "type": "uint256"
                }
              ],
              "name": "",
              "type": "tuple[]"
            }
          ],
          "payable": false,
          "stateMutability": "view",
          "type": "function"
        },
        {
          "constant": true,
          "inputs": [
            {
              "name": "",
              "type": "uint256"
            }
          ],
          "name": "depositer",
          "outputs": [
            {
              "name": "amount",
              "type": "uint256"
            },
            {
              "name": "depositerAddress",
              "type": "address"
            }
          ],
          "payable": false,
          "stateMutability": "view",
          "type": "function"
        },
        {
          "constant": false,
          "inputs": [
            {
              "name": "name",
              "type": "string"
            },
            {
              "name": "rollNo",
              "type": "uint256"
            },
            {
              "name": "score",
              "type": "uint256"
            },
            {
              "name": "dob",
              "type": "string"
            }
          ],
          "name": "registerStudent",
          "outputs": [],
          "payable": true,
          "stateMutability": "payable",
          "type": "function"
        },
        {
          "constant": false,
          "inputs": [
            {
              "name": "vendorIndex",
              "type": "uint256"
            }
          ],
          "name": "approveVendor",
          "outputs": [],
          "payable": true,
          "stateMutability": "payable",
          "type": "function"
        },
        {
          "constant": true,
          "inputs": [],
          "name": "getListOfDeviceIssue",
          "outputs": [
            {
              "components": [
                {
                  "name": "name",
                  "type": "string"
                },
                {
                  "name": "vendorName",
                  "type": "string"
                },
                {
                  "name": "vendorIndex",
                  "type": "uint256"
                },
                {
                  "name": "rollNo",
                  "type": "uint256"
                },
                {
                  "name": "deviceIMEI",
                  "type": "string"
                },
                {
                  "name": "amount",
                  "type": "uint256"
                },
                {
                  "name": "remark",
                  "type": "string"
                }
              ],
              "name": "",
              "type": "tuple[]"
            }
          ],
          "payable": false,
          "stateMutability": "view",
          "type": "function"
        },
        {
          "constant": true,
          "inputs": [
            {
              "name": "",
              "type": "uint256"
            }
          ],
          "name": "vendors",
          "outputs": [
            {
              "name": "slNo",
              "type": "uint256"
            },
            {
              "name": "name",
              "type": "string"
            },
            {
              "name": "registrationNo",
              "type": "string"
            },
            {
              "name": "vendorAddress",
              "type": "string"
            },
            {
              "name": "pincode",
              "type": "uint256"
            },
            {
              "name": "vendorWalletAddress",
              "type": "address"
            },
            {
              "name": "status",
              "type": "bool"
            },
            {
              "name": "approverAddress",
              "type": "address"
            },
            {
              "name": "amount",
              "type": "uint256"
            }
          ],
          "payable": false,
          "stateMutability": "view",
          "type": "function"
        },
        {
          "constant": true,
          "inputs": [
            {
              "name": "",
              "type": "uint256"
            }
          ],
          "name": "rechargeAddress",
          "outputs": [
            {
              "name": "",
              "type": "address"
            }
          ],
          "payable": false,
          "stateMutability": "view",
          "type": "function"
        },
        {
          "constant": true,
          "inputs": [],
          "name": "amount",
          "outputs": [
            {
              "name": "",
              "type": "uint256"
            }
          ],
          "payable": false,
          "stateMutability": "view",
          "type": "function"
        },
        {
          "constant": true,
          "inputs": [],
          "name": "minimumScore",
          "outputs": [
            {
              "name": "",
              "type": "uint256"
            }
          ],
          "payable": false,
          "stateMutability": "view",
          "type": "function"
        },
        {
          "constant": true,
          "inputs": [],
          "name": "getListOfDepositors",
          "outputs": [
            {
              "components": [
                {
                  "name": "amount",
                  "type": "uint256"
                },
                {
                  "name": "depositerAddress",
                  "type": "address"
                }
              ],
              "name": "",
              "type": "tuple[]"
            }
          ],
          "payable": false,
          "stateMutability": "view",
          "type": "function"
        },
        {
          "constant": false,
          "inputs": [
            {
              "name": "vendorIndex",
              "type": "uint256"
            }
          ],
          "name": "rejectVendor",
          "outputs": [],
          "payable": true,
          "stateMutability": "payable",
          "type": "function"
        },
        {
          "constant": false,
          "inputs": [],
          "name": "Scholarship",
          "outputs": [],
          "payable": false,
          "stateMutability": "nonpayable",
          "type": "function"
        },
        {
          "constant": false,
          "inputs": [],
          "name": "enter",
          "outputs": [],
          "payable": true,
          "stateMutability": "payable",
          "type": "function"
        }
      ],
      "devdoc": {
        "methods": {}
      },
      "evm": {
        "assembly": "    /* \"contracts/BoxV2.sol\":63:4512  contract BoxV2 {\r... */\n  mstore(0x40, 0x60)\n  jumpi(tag_1, iszero(callvalue))\n  0x0\n  dup1\n  revert\ntag_1:\n  dataSize(sub_0)\n  dup1\n  dataOffset(sub_0)\n  0x0\n  codecopy\n  0x0\n  return\nstop\n\nsub_0: assembly {\n        /* \"contracts/BoxV2.sol\":63:4512  contract BoxV2 {\r... */\n      mstore(0x40, 0x60)\n      jumpi(tag_1, iszero(calldatasize))\n      calldataload(0x0)\n      0x100000000000000000000000000000000000000000000000000000000\n      swap1\n      div\n      0xffffffff\n      and\n      dup1\n      0x6ead22e\n      eq\n      tag_2\n      jumpi\n      dup1\n      0x15f6febd\n      eq\n      tag_3\n      jumpi\n      dup1\n      0x1c3a8890\n      eq\n      tag_4\n      jumpi\n      dup1\n      0x2c5d4725\n      eq\n      tag_5\n      jumpi\n      dup1\n      0x3ee393f6\n      eq\n      tag_6\n      jumpi\n      dup1\n      0x465f6954\n      eq\n      tag_7\n      jumpi\n      dup1\n      0x481c6a75\n      eq\n      tag_8\n      jumpi\n      dup1\n      0x4f0cb18f\n      eq\n      tag_9\n      jumpi\n      dup1\n      0x513e9848\n      eq\n      tag_10\n      jumpi\n      dup1\n      0x6148c54c\n      eq\n      tag_11\n      jumpi\n      dup1\n      0x6ce71786\n      eq\n      tag_12\n      jumpi\n      dup1\n      0x86a447d9\n      eq\n      tag_13\n      jumpi\n      dup1\n      0xa08d986d\n      eq\n      tag_14\n      jumpi\n      dup1\n      0xa8233ee9\n      eq\n      tag_15\n      jumpi\n      dup1\n      0xaa8c217c\n      eq\n      tag_16\n      jumpi\n      dup1\n      0xac96bd6e\n      eq\n      tag_17\n      jumpi\n      dup1\n      0xbafdb029\n      eq\n      tag_18\n      jumpi\n      dup1\n      0xca005940\n      eq\n      tag_19\n      jumpi\n      dup1\n      0xce251a30\n      eq\n      tag_20\n      jumpi\n      dup1\n      0xe97dcb62\n      eq\n      tag_21\n      jumpi\n    tag_1:\n      0x0\n      dup1\n      revert\n        /* \"contracts/BoxV2.sol\":447:472  Student[] public students */\n    tag_2:\n      jumpi(tag_22, iszero(callvalue))\n      0x0\n      dup1\n      revert\n    tag_22:\n      tag_23\n      0x4\n      dup1\n      dup1\n      calldataload\n      swap1\n      0x20\n      add\n      swap1\n      swap2\n      swap1\n      pop\n      pop\n      jump(tag_24)\n    tag_23:\n      mload(0x40)\n      tag_25\n      swap10\n      swap9\n      swap8\n      swap7\n      swap6\n      swap5\n      swap4\n      swap3\n      swap2\n      swap1\n      jump(tag_26)\n    tag_25:\n      mload(0x40)\n      dup1\n      swap2\n      sub\n      swap1\n      return\n        /* \"contracts/BoxV2.sol\":2156:2251  function getListOfStudents() public view returns (Student[]) {\r... */\n    tag_3:\n      jumpi(tag_27, iszero(callvalue))\n      0x0\n      dup1\n      revert\n    tag_27:\n      tag_28\n      jump(tag_29)\n    tag_28:\n      mload(0x40)\n      tag_30\n      swap2\n      swap1\n      jump(tag_31)\n    tag_30:\n      mload(0x40)\n      dup1\n      swap2\n      sub\n      swap1\n      return\n        /* \"contracts/BoxV2.sol\":1160:1192  DeviceIssue[] public deviceIssue */\n    tag_4:\n      jumpi(tag_32, iszero(callvalue))\n      0x0\n      dup1\n      revert\n    tag_32:\n      tag_33\n      0x4\n      dup1\n      dup1\n      calldataload\n      swap1\n      0x20\n      add\n      swap1\n      swap2\n      swap1\n      pop\n      pop\n      jump(tag_34)\n    tag_33:\n      mload(0x40)\n      tag_35\n      swap8\n      swap7\n      swap6\n      swap5\n      swap4\n      swap3\n      swap2\n      swap1\n      jump(tag_36)\n    tag_35:\n      mload(0x40)\n      dup1\n      swap2\n      sub\n      swap1\n      return\n        /* \"contracts/BoxV2.sol\":549:577  uint public scholarshipAmout */\n    tag_5:\n      jumpi(tag_37, iszero(callvalue))\n      0x0\n      dup1\n      revert\n    tag_37:\n      tag_38\n      jump(tag_39)\n    tag_38:\n      mload(0x40)\n      tag_40\n      swap2\n      swap1\n      jump(tag_41)\n    tag_40:\n      mload(0x40)\n      dup1\n      swap2\n      sub\n      swap1\n      return\n        /* \"contracts/BoxV2.sol\":2350:2863  function registerVendor(string name, string registrationNo, string vendorAddress, uint pincode) public payable {\r... */\n    tag_6:\n      tag_42\n      0x4\n      dup1\n      dup1\n      calldataload\n      swap1\n      0x20\n      add\n      swap1\n      dup3\n      add\n      dup1\n      calldataload\n      swap1\n      0x20\n      add\n      swap1\n      dup1\n      dup1\n      0x1f\n      add\n      0x20\n      dup1\n      swap2\n      div\n      mul\n      0x20\n      add\n      mload(0x40)\n      swap1\n      dup2\n      add\n      0x40\n      mstore\n      dup1\n      swap4\n      swap3\n      swap2\n      swap1\n      dup2\n      dup2\n      mstore\n      0x20\n      add\n      dup4\n      dup4\n      dup1\n      dup3\n      dup5\n      calldatacopy\n      dup3\n      add\n      swap2\n      pop\n      pop\n      pop\n      pop\n      pop\n      pop\n      swap2\n      swap1\n      dup1\n      calldataload\n      swap1\n      0x20\n      add\n      swap1\n      dup3\n      add\n      dup1\n      calldataload\n      swap1\n      0x20\n      add\n      swap1\n      dup1\n      dup1\n      0x1f\n      add\n      0x20\n      dup1\n      swap2\n      div\n      mul\n      0x20\n      add\n      mload(0x40)\n      swap1\n      dup2\n      add\n      0x40\n      mstore\n      dup1\n      swap4\n      swap3\n      swap2\n      swap1\n      dup2\n      dup2\n      mstore\n      0x20\n      add\n      dup4\n      dup4\n      dup1\n      dup3\n      dup5\n      calldatacopy\n      dup3\n      add\n      swap2\n      pop\n      pop\n      pop\n      pop\n      pop\n      pop\n      swap2\n      swap1\n      dup1\n      calldataload\n      swap1\n      0x20\n      add\n      swap1\n      dup3\n      add\n      dup1\n      calldataload\n      swap1\n      0x20\n      add\n      swap1\n      dup1\n      dup1\n      0x1f\n      add\n      0x20\n      dup1\n      swap2\n      div\n      mul\n      0x20\n      add\n      mload(0x40)\n      swap1\n      dup2\n      add\n      0x40\n      mstore\n      dup1\n      swap4\n      swap3\n      swap2\n      swap1\n      dup2\n      dup2\n      mstore\n      0x20\n      add\n      dup4\n      dup4\n      dup1\n      dup3\n      dup5\n      calldatacopy\n      dup3\n      add\n      swap2\n      pop\n      pop\n      pop\n      pop\n      pop\n      pop\n      swap2\n      swap1\n      dup1\n      calldataload\n      swap1\n      0x20\n      add\n      swap1\n      swap2\n      swap1\n      pop\n      pop\n      jump(tag_43)\n    tag_42:\n      stop\n        /* \"contracts/BoxV2.sol\":2879:3797  function issueNewDevice(string deviceIMEI, uint studentIndex, uint otp, uint vendorIndex, uint amount, string remark) public payable {\r... */\n    tag_7:\n      tag_44\n      0x4\n      dup1\n      dup1\n      calldataload\n      swap1\n      0x20\n      add\n      swap1\n      dup3\n      add\n      dup1\n      calldataload\n      swap1\n      0x20\n      add\n      swap1\n      dup1\n      dup1\n      0x1f\n      add\n      0x20\n      dup1\n      swap2\n      div\n      mul\n      0x20\n      add\n      mload(0x40)\n      swap1\n      dup2\n      add\n      0x40\n      mstore\n      dup1\n      swap4\n      swap3\n      swap2\n      swap1\n      dup2\n      dup2\n      mstore\n      0x20\n      add\n      dup4\n      dup4\n      dup1\n      dup3\n      dup5\n      calldatacopy\n      dup3\n      add\n      swap2\n      pop\n      pop\n      pop\n      pop\n      pop\n      pop\n      swap2\n      swap1\n      dup1\n      calldataload\n      swap1\n      0x20\n      add\n      swap1\n      swap2\n      swap1\n      dup1\n      calldataload\n      swap1\n      0x20\n      add\n      swap1\n      swap2\n      swap1\n      dup1\n      calldataload\n      swap1\n      0x20\n      add\n      swap1\n      swap2\n      swap1\n      dup1\n      calldataload\n      swap1\n      0x20\n      add\n      swap1\n      swap2\n      swap1\n      dup1\n      calldataload\n      swap1\n      0x20\n      add\n      swap1\n      dup3\n      add\n      dup1\n      calldataload\n      swap1\n      0x20\n      add\n      swap1\n      dup1\n      dup1\n      0x1f\n      add\n      0x20\n      dup1\n      swap2\n      div\n      mul\n      0x20\n      add\n      mload(0x40)\n      swap1\n      dup2\n      add\n      0x40\n      mstore\n      dup1\n      swap4\n      swap3\n      swap2\n      swap1\n      dup2\n      dup2\n      mstore\n      0x20\n      add\n      dup4\n      dup4\n      dup1\n      dup3\n      dup5\n      calldatacopy\n      dup3\n      add\n      swap2\n      pop\n      pop\n      pop\n      pop\n      pop\n      pop\n      swap2\n      swap1\n      pop\n      pop\n      jump(tag_45)\n    tag_44:\n      stop\n        /* \"contracts/BoxV2.sol\":481:503  address public manager */\n    tag_8:\n      jumpi(tag_46, iszero(callvalue))\n      0x0\n      dup1\n      revert\n    tag_46:\n      tag_47\n      jump(tag_48)\n    tag_47:\n      mload(0x40)\n      tag_49\n      swap2\n      swap1\n      jump(tag_50)\n    tag_49:\n      mload(0x40)\n      dup1\n      swap2\n      sub\n      swap1\n      return\n        /* \"contracts/BoxV2.sol\":4299:4391  function getListOfVendors() public view returns (Vendor[]) {\r... */\n    tag_9:\n      jumpi(tag_51, iszero(callvalue))\n      0x0\n      dup1\n      revert\n    tag_51:\n      tag_52\n      jump(tag_53)\n    tag_52:\n      mload(0x40)\n      tag_54\n      swap2\n      swap1\n      jump(tag_55)\n    tag_54:\n      mload(0x40)\n      dup1\n      swap2\n      sub\n      swap1\n      return\n        /* \"contracts/BoxV2.sol\":412:440  Depositer[] public depositer */\n    tag_10:\n      jumpi(tag_56, iszero(callvalue))\n      0x0\n      dup1\n      revert\n    tag_56:\n      tag_57\n      0x4\n      dup1\n      dup1\n      calldataload\n      swap1\n      0x20\n      add\n      swap1\n      swap2\n      swap1\n      pop\n      pop\n      jump(tag_58)\n    tag_57:\n      mload(0x40)\n      tag_59\n      swap3\n      swap2\n      swap1\n      jump(tag_60)\n    tag_59:\n      mload(0x40)\n      dup1\n      swap2\n      sub\n      swap1\n      return\n        /* \"contracts/BoxV2.sol\":1622:2148  function registerStudent(string name, uint rollNo, uint score, string dob) public payable {\r... */\n    tag_11:\n      tag_61\n      0x4\n      dup1\n      dup1\n      calldataload\n      swap1\n      0x20\n      add\n      swap1\n      dup3\n      add\n      dup1\n      calldataload\n      swap1\n      0x20\n      add\n      swap1\n      dup1\n      dup1\n      0x1f\n      add\n      0x20\n      dup1\n      swap2\n      div\n      mul\n      0x20\n      add\n      mload(0x40)\n      swap1\n      dup2\n      add\n      0x40\n      mstore\n      dup1\n      swap4\n      swap3\n      swap2\n      swap1\n      dup2\n      dup2\n      mstore\n      0x20\n      add\n      dup4\n      dup4\n      dup1\n      dup3\n      dup5\n      calldatacopy\n      dup3\n      add\n      swap2\n      pop\n      pop\n      pop\n      pop\n      pop\n      pop\n      swap2\n      swap1\n      dup1\n      calldataload\n      swap1\n      0x20\n      add\n      swap1\n      swap2\n      swap1\n      dup1\n      calldataload\n      swap1\n      0x20\n      add\n      swap1\n      swap2\n      swap1\n      dup1\n      calldataload\n      swap1\n      0x20\n      add\n      swap1\n      dup3\n      add\n      dup1\n      calldataload\n      swap1\n      0x20\n      add\n      swap1\n      dup1\n      dup1\n      0x1f\n      add\n      0x20\n      dup1\n      swap2\n      div\n      mul\n      0x20\n      add\n      mload(0x40)\n      swap1\n      dup2\n      add\n      0x40\n      mstore\n      dup1\n      swap4\n      swap3\n      swap2\n      swap1\n      dup2\n      dup2\n      mstore\n      0x20\n      add\n      dup4\n      dup4\n      dup1\n      dup3\n      dup5\n      calldatacopy\n      dup3\n      add\n      swap2\n      pop\n      pop\n      pop\n      pop\n      pop\n      pop\n      swap2\n      swap1\n      pop\n      pop\n      jump(tag_62)\n    tag_61:\n      stop\n        /* \"contracts/BoxV2.sol\":3805:4042  function approveVendor(uint vendorIndex) public payable {\r... */\n    tag_12:\n      tag_63\n      0x4\n      dup1\n      dup1\n      calldataload\n      swap1\n      0x20\n      add\n      swap1\n      swap2\n      swap1\n      pop\n      pop\n      jump(tag_64)\n    tag_63:\n      stop\n        /* \"contracts/BoxV2.sol\":4399:4504  function getListOfDeviceIssue() public view returns (DeviceIssue[]) {\r... */\n    tag_13:\n      jumpi(tag_65, iszero(callvalue))\n      0x0\n      dup1\n      revert\n    tag_65:\n      tag_66\n      jump(tag_67)\n    tag_66:\n      mload(0x40)\n      tag_68\n      swap2\n      swap1\n      jump(tag_69)\n    tag_68:\n      mload(0x40)\n      dup1\n      swap2\n      sub\n      swap1\n      return\n        /* \"contracts/BoxV2.sol\":1130:1153  Vendor[] public vendors */\n    tag_14:\n      jumpi(tag_70, iszero(callvalue))\n      0x0\n      dup1\n      revert\n    tag_70:\n      tag_71\n      0x4\n      dup1\n      dup1\n      calldataload\n      swap1\n      0x20\n      add\n      swap1\n      swap2\n      swap1\n      pop\n      pop\n      jump(tag_72)\n    tag_71:\n      mload(0x40)\n      tag_73\n      swap10\n      swap9\n      swap8\n      swap7\n      swap6\n      swap5\n      swap4\n      swap3\n      swap2\n      swap1\n      jump(tag_74)\n    tag_73:\n      mload(0x40)\n      dup1\n      swap2\n      sub\n      swap1\n      return\n        /* \"contracts/BoxV2.sol\":510:542  address[] public rechargeAddress */\n    tag_15:\n      jumpi(tag_75, iszero(callvalue))\n      0x0\n      dup1\n      revert\n    tag_75:\n      tag_76\n      0x4\n      dup1\n      dup1\n      calldataload\n      swap1\n      0x20\n      add\n      swap1\n      swap2\n      swap1\n      pop\n      pop\n      jump(tag_77)\n    tag_76:\n      mload(0x40)\n      tag_78\n      swap2\n      swap1\n      jump(tag_50)\n    tag_78:\n      mload(0x40)\n      dup1\n      swap2\n      sub\n      swap1\n      return\n        /* \"contracts/BoxV2.sol\":615:633  uint public amount */\n    tag_16:\n      jumpi(tag_79, iszero(callvalue))\n      0x0\n      dup1\n      revert\n    tag_79:\n      tag_80\n      jump(tag_81)\n    tag_80:\n      mload(0x40)\n      tag_82\n      swap2\n      swap1\n      jump(tag_41)\n    tag_82:\n      mload(0x40)\n      dup1\n      swap2\n      sub\n      swap1\n      return\n        /* \"contracts/BoxV2.sol\":584:608  uint public minimumScore */\n    tag_17:\n      jumpi(tag_83, iszero(callvalue))\n      0x0\n      dup1\n      revert\n    tag_83:\n      tag_84\n      jump(tag_85)\n    tag_84:\n      mload(0x40)\n      tag_86\n      swap2\n      swap1\n      jump(tag_41)\n    tag_86:\n      mload(0x40)\n      dup1\n      swap2\n      sub\n      swap1\n      return\n        /* \"contracts/BoxV2.sol\":1514:1614  function getListOfDepositors() public view returns (Depositer[]) {\r... */\n    tag_18:\n      jumpi(tag_87, iszero(callvalue))\n      0x0\n      dup1\n      revert\n    tag_87:\n      tag_88\n      jump(tag_89)\n    tag_88:\n      mload(0x40)\n      tag_90\n      swap2\n      swap1\n      jump(tag_91)\n    tag_90:\n      mload(0x40)\n      dup1\n      swap2\n      sub\n      swap1\n      return\n        /* \"contracts/BoxV2.sol\":4050:4287  function rejectVendor(uint vendorIndex) public payable {\r... */\n    tag_19:\n      tag_92\n      0x4\n      dup1\n      dup1\n      calldataload\n      swap1\n      0x20\n      add\n      swap1\n      swap2\n      swap1\n      pop\n      pop\n      jump(tag_93)\n    tag_92:\n      stop\n        /* \"contracts/BoxV2.sol\":1201:1280  function Scholarship() public {\r... */\n    tag_20:\n      jumpi(tag_94, iszero(callvalue))\n      0x0\n      dup1\n      revert\n    tag_94:\n      tag_95\n      jump(tag_96)\n    tag_95:\n      stop\n        /* \"contracts/BoxV2.sol\":1291:1506  function enter() public payable {\r... */\n    tag_21:\n      tag_97\n      jump(tag_98)\n    tag_97:\n      stop\n        /* \"contracts/BoxV2.sol\":447:472  Student[] public students */\n    tag_24:\n      0x1\n      dup2\n      dup2\n      sload\n      dup2\n      lt\n      iszero\n      iszero\n      tag_99\n      jumpi\n      invalid\n    tag_99:\n      swap1\n      0x0\n      mstore\n      keccak256(0x0, 0x20)\n      swap1\n      0x8\n      mul\n      add\n      0x0\n      swap2\n      pop\n      swap1\n      pop\n      dup1\n      0x0\n      add\n      sload\n      swap1\n      dup1\n      0x1\n      add\n      swap1\n      dup1\n      0x2\n      add\n      sload\n      swap1\n      dup1\n      0x3\n      add\n      swap1\n      dup1\n      0x4\n      add\n      sload\n      swap1\n      dup1\n      0x5\n      add\n      0x0\n      swap1\n      sload\n      swap1\n      0x100\n      exp\n      swap1\n      div\n      0xff\n      and\n      swap1\n      dup1\n      0x5\n      add\n      0x1\n      swap1\n      sload\n      swap1\n      0x100\n      exp\n      swap1\n      div\n      0xffffffffffffffffffffffffffffffffffffffff\n      and\n      swap1\n      dup1\n      0x6\n      add\n      sload\n      swap1\n      dup1\n      0x7\n      add\n      sload\n      swap1\n      pop\n      dup10\n      jump\t// out\n        /* \"contracts/BoxV2.sol\":2156:2251  function getListOfStudents() public view returns (Student[]) {\r... */\n    tag_29:\n        /* \"contracts/BoxV2.sol\":2206:2215  Student[] */\n      tag_101\n      jump\t// in(tag_102)\n    tag_101:\n        /* \"contracts/BoxV2.sol\":2235:2243  students */\n      0x1\n        /* \"contracts/BoxV2.sol\":2228:2243  return students */\n      dup1\n      sload\n      dup1\n      0x20\n      mul\n      0x20\n      add\n      mload(0x40)\n      swap1\n      dup2\n      add\n      0x40\n      mstore\n      dup1\n      swap3\n      swap2\n      swap1\n      dup2\n      dup2\n      mstore\n      0x20\n      add\n      0x0\n      swap1\n    tag_104:\n      dup3\n      dup3\n      lt\n      iszero\n      tag_105\n      jumpi\n      dup4\n      dup3\n      swap1\n      0x0\n      mstore\n      keccak256(0x0, 0x20)\n      swap1\n      0x8\n      mul\n      add\n      0x120\n      mload(0x40)\n      swap1\n      dup2\n      add\n      0x40\n      mstore\n      swap1\n      dup2\n      0x0\n      dup3\n      add\n      sload\n      dup2\n      mstore\n      0x20\n      add\n      0x1\n      dup3\n      add\n      dup1\n      sload\n      0x1\n      dup2\n      0x1\n      and\n      iszero\n      0x100\n      mul\n      sub\n      and\n      0x2\n      swap1\n      div\n      dup1\n      0x1f\n      add\n      0x20\n      dup1\n      swap2\n      div\n      mul\n      0x20\n      add\n      mload(0x40)\n      swap1\n      dup2\n      add\n      0x40\n      mstore\n      dup1\n      swap3\n      swap2\n      swap1\n      dup2\n      dup2\n      mstore\n      0x20\n      add\n      dup3\n      dup1\n      sload\n      0x1\n      dup2\n      0x1\n      and\n      iszero\n      0x100\n      mul\n      sub\n      and\n      0x2\n      swap1\n      div\n      dup1\n      iszero\n      tag_107\n      jumpi\n      dup1\n      0x1f\n      lt\n      tag_108\n      jumpi\n      0x100\n      dup1\n      dup4\n      sload\n      div\n      mul\n      dup4\n      mstore\n      swap2\n      0x20\n      add\n      swap2\n      jump(tag_107)\n    tag_108:\n      dup3\n      add\n      swap2\n      swap1\n      0x0\n      mstore\n      keccak256(0x0, 0x20)\n      swap1\n    tag_109:\n      dup2\n      sload\n      dup2\n      mstore\n      swap1\n      0x1\n      add\n      swap1\n      0x20\n      add\n      dup1\n      dup4\n      gt\n      tag_109\n      jumpi\n      dup3\n      swap1\n      sub\n      0x1f\n      and\n      dup3\n      add\n      swap2\n    tag_107:\n      pop\n      pop\n      pop\n      pop\n      pop\n      dup2\n      mstore\n      0x20\n      add\n      0x2\n      dup3\n      add\n      sload\n      dup2\n      mstore\n      0x20\n      add\n      0x3\n      dup3\n      add\n      dup1\n      sload\n      0x1\n      dup2\n      0x1\n      and\n      iszero\n      0x100\n      mul\n      sub\n      and\n      0x2\n      swap1\n      div\n      dup1\n      0x1f\n      add\n      0x20\n      dup1\n      swap2\n      div\n      mul\n      0x20\n      add\n      mload(0x40)\n      swap1\n      dup2\n      add\n      0x40\n      mstore\n      dup1\n      swap3\n      swap2\n      swap1\n      dup2\n      dup2\n      mstore\n      0x20\n      add\n      dup3\n      dup1\n      sload\n      0x1\n      dup2\n      0x1\n      and\n      iszero\n      0x100\n      mul\n      sub\n      and\n      0x2\n      swap1\n      div\n      dup1\n      iszero\n      tag_110\n      jumpi\n      dup1\n      0x1f\n      lt\n      tag_111\n      jumpi\n      0x100\n      dup1\n      dup4\n      sload\n      div\n      mul\n      dup4\n      mstore\n      swap2\n      0x20\n      add\n      swap2\n      jump(tag_110)\n    tag_111:\n      dup3\n      add\n      swap2\n      swap1\n      0x0\n      mstore\n      keccak256(0x0, 0x20)\n      swap1\n    tag_112:\n      dup2\n      sload\n      dup2\n      mstore\n      swap1\n      0x1\n      add\n      swap1\n      0x20\n      add\n      dup1\n      dup4\n      gt\n      tag_112\n      jumpi\n      dup3\n      swap1\n      sub\n      0x1f\n      and\n      dup3\n      add\n      swap2\n    tag_110:\n      pop\n      pop\n      pop\n      pop\n      pop\n      dup2\n      mstore\n      0x20\n      add\n      0x4\n      dup3\n      add\n      sload\n      dup2\n      mstore\n      0x20\n      add\n      0x5\n      dup3\n      add\n      0x0\n      swap1\n      sload\n      swap1\n      0x100\n      exp\n      swap1\n      div\n      0xff\n      and\n      iszero\n      iszero\n      iszero\n      iszero\n      dup2\n      mstore\n      0x20\n      add\n      0x5\n      dup3\n      add\n      0x1\n      swap1\n      sload\n      swap1\n      0x100\n      exp\n      swap1\n      div\n      0xffffffffffffffffffffffffffffffffffffffff\n      and\n      0xffffffffffffffffffffffffffffffffffffffff\n      and\n      0xffffffffffffffffffffffffffffffffffffffff\n      and\n      dup2\n      mstore\n      0x20\n      add\n      0x6\n      dup3\n      add\n      sload\n      dup2\n      mstore\n      0x20\n      add\n      0x7\n      dup3\n      add\n      sload\n      dup2\n      mstore\n      pop\n      pop\n      dup2\n      mstore\n      0x20\n      add\n      swap1\n      0x1\n      add\n      swap1\n      jump(tag_104)\n    tag_105:\n      pop\n      pop\n      pop\n      pop\n      swap1\n      pop\n        /* \"contracts/BoxV2.sol\":2156:2251  function getListOfStudents() public view returns (Student[]) {\r... */\n      swap1\n      jump\t// out\n        /* \"contracts/BoxV2.sol\":1160:1192  DeviceIssue[] public deviceIssue */\n    tag_34:\n      0x8\n      dup2\n      dup2\n      sload\n      dup2\n      lt\n      iszero\n      iszero\n      tag_113\n      jumpi\n      invalid\n    tag_113:\n      swap1\n      0x0\n      mstore\n      keccak256(0x0, 0x20)\n      swap1\n      0x7\n      mul\n      add\n      0x0\n      swap2\n      pop\n      swap1\n      pop\n      dup1\n      0x0\n      add\n      swap1\n      dup1\n      0x1\n      add\n      swap1\n      dup1\n      0x2\n      add\n      sload\n      swap1\n      dup1\n      0x3\n      add\n      sload\n      swap1\n      dup1\n      0x4\n      add\n      swap1\n      dup1\n      0x5\n      add\n      sload\n      swap1\n      dup1\n      0x6\n      add\n      swap1\n      pop\n      dup8\n      jump\t// out\n        /* \"contracts/BoxV2.sol\":549:577  uint public scholarshipAmout */\n    tag_39:\n      sload(0x4)\n      dup2\n      jump\t// out\n        /* \"contracts/BoxV2.sol\":2350:2863  function registerVendor(string name, string registrationNo, string vendorAddress, uint pincode) public payable {\r... */\n    tag_43:\n        /* \"contracts/BoxV2.sol\":2472:2495  Vendor memory newVendor */\n      tag_115\n      jump\t// in(tag_116)\n    tag_115:\n        /* \"contracts/BoxV2.sol\":2498:2821  Vendor({\r... */\n      0x120\n      mload(0x40)\n      swap1\n      dup2\n      add\n      0x40\n      mstore\n      dup1\n        /* \"contracts/BoxV2.sol\":2525:2532  vendors */\n      0x7\n        /* \"contracts/BoxV2.sol\":2525:2539  vendors.length */\n      dup1\n      sload\n      swap1\n      pop\n        /* \"contracts/BoxV2.sol\":2498:2821  Vendor({\r... */\n      dup2\n      mstore\n      0x20\n      add\n        /* \"contracts/BoxV2.sol\":2559:2563  name */\n      dup7\n        /* \"contracts/BoxV2.sol\":2498:2821  Vendor({\r... */\n      dup2\n      mstore\n      0x20\n      add\n        /* \"contracts/BoxV2.sol\":2593:2607  registrationNo */\n      dup6\n        /* \"contracts/BoxV2.sol\":2498:2821  Vendor({\r... */\n      dup2\n      mstore\n      0x20\n      add\n        /* \"contracts/BoxV2.sol\":2636:2649  vendorAddress */\n      dup5\n        /* \"contracts/BoxV2.sol\":2498:2821  Vendor({\r... */\n      dup2\n      mstore\n      0x20\n      add\n        /* \"contracts/BoxV2.sol\":2672:2679  pincode */\n      dup4\n        /* \"contracts/BoxV2.sol\":2498:2821  Vendor({\r... */\n      dup2\n      mstore\n      0x20\n      add\n        /* \"contracts/BoxV2.sol\":2714:2724  msg.sender */\n      caller\n        /* \"contracts/BoxV2.sol\":2498:2821  Vendor({\r... */\n      0xffffffffffffffffffffffffffffffffffffffff\n      and\n      dup2\n      mstore\n      0x20\n      add\n        /* \"contracts/BoxV2.sol\":2746:2751  false */\n      0x0\n        /* \"contracts/BoxV2.sol\":2498:2821  Vendor({\r... */\n      iszero\n      iszero\n      dup2\n      mstore\n      0x20\n      add\n        /* \"contracts/BoxV2.sol\":2782:2786  0X00 */\n      0x0\n        /* \"contracts/BoxV2.sol\":2498:2821  Vendor({\r... */\n      0xffffffffffffffffffffffffffffffffffffffff\n      and\n      dup2\n      mstore\n      0x20\n      add\n        /* \"contracts/BoxV2.sol\":2808:2809  0 */\n      0x0\n        /* \"contracts/BoxV2.sol\":2498:2821  Vendor({\r... */\n      dup2\n      mstore\n      pop\n        /* \"contracts/BoxV2.sol\":2472:2821  Vendor memory newVendor = Vendor({\r... */\n      swap1\n      pop\n        /* \"contracts/BoxV2.sol\":2832:2839  vendors */\n      0x7\n        /* \"contracts/BoxV2.sol\":2832:2855  vendors.push(newVendor) */\n      dup1\n      sload\n      dup1\n      0x1\n      add\n      dup3\n      dup2\n      tag_118\n      swap2\n      swap1\n      jump\t// in(tag_119)\n    tag_118:\n      swap2\n      0x0\n      mstore\n      keccak256(0x0, 0x20)\n      swap1\n      0x8\n      mul\n      add\n      0x0\n        /* \"contracts/BoxV2.sol\":2845:2854  newVendor */\n      dup4\n        /* \"contracts/BoxV2.sol\":2832:2855  vendors.push(newVendor) */\n      swap1\n      swap2\n      swap1\n      swap2\n      pop\n      0x0\n      dup3\n      add\n      mload\n      dup2\n      0x0\n      add\n      sstore\n      0x20\n      dup3\n      add\n      mload\n      dup2\n      0x1\n      add\n      swap1\n      dup1\n      mload\n      swap1\n      0x20\n      add\n      swap1\n      tag_121\n      swap3\n      swap2\n      swap1\n      jump\t// in(tag_122)\n    tag_121:\n      pop\n      0x40\n      dup3\n      add\n      mload\n      dup2\n      0x2\n      add\n      swap1\n      dup1\n      mload\n      swap1\n      0x20\n      add\n      swap1\n      tag_123\n      swap3\n      swap2\n      swap1\n      jump\t// in(tag_122)\n    tag_123:\n      pop\n      0x60\n      dup3\n      add\n      mload\n      dup2\n      0x3\n      add\n      swap1\n      dup1\n      mload\n      swap1\n      0x20\n      add\n      swap1\n      tag_124\n      swap3\n      swap2\n      swap1\n      jump\t// in(tag_122)\n    tag_124:\n      pop\n      0x80\n      dup3\n      add\n      mload\n      dup2\n      0x4\n      add\n      sstore\n      0xa0\n      dup3\n      add\n      mload\n      dup2\n      0x5\n      add\n      exp(0x100, 0x0)\n      dup2\n      sload\n      dup2\n      0xffffffffffffffffffffffffffffffffffffffff\n      mul\n      not\n      and\n      swap1\n      dup4\n      0xffffffffffffffffffffffffffffffffffffffff\n      and\n      mul\n      or\n      swap1\n      sstore\n      pop\n      0xc0\n      dup3\n      add\n      mload\n      dup2\n      0x5\n      add\n      exp(0x100, 0x14)\n      dup2\n      sload\n      dup2\n      0xff\n      mul\n      not\n      and\n      swap1\n      dup4\n      iszero\n      iszero\n      mul\n      or\n      swap1\n      sstore\n      pop\n      0xe0\n      dup3\n      add\n      mload\n      dup2\n      0x6\n      add\n      exp(0x100, 0x0)\n      dup2\n      sload\n      dup2\n      0xffffffffffffffffffffffffffffffffffffffff\n      mul\n      not\n      and\n      swap1\n      dup4\n      0xffffffffffffffffffffffffffffffffffffffff\n      and\n      mul\n      or\n      swap1\n      sstore\n      pop\n      0x100\n      dup3\n      add\n      mload\n      dup2\n      0x7\n      add\n      sstore\n      pop\n      pop\n      pop\n        /* \"contracts/BoxV2.sol\":2350:2863  function registerVendor(string name, string registrationNo, string vendorAddress, uint pincode) public payable {\r... */\n      pop\n      pop\n      pop\n      pop\n      pop\n      jump\t// out\n        /* \"contracts/BoxV2.sol\":2879:3797  function issueNewDevice(string deviceIMEI, uint studentIndex, uint otp, uint vendorIndex, uint amount, string remark) public payable {\r... */\n    tag_45:\n        /* \"contracts/BoxV2.sol\":3025:3053  Student storage studentsData */\n      0x0\n        /* \"contracts/BoxV2.sol\":3089:3121  Vendor storage currentVendorData */\n      dup1\n        /* \"contracts/BoxV2.sol\":3254:3287  DeviceIssue memory issueNewDevice */\n      tag_125\n      jump\t// in(tag_126)\n    tag_125:\n        /* \"contracts/BoxV2.sol\":3056:3064  students */\n      0x1\n        /* \"contracts/BoxV2.sol\":3065:3077  studentIndex */\n      dup9\n        /* \"contracts/BoxV2.sol\":3056:3078  students[studentIndex] */\n      dup2\n      sload\n      dup2\n      lt\n      iszero\n      iszero\n      tag_128\n      jumpi\n      invalid\n    tag_128:\n      swap1\n      0x0\n      mstore\n      keccak256(0x0, 0x20)\n      swap1\n      0x8\n      mul\n      add\n        /* \"contracts/BoxV2.sol\":3025:3078  Student storage studentsData = students[studentIndex] */\n      swap3\n      pop\n        /* \"contracts/BoxV2.sol\":3124:3131  vendors */\n      0x7\n        /* \"contracts/BoxV2.sol\":3132:3143  vendorIndex */\n      dup7\n        /* \"contracts/BoxV2.sol\":3124:3144  vendors[vendorIndex] */\n      dup2\n      sload\n      dup2\n      lt\n      iszero\n      iszero\n      tag_130\n      jumpi\n      invalid\n    tag_130:\n      swap1\n      0x0\n      mstore\n      keccak256(0x0, 0x20)\n      swap1\n      0x8\n      mul\n      add\n        /* \"contracts/BoxV2.sol\":3089:3144  Vendor storage currentVendorData = vendors[vendorIndex] */\n      swap2\n      pop\n        /* \"contracts/BoxV2.sol\":3185:3188  otp */\n      dup7\n        /* \"contracts/BoxV2.sol\":3165:3177  studentsData */\n      dup4\n        /* \"contracts/BoxV2.sol\":3165:3181  studentsData.otp */\n      0x7\n      add\n      sload\n        /* \"contracts/BoxV2.sol\":3165:3188  studentsData.otp == otp */\n      eq\n        /* \"contracts/BoxV2.sol\":3157:3189  require(studentsData.otp == otp) */\n      iszero\n      iszero\n      tag_132\n      jumpi\n      0x0\n      dup1\n      revert\n    tag_132:\n        /* \"contracts/BoxV2.sol\":3236:3240  true */\n      0x1\n        /* \"contracts/BoxV2.sol\":3208:3240  currentVendorData.status == true */\n      iszero\n      iszero\n        /* \"contracts/BoxV2.sol\":3208:3225  currentVendorData */\n      dup3\n        /* \"contracts/BoxV2.sol\":3208:3232  currentVendorData.status */\n      0x5\n      add\n      0x14\n      swap1\n      sload\n      swap1\n      0x100\n      exp\n      swap1\n      div\n      0xff\n      and\n        /* \"contracts/BoxV2.sol\":3208:3240  currentVendorData.status == true */\n      iszero\n      iszero\n      eq\n        /* \"contracts/BoxV2.sol\":3200:3241  require(currentVendorData.status == true) */\n      iszero\n      iszero\n      tag_133\n      jumpi\n      0x0\n      dup1\n      revert\n    tag_133:\n        /* \"contracts/BoxV2.sol\":3290:3570  DeviceIssue({\r... */\n      0xe0\n      mload(0x40)\n      swap1\n      dup2\n      add\n      0x40\n      mstore\n      dup1\n        /* \"contracts/BoxV2.sol\":3322:3334  studentsData */\n      dup5\n        /* \"contracts/BoxV2.sol\":3322:3339  studentsData.name */\n      0x1\n      add\n        /* \"contracts/BoxV2.sol\":3290:3570  DeviceIssue({\r... */\n      dup1\n      sload\n      0x1\n      dup2\n      0x1\n      and\n      iszero\n      0x100\n      mul\n      sub\n      and\n      0x2\n      swap1\n      div\n      dup1\n      0x1f\n      add\n      0x20\n      dup1\n      swap2\n      div\n      mul\n      0x20\n      add\n      mload(0x40)\n      swap1\n      dup2\n      add\n      0x40\n      mstore\n      dup1\n      swap3\n      swap2\n      swap1\n      dup2\n      dup2\n      mstore\n      0x20\n      add\n      dup3\n      dup1\n      sload\n      0x1\n      dup2\n      0x1\n      and\n      iszero\n      0x100\n      mul\n      sub\n      and\n      0x2\n      swap1\n      div\n      dup1\n      iszero\n      tag_134\n      jumpi\n      dup1\n      0x1f\n      lt\n      tag_135\n      jumpi\n      0x100\n      dup1\n      dup4\n      sload\n      div\n      mul\n      dup4\n      mstore\n      swap2\n      0x20\n      add\n      swap2\n      jump(tag_134)\n    tag_135:\n      dup3\n      add\n      swap2\n      swap1\n      0x0\n      mstore\n      keccak256(0x0, 0x20)\n      swap1\n    tag_136:\n      dup2\n      sload\n      dup2\n      mstore\n      swap1\n      0x1\n      add\n      swap1\n      0x20\n      add\n      dup1\n      dup4\n      gt\n      tag_136\n      jumpi\n      dup3\n      swap1\n      sub\n      0x1f\n      and\n      dup3\n      add\n      swap2\n    tag_134:\n      pop\n      pop\n      pop\n      pop\n      pop\n      dup2\n      mstore\n      0x20\n      add\n        /* \"contracts/BoxV2.sol\":3508:3525  currentVendorData */\n      dup4\n        /* \"contracts/BoxV2.sol\":3508:3530  currentVendorData.name */\n      0x1\n      add\n        /* \"contracts/BoxV2.sol\":3290:3570  DeviceIssue({\r... */\n      dup1\n      sload\n      0x1\n      dup2\n      0x1\n      and\n      iszero\n      0x100\n      mul\n      sub\n      and\n      0x2\n      swap1\n      div\n      dup1\n      0x1f\n      add\n      0x20\n      dup1\n      swap2\n      div\n      mul\n      0x20\n      add\n      mload(0x40)\n      swap1\n      dup2\n      add\n      0x40\n      mstore\n      dup1\n      swap3\n      swap2\n      swap1\n      dup2\n      dup2\n      mstore\n      0x20\n      add\n      dup3\n      dup1\n      sload\n      0x1\n      dup2\n      0x1\n      and\n      iszero\n      0x100\n      mul\n      sub\n      and\n      0x2\n      swap1\n      div\n      dup1\n      iszero\n      tag_137\n      jumpi\n      dup1\n      0x1f\n      lt\n      tag_138\n      jumpi\n      0x100\n      dup1\n      dup4\n      sload\n      div\n      mul\n      dup4\n      mstore\n      swap2\n      0x20\n      add\n      swap2\n      jump(tag_137)\n    tag_138:\n      dup3\n      add\n      swap2\n      swap1\n      0x0\n      mstore\n      keccak256(0x0, 0x20)\n      swap1\n    tag_139:\n      dup2\n      sload\n      dup2\n      mstore\n      swap1\n      0x1\n      add\n      swap1\n      0x20\n      add\n      dup1\n      dup4\n      gt\n      tag_139\n      jumpi\n      dup3\n      swap1\n      sub\n      0x1f\n      and\n      dup3\n      add\n      swap2\n    tag_137:\n      pop\n      pop\n      pop\n      pop\n      pop\n      dup2\n      mstore\n      0x20\n      add\n        /* \"contracts/BoxV2.sol\":3471:3482  vendorIndex */\n      dup8\n        /* \"contracts/BoxV2.sol\":3290:3570  DeviceIssue({\r... */\n      dup2\n      mstore\n      0x20\n      add\n        /* \"contracts/BoxV2.sol\":3361:3373  studentsData */\n      dup5\n        /* \"contracts/BoxV2.sol\":3361:3380  studentsData.rollNo */\n      0x2\n      add\n      sload\n        /* \"contracts/BoxV2.sol\":3290:3570  DeviceIssue({\r... */\n      dup2\n      mstore\n      0x20\n      add\n        /* \"contracts/BoxV2.sol\":3406:3416  deviceIMEI */\n      dup11\n        /* \"contracts/BoxV2.sol\":3290:3570  DeviceIssue({\r... */\n      dup2\n      mstore\n      0x20\n      add\n        /* \"contracts/BoxV2.sol\":3438:3444  amount */\n      dup7\n        /* \"contracts/BoxV2.sol\":3290:3570  DeviceIssue({\r... */\n      dup2\n      mstore\n      0x20\n      add\n        /* \"contracts/BoxV2.sol\":3552:3558  remark */\n      dup6\n        /* \"contracts/BoxV2.sol\":3290:3570  DeviceIssue({\r... */\n      dup2\n      mstore\n      pop\n        /* \"contracts/BoxV2.sol\":3254:3570  DeviceIssue memory issueNewDevice = DeviceIssue({\r... */\n      swap1\n      pop\n        /* \"contracts/BoxV2.sol\":3581:3592  deviceIssue */\n      0x8\n        /* \"contracts/BoxV2.sol\":3581:3613  deviceIssue.push(issueNewDevice) */\n      dup1\n      sload\n      dup1\n      0x1\n      add\n      dup3\n      dup2\n      tag_140\n      swap2\n      swap1\n      jump\t// in(tag_141)\n    tag_140:\n      swap2\n      0x0\n      mstore\n      keccak256(0x0, 0x20)\n      swap1\n      0x7\n      mul\n      add\n      0x0\n        /* \"contracts/BoxV2.sol\":3598:3612  issueNewDevice */\n      dup4\n        /* \"contracts/BoxV2.sol\":3581:3613  deviceIssue.push(issueNewDevice) */\n      swap1\n      swap2\n      swap1\n      swap2\n      pop\n      0x0\n      dup3\n      add\n      mload\n      dup2\n      0x0\n      add\n      swap1\n      dup1\n      mload\n      swap1\n      0x20\n      add\n      swap1\n      tag_143\n      swap3\n      swap2\n      swap1\n      jump\t// in(tag_122)\n    tag_143:\n      pop\n      0x20\n      dup3\n      add\n      mload\n      dup2\n      0x1\n      add\n      swap1\n      dup1\n      mload\n      swap1\n      0x20\n      add\n      swap1\n      tag_144\n      swap3\n      swap2\n      swap1\n      jump\t// in(tag_122)\n    tag_144:\n      pop\n      0x40\n      dup3\n      add\n      mload\n      dup2\n      0x2\n      add\n      sstore\n      0x60\n      dup3\n      add\n      mload\n      dup2\n      0x3\n      add\n      sstore\n      0x80\n      dup3\n      add\n      mload\n      dup2\n      0x4\n      add\n      swap1\n      dup1\n      mload\n      swap1\n      0x20\n      add\n      swap1\n      tag_145\n      swap3\n      swap2\n      swap1\n      jump\t// in(tag_122)\n    tag_145:\n      pop\n      0xa0\n      dup3\n      add\n      mload\n      dup2\n      0x5\n      add\n      sstore\n      0xc0\n      dup3\n      add\n      mload\n      dup2\n      0x6\n      add\n      swap1\n      dup1\n      mload\n      swap1\n      0x20\n      add\n      swap1\n      tag_146\n      swap3\n      swap2\n      swap1\n      jump\t// in(tag_122)\n    tag_146:\n      pop\n      pop\n      pop\n      pop\n        /* \"contracts/BoxV2.sol\":3686:3692  amount */\n      dup5\n        /* \"contracts/BoxV2.sol\":3659:3676  currentVendorData */\n      dup3\n        /* \"contracts/BoxV2.sol\":3659:3683  currentVendorData.amount */\n      0x7\n      add\n      sload\n        /* \"contracts/BoxV2.sol\":3659:3692  currentVendorData.amount + amount */\n      add\n        /* \"contracts/BoxV2.sol\":3632:3649  currentVendorData */\n      dup3\n        /* \"contracts/BoxV2.sol\":3632:3656  currentVendorData.amount */\n      0x7\n      add\n        /* \"contracts/BoxV2.sol\":3632:3692  currentVendorData.amount = currentVendorData.amount + amount */\n      dup2\n      swap1\n      sstore\n      pop\n        /* \"contracts/BoxV2.sol\":3746:3752  amount */\n      dup5\n        /* \"contracts/BoxV2.sol\":3724:3736  studentsData */\n      dup4\n        /* \"contracts/BoxV2.sol\":3724:3743  studentsData.amount */\n      0x6\n      add\n      sload\n        /* \"contracts/BoxV2.sol\":3724:3752  studentsData.amount - amount */\n      sub\n        /* \"contracts/BoxV2.sol\":3702:3714  studentsData */\n      dup4\n        /* \"contracts/BoxV2.sol\":3702:3721  studentsData.amount */\n      0x6\n      add\n        /* \"contracts/BoxV2.sol\":3702:3752  studentsData.amount = studentsData.amount - amount */\n      dup2\n      swap1\n      sstore\n      pop\n        /* \"contracts/BoxV2.sol\":3762:3772  msg.sender */\n      caller\n        /* \"contracts/BoxV2.sol\":3762:3781  msg.sender.transfer */\n      0xffffffffffffffffffffffffffffffffffffffff\n      and\n        /* \"contracts/BoxV2.sol\":3762:3789  msg.sender.transfer(amount) */\n      0x8fc\n        /* \"contracts/BoxV2.sol\":3782:3788  amount */\n      dup7\n        /* \"contracts/BoxV2.sol\":3762:3789  msg.sender.transfer(amount) */\n      swap1\n      dup2\n      iszero\n      mul\n      swap1\n      mload(0x40)\n      0x0\n      mload(0x40)\n      dup1\n      dup4\n      sub\n      dup2\n      dup6\n      dup9\n      dup9\n      call\n      swap4\n      pop\n      pop\n      pop\n      pop\n      iszero\n      iszero\n      tag_147\n      jumpi\n      0x0\n      dup1\n      revert\n    tag_147:\n        /* \"contracts/BoxV2.sol\":2879:3797  function issueNewDevice(string deviceIMEI, uint studentIndex, uint otp, uint vendorIndex, uint amount, string remark) public payable {\r... */\n      pop\n      pop\n      pop\n      pop\n      pop\n      pop\n      pop\n      pop\n      pop\n      jump\t// out\n        /* \"contracts/BoxV2.sol\":481:503  address public manager */\n    tag_48:\n      0x2\n      0x0\n      swap1\n      sload\n      swap1\n      0x100\n      exp\n      swap1\n      div\n      0xffffffffffffffffffffffffffffffffffffffff\n      and\n      dup2\n      jump\t// out\n        /* \"contracts/BoxV2.sol\":4299:4391  function getListOfVendors() public view returns (Vendor[]) {\r... */\n    tag_53:\n        /* \"contracts/BoxV2.sol\":4348:4356  Vendor[] */\n      tag_148\n      jump\t// in(tag_149)\n    tag_148:\n        /* \"contracts/BoxV2.sol\":4376:4383  vendors */\n      0x7\n        /* \"contracts/BoxV2.sol\":4369:4383  return vendors */\n      dup1\n      sload\n      dup1\n      0x20\n      mul\n      0x20\n      add\n      mload(0x40)\n      swap1\n      dup2\n      add\n      0x40\n      mstore\n      dup1\n      swap3\n      swap2\n      swap1\n      dup2\n      dup2\n      mstore\n      0x20\n      add\n      0x0\n      swap1\n    tag_151:\n      dup3\n      dup3\n      lt\n      iszero\n      tag_152\n      jumpi\n      dup4\n      dup3\n      swap1\n      0x0\n      mstore\n      keccak256(0x0, 0x20)\n      swap1\n      0x8\n      mul\n      add\n      0x120\n      mload(0x40)\n      swap1\n      dup2\n      add\n      0x40\n      mstore\n      swap1\n      dup2\n      0x0\n      dup3\n      add\n      sload\n      dup2\n      mstore\n      0x20\n      add\n      0x1\n      dup3\n      add\n      dup1\n      sload\n      0x1\n      dup2\n      0x1\n      and\n      iszero\n      0x100\n      mul\n      sub\n      and\n      0x2\n      swap1\n      div\n      dup1\n      0x1f\n      add\n      0x20\n      dup1\n      swap2\n      div\n      mul\n      0x20\n      add\n      mload(0x40)\n      swap1\n      dup2\n      add\n      0x40\n      mstore\n      dup1\n      swap3\n      swap2\n      swap1\n      dup2\n      dup2\n      mstore\n      0x20\n      add\n      dup3\n      dup1\n      sload\n      0x1\n      dup2\n      0x1\n      and\n      iszero\n      0x100\n      mul\n      sub\n      and\n      0x2\n      swap1\n      div\n      dup1\n      iszero\n      tag_154\n      jumpi\n      dup1\n      0x1f\n      lt\n      tag_155\n      jumpi\n      0x100\n      dup1\n      dup4\n      sload\n      div\n      mul\n      dup4\n      mstore\n      swap2\n      0x20\n      add\n      swap2\n      jump(tag_154)\n    tag_155:\n      dup3\n      add\n      swap2\n      swap1\n      0x0\n      mstore\n      keccak256(0x0, 0x20)\n      swap1\n    tag_156:\n      dup2\n      sload\n      dup2\n      mstore\n      swap1\n      0x1\n      add\n      swap1\n      0x20\n      add\n      dup1\n      dup4\n      gt\n      tag_156\n      jumpi\n      dup3\n      swap1\n      sub\n      0x1f\n      and\n      dup3\n      add\n      swap2\n    tag_154:\n      pop\n      pop\n      pop\n      pop\n      pop\n      dup2\n      mstore\n      0x20\n      add\n      0x2\n      dup3\n      add\n      dup1\n      sload\n      0x1\n      dup2\n      0x1\n      and\n      iszero\n      0x100\n      mul\n      sub\n      and\n      0x2\n      swap1\n      div\n      dup1\n      0x1f\n      add\n      0x20\n      dup1\n      swap2\n      div\n      mul\n      0x20\n      add\n      mload(0x40)\n      swap1\n      dup2\n      add\n      0x40\n      mstore\n      dup1\n      swap3\n      swap2\n      swap1\n      dup2\n      dup2\n      mstore\n      0x20\n      add\n      dup3\n      dup1\n      sload\n      0x1\n      dup2\n      0x1\n      and\n      iszero\n      0x100\n      mul\n      sub\n      and\n      0x2\n      swap1\n      div\n      dup1\n      iszero\n      tag_157\n      jumpi\n      dup1\n      0x1f\n      lt\n      tag_158\n      jumpi\n      0x100\n      dup1\n      dup4\n      sload\n      div\n      mul\n      dup4\n      mstore\n      swap2\n      0x20\n      add\n      swap2\n      jump(tag_157)\n    tag_158:\n      dup3\n      add\n      swap2\n      swap1\n      0x0\n      mstore\n      keccak256(0x0, 0x20)\n      swap1\n    tag_159:\n      dup2\n      sload\n      dup2\n      mstore\n      swap1\n      0x1\n      add\n      swap1\n      0x20\n      add\n      dup1\n      dup4\n      gt\n      tag_159\n      jumpi\n      dup3\n      swap1\n      sub\n      0x1f\n      and\n      dup3\n      add\n      swap2\n    tag_157:\n      pop\n      pop\n      pop\n      pop\n      pop\n      dup2\n      mstore\n      0x20\n      add\n      0x3\n      dup3\n      add\n      dup1\n      sload\n      0x1\n      dup2\n      0x1\n      and\n      iszero\n      0x100\n      mul\n      sub\n      and\n      0x2\n      swap1\n      div\n      dup1\n      0x1f\n      add\n      0x20\n      dup1\n      swap2\n      div\n      mul\n      0x20\n      add\n      mload(0x40)\n      swap1\n      dup2\n      add\n      0x40\n      mstore\n      dup1\n      swap3\n      swap2\n      swap1\n      dup2\n      dup2\n      mstore\n      0x20\n      add\n      dup3\n      dup1\n      sload\n      0x1\n      dup2\n      0x1\n      and\n      iszero\n      0x100\n      mul\n      sub\n      and\n      0x2\n      swap1\n      div\n      dup1\n      iszero\n      tag_160\n      jumpi\n      dup1\n      0x1f\n      lt\n      tag_161\n      jumpi\n      0x100\n      dup1\n      dup4\n      sload\n      div\n      mul\n      dup4\n      mstore\n      swap2\n      0x20\n      add\n      swap2\n      jump(tag_160)\n    tag_161:\n      dup3\n      add\n      swap2\n      swap1\n      0x0\n      mstore\n      keccak256(0x0, 0x20)\n      swap1\n    tag_162:\n      dup2\n      sload\n      dup2\n      mstore\n      swap1\n      0x1\n      add\n      swap1\n      0x20\n      add\n      dup1\n      dup4\n      gt\n      tag_162\n      jumpi\n      dup3\n      swap1\n      sub\n      0x1f\n      and\n      dup3\n      add\n      swap2\n    tag_160:\n      pop\n      pop\n      pop\n      pop\n      pop\n      dup2\n      mstore\n      0x20\n      add\n      0x4\n      dup3\n      add\n      sload\n      dup2\n      mstore\n      0x20\n      add\n      0x5\n      dup3\n      add\n      0x0\n      swap1\n      sload\n      swap1\n      0x100\n      exp\n      swap1\n      div\n      0xffffffffffffffffffffffffffffffffffffffff\n      and\n      0xffffffffffffffffffffffffffffffffffffffff\n      and\n      0xffffffffffffffffffffffffffffffffffffffff\n      and\n      dup2\n      mstore\n      0x20\n      add\n      0x5\n      dup3\n      add\n      0x14\n      swap1\n      sload\n      swap1\n      0x100\n      exp\n      swap1\n      div\n      0xff\n      and\n      iszero\n      iszero\n      iszero\n      iszero\n      dup2\n      mstore\n      0x20\n      add\n      0x6\n      dup3\n      add\n      0x0\n      swap1\n      sload\n      swap1\n      0x100\n      exp\n      swap1\n      div\n      0xffffffffffffffffffffffffffffffffffffffff\n      and\n      0xffffffffffffffffffffffffffffffffffffffff\n      and\n      0xffffffffffffffffffffffffffffffffffffffff\n      and\n      dup2\n      mstore\n      0x20\n      add\n      0x7\n      dup3\n      add\n      sload\n      dup2\n      mstore\n      pop\n      pop\n      dup2\n      mstore\n      0x20\n      add\n      swap1\n      0x1\n      add\n      swap1\n      jump(tag_151)\n    tag_152:\n      pop\n      pop\n      pop\n      pop\n      swap1\n      pop\n        /* \"contracts/BoxV2.sol\":4299:4391  function getListOfVendors() public view returns (Vendor[]) {\r... */\n      swap1\n      jump\t// out\n        /* \"contracts/BoxV2.sol\":412:440  Depositer[] public depositer */\n    tag_58:\n      0x0\n      dup2\n      dup2\n      sload\n      dup2\n      lt\n      iszero\n      iszero\n      tag_163\n      jumpi\n      invalid\n    tag_163:\n      swap1\n      0x0\n      mstore\n      keccak256(0x0, 0x20)\n      swap1\n      0x2\n      mul\n      add\n      0x0\n      swap2\n      pop\n      swap1\n      pop\n      dup1\n      0x0\n      add\n      sload\n      swap1\n      dup1\n      0x1\n      add\n      0x0\n      swap1\n      sload\n      swap1\n      0x100\n      exp\n      swap1\n      div\n      0xffffffffffffffffffffffffffffffffffffffff\n      and\n      swap1\n      pop\n      dup3\n      jump\t// out\n        /* \"contracts/BoxV2.sol\":1622:2148  function registerStudent(string name, uint rollNo, uint score, string dob) public payable {\r... */\n    tag_62:\n        /* \"contracts/BoxV2.sol\":1754:1779  Student memory newStudent */\n      tag_165\n      jump\t// in(tag_166)\n    tag_165:\n        /* \"contracts/BoxV2.sol\":1739:1742  100 */\n      0x64\n        /* \"contracts/BoxV2.sol\":1731:1736  score */\n      dup4\n        /* \"contracts/BoxV2.sol\":1731:1742  score > 100 */\n      gt\n        /* \"contracts/BoxV2.sol\":1723:1743  require(score > 100) */\n      iszero\n      iszero\n      tag_168\n      jumpi\n      0x0\n      dup1\n      revert\n    tag_168:\n        /* \"contracts/BoxV2.sol\":1782:2104  Student({\r... */\n      0x120\n      mload(0x40)\n      swap1\n      dup2\n      add\n      0x40\n      mstore\n      dup1\n        /* \"contracts/BoxV2.sol\":1810:1818  students */\n      0x1\n        /* \"contracts/BoxV2.sol\":1810:1825  students.length */\n      dup1\n      sload\n      swap1\n      pop\n        /* \"contracts/BoxV2.sol\":1782:2104  Student({\r... */\n      dup2\n      mstore\n      0x20\n      add\n        /* \"contracts/BoxV2.sol\":1845:1849  name */\n      dup7\n        /* \"contracts/BoxV2.sol\":1782:2104  Student({\r... */\n      dup2\n      mstore\n      0x20\n      add\n        /* \"contracts/BoxV2.sol\":1871:1877  rollNo */\n      dup6\n        /* \"contracts/BoxV2.sol\":1782:2104  Student({\r... */\n      dup2\n      mstore\n      0x20\n      add\n        /* \"contracts/BoxV2.sol\":1896:1899  dob */\n      dup4\n        /* \"contracts/BoxV2.sol\":1782:2104  Student({\r... */\n      dup2\n      mstore\n      0x20\n      add\n        /* \"contracts/BoxV2.sol\":1920:1925  score */\n      dup5\n        /* \"contracts/BoxV2.sol\":1782:2104  Student({\r... */\n      dup2\n      mstore\n      0x20\n      add\n        /* \"contracts/BoxV2.sol\":1949:1954  false */\n      0x0\n        /* \"contracts/BoxV2.sol\":1782:2104  Student({\r... */\n      iszero\n      iszero\n      dup2\n      mstore\n      0x20\n      add\n        /* \"contracts/BoxV2.sol\":1984:1994  msg.sender */\n      caller\n        /* \"contracts/BoxV2.sol\":1782:2104  Student({\r... */\n      0xffffffffffffffffffffffffffffffffffffffff\n      and\n      dup2\n      mstore\n      0x20\n      add\n        /* \"contracts/BoxV2.sol\":2016:2035  1000000000000000000 */\n      0xde0b6b3a7640000\n        /* \"contracts/BoxV2.sol\":1782:2104  Student({\r... */\n      dup2\n      mstore\n      0x20\n      add\n        /* \"contracts/BoxV2.sol\":2069:2085  block.difficulty */\n      difficulty\n        /* \"contracts/BoxV2.sol\":2087:2090  now */\n      timestamp\n        /* \"contracts/BoxV2.sol\":2059:2091  keccak256(block.difficulty, now) */\n      mload(0x40)\n      dup1\n      dup4\n      dup2\n      mstore\n      0x20\n      add\n      dup3\n      dup2\n      mstore\n      0x20\n      add\n      swap3\n      pop\n      pop\n      pop\n      mload(0x40)\n      dup1\n      swap2\n      sub\n      swap1\n      keccak256\n        /* \"contracts/BoxV2.sol\":2054:2092  uint(keccak256(block.difficulty, now)) */\n      0x1\n      swap1\n      div\n        /* \"contracts/BoxV2.sol\":1782:2104  Student({\r... */\n      dup2\n      mstore\n      pop\n        /* \"contracts/BoxV2.sol\":1754:2104  Student memory newStudent = Student({\r... */\n      swap1\n      pop\n        /* \"contracts/BoxV2.sol\":2115:2123  students */\n      0x1\n        /* \"contracts/BoxV2.sol\":2115:2140  students.push(newStudent) */\n      dup1\n      sload\n      dup1\n      0x1\n      add\n      dup3\n      dup2\n      tag_169\n      swap2\n      swap1\n      jump\t// in(tag_170)\n    tag_169:\n      swap2\n      0x0\n      mstore\n      keccak256(0x0, 0x20)\n      swap1\n      0x8\n      mul\n      add\n      0x0\n        /* \"contracts/BoxV2.sol\":2129:2139  newStudent */\n      dup4\n        /* \"contracts/BoxV2.sol\":2115:2140  students.push(newStudent) */\n      swap1\n      swap2\n      swap1\n      swap2\n      pop\n      0x0\n      dup3\n      add\n      mload\n      dup2\n      0x0\n      add\n      sstore\n      0x20\n      dup3\n      add\n      mload\n      dup2\n      0x1\n      add\n      swap1\n      dup1\n      mload\n      swap1\n      0x20\n      add\n      swap1\n      tag_172\n      swap3\n      swap2\n      swap1\n      jump\t// in(tag_122)\n    tag_172:\n      pop\n      0x40\n      dup3\n      add\n      mload\n      dup2\n      0x2\n      add\n      sstore\n      0x60\n      dup3\n      add\n      mload\n      dup2\n      0x3\n      add\n      swap1\n      dup1\n      mload\n      swap1\n      0x20\n      add\n      swap1\n      tag_173\n      swap3\n      swap2\n      swap1\n      jump\t// in(tag_122)\n    tag_173:\n      pop\n      0x80\n      dup3\n      add\n      mload\n      dup2\n      0x4\n      add\n      sstore\n      0xa0\n      dup3\n      add\n      mload\n      dup2\n      0x5\n      add\n      exp(0x100, 0x0)\n      dup2\n      sload\n      dup2\n      0xff\n      mul\n      not\n      and\n      swap1\n      dup4\n      iszero\n      iszero\n      mul\n      or\n      swap1\n      sstore\n      pop\n      0xc0\n      dup3\n      add\n      mload\n      dup2\n      0x5\n      add\n      exp(0x100, 0x1)\n      dup2\n      sload\n      dup2\n      0xffffffffffffffffffffffffffffffffffffffff\n      mul\n      not\n      and\n      swap1\n      dup4\n      0xffffffffffffffffffffffffffffffffffffffff\n      and\n      mul\n      or\n      swap1\n      sstore\n      pop\n      0xe0\n      dup3\n      add\n      mload\n      dup2\n      0x6\n      add\n      sstore\n      0x100\n      dup3\n      add\n      mload\n      dup2\n      0x7\n      add\n      sstore\n      pop\n      pop\n      pop\n        /* \"contracts/BoxV2.sol\":1622:2148  function registerStudent(string name, uint rollNo, uint score, string dob) public payable {\r... */\n      pop\n      pop\n      pop\n      pop\n      pop\n      jump\t// out\n        /* \"contracts/BoxV2.sol\":3805:4042  function approveVendor(uint vendorIndex) public payable {\r... */\n    tag_64:\n        /* \"contracts/BoxV2.sol\":3880:3912  Vendor storage currentVendorData */\n      0x0\n        /* \"contracts/BoxV2.sol\":3915:3922  vendors */\n      0x7\n        /* \"contracts/BoxV2.sol\":3923:3934  vendorIndex */\n      dup3\n        /* \"contracts/BoxV2.sol\":3915:3935  vendors[vendorIndex] */\n      dup2\n      sload\n      dup2\n      lt\n      iszero\n      iszero\n      tag_175\n      jumpi\n      invalid\n    tag_175:\n      swap1\n      0x0\n      mstore\n      keccak256(0x0, 0x20)\n      swap1\n      0x8\n      mul\n      add\n        /* \"contracts/BoxV2.sol\":3880:3935  Vendor storage currentVendorData = vendors[vendorIndex] */\n      swap1\n      pop\n        /* \"contracts/BoxV2.sol\":3972:3976  true */\n      0x1\n        /* \"contracts/BoxV2.sol\":3945:3962  currentVendorData */\n      dup2\n        /* \"contracts/BoxV2.sol\":3945:3969  currentVendorData.status */\n      0x5\n      add\n      0x14\n        /* \"contracts/BoxV2.sol\":3945:3976  currentVendorData.status = true */\n      0x100\n      exp\n      dup2\n      sload\n      dup2\n      0xff\n      mul\n      not\n      and\n      swap1\n      dup4\n      iszero\n      iszero\n      mul\n      or\n      swap1\n      sstore\n      pop\n        /* \"contracts/BoxV2.sol\":4022:4032  msg.sender */\n      caller\n        /* \"contracts/BoxV2.sol\":3986:4003  currentVendorData */\n      dup2\n        /* \"contracts/BoxV2.sol\":3986:4019  currentVendorData.approverAddress */\n      0x6\n      add\n      0x0\n        /* \"contracts/BoxV2.sol\":3986:4032  currentVendorData.approverAddress = msg.sender */\n      0x100\n      exp\n      dup2\n      sload\n      dup2\n      0xffffffffffffffffffffffffffffffffffffffff\n      mul\n      not\n      and\n      swap1\n      dup4\n      0xffffffffffffffffffffffffffffffffffffffff\n      and\n      mul\n      or\n      swap1\n      sstore\n      pop\n        /* \"contracts/BoxV2.sol\":3805:4042  function approveVendor(uint vendorIndex) public payable {\r... */\n      pop\n      pop\n      jump\t// out\n        /* \"contracts/BoxV2.sol\":4399:4504  function getListOfDeviceIssue() public view returns (DeviceIssue[]) {\r... */\n    tag_67:\n        /* \"contracts/BoxV2.sol\":4452:4465  DeviceIssue[] */\n      tag_177\n      jump\t// in(tag_178)\n    tag_177:\n        /* \"contracts/BoxV2.sol\":4485:4496  deviceIssue */\n      0x8\n        /* \"contracts/BoxV2.sol\":4478:4496  return deviceIssue */\n      dup1\n      sload\n      dup1\n      0x20\n      mul\n      0x20\n      add\n      mload(0x40)\n      swap1\n      dup2\n      add\n      0x40\n      mstore\n      dup1\n      swap3\n      swap2\n      swap1\n      dup2\n      dup2\n      mstore\n      0x20\n      add\n      0x0\n      swap1\n    tag_180:\n      dup3\n      dup3\n      lt\n      iszero\n      tag_181\n      jumpi\n      dup4\n      dup3\n      swap1\n      0x0\n      mstore\n      keccak256(0x0, 0x20)\n      swap1\n      0x7\n      mul\n      add\n      0xe0\n      mload(0x40)\n      swap1\n      dup2\n      add\n      0x40\n      mstore\n      swap1\n      dup2\n      0x0\n      dup3\n      add\n      dup1\n      sload\n      0x1\n      dup2\n      0x1\n      and\n      iszero\n      0x100\n      mul\n      sub\n      and\n      0x2\n      swap1\n      div\n      dup1\n      0x1f\n      add\n      0x20\n      dup1\n      swap2\n      div\n      mul\n      0x20\n      add\n      mload(0x40)\n      swap1\n      dup2\n      add\n      0x40\n      mstore\n      dup1\n      swap3\n      swap2\n      swap1\n      dup2\n      dup2\n      mstore\n      0x20\n      add\n      dup3\n      dup1\n      sload\n      0x1\n      dup2\n      0x1\n      and\n      iszero\n      0x100\n      mul\n      sub\n      and\n      0x2\n      swap1\n      div\n      dup1\n      iszero\n      tag_183\n      jumpi\n      dup1\n      0x1f\n      lt\n      tag_184\n      jumpi\n      0x100\n      dup1\n      dup4\n      sload\n      div\n      mul\n      dup4\n      mstore\n      swap2\n      0x20\n      add\n      swap2\n      jump(tag_183)\n    tag_184:\n      dup3\n      add\n      swap2\n      swap1\n      0x0\n      mstore\n      keccak256(0x0, 0x20)\n      swap1\n    tag_185:\n      dup2\n      sload\n      dup2\n      mstore\n      swap1\n      0x1\n      add\n      swap1\n      0x20\n      add\n      dup1\n      dup4\n      gt\n      tag_185\n      jumpi\n      dup3\n      swap1\n      sub\n      0x1f\n      and\n      dup3\n      add\n      swap2\n    tag_183:\n      pop\n      pop\n      pop\n      pop\n      pop\n      dup2\n      mstore\n      0x20\n      add\n      0x1\n      dup3\n      add\n      dup1\n      sload\n      0x1\n      dup2\n      0x1\n      and\n      iszero\n      0x100\n      mul\n      sub\n      and\n      0x2\n      swap1\n      div\n      dup1\n      0x1f\n      add\n      0x20\n      dup1\n      swap2\n      div\n      mul\n      0x20\n      add\n      mload(0x40)\n      swap1\n      dup2\n      add\n      0x40\n      mstore\n      dup1\n      swap3\n      swap2\n      swap1\n      dup2\n      dup2\n      mstore\n      0x20\n      add\n      dup3\n      dup1\n      sload\n      0x1\n      dup2\n      0x1\n      and\n      iszero\n      0x100\n      mul\n      sub\n      and\n      0x2\n      swap1\n      div\n      dup1\n      iszero\n      tag_186\n      jumpi\n      dup1\n      0x1f\n      lt\n      tag_187\n      jumpi\n      0x100\n      dup1\n      dup4\n      sload\n      div\n      mul\n      dup4\n      mstore\n      swap2\n      0x20\n      add\n      swap2\n      jump(tag_186)\n    tag_187:\n      dup3\n      add\n      swap2\n      swap1\n      0x0\n      mstore\n      keccak256(0x0, 0x20)\n      swap1\n    tag_188:\n      dup2\n      sload\n      dup2\n      mstore\n      swap1\n      0x1\n      add\n      swap1\n      0x20\n      add\n      dup1\n      dup4\n      gt\n      tag_188\n      jumpi\n      dup3\n      swap1\n      sub\n      0x1f\n      and\n      dup3\n      add\n      swap2\n    tag_186:\n      pop\n      pop\n      pop\n      pop\n      pop\n      dup2\n      mstore\n      0x20\n      add\n      0x2\n      dup3\n      add\n      sload\n      dup2\n      mstore\n      0x20\n      add\n      0x3\n      dup3\n      add\n      sload\n      dup2\n      mstore\n      0x20\n      add\n      0x4\n      dup3\n      add\n      dup1\n      sload\n      0x1\n      dup2\n      0x1\n      and\n      iszero\n      0x100\n      mul\n      sub\n      and\n      0x2\n      swap1\n      div\n      dup1\n      0x1f\n      add\n      0x20\n      dup1\n      swap2\n      div\n      mul\n      0x20\n      add\n      mload(0x40)\n      swap1\n      dup2\n      add\n      0x40\n      mstore\n      dup1\n      swap3\n      swap2\n      swap1\n      dup2\n      dup2\n      mstore\n      0x20\n      add\n      dup3\n      dup1\n      sload\n      0x1\n      dup2\n      0x1\n      and\n      iszero\n      0x100\n      mul\n      sub\n      and\n      0x2\n      swap1\n      div\n      dup1\n      iszero\n      tag_189\n      jumpi\n      dup1\n      0x1f\n      lt\n      tag_190\n      jumpi\n      0x100\n      dup1\n      dup4\n      sload\n      div\n      mul\n      dup4\n      mstore\n      swap2\n      0x20\n      add\n      swap2\n      jump(tag_189)\n    tag_190:\n      dup3\n      add\n      swap2\n      swap1\n      0x0\n      mstore\n      keccak256(0x0, 0x20)\n      swap1\n    tag_191:\n      dup2\n      sload\n      dup2\n      mstore\n      swap1\n      0x1\n      add\n      swap1\n      0x20\n      add\n      dup1\n      dup4\n      gt\n      tag_191\n      jumpi\n      dup3\n      swap1\n      sub\n      0x1f\n      and\n      dup3\n      add\n      swap2\n    tag_189:\n      pop\n      pop\n      pop\n      pop\n      pop\n      dup2\n      mstore\n      0x20\n      add\n      0x5\n      dup3\n      add\n      sload\n      dup2\n      mstore\n      0x20\n      add\n      0x6\n      dup3\n      add\n      dup1\n      sload\n      0x1\n      dup2\n      0x1\n      and\n      iszero\n      0x100\n      mul\n      sub\n      and\n      0x2\n      swap1\n      div\n      dup1\n      0x1f\n      add\n      0x20\n      dup1\n      swap2\n      div\n      mul\n      0x20\n      add\n      mload(0x40)\n      swap1\n      dup2\n      add\n      0x40\n      mstore\n      dup1\n      swap3\n      swap2\n      swap1\n      dup2\n      dup2\n      mstore\n      0x20\n      add\n      dup3\n      dup1\n      sload\n      0x1\n      dup2\n      0x1\n      and\n      iszero\n      0x100\n      mul\n      sub\n      and\n      0x2\n      swap1\n      div\n      dup1\n      iszero\n      tag_192\n      jumpi\n      dup1\n      0x1f\n      lt\n      tag_193\n      jumpi\n      0x100\n      dup1\n      dup4\n      sload\n      div\n      mul\n      dup4\n      mstore\n      swap2\n      0x20\n      add\n      swap2\n      jump(tag_192)\n    tag_193:\n      dup3\n      add\n      swap2\n      swap1\n      0x0\n      mstore\n      keccak256(0x0, 0x20)\n      swap1\n    tag_194:\n      dup2\n      sload\n      dup2\n      mstore\n      swap1\n      0x1\n      add\n      swap1\n      0x20\n      add\n      dup1\n      dup4\n      gt\n      tag_194\n      jumpi\n      dup3\n      swap1\n      sub\n      0x1f\n      and\n      dup3\n      add\n      swap2\n    tag_192:\n      pop\n      pop\n      pop\n      pop\n      pop\n      dup2\n      mstore\n      pop\n      pop\n      dup2\n      mstore\n      0x20\n      add\n      swap1\n      0x1\n      add\n      swap1\n      jump(tag_180)\n    tag_181:\n      pop\n      pop\n      pop\n      pop\n      swap1\n      pop\n        /* \"contracts/BoxV2.sol\":4399:4504  function getListOfDeviceIssue() public view returns (DeviceIssue[]) {\r... */\n      swap1\n      jump\t// out\n        /* \"contracts/BoxV2.sol\":1130:1153  Vendor[] public vendors */\n    tag_72:\n      0x7\n      dup2\n      dup2\n      sload\n      dup2\n      lt\n      iszero\n      iszero\n      tag_195\n      jumpi\n      invalid\n    tag_195:\n      swap1\n      0x0\n      mstore\n      keccak256(0x0, 0x20)\n      swap1\n      0x8\n      mul\n      add\n      0x0\n      swap2\n      pop\n      swap1\n      pop\n      dup1\n      0x0\n      add\n      sload\n      swap1\n      dup1\n      0x1\n      add\n      swap1\n      dup1\n      0x2\n      add\n      swap1\n      dup1\n      0x3\n      add\n      swap1\n      dup1\n      0x4\n      add\n      sload\n      swap1\n      dup1\n      0x5\n      add\n      0x0\n      swap1\n      sload\n      swap1\n      0x100\n      exp\n      swap1\n      div\n      0xffffffffffffffffffffffffffffffffffffffff\n      and\n      swap1\n      dup1\n      0x5\n      add\n      0x14\n      swap1\n      sload\n      swap1\n      0x100\n      exp\n      swap1\n      div\n      0xff\n      and\n      swap1\n      dup1\n      0x6\n      add\n      0x0\n      swap1\n      sload\n      swap1\n      0x100\n      exp\n      swap1\n      div\n      0xffffffffffffffffffffffffffffffffffffffff\n      and\n      swap1\n      dup1\n      0x7\n      add\n      sload\n      swap1\n      pop\n      dup10\n      jump\t// out\n        /* \"contracts/BoxV2.sol\":510:542  address[] public rechargeAddress */\n    tag_77:\n      0x3\n      dup2\n      dup2\n      sload\n      dup2\n      lt\n      iszero\n      iszero\n      tag_197\n      jumpi\n      invalid\n    tag_197:\n      swap1\n      0x0\n      mstore\n      keccak256(0x0, 0x20)\n      swap1\n      add\n      0x0\n      swap2\n      pop\n      sload\n      swap1\n      0x100\n      exp\n      swap1\n      div\n      0xffffffffffffffffffffffffffffffffffffffff\n      and\n      dup2\n      jump\t// out\n        /* \"contracts/BoxV2.sol\":615:633  uint public amount */\n    tag_81:\n      sload(0x6)\n      dup2\n      jump\t// out\n        /* \"contracts/BoxV2.sol\":584:608  uint public minimumScore */\n    tag_85:\n      sload(0x5)\n      dup2\n      jump\t// out\n        /* \"contracts/BoxV2.sol\":1514:1614  function getListOfDepositors() public view returns (Depositer[]) {\r... */\n    tag_89:\n        /* \"contracts/BoxV2.sol\":1566:1577  Depositer[] */\n      tag_199\n      jump\t// in(tag_200)\n    tag_199:\n        /* \"contracts/BoxV2.sol\":1597:1606  depositer */\n      0x0\n        /* \"contracts/BoxV2.sol\":1590:1606  return depositer */\n      dup1\n      sload\n      dup1\n      0x20\n      mul\n      0x20\n      add\n      mload(0x40)\n      swap1\n      dup2\n      add\n      0x40\n      mstore\n      dup1\n      swap3\n      swap2\n      swap1\n      dup2\n      dup2\n      mstore\n      0x20\n      add\n      0x0\n      swap1\n    tag_202:\n      dup3\n      dup3\n      lt\n      iszero\n      tag_203\n      jumpi\n      dup4\n      dup3\n      swap1\n      0x0\n      mstore\n      keccak256(0x0, 0x20)\n      swap1\n      0x2\n      mul\n      add\n      0x40\n      dup1\n      mload\n      swap1\n      dup2\n      add\n      0x40\n      mstore\n      swap1\n      dup2\n      0x0\n      dup3\n      add\n      sload\n      dup2\n      mstore\n      0x20\n      add\n      0x1\n      dup3\n      add\n      0x0\n      swap1\n      sload\n      swap1\n      0x100\n      exp\n      swap1\n      div\n      0xffffffffffffffffffffffffffffffffffffffff\n      and\n      0xffffffffffffffffffffffffffffffffffffffff\n      and\n      0xffffffffffffffffffffffffffffffffffffffff\n      and\n      dup2\n      mstore\n      pop\n      pop\n      dup2\n      mstore\n      0x20\n      add\n      swap1\n      0x1\n      add\n      swap1\n      jump(tag_202)\n    tag_203:\n      pop\n      pop\n      pop\n      pop\n      swap1\n      pop\n        /* \"contracts/BoxV2.sol\":1514:1614  function getListOfDepositors() public view returns (Depositer[]) {\r... */\n      swap1\n      jump\t// out\n        /* \"contracts/BoxV2.sol\":4050:4287  function rejectVendor(uint vendorIndex) public payable {\r... */\n    tag_93:\n        /* \"contracts/BoxV2.sol\":4124:4156  Vendor storage currentVendorData */\n      0x0\n        /* \"contracts/BoxV2.sol\":4159:4166  vendors */\n      0x7\n        /* \"contracts/BoxV2.sol\":4167:4178  vendorIndex */\n      dup3\n        /* \"contracts/BoxV2.sol\":4159:4179  vendors[vendorIndex] */\n      dup2\n      sload\n      dup2\n      lt\n      iszero\n      iszero\n      tag_206\n      jumpi\n      invalid\n    tag_206:\n      swap1\n      0x0\n      mstore\n      keccak256(0x0, 0x20)\n      swap1\n      0x8\n      mul\n      add\n        /* \"contracts/BoxV2.sol\":4124:4179  Vendor storage currentVendorData = vendors[vendorIndex] */\n      swap1\n      pop\n        /* \"contracts/BoxV2.sol\":4216:4221  false */\n      0x0\n        /* \"contracts/BoxV2.sol\":4189:4206  currentVendorData */\n      dup2\n        /* \"contracts/BoxV2.sol\":4189:4213  currentVendorData.status */\n      0x5\n      add\n      0x14\n        /* \"contracts/BoxV2.sol\":4189:4221  currentVendorData.status = false */\n      0x100\n      exp\n      dup2\n      sload\n      dup2\n      0xff\n      mul\n      not\n      and\n      swap1\n      dup4\n      iszero\n      iszero\n      mul\n      or\n      swap1\n      sstore\n      pop\n        /* \"contracts/BoxV2.sol\":4267:4277  msg.sender */\n      caller\n        /* \"contracts/BoxV2.sol\":4231:4248  currentVendorData */\n      dup2\n        /* \"contracts/BoxV2.sol\":4231:4264  currentVendorData.approverAddress */\n      0x6\n      add\n      0x0\n        /* \"contracts/BoxV2.sol\":4231:4277  currentVendorData.approverAddress = msg.sender */\n      0x100\n      exp\n      dup2\n      sload\n      dup2\n      0xffffffffffffffffffffffffffffffffffffffff\n      mul\n      not\n      and\n      swap1\n      dup4\n      0xffffffffffffffffffffffffffffffffffffffff\n      and\n      mul\n      or\n      swap1\n      sstore\n      pop\n        /* \"contracts/BoxV2.sol\":4050:4287  function rejectVendor(uint vendorIndex) public payable {\r... */\n      pop\n      pop\n      jump\t// out\n        /* \"contracts/BoxV2.sol\":1201:1280  function Scholarship() public {\r... */\n    tag_96:\n        /* \"contracts/BoxV2.sol\":1252:1262  msg.sender */\n      caller\n        /* \"contracts/BoxV2.sol\":1242:1249  manager */\n      0x2\n      0x0\n        /* \"contracts/BoxV2.sol\":1242:1262  manager = msg.sender */\n      0x100\n      exp\n      dup2\n      sload\n      dup2\n      0xffffffffffffffffffffffffffffffffffffffff\n      mul\n      not\n      and\n      swap1\n      dup4\n      0xffffffffffffffffffffffffffffffffffffffff\n      and\n      mul\n      or\n      swap1\n      sstore\n      pop\n        /* \"contracts/BoxV2.sol\":1201:1280  function Scholarship() public {\r... */\n      jump\t// out\n        /* \"contracts/BoxV2.sol\":1291:1506  function enter() public payable {\r... */\n    tag_98:\n        /* \"contracts/BoxV2.sol\":1333:1362  Depositer memory newDepositer */\n      tag_209\n      jump\t// in(tag_210)\n    tag_209:\n        /* \"contracts/BoxV2.sol\":1365:1460  Depositer({\r... */\n      0x40\n      dup1\n      mload\n      swap1\n      dup2\n      add\n      0x40\n      mstore\n      dup1\n        /* \"contracts/BoxV2.sol\":1397:1406  msg.value */\n      callvalue\n        /* \"contracts/BoxV2.sol\":1365:1460  Depositer({\r... */\n      dup2\n      mstore\n      0x20\n      add\n        /* \"contracts/BoxV2.sol\":1438:1448  msg.sender */\n      caller\n        /* \"contracts/BoxV2.sol\":1365:1460  Depositer({\r... */\n      0xffffffffffffffffffffffffffffffffffffffff\n      and\n      dup2\n      mstore\n      pop\n        /* \"contracts/BoxV2.sol\":1333:1460  Depositer memory newDepositer = Depositer({\r... */\n      swap1\n      pop\n        /* \"contracts/BoxV2.sol\":1470:1479  depositer */\n      0x0\n        /* \"contracts/BoxV2.sol\":1470:1498  depositer.push(newDepositer) */\n      dup1\n      sload\n      dup1\n      0x1\n      add\n      dup3\n      dup2\n      tag_212\n      swap2\n      swap1\n      jump\t// in(tag_213)\n    tag_212:\n      swap2\n      0x0\n      mstore\n      keccak256(0x0, 0x20)\n      swap1\n      0x2\n      mul\n      add\n      0x0\n        /* \"contracts/BoxV2.sol\":1485:1497  newDepositer */\n      dup4\n        /* \"contracts/BoxV2.sol\":1470:1498  depositer.push(newDepositer) */\n      swap1\n      swap2\n      swap1\n      swap2\n      pop\n      0x0\n      dup3\n      add\n      mload\n      dup2\n      0x0\n      add\n      sstore\n      0x20\n      dup3\n      add\n      mload\n      dup2\n      0x1\n      add\n      exp(0x100, 0x0)\n      dup2\n      sload\n      dup2\n      0xffffffffffffffffffffffffffffffffffffffff\n      mul\n      not\n      and\n      swap1\n      dup4\n      0xffffffffffffffffffffffffffffffffffffffff\n      and\n      mul\n      or\n      swap1\n      sstore\n      pop\n      pop\n      pop\n      pop\n        /* \"contracts/BoxV2.sol\":1291:1506  function enter() public payable {\r... */\n      pop\n      jump\t// out\n        /* \"contracts/BoxV2.sol\":63:4512  contract BoxV2 {\r... */\n    tag_102:\n      0x20\n      mload(0x40)\n      swap1\n      dup2\n      add\n      0x40\n      mstore\n      dup1\n      0x0\n      dup2\n      mstore\n      pop\n      swap1\n      jump\t// out\n    tag_116:\n      0x120\n      mload(0x40)\n      swap1\n      dup2\n      add\n      0x40\n      mstore\n      dup1\n      0x0\n      dup2\n      mstore\n      0x20\n      add\n      tag_215\n      jump\t// in(tag_216)\n    tag_215:\n      dup2\n      mstore\n      0x20\n      add\n      tag_217\n      jump\t// in(tag_216)\n    tag_217:\n      dup2\n      mstore\n      0x20\n      add\n      tag_218\n      jump\t// in(tag_216)\n    tag_218:\n      dup2\n      mstore\n      0x20\n      add\n      0x0\n      dup2\n      mstore\n      0x20\n      add\n      and(0xffffffffffffffffffffffffffffffffffffffff, 0x0)\n      dup2\n      mstore\n      0x20\n      add\n      iszero(iszero(0x0))\n      dup2\n      mstore\n      0x20\n      add\n      and(0xffffffffffffffffffffffffffffffffffffffff, 0x0)\n      dup2\n      mstore\n      0x20\n      add\n      0x0\n      dup2\n      mstore\n      pop\n      swap1\n      jump\t// out\n    tag_119:\n      dup2\n      sload\n      dup2\n      dup4\n      sstore\n      dup2\n      dup2\n      iszero\n      gt\n      tag_219\n      jumpi\n      0x8\n      mul\n      dup2\n      0x8\n      mul\n      dup4\n      0x0\n      mstore\n      keccak256(0x0, 0x20)\n      swap2\n      dup3\n      add\n      swap2\n      add\n      tag_220\n      swap2\n      swap1\n      jump\t// in(tag_221)\n    tag_220:\n    tag_219:\n      pop\n      pop\n      pop\n      jump\t// out\n    tag_122:\n      dup3\n      dup1\n      sload\n      0x1\n      dup2\n      0x1\n      and\n      iszero\n      0x100\n      mul\n      sub\n      and\n      0x2\n      swap1\n      div\n      swap1\n      0x0\n      mstore\n      keccak256(0x0, 0x20)\n      swap1\n      0x1f\n      add\n      0x20\n      swap1\n      div\n      dup2\n      add\n      swap3\n      dup3\n      0x1f\n      lt\n      tag_223\n      jumpi\n      dup1\n      mload\n      not(0xff)\n      and\n      dup4\n      dup1\n      add\n      or\n      dup6\n      sstore\n      jump(tag_222)\n    tag_223:\n      dup3\n      dup1\n      add\n      0x1\n      add\n      dup6\n      sstore\n      dup3\n      iszero\n      tag_222\n      jumpi\n      swap2\n      dup3\n      add\n    tag_224:\n      dup3\n      dup2\n      gt\n      iszero\n      tag_225\n      jumpi\n      dup3\n      mload\n      dup3\n      sstore\n      swap2\n      0x20\n      add\n      swap2\n      swap1\n      0x1\n      add\n      swap1\n      jump(tag_224)\n    tag_225:\n    tag_222:\n      pop\n      swap1\n      pop\n      tag_226\n      swap2\n      swap1\n      jump\t// in(tag_227)\n    tag_226:\n      pop\n      swap1\n      jump\t// out\n    tag_126:\n      0xe0\n      mload(0x40)\n      swap1\n      dup2\n      add\n      0x40\n      mstore\n      dup1\n      tag_228\n      jump\t// in(tag_216)\n    tag_228:\n      dup2\n      mstore\n      0x20\n      add\n      tag_229\n      jump\t// in(tag_216)\n    tag_229:\n      dup2\n      mstore\n      0x20\n      add\n      0x0\n      dup2\n      mstore\n      0x20\n      add\n      0x0\n      dup2\n      mstore\n      0x20\n      add\n      tag_230\n      jump\t// in(tag_216)\n    tag_230:\n      dup2\n      mstore\n      0x20\n      add\n      0x0\n      dup2\n      mstore\n      0x20\n      add\n      tag_231\n      jump\t// in(tag_216)\n    tag_231:\n      dup2\n      mstore\n      pop\n      swap1\n      jump\t// out\n    tag_141:\n      dup2\n      sload\n      dup2\n      dup4\n      sstore\n      dup2\n      dup2\n      iszero\n      gt\n      tag_232\n      jumpi\n      0x7\n      mul\n      dup2\n      0x7\n      mul\n      dup4\n      0x0\n      mstore\n      keccak256(0x0, 0x20)\n      swap2\n      dup3\n      add\n      swap2\n      add\n      tag_233\n      swap2\n      swap1\n      jump\t// in(tag_234)\n    tag_233:\n    tag_232:\n      pop\n      pop\n      pop\n      jump\t// out\n    tag_149:\n      0x20\n      mload(0x40)\n      swap1\n      dup2\n      add\n      0x40\n      mstore\n      dup1\n      0x0\n      dup2\n      mstore\n      pop\n      swap1\n      jump\t// out\n    tag_166:\n      0x120\n      mload(0x40)\n      swap1\n      dup2\n      add\n      0x40\n      mstore\n      dup1\n      0x0\n      dup2\n      mstore\n      0x20\n      add\n      tag_235\n      jump\t// in(tag_216)\n    tag_235:\n      dup2\n      mstore\n      0x20\n      add\n      0x0\n      dup2\n      mstore\n      0x20\n      add\n      tag_236\n      jump\t// in(tag_216)\n    tag_236:\n      dup2\n      mstore\n      0x20\n      add\n      0x0\n      dup2\n      mstore\n      0x20\n      add\n      iszero(iszero(0x0))\n      dup2\n      mstore\n      0x20\n      add\n      and(0xffffffffffffffffffffffffffffffffffffffff, 0x0)\n      dup2\n      mstore\n      0x20\n      add\n      0x0\n      dup2\n      mstore\n      0x20\n      add\n      0x0\n      dup2\n      mstore\n      pop\n      swap1\n      jump\t// out\n    tag_170:\n      dup2\n      sload\n      dup2\n      dup4\n      sstore\n      dup2\n      dup2\n      iszero\n      gt\n      tag_237\n      jumpi\n      0x8\n      mul\n      dup2\n      0x8\n      mul\n      dup4\n      0x0\n      mstore\n      keccak256(0x0, 0x20)\n      swap2\n      dup3\n      add\n      swap2\n      add\n      tag_238\n      swap2\n      swap1\n      jump\t// in(tag_239)\n    tag_238:\n    tag_237:\n      pop\n      pop\n      pop\n      jump\t// out\n    tag_178:\n      0x20\n      mload(0x40)\n      swap1\n      dup2\n      add\n      0x40\n      mstore\n      dup1\n      0x0\n      dup2\n      mstore\n      pop\n      swap1\n      jump\t// out\n    tag_200:\n      0x20\n      mload(0x40)\n      swap1\n      dup2\n      add\n      0x40\n      mstore\n      dup1\n      0x0\n      dup2\n      mstore\n      pop\n      swap1\n      jump\t// out\n    tag_210:\n      0x40\n      dup1\n      mload\n      swap1\n      dup2\n      add\n      0x40\n      mstore\n      dup1\n      0x0\n      dup2\n      mstore\n      0x20\n      add\n      and(0xffffffffffffffffffffffffffffffffffffffff, 0x0)\n      dup2\n      mstore\n      pop\n      swap1\n      jump\t// out\n    tag_213:\n      dup2\n      sload\n      dup2\n      dup4\n      sstore\n      dup2\n      dup2\n      iszero\n      gt\n      tag_240\n      jumpi\n      0x2\n      mul\n      dup2\n      0x2\n      mul\n      dup4\n      0x0\n      mstore\n      keccak256(0x0, 0x20)\n      swap2\n      dup3\n      add\n      swap2\n      add\n      tag_241\n      swap2\n      swap1\n      jump\t// in(tag_242)\n    tag_241:\n    tag_240:\n      pop\n      pop\n      pop\n      jump\t// out\n    tag_216:\n      0x20\n      mload(0x40)\n      swap1\n      dup2\n      add\n      0x40\n      mstore\n      dup1\n      0x0\n      dup2\n      mstore\n      pop\n      swap1\n      jump\t// out\n    tag_221:\n      tag_243\n      swap2\n      swap1\n    tag_244:\n      dup1\n      dup3\n      gt\n      iszero\n      tag_245\n      jumpi\n      0x0\n      dup1\n      dup3\n      add\n      0x0\n      swap1\n      sstore\n      0x1\n      dup3\n      add\n      0x0\n      tag_246\n      swap2\n      swap1\n      jump\t// in(tag_247)\n    tag_246:\n      0x2\n      dup3\n      add\n      0x0\n      tag_248\n      swap2\n      swap1\n      jump\t// in(tag_247)\n    tag_248:\n      0x3\n      dup3\n      add\n      0x0\n      tag_249\n      swap2\n      swap1\n      jump\t// in(tag_247)\n    tag_249:\n      0x4\n      dup3\n      add\n      0x0\n      swap1\n      sstore\n      0x5\n      dup3\n      add\n      exp(0x100, 0x0)\n      dup2\n      sload\n      swap1\n      0xffffffffffffffffffffffffffffffffffffffff\n      mul\n      not\n      and\n      swap1\n      sstore\n      0x5\n      dup3\n      add\n      exp(0x100, 0x14)\n      dup2\n      sload\n      swap1\n      0xff\n      mul\n      not\n      and\n      swap1\n      sstore\n      0x6\n      dup3\n      add\n      exp(0x100, 0x0)\n      dup2\n      sload\n      swap1\n      0xffffffffffffffffffffffffffffffffffffffff\n      mul\n      not\n      and\n      swap1\n      sstore\n      0x7\n      dup3\n      add\n      0x0\n      swap1\n      sstore\n      pop\n      0x8\n      add\n      jump(tag_244)\n    tag_245:\n      pop\n      swap1\n      jump\n    tag_243:\n      swap1\n      jump\t// out\n    tag_227:\n      tag_250\n      swap2\n      swap1\n    tag_251:\n      dup1\n      dup3\n      gt\n      iszero\n      tag_252\n      jumpi\n      0x0\n      dup2\n      0x0\n      swap1\n      sstore\n      pop\n      0x1\n      add\n      jump(tag_251)\n    tag_252:\n      pop\n      swap1\n      jump\n    tag_250:\n      swap1\n      jump\t// out\n    tag_234:\n      tag_253\n      swap2\n      swap1\n    tag_254:\n      dup1\n      dup3\n      gt\n      iszero\n      tag_255\n      jumpi\n      0x0\n      dup1\n      dup3\n      add\n      0x0\n      tag_256\n      swap2\n      swap1\n      jump\t// in(tag_247)\n    tag_256:\n      0x1\n      dup3\n      add\n      0x0\n      tag_257\n      swap2\n      swap1\n      jump\t// in(tag_247)\n    tag_257:\n      0x2\n      dup3\n      add\n      0x0\n      swap1\n      sstore\n      0x3\n      dup3\n      add\n      0x0\n      swap1\n      sstore\n      0x4\n      dup3\n      add\n      0x0\n      tag_258\n      swap2\n      swap1\n      jump\t// in(tag_247)\n    tag_258:\n      0x5\n      dup3\n      add\n      0x0\n      swap1\n      sstore\n      0x6\n      dup3\n      add\n      0x0\n      tag_259\n      swap2\n      swap1\n      jump\t// in(tag_247)\n    tag_259:\n      pop\n      0x7\n      add\n      jump(tag_254)\n    tag_255:\n      pop\n      swap1\n      jump\n    tag_253:\n      swap1\n      jump\t// out\n    tag_239:\n      tag_260\n      swap2\n      swap1\n    tag_261:\n      dup1\n      dup3\n      gt\n      iszero\n      tag_262\n      jumpi\n      0x0\n      dup1\n      dup3\n      add\n      0x0\n      swap1\n      sstore\n      0x1\n      dup3\n      add\n      0x0\n      tag_263\n      swap2\n      swap1\n      jump\t// in(tag_247)\n    tag_263:\n      0x2\n      dup3\n      add\n      0x0\n      swap1\n      sstore\n      0x3\n      dup3\n      add\n      0x0\n      tag_264\n      swap2\n      swap1\n      jump\t// in(tag_247)\n    tag_264:\n      0x4\n      dup3\n      add\n      0x0\n      swap1\n      sstore\n      0x5\n      dup3\n      add\n      exp(0x100, 0x0)\n      dup2\n      sload\n      swap1\n      0xff\n      mul\n      not\n      and\n      swap1\n      sstore\n      0x5\n      dup3\n      add\n      exp(0x100, 0x1)\n      dup2\n      sload\n      swap1\n      0xffffffffffffffffffffffffffffffffffffffff\n      mul\n      not\n      and\n      swap1\n      sstore\n      0x6\n      dup3\n      add\n      0x0\n      swap1\n      sstore\n      0x7\n      dup3\n      add\n      0x0\n      swap1\n      sstore\n      pop\n      0x8\n      add\n      jump(tag_261)\n    tag_262:\n      pop\n      swap1\n      jump\n    tag_260:\n      swap1\n      jump\t// out\n    tag_242:\n      tag_265\n      swap2\n      swap1\n    tag_266:\n      dup1\n      dup3\n      gt\n      iszero\n      tag_267\n      jumpi\n      0x0\n      dup1\n      dup3\n      add\n      0x0\n      swap1\n      sstore\n      0x1\n      dup3\n      add\n      exp(0x100, 0x0)\n      dup2\n      sload\n      swap1\n      0xffffffffffffffffffffffffffffffffffffffff\n      mul\n      not\n      and\n      swap1\n      sstore\n      pop\n      0x2\n      add\n      jump(tag_266)\n    tag_267:\n      pop\n      swap1\n      jump\n    tag_265:\n      swap1\n      jump\t// out\n    tag_247:\n      pop\n      dup1\n      sload\n      0x1\n      dup2\n      0x1\n      and\n      iszero\n      0x100\n      mul\n      sub\n      and\n      0x2\n      swap1\n      div\n      0x0\n      dup3\n      sstore\n      dup1\n      0x1f\n      lt\n      tag_269\n      jumpi\n      pop\n      jump(tag_268)\n    tag_269:\n      0x1f\n      add\n      0x20\n      swap1\n      div\n      swap1\n      0x0\n      mstore\n      keccak256(0x0, 0x20)\n      swap1\n      dup2\n      add\n      swap1\n      tag_270\n      swap2\n      swap1\n      jump\t// in(tag_227)\n    tag_270:\n    tag_268:\n      pop\n      jump\t// out\n        /* \"--CODEGEN--\":5:115   */\n    tag_272:\n        /* \"--CODEGEN--\":78:109   */\n      tag_273\n        /* \"--CODEGEN--\":103:108   */\n      dup2\n        /* \"--CODEGEN--\":78:109   */\n      jump(tag_274)\n    tag_273:\n        /* \"--CODEGEN--\":73:76   */\n      dup3\n        /* \"--CODEGEN--\":66:72   */\n      mstore\n        /* \"--CODEGEN--\":60:115   */\n      pop\n      pop\n      jump\n        /* \"--CODEGEN--\":123:871   */\n    tag_276:\n      0x0\n        /* \"--CODEGEN--\":302:378   */\n      tag_277\n        /* \"--CODEGEN--\":372:377   */\n      dup3\n        /* \"--CODEGEN--\":302:378   */\n      jump(tag_278)\n    tag_277:\n        /* \"--CODEGEN--\":396:402   */\n      dup1\n        /* \"--CODEGEN--\":391:394   */\n      dup5\n        /* \"--CODEGEN--\":384:390   */\n      mstore\n        /* \"--CODEGEN--\":420:424   */\n      0x20\n        /* \"--CODEGEN--\":415:418   */\n      dup5\n        /* \"--CODEGEN--\":411:414   */\n      add\n        /* \"--CODEGEN--\":404:425   */\n      swap4\n      pop\n        /* \"--CODEGEN--\":465:543   */\n      tag_279\n        /* \"--CODEGEN--\":537:542   */\n      dup4\n        /* \"--CODEGEN--\":465:543   */\n      jump(tag_280)\n    tag_279:\n        /* \"--CODEGEN--\":564:565   */\n      0x0\n        /* \"--CODEGEN--\":549:849   */\n    tag_281:\n        /* \"--CODEGEN--\":574:580   */\n      dup3\n        /* \"--CODEGEN--\":571:572   */\n      dup2\n        /* \"--CODEGEN--\":568:570   */\n      lt\n        /* \"--CODEGEN--\":549:849   */\n      iszero\n      tag_282\n      jumpi\n        /* \"--CODEGEN--\":614:715   */\n      tag_284\n        /* \"--CODEGEN--\":711:714   */\n      dup7\n        /* \"--CODEGEN--\":702:708   */\n      dup4\n        /* \"--CODEGEN--\":696:701   */\n      mload\n        /* \"--CODEGEN--\":614:715   */\n      jump(tag_285)\n    tag_284:\n        /* \"--CODEGEN--\":732:814   */\n      tag_286\n        /* \"--CODEGEN--\":807:813   */\n      dup3\n        /* \"--CODEGEN--\":732:814   */\n      jump(tag_287)\n    tag_286:\n        /* \"--CODEGEN--\":722:814   */\n      swap2\n      pop\n        /* \"--CODEGEN--\":837:841   */\n      0x40\n        /* \"--CODEGEN--\":832:835   */\n      dup7\n        /* \"--CODEGEN--\":828:831   */\n      add\n        /* \"--CODEGEN--\":821:842   */\n      swap6\n      pop\n        /* \"--CODEGEN--\":596:597   */\n      0x1\n        /* \"--CODEGEN--\":593:594   */\n      dup2\n        /* \"--CODEGEN--\":589:592   */\n      add\n        /* \"--CODEGEN--\":584:598   */\n      swap1\n      pop\n        /* \"--CODEGEN--\":549:849   */\n      jump(tag_281)\n    tag_282:\n        /* \"--CODEGEN--\":553:567   */\n      pop\n        /* \"--CODEGEN--\":862:865   */\n      dup5\n        /* \"--CODEGEN--\":855:865   */\n      swap3\n      pop\n        /* \"--CODEGEN--\":281:871   */\n      pop\n      pop\n      swap3\n      swap2\n      pop\n      pop\n      jump\n        /* \"--CODEGEN--\":880:1779   */\n    tag_289:\n      0x0\n        /* \"--CODEGEN--\":1063:1141   */\n      tag_290\n        /* \"--CODEGEN--\":1135:1140   */\n      dup3\n        /* \"--CODEGEN--\":1063:1141   */\n      jump(tag_291)\n    tag_290:\n        /* \"--CODEGEN--\":1159:1165   */\n      dup1\n        /* \"--CODEGEN--\":1154:1157   */\n      dup5\n        /* \"--CODEGEN--\":1147:1153   */\n      mstore\n        /* \"--CODEGEN--\":1183:1187   */\n      0x20\n        /* \"--CODEGEN--\":1178:1181   */\n      dup5\n        /* \"--CODEGEN--\":1174:1177   */\n      add\n        /* \"--CODEGEN--\":1167:1188   */\n      swap4\n      pop\n        /* \"--CODEGEN--\":1231:1234   */\n      dup4\n        /* \"--CODEGEN--\":1273:1277   */\n      0x20\n        /* \"--CODEGEN--\":1265:1271   */\n      dup3\n        /* \"--CODEGEN--\":1261:1264   */\n      mul\n        /* \"--CODEGEN--\":1256:1259   */\n      dup6\n        /* \"--CODEGEN--\":1252:1255   */\n      add\n        /* \"--CODEGEN--\":1299:1379   */\n      tag_292\n        /* \"--CODEGEN--\":1373:1378   */\n      dup6\n        /* \"--CODEGEN--\":1299:1379   */\n      jump(tag_293)\n    tag_292:\n        /* \"--CODEGEN--\":1400:1401   */\n      0x0\n        /* \"--CODEGEN--\":1385:1740   */\n    tag_294:\n        /* \"--CODEGEN--\":1410:1416   */\n      dup5\n        /* \"--CODEGEN--\":1407:1408   */\n      dup2\n        /* \"--CODEGEN--\":1404:1406   */\n      lt\n        /* \"--CODEGEN--\":1385:1740   */\n      iszero\n      tag_295\n      jumpi\n        /* \"--CODEGEN--\":1472:1481   */\n      dup4\n        /* \"--CODEGEN--\":1466:1470   */\n      dup4\n        /* \"--CODEGEN--\":1462:1465   */\n      sub\n        /* \"--CODEGEN--\":1457:1460   */\n      dup9\n        /* \"--CODEGEN--\":1450:1456   */\n      mstore\n        /* \"--CODEGEN--\":1498:1604   */\n      tag_297\n        /* \"--CODEGEN--\":1599:1603   */\n      dup4\n        /* \"--CODEGEN--\":1590:1596   */\n      dup4\n        /* \"--CODEGEN--\":1584:1589   */\n      mload\n        /* \"--CODEGEN--\":1498:1604   */\n      jump(tag_298)\n    tag_297:\n        /* \"--CODEGEN--\":1490:1604   */\n      swap3\n      pop\n        /* \"--CODEGEN--\":1621:1705   */\n      tag_299\n        /* \"--CODEGEN--\":1698:1704   */\n      dup3\n        /* \"--CODEGEN--\":1621:1705   */\n      jump(tag_300)\n    tag_299:\n        /* \"--CODEGEN--\":1611:1705   */\n      swap2\n      pop\n        /* \"--CODEGEN--\":1728:1732   */\n      0xe0\n        /* \"--CODEGEN--\":1723:1726   */\n      dup9\n        /* \"--CODEGEN--\":1719:1722   */\n      add\n        /* \"--CODEGEN--\":1712:1733   */\n      swap8\n      pop\n        /* \"--CODEGEN--\":1432:1433   */\n      0x1\n        /* \"--CODEGEN--\":1429:1430   */\n      dup2\n        /* \"--CODEGEN--\":1425:1428   */\n      add\n        /* \"--CODEGEN--\":1420:1434   */\n      swap1\n      pop\n        /* \"--CODEGEN--\":1385:1740   */\n      jump(tag_294)\n    tag_295:\n        /* \"--CODEGEN--\":1389:1403   */\n      pop\n        /* \"--CODEGEN--\":1753:1757   */\n      dup2\n        /* \"--CODEGEN--\":1746:1757   */\n      swap7\n      pop\n        /* \"--CODEGEN--\":1770:1773   */\n      dup7\n        /* \"--CODEGEN--\":1763:1773   */\n      swap5\n      pop\n        /* \"--CODEGEN--\":1042:1779   */\n      pop\n      pop\n      pop\n      pop\n      swap3\n      swap2\n      pop\n      pop\n      jump\n        /* \"--CODEGEN--\":1788:2660   */\n    tag_302:\n      0x0\n        /* \"--CODEGEN--\":1963:2037   */\n      tag_303\n        /* \"--CODEGEN--\":2031:2036   */\n      dup3\n        /* \"--CODEGEN--\":1963:2037   */\n      jump(tag_304)\n    tag_303:\n        /* \"--CODEGEN--\":2055:2061   */\n      dup1\n        /* \"--CODEGEN--\":2050:2053   */\n      dup5\n        /* \"--CODEGEN--\":2043:2049   */\n      mstore\n        /* \"--CODEGEN--\":2079:2083   */\n      0x20\n        /* \"--CODEGEN--\":2074:2077   */\n      dup5\n        /* \"--CODEGEN--\":2070:2073   */\n      add\n        /* \"--CODEGEN--\":2063:2084   */\n      swap4\n      pop\n        /* \"--CODEGEN--\":2127:2130   */\n      dup4\n        /* \"--CODEGEN--\":2169:2173   */\n      0x20\n        /* \"--CODEGEN--\":2161:2167   */\n      dup3\n        /* \"--CODEGEN--\":2157:2160   */\n      mul\n        /* \"--CODEGEN--\":2152:2155   */\n      dup6\n        /* \"--CODEGEN--\":2148:2151   */\n      add\n        /* \"--CODEGEN--\":2195:2271   */\n      tag_305\n        /* \"--CODEGEN--\":2265:2270   */\n      dup6\n        /* \"--CODEGEN--\":2195:2271   */\n      jump(tag_306)\n    tag_305:\n        /* \"--CODEGEN--\":2292:2293   */\n      0x0\n        /* \"--CODEGEN--\":2277:2621   */\n    tag_307:\n        /* \"--CODEGEN--\":2302:2308   */\n      dup5\n        /* \"--CODEGEN--\":2299:2300   */\n      dup2\n        /* \"--CODEGEN--\":2296:2298   */\n      lt\n        /* \"--CODEGEN--\":2277:2621   */\n      iszero\n      tag_308\n      jumpi\n        /* \"--CODEGEN--\":2364:2373   */\n      dup4\n        /* \"--CODEGEN--\":2358:2362   */\n      dup4\n        /* \"--CODEGEN--\":2354:2357   */\n      sub\n        /* \"--CODEGEN--\":2349:2352   */\n      dup9\n        /* \"--CODEGEN--\":2342:2348   */\n      mstore\n        /* \"--CODEGEN--\":2390:2488   */\n      tag_310\n        /* \"--CODEGEN--\":2483:2487   */\n      dup4\n        /* \"--CODEGEN--\":2474:2480   */\n      dup4\n        /* \"--CODEGEN--\":2468:2473   */\n      mload\n        /* \"--CODEGEN--\":2390:2488   */\n      jump(tag_311)\n    tag_310:\n        /* \"--CODEGEN--\":2382:2488   */\n      swap3\n      pop\n        /* \"--CODEGEN--\":2505:2585   */\n      tag_312\n        /* \"--CODEGEN--\":2578:2584   */\n      dup3\n        /* \"--CODEGEN--\":2505:2585   */\n      jump(tag_313)\n    tag_312:\n        /* \"--CODEGEN--\":2495:2585   */\n      swap2\n      pop\n        /* \"--CODEGEN--\":2608:2613   */\n      0x120\n        /* \"--CODEGEN--\":2603:2606   */\n      dup9\n        /* \"--CODEGEN--\":2599:2602   */\n      add\n        /* \"--CODEGEN--\":2592:2614   */\n      swap8\n      pop\n        /* \"--CODEGEN--\":2324:2325   */\n      0x1\n        /* \"--CODEGEN--\":2321:2322   */\n      dup2\n        /* \"--CODEGEN--\":2317:2320   */\n      add\n        /* \"--CODEGEN--\":2312:2326   */\n      swap1\n      pop\n        /* \"--CODEGEN--\":2277:2621   */\n      jump(tag_307)\n    tag_308:\n        /* \"--CODEGEN--\":2281:2295   */\n      pop\n        /* \"--CODEGEN--\":2634:2638   */\n      dup2\n        /* \"--CODEGEN--\":2627:2638   */\n      swap7\n      pop\n        /* \"--CODEGEN--\":2651:2654   */\n      dup7\n        /* \"--CODEGEN--\":2644:2654   */\n      swap5\n      pop\n        /* \"--CODEGEN--\":1942:2660   */\n      pop\n      pop\n      pop\n      pop\n      swap3\n      swap2\n      pop\n      pop\n      jump\n        /* \"--CODEGEN--\":2669:3534   */\n    tag_315:\n      0x0\n        /* \"--CODEGEN--\":2842:2915   */\n      tag_316\n        /* \"--CODEGEN--\":2909:2914   */\n      dup3\n        /* \"--CODEGEN--\":2842:2915   */\n      jump(tag_317)\n    tag_316:\n        /* \"--CODEGEN--\":2933:2939   */\n      dup1\n        /* \"--CODEGEN--\":2928:2931   */\n      dup5\n        /* \"--CODEGEN--\":2921:2927   */\n      mstore\n        /* \"--CODEGEN--\":2957:2961   */\n      0x20\n        /* \"--CODEGEN--\":2952:2955   */\n      dup5\n        /* \"--CODEGEN--\":2948:2951   */\n      add\n        /* \"--CODEGEN--\":2941:2962   */\n      swap4\n      pop\n        /* \"--CODEGEN--\":3005:3008   */\n      dup4\n        /* \"--CODEGEN--\":3047:3051   */\n      0x20\n        /* \"--CODEGEN--\":3039:3045   */\n      dup3\n        /* \"--CODEGEN--\":3035:3038   */\n      mul\n        /* \"--CODEGEN--\":3030:3033   */\n      dup6\n        /* \"--CODEGEN--\":3026:3029   */\n      add\n        /* \"--CODEGEN--\":3073:3148   */\n      tag_318\n        /* \"--CODEGEN--\":3142:3147   */\n      dup6\n        /* \"--CODEGEN--\":3073:3148   */\n      jump(tag_319)\n    tag_318:\n        /* \"--CODEGEN--\":3169:3170   */\n      0x0\n        /* \"--CODEGEN--\":3154:3495   */\n    tag_320:\n        /* \"--CODEGEN--\":3179:3185   */\n      dup5\n        /* \"--CODEGEN--\":3176:3177   */\n      dup2\n        /* \"--CODEGEN--\":3173:3175   */\n      lt\n        /* \"--CODEGEN--\":3154:3495   */\n      iszero\n      tag_321\n      jumpi\n        /* \"--CODEGEN--\":3241:3250   */\n      dup4\n        /* \"--CODEGEN--\":3235:3239   */\n      dup4\n        /* \"--CODEGEN--\":3231:3234   */\n      sub\n        /* \"--CODEGEN--\":3226:3229   */\n      dup9\n        /* \"--CODEGEN--\":3219:3225   */\n      mstore\n        /* \"--CODEGEN--\":3267:3363   */\n      tag_323\n        /* \"--CODEGEN--\":3358:3362   */\n      dup4\n        /* \"--CODEGEN--\":3349:3355   */\n      dup4\n        /* \"--CODEGEN--\":3343:3348   */\n      mload\n        /* \"--CODEGEN--\":3267:3363   */\n      jump(tag_324)\n    tag_323:\n        /* \"--CODEGEN--\":3259:3363   */\n      swap3\n      pop\n        /* \"--CODEGEN--\":3380:3459   */\n      tag_325\n        /* \"--CODEGEN--\":3452:3458   */\n      dup3\n        /* \"--CODEGEN--\":3380:3459   */\n      jump(tag_326)\n    tag_325:\n        /* \"--CODEGEN--\":3370:3459   */\n      swap2\n      pop\n        /* \"--CODEGEN--\":3482:3487   */\n      0x120\n        /* \"--CODEGEN--\":3477:3480   */\n      dup9\n        /* \"--CODEGEN--\":3473:3476   */\n      add\n        /* \"--CODEGEN--\":3466:3488   */\n      swap8\n      pop\n        /* \"--CODEGEN--\":3201:3202   */\n      0x1\n        /* \"--CODEGEN--\":3198:3199   */\n      dup2\n        /* \"--CODEGEN--\":3194:3197   */\n      add\n        /* \"--CODEGEN--\":3189:3203   */\n      swap1\n      pop\n        /* \"--CODEGEN--\":3154:3495   */\n      jump(tag_320)\n    tag_321:\n        /* \"--CODEGEN--\":3158:3172   */\n      pop\n        /* \"--CODEGEN--\":3508:3512   */\n      dup2\n        /* \"--CODEGEN--\":3501:3512   */\n      swap7\n      pop\n        /* \"--CODEGEN--\":3525:3528   */\n      dup7\n        /* \"--CODEGEN--\":3518:3528   */\n      swap5\n      pop\n        /* \"--CODEGEN--\":2821:3534   */\n      pop\n      pop\n      pop\n      pop\n      swap3\n      swap2\n      pop\n      pop\n      jump\n        /* \"--CODEGEN--\":3542:3643   */\n    tag_328:\n        /* \"--CODEGEN--\":3609:3637   */\n      tag_329\n        /* \"--CODEGEN--\":3631:3636   */\n      dup2\n        /* \"--CODEGEN--\":3609:3637   */\n      jump(tag_330)\n    tag_329:\n        /* \"--CODEGEN--\":3604:3607   */\n      dup3\n        /* \"--CODEGEN--\":3597:3603   */\n      mstore\n        /* \"--CODEGEN--\":3591:3643   */\n      pop\n      pop\n      jump\n        /* \"--CODEGEN--\":3650:3942   */\n    tag_332:\n      0x0\n        /* \"--CODEGEN--\":3748:3783   */\n      tag_333\n        /* \"--CODEGEN--\":3777:3782   */\n      dup3\n        /* \"--CODEGEN--\":3748:3783   */\n      jump(tag_334)\n    tag_333:\n        /* \"--CODEGEN--\":3800:3806   */\n      dup1\n        /* \"--CODEGEN--\":3795:3798   */\n      dup5\n        /* \"--CODEGEN--\":3788:3794   */\n      mstore\n        /* \"--CODEGEN--\":3812:3875   */\n      tag_335\n        /* \"--CODEGEN--\":3868:3874   */\n      dup2\n        /* \"--CODEGEN--\":3861:3865   */\n      0x20\n        /* \"--CODEGEN--\":3856:3859   */\n      dup7\n        /* \"--CODEGEN--\":3852:3855   */\n      add\n        /* \"--CODEGEN--\":3845:3849   */\n      0x20\n        /* \"--CODEGEN--\":3838:3843   */\n      dup7\n        /* \"--CODEGEN--\":3834:3837   */\n      add\n        /* \"--CODEGEN--\":3812:3875   */\n      jump(tag_336)\n    tag_335:\n        /* \"--CODEGEN--\":3907:3936   */\n      tag_337\n        /* \"--CODEGEN--\":3929:3935   */\n      dup2\n        /* \"--CODEGEN--\":3907:3936   */\n      jump(tag_338)\n    tag_337:\n        /* \"--CODEGEN--\":3900:3904   */\n      0x20\n        /* \"--CODEGEN--\":3895:3898   */\n      dup6\n        /* \"--CODEGEN--\":3891:3894   */\n      add\n        /* \"--CODEGEN--\":3887:3890   */\n      add\n        /* \"--CODEGEN--\":3880:3937   */\n      swap2\n      pop\n        /* \"--CODEGEN--\":3728:3942   */\n      pop\n      swap3\n      swap2\n      pop\n      pop\n      jump\n        /* \"--CODEGEN--\":3950:4684   */\n    tag_340:\n      0x0\n        /* \"--CODEGEN--\":4059:4064   */\n      dup2\n        /* \"--CODEGEN--\":4053:4058   */\n      sload\n        /* \"--CODEGEN--\":4093:4094   */\n      0x1\n        /* \"--CODEGEN--\":4082:4091   */\n      dup2\n        /* \"--CODEGEN--\":4078:4081   */\n      and\n        /* \"--CODEGEN--\":4106:4107   */\n      0x0\n        /* \"--CODEGEN--\":4101:4301   */\n      dup2\n      eq\n      tag_342\n      jumpi\n        /* \"--CODEGEN--\":4312:4313   */\n      0x1\n        /* \"--CODEGEN--\":4307:4678   */\n      dup2\n      eq\n      tag_343\n      jumpi\n        /* \"--CODEGEN--\":4071:4678   */\n      jump(tag_341)\n        /* \"--CODEGEN--\":4101:4301   */\n    tag_342:\n        /* \"--CODEGEN--\":4179:4183   */\n      0x7f\n        /* \"--CODEGEN--\":4175:4176   */\n      0x2\n        /* \"--CODEGEN--\":4164:4173   */\n      dup4\n        /* \"--CODEGEN--\":4160:4163   */\n      div\n        /* \"--CODEGEN--\":4156:4159   */\n      and\n        /* \"--CODEGEN--\":4203:4209   */\n      dup1\n        /* \"--CODEGEN--\":4198:4201   */\n      dup7\n        /* \"--CODEGEN--\":4191:4197   */\n      mstore\n        /* \"--CODEGEN--\":4259:4263   */\n      0xff\n        /* \"--CODEGEN--\":4255:4258   */\n      not\n        /* \"--CODEGEN--\":4244:4253   */\n      dup4\n        /* \"--CODEGEN--\":4240:4243   */\n      and\n        /* \"--CODEGEN--\":4233:4237   */\n      0x20\n        /* \"--CODEGEN--\":4228:4231   */\n      dup8\n        /* \"--CODEGEN--\":4224:4227   */\n      add\n        /* \"--CODEGEN--\":4217:4223   */\n      mstore\n        /* \"--CODEGEN--\":4289:4293   */\n      0x40\n        /* \"--CODEGEN--\":4284:4287   */\n      dup7\n        /* \"--CODEGEN--\":4280:4283   */\n      add\n        /* \"--CODEGEN--\":4273:4294   */\n      swap4\n      pop\n        /* \"--CODEGEN--\":4108:4301   */\n      pop\n        /* \"--CODEGEN--\":4101:4301   */\n      jump(tag_341)\n        /* \"--CODEGEN--\":4307:4678   */\n    tag_343:\n        /* \"--CODEGEN--\":4376:4377   */\n      0x2\n        /* \"--CODEGEN--\":4365:4374   */\n      dup3\n        /* \"--CODEGEN--\":4361:4364   */\n      div\n        /* \"--CODEGEN--\":4397:4403   */\n      dup1\n        /* \"--CODEGEN--\":4392:4395   */\n      dup7\n        /* \"--CODEGEN--\":4385:4391   */\n      mstore\n        /* \"--CODEGEN--\":4427:4431   */\n      0x20\n        /* \"--CODEGEN--\":4422:4425   */\n      dup7\n        /* \"--CODEGEN--\":4418:4421   */\n      add\n        /* \"--CODEGEN--\":4411:4432   */\n      swap6\n      pop\n        /* \"--CODEGEN--\":4454:4492   */\n      tag_344\n        /* \"--CODEGEN--\":4486:4491   */\n      dup6\n        /* \"--CODEGEN--\":4454:4492   */\n      jump(tag_345)\n    tag_344:\n        /* \"--CODEGEN--\":4508:4509   */\n      0x0\n        /* \"--CODEGEN--\":4516:4646   */\n    tag_346:\n        /* \"--CODEGEN--\":4530:4536   */\n      dup3\n        /* \"--CODEGEN--\":4527:4528   */\n      dup2\n        /* \"--CODEGEN--\":4524:4526   */\n      lt\n        /* \"--CODEGEN--\":4516:4646   */\n      iszero\n      tag_347\n      jumpi\n        /* \"--CODEGEN--\":4595:4602   */\n      dup2\n        /* \"--CODEGEN--\":4589:4594   */\n      sload\n        /* \"--CODEGEN--\":4585:4586   */\n      dup2\n        /* \"--CODEGEN--\":4580:4583   */\n      dup10\n        /* \"--CODEGEN--\":4576:4579   */\n      add\n        /* \"--CODEGEN--\":4569:4575   */\n      mstore\n        /* \"--CODEGEN--\":4636:4637   */\n      0x1\n        /* \"--CODEGEN--\":4627:4634   */\n      dup3\n        /* \"--CODEGEN--\":4623:4626   */\n      add\n        /* \"--CODEGEN--\":4612:4638   */\n      swap2\n      pop\n        /* \"--CODEGEN--\":4552:4556   */\n      0x20\n        /* \"--CODEGEN--\":4549:4550   */\n      dup2\n        /* \"--CODEGEN--\":4545:4548   */\n      add\n        /* \"--CODEGEN--\":4540:4557   */\n      swap1\n      pop\n        /* \"--CODEGEN--\":4516:4646   */\n      jump(tag_346)\n    tag_347:\n        /* \"--CODEGEN--\":4669:4670   */\n      dup1\n        /* \"--CODEGEN--\":4664:4667   */\n      dup9\n        /* \"--CODEGEN--\":4660:4663   */\n      add\n        /* \"--CODEGEN--\":4653:4671   */\n      swap6\n      pop\n        /* \"--CODEGEN--\":4314:4678   */\n      pop\n      pop\n      pop\n        /* \"--CODEGEN--\":4071:4678   */\n    tag_341:\n      pop\n        /* \"--CODEGEN--\":4029:4684   */\n      pop\n      swap3\n      swap2\n      pop\n      pop\n      jump\n        /* \"--CODEGEN--\":4692:5196   */\n    tag_285:\n        /* \"--CODEGEN--\":4823:4827   */\n      0x40\n        /* \"--CODEGEN--\":4818:4821   */\n      dup3\n        /* \"--CODEGEN--\":4814:4817   */\n      add\n        /* \"--CODEGEN--\":4911:4914   */\n      0x0\n        /* \"--CODEGEN--\":4904:4909   */\n      dup3\n        /* \"--CODEGEN--\":4900:4903   */\n      add\n        /* \"--CODEGEN--\":4894:4899   */\n      mload\n        /* \"--CODEGEN--\":4928:4989   */\n      tag_350\n        /* \"--CODEGEN--\":4984:4987   */\n      0x0\n        /* \"--CODEGEN--\":4979:4982   */\n      dup6\n        /* \"--CODEGEN--\":4975:4978   */\n      add\n        /* \"--CODEGEN--\":4962:4973   */\n      dup3\n        /* \"--CODEGEN--\":4928:4989   */\n      jump(tag_351)\n    tag_350:\n        /* \"--CODEGEN--\":4843:5001   */\n      pop\n        /* \"--CODEGEN--\":5089:5093   */\n      0x20\n        /* \"--CODEGEN--\":5082:5087   */\n      dup3\n        /* \"--CODEGEN--\":5078:5081   */\n      add\n        /* \"--CODEGEN--\":5072:5077   */\n      mload\n        /* \"--CODEGEN--\":5107:5169   */\n      tag_352\n        /* \"--CODEGEN--\":5163:5167   */\n      0x20\n        /* \"--CODEGEN--\":5158:5161   */\n      dup6\n        /* \"--CODEGEN--\":5154:5157   */\n      add\n        /* \"--CODEGEN--\":5141:5152   */\n      dup3\n        /* \"--CODEGEN--\":5107:5169   */\n      jump(tag_272)\n    tag_352:\n        /* \"--CODEGEN--\":5011:5181   */\n      pop\n        /* \"--CODEGEN--\":4796:5196   */\n      pop\n      pop\n      pop\n      jump\n        /* \"--CODEGEN--\":5203:6817   */\n    tag_298:\n      0x0\n        /* \"--CODEGEN--\":5346:5350   */\n      0xe0\n        /* \"--CODEGEN--\":5341:5344   */\n      dup4\n        /* \"--CODEGEN--\":5337:5340   */\n      add\n        /* \"--CODEGEN--\":5432:5435   */\n      0x0\n        /* \"--CODEGEN--\":5425:5430   */\n      dup4\n        /* \"--CODEGEN--\":5421:5424   */\n      add\n        /* \"--CODEGEN--\":5415:5420   */\n      mload\n        /* \"--CODEGEN--\":5481:5484   */\n      dup5\n        /* \"--CODEGEN--\":5475:5479   */\n      dup3\n        /* \"--CODEGEN--\":5471:5474   */\n      sub\n        /* \"--CODEGEN--\":5465:5468   */\n      0x0\n        /* \"--CODEGEN--\":5460:5463   */\n      dup7\n        /* \"--CODEGEN--\":5456:5459   */\n      add\n        /* \"--CODEGEN--\":5449:5455   */\n      mstore\n        /* \"--CODEGEN--\":5501:5569   */\n      tag_354\n        /* \"--CODEGEN--\":5564:5568   */\n      dup3\n        /* \"--CODEGEN--\":5551:5562   */\n      dup3\n        /* \"--CODEGEN--\":5501:5569   */\n      jump(tag_332)\n    tag_354:\n        /* \"--CODEGEN--\":5493:5569   */\n      swap2\n      pop\n        /* \"--CODEGEN--\":5366:5581   */\n      pop\n        /* \"--CODEGEN--\":5663:5667   */\n      0x20\n        /* \"--CODEGEN--\":5656:5661   */\n      dup4\n        /* \"--CODEGEN--\":5652:5655   */\n      add\n        /* \"--CODEGEN--\":5646:5651   */\n      mload\n        /* \"--CODEGEN--\":5714:5717   */\n      dup5\n        /* \"--CODEGEN--\":5708:5712   */\n      dup3\n        /* \"--CODEGEN--\":5704:5707   */\n      sub\n        /* \"--CODEGEN--\":5697:5701   */\n      0x20\n        /* \"--CODEGEN--\":5692:5695   */\n      dup7\n        /* \"--CODEGEN--\":5688:5691   */\n      add\n        /* \"--CODEGEN--\":5681:5687   */\n      mstore\n        /* \"--CODEGEN--\":5734:5802   */\n      tag_355\n        /* \"--CODEGEN--\":5797:5801   */\n      dup3\n        /* \"--CODEGEN--\":5784:5795   */\n      dup3\n        /* \"--CODEGEN--\":5734:5802   */\n      jump(tag_332)\n    tag_355:\n        /* \"--CODEGEN--\":5726:5802   */\n      swap2\n      pop\n        /* \"--CODEGEN--\":5591:5814   */\n      pop\n        /* \"--CODEGEN--\":5897:5901   */\n      0x40\n        /* \"--CODEGEN--\":5890:5895   */\n      dup4\n        /* \"--CODEGEN--\":5886:5889   */\n      add\n        /* \"--CODEGEN--\":5880:5885   */\n      mload\n        /* \"--CODEGEN--\":5915:5977   */\n      tag_356\n        /* \"--CODEGEN--\":5971:5975   */\n      0x40\n        /* \"--CODEGEN--\":5966:5969   */\n      dup7\n        /* \"--CODEGEN--\":5962:5965   */\n      add\n        /* \"--CODEGEN--\":5949:5960   */\n      dup3\n        /* \"--CODEGEN--\":5915:5977   */\n      jump(tag_351)\n    tag_356:\n        /* \"--CODEGEN--\":5824:5989   */\n      pop\n        /* \"--CODEGEN--\":6067:6071   */\n      0x60\n        /* \"--CODEGEN--\":6060:6065   */\n      dup4\n        /* \"--CODEGEN--\":6056:6059   */\n      add\n        /* \"--CODEGEN--\":6050:6055   */\n      mload\n        /* \"--CODEGEN--\":6085:6147   */\n      tag_357\n        /* \"--CODEGEN--\":6141:6145   */\n      0x60\n        /* \"--CODEGEN--\":6136:6139   */\n      dup7\n        /* \"--CODEGEN--\":6132:6135   */\n      add\n        /* \"--CODEGEN--\":6119:6130   */\n      dup3\n        /* \"--CODEGEN--\":6085:6147   */\n      jump(tag_351)\n    tag_357:\n        /* \"--CODEGEN--\":5999:6159   */\n      pop\n        /* \"--CODEGEN--\":6241:6245   */\n      0x80\n        /* \"--CODEGEN--\":6234:6239   */\n      dup4\n        /* \"--CODEGEN--\":6230:6233   */\n      add\n        /* \"--CODEGEN--\":6224:6229   */\n      mload\n        /* \"--CODEGEN--\":6292:6295   */\n      dup5\n        /* \"--CODEGEN--\":6286:6290   */\n      dup3\n        /* \"--CODEGEN--\":6282:6285   */\n      sub\n        /* \"--CODEGEN--\":6275:6279   */\n      0x80\n        /* \"--CODEGEN--\":6270:6273   */\n      dup7\n        /* \"--CODEGEN--\":6266:6269   */\n      add\n        /* \"--CODEGEN--\":6259:6265   */\n      mstore\n        /* \"--CODEGEN--\":6312:6380   */\n      tag_358\n        /* \"--CODEGEN--\":6375:6379   */\n      dup3\n        /* \"--CODEGEN--\":6362:6373   */\n      dup3\n        /* \"--CODEGEN--\":6312:6380   */\n      jump(tag_332)\n    tag_358:\n        /* \"--CODEGEN--\":6304:6380   */\n      swap2\n      pop\n        /* \"--CODEGEN--\":6169:6392   */\n      pop\n        /* \"--CODEGEN--\":6470:6474   */\n      0xa0\n        /* \"--CODEGEN--\":6463:6468   */\n      dup4\n        /* \"--CODEGEN--\":6459:6462   */\n      add\n        /* \"--CODEGEN--\":6453:6458   */\n      mload\n        /* \"--CODEGEN--\":6488:6550   */\n      tag_359\n        /* \"--CODEGEN--\":6544:6548   */\n      0xa0\n        /* \"--CODEGEN--\":6539:6542   */\n      dup7\n        /* \"--CODEGEN--\":6535:6538   */\n      add\n        /* \"--CODEGEN--\":6522:6533   */\n      dup3\n        /* \"--CODEGEN--\":6488:6550   */\n      jump(tag_351)\n    tag_359:\n        /* \"--CODEGEN--\":6402:6562   */\n      pop\n        /* \"--CODEGEN--\":6640:6644   */\n      0xc0\n        /* \"--CODEGEN--\":6633:6638   */\n      dup4\n        /* \"--CODEGEN--\":6629:6632   */\n      add\n        /* \"--CODEGEN--\":6623:6628   */\n      mload\n        /* \"--CODEGEN--\":6691:6694   */\n      dup5\n        /* \"--CODEGEN--\":6685:6689   */\n      dup3\n        /* \"--CODEGEN--\":6681:6684   */\n      sub\n        /* \"--CODEGEN--\":6674:6678   */\n      0xc0\n        /* \"--CODEGEN--\":6669:6672   */\n      dup7\n        /* \"--CODEGEN--\":6665:6668   */\n      add\n        /* \"--CODEGEN--\":6658:6664   */\n      mstore\n        /* \"--CODEGEN--\":6711:6779   */\n      tag_360\n        /* \"--CODEGEN--\":6774:6778   */\n      dup3\n        /* \"--CODEGEN--\":6761:6772   */\n      dup3\n        /* \"--CODEGEN--\":6711:6779   */\n      jump(tag_332)\n    tag_360:\n        /* \"--CODEGEN--\":6703:6779   */\n      swap2\n      pop\n        /* \"--CODEGEN--\":6572:6791   */\n      pop\n        /* \"--CODEGEN--\":6808:6812   */\n      dup1\n        /* \"--CODEGEN--\":6801:6812   */\n      swap2\n      pop\n        /* \"--CODEGEN--\":5319:6817   */\n      pop\n      swap3\n      swap2\n      pop\n      pop\n      jump\n        /* \"--CODEGEN--\":6824:8637   */\n    tag_311:\n      0x0\n        /* \"--CODEGEN--\":6959:6964   */\n      0x120\n        /* \"--CODEGEN--\":6954:6957   */\n      dup4\n        /* \"--CODEGEN--\":6950:6953   */\n      add\n        /* \"--CODEGEN--\":7046:7049   */\n      0x0\n        /* \"--CODEGEN--\":7039:7044   */\n      dup4\n        /* \"--CODEGEN--\":7035:7038   */\n      add\n        /* \"--CODEGEN--\":7029:7034   */\n      mload\n        /* \"--CODEGEN--\":7063:7124   */\n      tag_362\n        /* \"--CODEGEN--\":7119:7122   */\n      0x0\n        /* \"--CODEGEN--\":7114:7117   */\n      dup7\n        /* \"--CODEGEN--\":7110:7113   */\n      add\n        /* \"--CODEGEN--\":7097:7108   */\n      dup3\n        /* \"--CODEGEN--\":7063:7124   */\n      jump(tag_351)\n    tag_362:\n        /* \"--CODEGEN--\":6980:7136   */\n      pop\n        /* \"--CODEGEN--\":7212:7216   */\n      0x20\n        /* \"--CODEGEN--\":7205:7210   */\n      dup4\n        /* \"--CODEGEN--\":7201:7204   */\n      add\n        /* \"--CODEGEN--\":7195:7200   */\n      mload\n        /* \"--CODEGEN--\":7263:7266   */\n      dup5\n        /* \"--CODEGEN--\":7257:7261   */\n      dup3\n        /* \"--CODEGEN--\":7253:7256   */\n      sub\n        /* \"--CODEGEN--\":7246:7250   */\n      0x20\n        /* \"--CODEGEN--\":7241:7244   */\n      dup7\n        /* \"--CODEGEN--\":7237:7240   */\n      add\n        /* \"--CODEGEN--\":7230:7236   */\n      mstore\n        /* \"--CODEGEN--\":7283:7351   */\n      tag_363\n        /* \"--CODEGEN--\":7346:7350   */\n      dup3\n        /* \"--CODEGEN--\":7333:7344   */\n      dup3\n        /* \"--CODEGEN--\":7283:7351   */\n      jump(tag_332)\n    tag_363:\n        /* \"--CODEGEN--\":7275:7351   */\n      swap2\n      pop\n        /* \"--CODEGEN--\":7146:7363   */\n      pop\n        /* \"--CODEGEN--\":7441:7445   */\n      0x40\n        /* \"--CODEGEN--\":7434:7439   */\n      dup4\n        /* \"--CODEGEN--\":7430:7433   */\n      add\n        /* \"--CODEGEN--\":7424:7429   */\n      mload\n        /* \"--CODEGEN--\":7459:7521   */\n      tag_364\n        /* \"--CODEGEN--\":7515:7519   */\n      0x40\n        /* \"--CODEGEN--\":7510:7513   */\n      dup7\n        /* \"--CODEGEN--\":7506:7509   */\n      add\n        /* \"--CODEGEN--\":7493:7504   */\n      dup3\n        /* \"--CODEGEN--\":7459:7521   */\n      jump(tag_351)\n    tag_364:\n        /* \"--CODEGEN--\":7373:7533   */\n      pop\n        /* \"--CODEGEN--\":7608:7612   */\n      0x60\n        /* \"--CODEGEN--\":7601:7606   */\n      dup4\n        /* \"--CODEGEN--\":7597:7600   */\n      add\n        /* \"--CODEGEN--\":7591:7596   */\n      mload\n        /* \"--CODEGEN--\":7659:7662   */\n      dup5\n        /* \"--CODEGEN--\":7653:7657   */\n      dup3\n        /* \"--CODEGEN--\":7649:7652   */\n      sub\n        /* \"--CODEGEN--\":7642:7646   */\n      0x60\n        /* \"--CODEGEN--\":7637:7640   */\n      dup7\n        /* \"--CODEGEN--\":7633:7636   */\n      add\n        /* \"--CODEGEN--\":7626:7632   */\n      mstore\n        /* \"--CODEGEN--\":7679:7747   */\n      tag_365\n        /* \"--CODEGEN--\":7742:7746   */\n      dup3\n        /* \"--CODEGEN--\":7729:7740   */\n      dup3\n        /* \"--CODEGEN--\":7679:7747   */\n      jump(tag_332)\n    tag_365:\n        /* \"--CODEGEN--\":7671:7747   */\n      swap2\n      pop\n        /* \"--CODEGEN--\":7543:7759   */\n      pop\n        /* \"--CODEGEN--\":7836:7840   */\n      0x80\n        /* \"--CODEGEN--\":7829:7834   */\n      dup4\n        /* \"--CODEGEN--\":7825:7828   */\n      add\n        /* \"--CODEGEN--\":7819:7824   */\n      mload\n        /* \"--CODEGEN--\":7854:7916   */\n      tag_366\n        /* \"--CODEGEN--\":7910:7914   */\n      0x80\n        /* \"--CODEGEN--\":7905:7908   */\n      dup7\n        /* \"--CODEGEN--\":7901:7904   */\n      add\n        /* \"--CODEGEN--\":7888:7899   */\n      dup3\n        /* \"--CODEGEN--\":7854:7916   */\n      jump(tag_351)\n    tag_366:\n        /* \"--CODEGEN--\":7769:7928   */\n      pop\n        /* \"--CODEGEN--\":8008:8012   */\n      0xa0\n        /* \"--CODEGEN--\":8001:8006   */\n      dup4\n        /* \"--CODEGEN--\":7997:8000   */\n      add\n        /* \"--CODEGEN--\":7991:7996   */\n      mload\n        /* \"--CODEGEN--\":8026:8082   */\n      tag_367\n        /* \"--CODEGEN--\":8076:8080   */\n      0xa0\n        /* \"--CODEGEN--\":8071:8074   */\n      dup7\n        /* \"--CODEGEN--\":8067:8070   */\n      add\n        /* \"--CODEGEN--\":8054:8065   */\n      dup3\n        /* \"--CODEGEN--\":8026:8082   */\n      jump(tag_328)\n    tag_367:\n        /* \"--CODEGEN--\":7938:8094   */\n      pop\n        /* \"--CODEGEN--\":8180:8184   */\n      0xc0\n        /* \"--CODEGEN--\":8173:8178   */\n      dup4\n        /* \"--CODEGEN--\":8169:8172   */\n      add\n        /* \"--CODEGEN--\":8163:8168   */\n      mload\n        /* \"--CODEGEN--\":8198:8260   */\n      tag_368\n        /* \"--CODEGEN--\":8254:8258   */\n      0xc0\n        /* \"--CODEGEN--\":8249:8252   */\n      dup7\n        /* \"--CODEGEN--\":8245:8248   */\n      add\n        /* \"--CODEGEN--\":8232:8243   */\n      dup3\n        /* \"--CODEGEN--\":8198:8260   */\n      jump(tag_272)\n    tag_368:\n        /* \"--CODEGEN--\":8104:8272   */\n      pop\n        /* \"--CODEGEN--\":8350:8354   */\n      0xe0\n        /* \"--CODEGEN--\":8343:8348   */\n      dup4\n        /* \"--CODEGEN--\":8339:8342   */\n      add\n        /* \"--CODEGEN--\":8333:8338   */\n      mload\n        /* \"--CODEGEN--\":8368:8430   */\n      tag_369\n        /* \"--CODEGEN--\":8424:8428   */\n      0xe0\n        /* \"--CODEGEN--\":8419:8422   */\n      dup7\n        /* \"--CODEGEN--\":8415:8418   */\n      add\n        /* \"--CODEGEN--\":8402:8413   */\n      dup3\n        /* \"--CODEGEN--\":8368:8430   */\n      jump(tag_351)\n    tag_369:\n        /* \"--CODEGEN--\":8282:8442   */\n      pop\n        /* \"--CODEGEN--\":8517:8522   */\n      0x100\n        /* \"--CODEGEN--\":8510:8515   */\n      dup4\n        /* \"--CODEGEN--\":8506:8509   */\n      add\n        /* \"--CODEGEN--\":8500:8505   */\n      mload\n        /* \"--CODEGEN--\":8536:8599   */\n      tag_370\n        /* \"--CODEGEN--\":8592:8597   */\n      0x100\n        /* \"--CODEGEN--\":8587:8590   */\n      dup7\n        /* \"--CODEGEN--\":8583:8586   */\n      add\n        /* \"--CODEGEN--\":8570:8581   */\n      dup3\n        /* \"--CODEGEN--\":8536:8599   */\n      jump(tag_351)\n    tag_370:\n        /* \"--CODEGEN--\":8452:8611   */\n      pop\n        /* \"--CODEGEN--\":8628:8632   */\n      dup1\n        /* \"--CODEGEN--\":8621:8632   */\n      swap2\n      pop\n        /* \"--CODEGEN--\":6932:8637   */\n      pop\n      swap3\n      swap2\n      pop\n      pop\n      jump\n        /* \"--CODEGEN--\":8644:10549   */\n    tag_324:\n      0x0\n        /* \"--CODEGEN--\":8777:8782   */\n      0x120\n        /* \"--CODEGEN--\":8772:8775   */\n      dup4\n        /* \"--CODEGEN--\":8768:8771   */\n      add\n        /* \"--CODEGEN--\":8864:8867   */\n      0x0\n        /* \"--CODEGEN--\":8857:8862   */\n      dup4\n        /* \"--CODEGEN--\":8853:8856   */\n      add\n        /* \"--CODEGEN--\":8847:8852   */\n      mload\n        /* \"--CODEGEN--\":8881:8942   */\n      tag_372\n        /* \"--CODEGEN--\":8937:8940   */\n      0x0\n        /* \"--CODEGEN--\":8932:8935   */\n      dup7\n        /* \"--CODEGEN--\":8928:8931   */\n      add\n        /* \"--CODEGEN--\":8915:8926   */\n      dup3\n        /* \"--CODEGEN--\":8881:8942   */\n      jump(tag_351)\n    tag_372:\n        /* \"--CODEGEN--\":8798:8954   */\n      pop\n        /* \"--CODEGEN--\":9030:9034   */\n      0x20\n        /* \"--CODEGEN--\":9023:9028   */\n      dup4\n        /* \"--CODEGEN--\":9019:9022   */\n      add\n        /* \"--CODEGEN--\":9013:9018   */\n      mload\n        /* \"--CODEGEN--\":9081:9084   */\n      dup5\n        /* \"--CODEGEN--\":9075:9079   */\n      dup3\n        /* \"--CODEGEN--\":9071:9074   */\n      sub\n        /* \"--CODEGEN--\":9064:9068   */\n      0x20\n        /* \"--CODEGEN--\":9059:9062   */\n      dup7\n        /* \"--CODEGEN--\":9055:9058   */\n      add\n        /* \"--CODEGEN--\":9048:9054   */\n      mstore\n        /* \"--CODEGEN--\":9101:9169   */\n      tag_373\n        /* \"--CODEGEN--\":9164:9168   */\n      dup3\n        /* \"--CODEGEN--\":9151:9162   */\n      dup3\n        /* \"--CODEGEN--\":9101:9169   */\n      jump(tag_332)\n    tag_373:\n        /* \"--CODEGEN--\":9093:9169   */\n      swap2\n      pop\n        /* \"--CODEGEN--\":8964:9181   */\n      pop\n        /* \"--CODEGEN--\":9267:9271   */\n      0x40\n        /* \"--CODEGEN--\":9260:9265   */\n      dup4\n        /* \"--CODEGEN--\":9256:9259   */\n      add\n        /* \"--CODEGEN--\":9250:9255   */\n      mload\n        /* \"--CODEGEN--\":9318:9321   */\n      dup5\n        /* \"--CODEGEN--\":9312:9316   */\n      dup3\n        /* \"--CODEGEN--\":9308:9311   */\n      sub\n        /* \"--CODEGEN--\":9301:9305   */\n      0x40\n        /* \"--CODEGEN--\":9296:9299   */\n      dup7\n        /* \"--CODEGEN--\":9292:9295   */\n      add\n        /* \"--CODEGEN--\":9285:9291   */\n      mstore\n        /* \"--CODEGEN--\":9338:9406   */\n      tag_374\n        /* \"--CODEGEN--\":9401:9405   */\n      dup3\n        /* \"--CODEGEN--\":9388:9399   */\n      dup3\n        /* \"--CODEGEN--\":9338:9406   */\n      jump(tag_332)\n    tag_374:\n        /* \"--CODEGEN--\":9330:9406   */\n      swap2\n      pop\n        /* \"--CODEGEN--\":9191:9418   */\n      pop\n        /* \"--CODEGEN--\":9503:9507   */\n      0x60\n        /* \"--CODEGEN--\":9496:9501   */\n      dup4\n        /* \"--CODEGEN--\":9492:9495   */\n      add\n        /* \"--CODEGEN--\":9486:9491   */\n      mload\n        /* \"--CODEGEN--\":9554:9557   */\n      dup5\n        /* \"--CODEGEN--\":9548:9552   */\n      dup3\n        /* \"--CODEGEN--\":9544:9547   */\n      sub\n        /* \"--CODEGEN--\":9537:9541   */\n      0x60\n        /* \"--CODEGEN--\":9532:9535   */\n      dup7\n        /* \"--CODEGEN--\":9528:9531   */\n      add\n        /* \"--CODEGEN--\":9521:9527   */\n      mstore\n        /* \"--CODEGEN--\":9574:9642   */\n      tag_375\n        /* \"--CODEGEN--\":9637:9641   */\n      dup3\n        /* \"--CODEGEN--\":9624:9635   */\n      dup3\n        /* \"--CODEGEN--\":9574:9642   */\n      jump(tag_332)\n    tag_375:\n        /* \"--CODEGEN--\":9566:9642   */\n      swap2\n      pop\n        /* \"--CODEGEN--\":9428:9654   */\n      pop\n        /* \"--CODEGEN--\":9733:9737   */\n      0x80\n        /* \"--CODEGEN--\":9726:9731   */\n      dup4\n        /* \"--CODEGEN--\":9722:9725   */\n      add\n        /* \"--CODEGEN--\":9716:9721   */\n      mload\n        /* \"--CODEGEN--\":9751:9813   */\n      tag_376\n        /* \"--CODEGEN--\":9807:9811   */\n      0x80\n        /* \"--CODEGEN--\":9802:9805   */\n      dup7\n        /* \"--CODEGEN--\":9798:9801   */\n      add\n        /* \"--CODEGEN--\":9785:9796   */\n      dup3\n        /* \"--CODEGEN--\":9751:9813   */\n      jump(tag_351)\n    tag_376:\n        /* \"--CODEGEN--\":9664:9825   */\n      pop\n        /* \"--CODEGEN--\":9916:9920   */\n      0xa0\n        /* \"--CODEGEN--\":9909:9914   */\n      dup4\n        /* \"--CODEGEN--\":9905:9908   */\n      add\n        /* \"--CODEGEN--\":9899:9904   */\n      mload\n        /* \"--CODEGEN--\":9934:9996   */\n      tag_377\n        /* \"--CODEGEN--\":9990:9994   */\n      0xa0\n        /* \"--CODEGEN--\":9985:9988   */\n      dup7\n        /* \"--CODEGEN--\":9981:9984   */\n      add\n        /* \"--CODEGEN--\":9968:9979   */\n      dup3\n        /* \"--CODEGEN--\":9934:9996   */\n      jump(tag_272)\n    tag_377:\n        /* \"--CODEGEN--\":9835:10008   */\n      pop\n        /* \"--CODEGEN--\":10086:10090   */\n      0xc0\n        /* \"--CODEGEN--\":10079:10084   */\n      dup4\n        /* \"--CODEGEN--\":10075:10078   */\n      add\n        /* \"--CODEGEN--\":10069:10074   */\n      mload\n        /* \"--CODEGEN--\":10104:10160   */\n      tag_378\n        /* \"--CODEGEN--\":10154:10158   */\n      0xc0\n        /* \"--CODEGEN--\":10149:10152   */\n      dup7\n        /* \"--CODEGEN--\":10145:10148   */\n      add\n        /* \"--CODEGEN--\":10132:10143   */\n      dup3\n        /* \"--CODEGEN--\":10104:10160   */\n      jump(tag_328)\n    tag_378:\n        /* \"--CODEGEN--\":10018:10172   */\n      pop\n        /* \"--CODEGEN--\":10259:10263   */\n      0xe0\n        /* \"--CODEGEN--\":10252:10257   */\n      dup4\n        /* \"--CODEGEN--\":10248:10251   */\n      add\n        /* \"--CODEGEN--\":10242:10247   */\n      mload\n        /* \"--CODEGEN--\":10277:10339   */\n      tag_379\n        /* \"--CODEGEN--\":10333:10337   */\n      0xe0\n        /* \"--CODEGEN--\":10328:10331   */\n      dup7\n        /* \"--CODEGEN--\":10324:10327   */\n      add\n        /* \"--CODEGEN--\":10311:10322   */\n      dup3\n        /* \"--CODEGEN--\":10277:10339   */\n      jump(tag_272)\n    tag_379:\n        /* \"--CODEGEN--\":10182:10351   */\n      pop\n        /* \"--CODEGEN--\":10429:10434   */\n      0x100\n        /* \"--CODEGEN--\":10422:10427   */\n      dup4\n        /* \"--CODEGEN--\":10418:10421   */\n      add\n        /* \"--CODEGEN--\":10412:10417   */\n      mload\n        /* \"--CODEGEN--\":10448:10511   */\n      tag_380\n        /* \"--CODEGEN--\":10504:10509   */\n      0x100\n        /* \"--CODEGEN--\":10499:10502   */\n      dup7\n        /* \"--CODEGEN--\":10495:10498   */\n      add\n        /* \"--CODEGEN--\":10482:10493   */\n      dup3\n        /* \"--CODEGEN--\":10448:10511   */\n      jump(tag_351)\n    tag_380:\n        /* \"--CODEGEN--\":10361:10523   */\n      pop\n        /* \"--CODEGEN--\":10540:10544   */\n      dup1\n        /* \"--CODEGEN--\":10533:10544   */\n      swap2\n      pop\n        /* \"--CODEGEN--\":8750:10549   */\n      pop\n      swap3\n      swap2\n      pop\n      pop\n      jump\n        /* \"--CODEGEN--\":10556:10666   */\n    tag_351:\n        /* \"--CODEGEN--\":10629:10660   */\n      tag_382\n        /* \"--CODEGEN--\":10654:10659   */\n      dup2\n        /* \"--CODEGEN--\":10629:10660   */\n      jump(tag_383)\n    tag_382:\n        /* \"--CODEGEN--\":10624:10627   */\n      dup3\n        /* \"--CODEGEN--\":10617:10623   */\n      mstore\n        /* \"--CODEGEN--\":10611:10666   */\n      pop\n      pop\n      jump\n        /* \"--CODEGEN--\":10673:10866   */\n    tag_50:\n      0x0\n        /* \"--CODEGEN--\":10781:10783   */\n      0x20\n        /* \"--CODEGEN--\":10770:10779   */\n      dup3\n        /* \"--CODEGEN--\":10766:10769   */\n      add\n        /* \"--CODEGEN--\":10758:10784   */\n      swap1\n      pop\n        /* \"--CODEGEN--\":10795:10856   */\n      tag_385\n        /* \"--CODEGEN--\":10853:10854   */\n      0x0\n        /* \"--CODEGEN--\":10842:10851   */\n      dup4\n        /* \"--CODEGEN--\":10838:10841   */\n      add\n        /* \"--CODEGEN--\":10829:10835   */\n      dup5\n        /* \"--CODEGEN--\":10795:10856   */\n      jump(tag_272)\n    tag_385:\n        /* \"--CODEGEN--\":10752:10866   */\n      swap3\n      swap2\n      pop\n      pop\n      jump\n        /* \"--CODEGEN--\":10873:11302   */\n    tag_91:\n      0x0\n        /* \"--CODEGEN--\":11075:11077   */\n      0x20\n        /* \"--CODEGEN--\":11064:11073   */\n      dup3\n        /* \"--CODEGEN--\":11060:11063   */\n      add\n        /* \"--CODEGEN--\":11052:11078   */\n      swap1\n      pop\n        /* \"--CODEGEN--\":11125:11134   */\n      dup2\n        /* \"--CODEGEN--\":11119:11123   */\n      dup2\n        /* \"--CODEGEN--\":11115:11118   */\n      sub\n        /* \"--CODEGEN--\":11111:11112   */\n      0x0\n        /* \"--CODEGEN--\":11100:11109   */\n      dup4\n        /* \"--CODEGEN--\":11096:11099   */\n      add\n        /* \"--CODEGEN--\":11089:11095   */\n      mstore\n        /* \"--CODEGEN--\":11150:11292   */\n      tag_387\n        /* \"--CODEGEN--\":11287:11291   */\n      dup2\n        /* \"--CODEGEN--\":11278:11284   */\n      dup5\n        /* \"--CODEGEN--\":11150:11292   */\n      jump(tag_276)\n    tag_387:\n        /* \"--CODEGEN--\":11142:11292   */\n      swap1\n      pop\n        /* \"--CODEGEN--\":11046:11302   */\n      swap3\n      swap2\n      pop\n      pop\n      jump\n        /* \"--CODEGEN--\":11309:11746   */\n    tag_69:\n      0x0\n        /* \"--CODEGEN--\":11515:11517   */\n      0x20\n        /* \"--CODEGEN--\":11504:11513   */\n      dup3\n        /* \"--CODEGEN--\":11500:11503   */\n      add\n        /* \"--CODEGEN--\":11492:11518   */\n      swap1\n      pop\n        /* \"--CODEGEN--\":11565:11574   */\n      dup2\n        /* \"--CODEGEN--\":11559:11563   */\n      dup2\n        /* \"--CODEGEN--\":11555:11558   */\n      sub\n        /* \"--CODEGEN--\":11551:11552   */\n      0x0\n        /* \"--CODEGEN--\":11540:11549   */\n      dup4\n        /* \"--CODEGEN--\":11536:11539   */\n      add\n        /* \"--CODEGEN--\":11529:11535   */\n      mstore\n        /* \"--CODEGEN--\":11590:11736   */\n      tag_389\n        /* \"--CODEGEN--\":11731:11735   */\n      dup2\n        /* \"--CODEGEN--\":11722:11728   */\n      dup5\n        /* \"--CODEGEN--\":11590:11736   */\n      jump(tag_289)\n    tag_389:\n        /* \"--CODEGEN--\":11582:11736   */\n      swap1\n      pop\n        /* \"--CODEGEN--\":11486:11746   */\n      swap3\n      swap2\n      pop\n      pop\n      jump\n        /* \"--CODEGEN--\":11753:12174   */\n    tag_31:\n      0x0\n        /* \"--CODEGEN--\":11951:11953   */\n      0x20\n        /* \"--CODEGEN--\":11940:11949   */\n      dup3\n        /* \"--CODEGEN--\":11936:11939   */\n      add\n        /* \"--CODEGEN--\":11928:11954   */\n      swap1\n      pop\n        /* \"--CODEGEN--\":12001:12010   */\n      dup2\n        /* \"--CODEGEN--\":11995:11999   */\n      dup2\n        /* \"--CODEGEN--\":11991:11994   */\n      sub\n        /* \"--CODEGEN--\":11987:11988   */\n      0x0\n        /* \"--CODEGEN--\":11976:11985   */\n      dup4\n        /* \"--CODEGEN--\":11972:11975   */\n      add\n        /* \"--CODEGEN--\":11965:11971   */\n      mstore\n        /* \"--CODEGEN--\":12026:12164   */\n      tag_391\n        /* \"--CODEGEN--\":12159:12163   */\n      dup2\n        /* \"--CODEGEN--\":12150:12156   */\n      dup5\n        /* \"--CODEGEN--\":12026:12164   */\n      jump(tag_302)\n    tag_391:\n        /* \"--CODEGEN--\":12018:12164   */\n      swap1\n      pop\n        /* \"--CODEGEN--\":11922:12174   */\n      swap3\n      swap2\n      pop\n      pop\n      jump\n        /* \"--CODEGEN--\":12181:12598   */\n    tag_55:\n      0x0\n        /* \"--CODEGEN--\":12377:12379   */\n      0x20\n        /* \"--CODEGEN--\":12366:12375   */\n      dup3\n        /* \"--CODEGEN--\":12362:12365   */\n      add\n        /* \"--CODEGEN--\":12354:12380   */\n      swap1\n      pop\n        /* \"--CODEGEN--\":12427:12436   */\n      dup2\n        /* \"--CODEGEN--\":12421:12425   */\n      dup2\n        /* \"--CODEGEN--\":12417:12420   */\n      sub\n        /* \"--CODEGEN--\":12413:12414   */\n      0x0\n        /* \"--CODEGEN--\":12402:12411   */\n      dup4\n        /* \"--CODEGEN--\":12398:12401   */\n      add\n        /* \"--CODEGEN--\":12391:12397   */\n      mstore\n        /* \"--CODEGEN--\":12452:12588   */\n      tag_393\n        /* \"--CODEGEN--\":12583:12587   */\n      dup2\n        /* \"--CODEGEN--\":12574:12580   */\n      dup5\n        /* \"--CODEGEN--\":12452:12588   */\n      jump(tag_315)\n    tag_393:\n        /* \"--CODEGEN--\":12444:12588   */\n      swap1\n      pop\n        /* \"--CODEGEN--\":12348:12598   */\n      swap3\n      swap2\n      pop\n      pop\n      jump\n        /* \"--CODEGEN--\":12605:13736   */\n    tag_36:\n      0x0\n        /* \"--CODEGEN--\":12949:12952   */\n      0xe0\n        /* \"--CODEGEN--\":12938:12947   */\n      dup3\n        /* \"--CODEGEN--\":12934:12937   */\n      add\n        /* \"--CODEGEN--\":12926:12953   */\n      swap1\n      pop\n        /* \"--CODEGEN--\":13000:13009   */\n      dup2\n        /* \"--CODEGEN--\":12994:12998   */\n      dup2\n        /* \"--CODEGEN--\":12990:12993   */\n      sub\n        /* \"--CODEGEN--\":12986:12987   */\n      0x0\n        /* \"--CODEGEN--\":12975:12984   */\n      dup4\n        /* \"--CODEGEN--\":12971:12974   */\n      add\n        /* \"--CODEGEN--\":12964:12970   */\n      mstore\n        /* \"--CODEGEN--\":13025:13090   */\n      tag_395\n        /* \"--CODEGEN--\":13085:13089   */\n      dup2\n        /* \"--CODEGEN--\":13076:13082   */\n      dup11\n        /* \"--CODEGEN--\":13025:13090   */\n      jump(tag_340)\n    tag_395:\n        /* \"--CODEGEN--\":13017:13090   */\n      swap1\n      pop\n        /* \"--CODEGEN--\":13138:13147   */\n      dup2\n        /* \"--CODEGEN--\":13132:13136   */\n      dup2\n        /* \"--CODEGEN--\":13128:13131   */\n      sub\n        /* \"--CODEGEN--\":13123:13125   */\n      0x20\n        /* \"--CODEGEN--\":13112:13121   */\n      dup4\n        /* \"--CODEGEN--\":13108:13111   */\n      add\n        /* \"--CODEGEN--\":13101:13107   */\n      mstore\n        /* \"--CODEGEN--\":13163:13228   */\n      tag_396\n        /* \"--CODEGEN--\":13223:13227   */\n      dup2\n        /* \"--CODEGEN--\":13214:13220   */\n      dup10\n        /* \"--CODEGEN--\":13163:13228   */\n      jump(tag_340)\n    tag_396:\n        /* \"--CODEGEN--\":13155:13228   */\n      swap1\n      pop\n        /* \"--CODEGEN--\":13239:13301   */\n      tag_397\n        /* \"--CODEGEN--\":13297:13299   */\n      0x40\n        /* \"--CODEGEN--\":13286:13295   */\n      dup4\n        /* \"--CODEGEN--\":13282:13285   */\n      add\n        /* \"--CODEGEN--\":13273:13279   */\n      dup9\n        /* \"--CODEGEN--\":13239:13301   */\n      jump(tag_351)\n    tag_397:\n        /* \"--CODEGEN--\":13312:13374   */\n      tag_398\n        /* \"--CODEGEN--\":13370:13372   */\n      0x60\n        /* \"--CODEGEN--\":13359:13368   */\n      dup4\n        /* \"--CODEGEN--\":13355:13358   */\n      add\n        /* \"--CODEGEN--\":13346:13352   */\n      dup8\n        /* \"--CODEGEN--\":13312:13374   */\n      jump(tag_351)\n    tag_398:\n        /* \"--CODEGEN--\":13423:13432   */\n      dup2\n        /* \"--CODEGEN--\":13417:13421   */\n      dup2\n        /* \"--CODEGEN--\":13413:13416   */\n      sub\n        /* \"--CODEGEN--\":13407:13410   */\n      0x80\n        /* \"--CODEGEN--\":13396:13405   */\n      dup4\n        /* \"--CODEGEN--\":13392:13395   */\n      add\n        /* \"--CODEGEN--\":13385:13391   */\n      mstore\n        /* \"--CODEGEN--\":13448:13513   */\n      tag_399\n        /* \"--CODEGEN--\":13508:13512   */\n      dup2\n        /* \"--CODEGEN--\":13499:13505   */\n      dup7\n        /* \"--CODEGEN--\":13448:13513   */\n      jump(tag_340)\n    tag_399:\n        /* \"--CODEGEN--\":13440:13513   */\n      swap1\n      pop\n        /* \"--CODEGEN--\":13524:13587   */\n      tag_400\n        /* \"--CODEGEN--\":13582:13585   */\n      0xa0\n        /* \"--CODEGEN--\":13571:13580   */\n      dup4\n        /* \"--CODEGEN--\":13567:13570   */\n      add\n        /* \"--CODEGEN--\":13558:13564   */\n      dup6\n        /* \"--CODEGEN--\":13524:13587   */\n      jump(tag_351)\n    tag_400:\n        /* \"--CODEGEN--\":13636:13645   */\n      dup2\n        /* \"--CODEGEN--\":13630:13634   */\n      dup2\n        /* \"--CODEGEN--\":13626:13629   */\n      sub\n        /* \"--CODEGEN--\":13620:13623   */\n      0xc0\n        /* \"--CODEGEN--\":13609:13618   */\n      dup4\n        /* \"--CODEGEN--\":13605:13608   */\n      add\n        /* \"--CODEGEN--\":13598:13604   */\n      mstore\n        /* \"--CODEGEN--\":13661:13726   */\n      tag_401\n        /* \"--CODEGEN--\":13721:13725   */\n      dup2\n        /* \"--CODEGEN--\":13712:13718   */\n      dup5\n        /* \"--CODEGEN--\":13661:13726   */\n      jump(tag_340)\n    tag_401:\n        /* \"--CODEGEN--\":13653:13726   */\n      swap1\n      pop\n        /* \"--CODEGEN--\":12920:13736   */\n      swap9\n      swap8\n      pop\n      pop\n      pop\n      pop\n      pop\n      pop\n      pop\n      pop\n      jump\n        /* \"--CODEGEN--\":13743:13936   */\n    tag_41:\n      0x0\n        /* \"--CODEGEN--\":13851:13853   */\n      0x20\n        /* \"--CODEGEN--\":13840:13849   */\n      dup3\n        /* \"--CODEGEN--\":13836:13839   */\n      add\n        /* \"--CODEGEN--\":13828:13854   */\n      swap1\n      pop\n        /* \"--CODEGEN--\":13865:13926   */\n      tag_403\n        /* \"--CODEGEN--\":13923:13924   */\n      0x0\n        /* \"--CODEGEN--\":13912:13921   */\n      dup4\n        /* \"--CODEGEN--\":13908:13911   */\n      add\n        /* \"--CODEGEN--\":13899:13905   */\n      dup5\n        /* \"--CODEGEN--\":13865:13926   */\n      jump(tag_351)\n    tag_403:\n        /* \"--CODEGEN--\":13822:13936   */\n      swap3\n      swap2\n      pop\n      pop\n      jump\n        /* \"--CODEGEN--\":13943:14237   */\n    tag_60:\n      0x0\n        /* \"--CODEGEN--\":14079:14081   */\n      0x40\n        /* \"--CODEGEN--\":14068:14077   */\n      dup3\n        /* \"--CODEGEN--\":14064:14067   */\n      add\n        /* \"--CODEGEN--\":14056:14082   */\n      swap1\n      pop\n        /* \"--CODEGEN--\":14093:14154   */\n      tag_405\n        /* \"--CODEGEN--\":14151:14152   */\n      0x0\n        /* \"--CODEGEN--\":14140:14149   */\n      dup4\n        /* \"--CODEGEN--\":14136:14139   */\n      add\n        /* \"--CODEGEN--\":14127:14133   */\n      dup6\n        /* \"--CODEGEN--\":14093:14154   */\n      jump(tag_351)\n    tag_405:\n        /* \"--CODEGEN--\":14165:14227   */\n      tag_406\n        /* \"--CODEGEN--\":14223:14225   */\n      0x20\n        /* \"--CODEGEN--\":14212:14221   */\n      dup4\n        /* \"--CODEGEN--\":14208:14211   */\n      add\n        /* \"--CODEGEN--\":14199:14205   */\n      dup5\n        /* \"--CODEGEN--\":14165:14227   */\n      jump(tag_272)\n    tag_406:\n        /* \"--CODEGEN--\":14050:14237   */\n      swap4\n      swap3\n      pop\n      pop\n      pop\n      jump\n        /* \"--CODEGEN--\":14244:15485   */\n    tag_74:\n      0x0\n        /* \"--CODEGEN--\":14621:14624   */\n      0x120\n        /* \"--CODEGEN--\":14610:14619   */\n      dup3\n        /* \"--CODEGEN--\":14606:14609   */\n      add\n        /* \"--CODEGEN--\":14598:14625   */\n      swap1\n      pop\n        /* \"--CODEGEN--\":14636:14697   */\n      tag_408\n        /* \"--CODEGEN--\":14694:14695   */\n      0x0\n        /* \"--CODEGEN--\":14683:14692   */\n      dup4\n        /* \"--CODEGEN--\":14679:14682   */\n      add\n        /* \"--CODEGEN--\":14670:14676   */\n      dup13\n        /* \"--CODEGEN--\":14636:14697   */\n      jump(tag_351)\n    tag_408:\n        /* \"--CODEGEN--\":14745:14754   */\n      dup2\n        /* \"--CODEGEN--\":14739:14743   */\n      dup2\n        /* \"--CODEGEN--\":14735:14738   */\n      sub\n        /* \"--CODEGEN--\":14730:14732   */\n      0x20\n        /* \"--CODEGEN--\":14719:14728   */\n      dup4\n        /* \"--CODEGEN--\":14715:14718   */\n      add\n        /* \"--CODEGEN--\":14708:14714   */\n      mstore\n        /* \"--CODEGEN--\":14770:14835   */\n      tag_409\n        /* \"--CODEGEN--\":14830:14834   */\n      dup2\n        /* \"--CODEGEN--\":14821:14827   */\n      dup12\n        /* \"--CODEGEN--\":14770:14835   */\n      jump(tag_340)\n    tag_409:\n        /* \"--CODEGEN--\":14762:14835   */\n      swap1\n      pop\n        /* \"--CODEGEN--\":14883:14892   */\n      dup2\n        /* \"--CODEGEN--\":14877:14881   */\n      dup2\n        /* \"--CODEGEN--\":14873:14876   */\n      sub\n        /* \"--CODEGEN--\":14868:14870   */\n      0x40\n        /* \"--CODEGEN--\":14857:14866   */\n      dup4\n        /* \"--CODEGEN--\":14853:14856   */\n      add\n        /* \"--CODEGEN--\":14846:14852   */\n      mstore\n        /* \"--CODEGEN--\":14908:14973   */\n      tag_410\n        /* \"--CODEGEN--\":14968:14972   */\n      dup2\n        /* \"--CODEGEN--\":14959:14965   */\n      dup11\n        /* \"--CODEGEN--\":14908:14973   */\n      jump(tag_340)\n    tag_410:\n        /* \"--CODEGEN--\":14900:14973   */\n      swap1\n      pop\n        /* \"--CODEGEN--\":15021:15030   */\n      dup2\n        /* \"--CODEGEN--\":15015:15019   */\n      dup2\n        /* \"--CODEGEN--\":15011:15014   */\n      sub\n        /* \"--CODEGEN--\":15006:15008   */\n      0x60\n        /* \"--CODEGEN--\":14995:15004   */\n      dup4\n        /* \"--CODEGEN--\":14991:14994   */\n      add\n        /* \"--CODEGEN--\":14984:14990   */\n      mstore\n        /* \"--CODEGEN--\":15046:15111   */\n      tag_411\n        /* \"--CODEGEN--\":15106:15110   */\n      dup2\n        /* \"--CODEGEN--\":15097:15103   */\n      dup10\n        /* \"--CODEGEN--\":15046:15111   */\n      jump(tag_340)\n    tag_411:\n        /* \"--CODEGEN--\":15038:15111   */\n      swap1\n      pop\n        /* \"--CODEGEN--\":15122:15185   */\n      tag_412\n        /* \"--CODEGEN--\":15180:15183   */\n      0x80\n        /* \"--CODEGEN--\":15169:15178   */\n      dup4\n        /* \"--CODEGEN--\":15165:15168   */\n      add\n        /* \"--CODEGEN--\":15156:15162   */\n      dup9\n        /* \"--CODEGEN--\":15122:15185   */\n      jump(tag_351)\n    tag_412:\n        /* \"--CODEGEN--\":15196:15259   */\n      tag_413\n        /* \"--CODEGEN--\":15254:15257   */\n      0xa0\n        /* \"--CODEGEN--\":15243:15252   */\n      dup4\n        /* \"--CODEGEN--\":15239:15242   */\n      add\n        /* \"--CODEGEN--\":15230:15236   */\n      dup8\n        /* \"--CODEGEN--\":15196:15259   */\n      jump(tag_272)\n    tag_413:\n        /* \"--CODEGEN--\":15270:15327   */\n      tag_414\n        /* \"--CODEGEN--\":15322:15325   */\n      0xc0\n        /* \"--CODEGEN--\":15311:15320   */\n      dup4\n        /* \"--CODEGEN--\":15307:15310   */\n      add\n        /* \"--CODEGEN--\":15298:15304   */\n      dup7\n        /* \"--CODEGEN--\":15270:15327   */\n      jump(tag_328)\n    tag_414:\n        /* \"--CODEGEN--\":15338:15401   */\n      tag_415\n        /* \"--CODEGEN--\":15396:15399   */\n      0xe0\n        /* \"--CODEGEN--\":15385:15394   */\n      dup4\n        /* \"--CODEGEN--\":15381:15384   */\n      add\n        /* \"--CODEGEN--\":15372:15378   */\n      dup6\n        /* \"--CODEGEN--\":15338:15401   */\n      jump(tag_272)\n    tag_415:\n        /* \"--CODEGEN--\":15412:15475   */\n      tag_416\n        /* \"--CODEGEN--\":15470:15473   */\n      0x100\n        /* \"--CODEGEN--\":15459:15468   */\n      dup4\n        /* \"--CODEGEN--\":15455:15458   */\n      add\n        /* \"--CODEGEN--\":15446:15452   */\n      dup5\n        /* \"--CODEGEN--\":15412:15475   */\n      jump(tag_351)\n    tag_416:\n        /* \"--CODEGEN--\":14592:15485   */\n      swap11\n      swap10\n      pop\n      pop\n      pop\n      pop\n      pop\n      pop\n      pop\n      pop\n      pop\n      pop\n      jump\n        /* \"--CODEGEN--\":15492:16651   */\n    tag_26:\n      0x0\n        /* \"--CODEGEN--\":15852:15855   */\n      0x120\n        /* \"--CODEGEN--\":15841:15850   */\n      dup3\n        /* \"--CODEGEN--\":15837:15840   */\n      add\n        /* \"--CODEGEN--\":15829:15856   */\n      swap1\n      pop\n        /* \"--CODEGEN--\":15867:15928   */\n      tag_418\n        /* \"--CODEGEN--\":15925:15926   */\n      0x0\n        /* \"--CODEGEN--\":15914:15923   */\n      dup4\n        /* \"--CODEGEN--\":15910:15913   */\n      add\n        /* \"--CODEGEN--\":15901:15907   */\n      dup13\n        /* \"--CODEGEN--\":15867:15928   */\n      jump(tag_351)\n    tag_418:\n        /* \"--CODEGEN--\":15976:15985   */\n      dup2\n        /* \"--CODEGEN--\":15970:15974   */\n      dup2\n        /* \"--CODEGEN--\":15966:15969   */\n      sub\n        /* \"--CODEGEN--\":15961:15963   */\n      0x20\n        /* \"--CODEGEN--\":15950:15959   */\n      dup4\n        /* \"--CODEGEN--\":15946:15949   */\n      add\n        /* \"--CODEGEN--\":15939:15945   */\n      mstore\n        /* \"--CODEGEN--\":16001:16066   */\n      tag_419\n        /* \"--CODEGEN--\":16061:16065   */\n      dup2\n        /* \"--CODEGEN--\":16052:16058   */\n      dup12\n        /* \"--CODEGEN--\":16001:16066   */\n      jump(tag_340)\n    tag_419:\n        /* \"--CODEGEN--\":15993:16066   */\n      swap1\n      pop\n        /* \"--CODEGEN--\":16077:16139   */\n      tag_420\n        /* \"--CODEGEN--\":16135:16137   */\n      0x40\n        /* \"--CODEGEN--\":16124:16133   */\n      dup4\n        /* \"--CODEGEN--\":16120:16123   */\n      add\n        /* \"--CODEGEN--\":16111:16117   */\n      dup11\n        /* \"--CODEGEN--\":16077:16139   */\n      jump(tag_351)\n    tag_420:\n        /* \"--CODEGEN--\":16187:16196   */\n      dup2\n        /* \"--CODEGEN--\":16181:16185   */\n      dup2\n        /* \"--CODEGEN--\":16177:16180   */\n      sub\n        /* \"--CODEGEN--\":16172:16174   */\n      0x60\n        /* \"--CODEGEN--\":16161:16170   */\n      dup4\n        /* \"--CODEGEN--\":16157:16160   */\n      add\n        /* \"--CODEGEN--\":16150:16156   */\n      mstore\n        /* \"--CODEGEN--\":16212:16277   */\n      tag_421\n        /* \"--CODEGEN--\":16272:16276   */\n      dup2\n        /* \"--CODEGEN--\":16263:16269   */\n      dup10\n        /* \"--CODEGEN--\":16212:16277   */\n      jump(tag_340)\n    tag_421:\n        /* \"--CODEGEN--\":16204:16277   */\n      swap1\n      pop\n        /* \"--CODEGEN--\":16288:16351   */\n      tag_422\n        /* \"--CODEGEN--\":16346:16349   */\n      0x80\n        /* \"--CODEGEN--\":16335:16344   */\n      dup4\n        /* \"--CODEGEN--\":16331:16334   */\n      add\n        /* \"--CODEGEN--\":16322:16328   */\n      dup9\n        /* \"--CODEGEN--\":16288:16351   */\n      jump(tag_351)\n    tag_422:\n        /* \"--CODEGEN--\":16362:16419   */\n      tag_423\n        /* \"--CODEGEN--\":16414:16417   */\n      0xa0\n        /* \"--CODEGEN--\":16403:16412   */\n      dup4\n        /* \"--CODEGEN--\":16399:16402   */\n      add\n        /* \"--CODEGEN--\":16390:16396   */\n      dup8\n        /* \"--CODEGEN--\":16362:16419   */\n      jump(tag_328)\n    tag_423:\n        /* \"--CODEGEN--\":16430:16493   */\n      tag_424\n        /* \"--CODEGEN--\":16488:16491   */\n      0xc0\n        /* \"--CODEGEN--\":16477:16486   */\n      dup4\n        /* \"--CODEGEN--\":16473:16476   */\n      add\n        /* \"--CODEGEN--\":16464:16470   */\n      dup7\n        /* \"--CODEGEN--\":16430:16493   */\n      jump(tag_272)\n    tag_424:\n        /* \"--CODEGEN--\":16504:16567   */\n      tag_425\n        /* \"--CODEGEN--\":16562:16565   */\n      0xe0\n        /* \"--CODEGEN--\":16551:16560   */\n      dup4\n        /* \"--CODEGEN--\":16547:16550   */\n      add\n        /* \"--CODEGEN--\":16538:16544   */\n      dup6\n        /* \"--CODEGEN--\":16504:16567   */\n      jump(tag_351)\n    tag_425:\n        /* \"--CODEGEN--\":16578:16641   */\n      tag_426\n        /* \"--CODEGEN--\":16636:16639   */\n      0x100\n        /* \"--CODEGEN--\":16625:16634   */\n      dup4\n        /* \"--CODEGEN--\":16621:16624   */\n      add\n        /* \"--CODEGEN--\":16612:16618   */\n      dup5\n        /* \"--CODEGEN--\":16578:16641   */\n      jump(tag_351)\n    tag_426:\n        /* \"--CODEGEN--\":15823:16651   */\n      swap11\n      swap10\n      pop\n      pop\n      pop\n      pop\n      pop\n      pop\n      pop\n      pop\n      pop\n      pop\n      jump\n        /* \"--CODEGEN--\":16660:16803   */\n    tag_280:\n      0x0\n        /* \"--CODEGEN--\":16791:16795   */\n      0x20\n        /* \"--CODEGEN--\":16783:16789   */\n      dup3\n        /* \"--CODEGEN--\":16779:16782   */\n      add\n        /* \"--CODEGEN--\":16768:16796   */\n      swap1\n      pop\n        /* \"--CODEGEN--\":16760:16803   */\n      swap2\n      swap1\n      pop\n      jump\n        /* \"--CODEGEN--\":16814:16959   */\n    tag_293:\n      0x0\n        /* \"--CODEGEN--\":16947:16951   */\n      0x20\n        /* \"--CODEGEN--\":16939:16945   */\n      dup3\n        /* \"--CODEGEN--\":16935:16938   */\n      add\n        /* \"--CODEGEN--\":16924:16952   */\n      swap1\n      pop\n        /* \"--CODEGEN--\":16916:16959   */\n      swap2\n      swap1\n      pop\n      jump\n        /* \"--CODEGEN--\":16970:17111   */\n    tag_306:\n      0x0\n        /* \"--CODEGEN--\":17099:17103   */\n      0x20\n        /* \"--CODEGEN--\":17091:17097   */\n      dup3\n        /* \"--CODEGEN--\":17087:17090   */\n      add\n        /* \"--CODEGEN--\":17076:17104   */\n      swap1\n      pop\n        /* \"--CODEGEN--\":17068:17111   */\n      swap2\n      swap1\n      pop\n      jump\n        /* \"--CODEGEN--\":17122:17262   */\n    tag_319:\n      0x0\n        /* \"--CODEGEN--\":17250:17254   */\n      0x20\n        /* \"--CODEGEN--\":17242:17248   */\n      dup3\n        /* \"--CODEGEN--\":17238:17241   */\n      add\n        /* \"--CODEGEN--\":17227:17255   */\n      swap1\n      pop\n        /* \"--CODEGEN--\":17219:17262   */\n      swap2\n      swap1\n      pop\n      jump\n        /* \"--CODEGEN--\":17273:17399   */\n    tag_345:\n      0x0\n        /* \"--CODEGEN--\":17350:17354   */\n      dup2\n        /* \"--CODEGEN--\":17347:17348   */\n      0x0\n        /* \"--CODEGEN--\":17340:17346   */\n      mstore\n        /* \"--CODEGEN--\":17387:17391   */\n      0x20\n        /* \"--CODEGEN--\":17384:17385   */\n      0x0\n        /* \"--CODEGEN--\":17374:17383   */\n      keccak256\n        /* \"--CODEGEN--\":17362:17392   */\n      swap1\n      pop\n        /* \"--CODEGEN--\":17332:17399   */\n      swap2\n      swap1\n      pop\n      jump\n        /* \"--CODEGEN--\":17408:17537   */\n    tag_278:\n      0x0\n        /* \"--CODEGEN--\":17526:17531   */\n      dup2\n        /* \"--CODEGEN--\":17520:17525   */\n      mload\n        /* \"--CODEGEN--\":17510:17532   */\n      swap1\n      pop\n        /* \"--CODEGEN--\":17504:17537   */\n      swap2\n      swap1\n      pop\n      jump\n        /* \"--CODEGEN--\":17544:17675   */\n    tag_291:\n      0x0\n        /* \"--CODEGEN--\":17664:17669   */\n      dup2\n        /* \"--CODEGEN--\":17658:17663   */\n      mload\n        /* \"--CODEGEN--\":17648:17670   */\n      swap1\n      pop\n        /* \"--CODEGEN--\":17642:17675   */\n      swap2\n      swap1\n      pop\n      jump\n        /* \"--CODEGEN--\":17682:17809   */\n    tag_304:\n      0x0\n        /* \"--CODEGEN--\":17798:17803   */\n      dup2\n        /* \"--CODEGEN--\":17792:17797   */\n      mload\n        /* \"--CODEGEN--\":17782:17804   */\n      swap1\n      pop\n        /* \"--CODEGEN--\":17776:17809   */\n      swap2\n      swap1\n      pop\n      jump\n        /* \"--CODEGEN--\":17816:17942   */\n    tag_317:\n      0x0\n        /* \"--CODEGEN--\":17931:17936   */\n      dup2\n        /* \"--CODEGEN--\":17925:17930   */\n      mload\n        /* \"--CODEGEN--\":17915:17937   */\n      swap1\n      pop\n        /* \"--CODEGEN--\":17909:17942   */\n      swap2\n      swap1\n      pop\n      jump\n        /* \"--CODEGEN--\":17949:18037   */\n    tag_334:\n      0x0\n        /* \"--CODEGEN--\":18026:18031   */\n      dup2\n        /* \"--CODEGEN--\":18020:18025   */\n      mload\n        /* \"--CODEGEN--\":18010:18032   */\n      swap1\n      pop\n        /* \"--CODEGEN--\":18004:18037   */\n      swap2\n      swap1\n      pop\n      jump\n        /* \"--CODEGEN--\":18045:18189   */\n    tag_287:\n      0x0\n        /* \"--CODEGEN--\":18178:18182   */\n      0x20\n        /* \"--CODEGEN--\":18170:18176   */\n      dup3\n        /* \"--CODEGEN--\":18166:18169   */\n      add\n        /* \"--CODEGEN--\":18155:18183   */\n      swap1\n      pop\n        /* \"--CODEGEN--\":18148:18189   */\n      swap2\n      swap1\n      pop\n      jump\n        /* \"--CODEGEN--\":18198:18344   */\n    tag_300:\n      0x0\n        /* \"--CODEGEN--\":18333:18337   */\n      0x20\n        /* \"--CODEGEN--\":18325:18331   */\n      dup3\n        /* \"--CODEGEN--\":18321:18324   */\n      add\n        /* \"--CODEGEN--\":18310:18338   */\n      swap1\n      pop\n        /* \"--CODEGEN--\":18303:18344   */\n      swap2\n      swap1\n      pop\n      jump\n        /* \"--CODEGEN--\":18353:18495   */\n    tag_313:\n      0x0\n        /* \"--CODEGEN--\":18484:18488   */\n      0x20\n        /* \"--CODEGEN--\":18476:18482   */\n      dup3\n        /* \"--CODEGEN--\":18472:18475   */\n      add\n        /* \"--CODEGEN--\":18461:18489   */\n      swap1\n      pop\n        /* \"--CODEGEN--\":18454:18495   */\n      swap2\n      swap1\n      pop\n      jump\n        /* \"--CODEGEN--\":18504:18645   */\n    tag_326:\n      0x0\n        /* \"--CODEGEN--\":18634:18638   */\n      0x20\n        /* \"--CODEGEN--\":18626:18632   */\n      dup3\n        /* \"--CODEGEN--\":18622:18625   */\n      add\n        /* \"--CODEGEN--\":18611:18639   */\n      swap1\n      pop\n        /* \"--CODEGEN--\":18604:18645   */\n      swap2\n      swap1\n      pop\n      jump\n        /* \"--CODEGEN--\":18653:18781   */\n    tag_274:\n      0x0\n        /* \"--CODEGEN--\":18733:18775   */\n      0xffffffffffffffffffffffffffffffffffffffff\n        /* \"--CODEGEN--\":18726:18731   */\n      dup3\n        /* \"--CODEGEN--\":18722:18725   */\n      and\n        /* \"--CODEGEN--\":18711:18776   */\n      swap1\n      pop\n        /* \"--CODEGEN--\":18705:18781   */\n      swap2\n      swap1\n      pop\n      jump\n        /* \"--CODEGEN--\":18788:18880   */\n    tag_330:\n      0x0\n        /* \"--CODEGEN--\":18868:18873   */\n      dup2\n        /* \"--CODEGEN--\":18861:18867   */\n      iszero\n        /* \"--CODEGEN--\":18854:18860   */\n      iszero\n        /* \"--CODEGEN--\":18843:18875   */\n      swap1\n      pop\n        /* \"--CODEGEN--\":18837:18880   */\n      swap2\n      swap1\n      pop\n      jump\n        /* \"--CODEGEN--\":18887:18966   */\n    tag_383:\n      0x0\n        /* \"--CODEGEN--\":18956:18961   */\n      dup2\n        /* \"--CODEGEN--\":18945:18961   */\n      swap1\n      pop\n        /* \"--CODEGEN--\":18939:18966   */\n      swap2\n      swap1\n      pop\n      jump\n        /* \"--CODEGEN--\":18974:19253   */\n    tag_336:\n        /* \"--CODEGEN--\":19039:19040   */\n      0x0\n        /* \"--CODEGEN--\":19046:19147   */\n    tag_445:\n        /* \"--CODEGEN--\":19060:19066   */\n      dup4\n        /* \"--CODEGEN--\":19057:19058   */\n      dup2\n        /* \"--CODEGEN--\":19054:19056   */\n      lt\n        /* \"--CODEGEN--\":19046:19147   */\n      iszero\n      tag_446\n      jumpi\n        /* \"--CODEGEN--\":19136:19137   */\n      dup1\n        /* \"--CODEGEN--\":19131:19134   */\n      dup3\n        /* \"--CODEGEN--\":19127:19130   */\n      add\n        /* \"--CODEGEN--\":19121:19126   */\n      mload\n        /* \"--CODEGEN--\":19117:19118   */\n      dup2\n        /* \"--CODEGEN--\":19112:19115   */\n      dup5\n        /* \"--CODEGEN--\":19108:19111   */\n      add\n        /* \"--CODEGEN--\":19101:19107   */\n      mstore\n        /* \"--CODEGEN--\":19082:19084   */\n      0x20\n        /* \"--CODEGEN--\":19079:19080   */\n      dup2\n        /* \"--CODEGEN--\":19075:19078   */\n      add\n        /* \"--CODEGEN--\":19070:19085   */\n      swap1\n      pop\n        /* \"--CODEGEN--\":19046:19147   */\n      jump(tag_445)\n    tag_446:\n        /* \"--CODEGEN--\":19166:19172   */\n      dup4\n        /* \"--CODEGEN--\":19163:19164   */\n      dup2\n        /* \"--CODEGEN--\":19160:19162   */\n      eq\n        /* \"--CODEGEN--\":19184:19185   */\n      0x0\n        /* \"--CODEGEN--\":19179:19247   */\n      dup2\n      eq\n      tag_449\n      jumpi\n        /* \"--CODEGEN--\":19153:19247   */\n      jump(tag_448)\n        /* \"--CODEGEN--\":19179:19247   */\n    tag_449:\n        /* \"--CODEGEN--\":19238:19239   */\n      0x0\n        /* \"--CODEGEN--\":19229:19235   */\n      dup6\n        /* \"--CODEGEN--\":19224:19227   */\n      dup6\n        /* \"--CODEGEN--\":19220:19223   */\n      add\n        /* \"--CODEGEN--\":19213:19219   */\n      mstore\n        /* \"--CODEGEN--\":19153:19247   */\n    tag_448:\n      pop\n        /* \"--CODEGEN--\":19023:19253   */\n      pop\n      pop\n      pop\n      pop\n      jump\n        /* \"--CODEGEN--\":19257:19354   */\n    tag_338:\n      0x0\n        /* \"--CODEGEN--\":19345:19347   */\n      0x1f\n        /* \"--CODEGEN--\":19341:19344   */\n      not\n        /* \"--CODEGEN--\":19336:19338   */\n      0x1f\n        /* \"--CODEGEN--\":19329:19334   */\n      dup4\n        /* \"--CODEGEN--\":19325:19328   */\n      add\n        /* \"--CODEGEN--\":19321:19324   */\n      and\n        /* \"--CODEGEN--\":19311:19349   */\n      swap1\n      pop\n        /* \"--CODEGEN--\":19305:19354   */\n      swap2\n      swap1\n      pop\n      jump\n\n    auxdata: 0xa265627a7a723058204608d5f3e07f968636d72bb1cfa177682615aaeb6c898661c09dbc54c98597166c6578706572696d656e74616cf50037\n}\n",
        "bytecode": {
          "linkReferences": {},
          "object": "6060604052341561000f57600080fd5b6129458061001e6000396000f30060606040523615610110576000357c0100000000000000000000000000000000000000000000000000000000900463ffffffff16806306ead22e1461011557806315f6febd146101545780631c3a88901461017d5780632c5d4725146101ba5780633ee393f6146101e3578063465f6954146102c4578063481c6a751461037d5780634f0cb18f146103a6578063513e9848146103cf5780636148c54c146104075780636ce71786146104ae57806386a447d9146104c6578063a08d986d146104ef578063a8233ee91461052e578063aa8c217c14610565578063ac96bd6e1461058e578063bafdb029146105b7578063ca005940146105e0578063ce251a30146105f8578063e97dcb621461060d575b600080fd5b341561012057600080fd5b6101366004808035906020019091905050610617565b60405161014b9998979695949392919061273c565b60405180910390f35b341561015f57600080fd5b61016761069f565b6040516101749190612587565b60405180910390f35b341561018857600080fd5b61019e60048080359060200190919050506108ed565b6040516101b197969594939291906125cb565b60405180910390f35b34156101c557600080fd5b6101cd61093a565b6040516101da9190612656565b60405180910390f35b6102c2600480803590602001908201803590602001908080601f0160208091040260200160405190810160405280939291908181526020018383808284378201915050505050509190803590602001908201803590602001908080601f0160208091040260200160405190810160405280939291908181526020018383808284378201915050505050509190803590602001908201803590602001908080601f01602080910402602001604051908101604052809392919081815260200183838082843782019150505050505091908035906020019091905050610940565b005b61037b600480803590602001908201803590602001908080601f0160208091040260200160405190810160405280939291908181526020018383808284378201915050505050509190803590602001909190803590602001909190803590602001909190803590602001909190803590602001908201803590602001908080601f01602080910402602001604051908101604052809392919081815260200183838082843782019150505050505091905050610b19565b005b341561038857600080fd5b610390610e32565b60405161039d9190612528565b60405180910390f35b34156103b157600080fd5b6103b9610e58565b6040516103c691906125a9565b60405180910390f35b34156103da57600080fd5b6103f0600480803590602001909190505061118a565b6040516103fe929190612671565b60405180910390f35b6104ac600480803590602001908201803590602001908080601f0160208091040260200160405190810160405280939291908181526020018383808284378201915050505050509190803590602001909190803590602001909190803590602001908201803590602001908080601f016020809104026020016040519081016040528093929190818152602001838380828437820191505050505050919050506111dd565b005b6104c46004808035906020019091905050611386565b005b34156104d157600080fd5b6104d961140b565b6040516104e69190612565565b60405180910390f35b34156104fa57600080fd5b6105106004808035906020019091905050611717565b6040516105259998979695949392919061269a565b60405180910390f35b341561053957600080fd5b61054f60048080359060200190919050506117be565b60405161055c9190612528565b60405180910390f35b341561057057600080fd5b6105786117fd565b6040516105859190612656565b60405180910390f35b341561059957600080fd5b6105a1611803565b6040516105ae9190612656565b60405180910390f35b34156105c257600080fd5b6105ca611809565b6040516105d79190612543565b60405180910390f35b6105f660048080359060200190919050506118ce565b005b341561060357600080fd5b61060b611953565b005b610615611996565b005b60018181548110151561062657fe5b9060005260206000209060080201600091509050806000015490806001019080600201549080600301908060040154908060050160009054906101000a900460ff16908060050160019054906101000a900473ffffffffffffffffffffffffffffffffffffffff16908060060154908060070154905089565b6106a7611a4c565b6001805480602002602001604051908101604052809291908181526020016000905b828210156108e45783829060005260206000209060080201610120604051908101604052908160008201548152602001600182018054600181600116156101000203166002900480601f0160208091040260200160405190810160405280929190818152602001828054600181600116156101000203166002900480156107915780601f1061076657610100808354040283529160200191610791565b820191906000526020600020905b81548152906001019060200180831161077457829003601f168201915b5050505050815260200160028201548152602001600382018054600181600116156101000203166002900480601f01602080910402602001604051908101604052809291908181526020018280546001816001161561010002031660029004801561083d5780601f106108125761010080835404028352916020019161083d565b820191906000526020600020905b81548152906001019060200180831161082057829003601f168201915b50505050508152602001600482015481526020016005820160009054906101000a900460ff161515151581526020016005820160019054906101000a900473ffffffffffffffffffffffffffffffffffffffff1673ffffffffffffffffffffffffffffffffffffffff1673ffffffffffffffffffffffffffffffffffffffff16815260200160068201548152602001600782015481525050815260200190600101906106c9565b50505050905090565b6008818154811015156108fc57fe5b906000526020600020906007020160009150905080600001908060010190806002015490806003015490806004019080600501549080600601905087565b60045481565b610948611a60565b6101206040519081016040528060078054905081526020018681526020018581526020018481526020018381526020013373ffffffffffffffffffffffffffffffffffffffff168152602001600015158152602001600073ffffffffffffffffffffffffffffffffffffffff16815260200160008152509050600780548060010182816109d59190611aed565b91600052602060002090600802016000839091909150600082015181600001556020820151816001019080519060200190610a11929190611b1f565b506040820151816002019080519060200190610a2e929190611b1f565b506060820151816003019080519060200190610a4b929190611b1f565b506080820151816004015560a08201518160050160006101000a81548173ffffffffffffffffffffffffffffffffffffffff021916908373ffffffffffffffffffffffffffffffffffffffff16021790555060c08201518160050160146101000a81548160ff02191690831515021790555060e08201518160060160006101000a81548173ffffffffffffffffffffffffffffffffffffffff021916908373ffffffffffffffffffffffffffffffffffffffff16021790555061010082015181600701555050505050505050565b600080610b24611b9f565b600188815481101515610b3357fe5b90600052602060002090600802019250600786815481101515610b5257fe5b90600052602060002090600802019150868360070154141515610b7457600080fd5b600115158260050160149054906101000a900460ff161515141515610b9857600080fd5b60e060405190810160405280846001018054600181600116156101000203166002900480601f016020809104026020016040519081016040528092919081815260200182805460018160011615610100020316600290048015610c3c5780601f10610c1157610100808354040283529160200191610c3c565b820191906000526020600020905b815481529060010190602001808311610c1f57829003601f168201915b50505050508152602001836001018054600181600116156101000203166002900480601f016020809104026020016040519081016040528092919081815260200182805460018160011615610100020316600290048015610cde5780601f10610cb357610100808354040283529160200191610cde565b820191906000526020600020905b815481529060010190602001808311610cc157829003601f168201915b50505050508152602001878152602001846002015481526020018a815260200186815260200185815250905060088054806001018281610d1e9190611bf5565b916000526020600020906007020160008390919091506000820151816000019080519060200190610d50929190611b1f565b506020820151816001019080519060200190610d6d929190611b1f565b5060408201518160020155606082015181600301556080820151816004019080519060200190610d9e929190611b1f565b5060a0820151816005015560c0820151816006019080519060200190610dc5929190611b1f565b505050508482600701540182600701819055508483600601540383600601819055503373ffffffffffffffffffffffffffffffffffffffff166108fc869081150290604051600060405180830381858888f193505050501515610e2757600080fd5b505050505050505050565b600260009054906101000a900473ffffffffffffffffffffffffffffffffffffffff1681565b610e60611c27565b6007805480602002602001604051908101604052809291908181526020016000905b828210156111815783829060005260206000209060080201610120604051908101604052908160008201548152602001600182018054600181600116156101000203166002900480601f016020809104026020016040519081016040528092919081815260200182805460018160011615610100020316600290048015610f4a5780601f10610f1f57610100808354040283529160200191610f4a565b820191906000526020600020905b815481529060010190602001808311610f2d57829003601f168201915b50505050508152602001600282018054600181600116156101000203166002900480601f016020809104026020016040519081016040528092919081815260200182805460018160011615610100020316600290048015610fec5780601f10610fc157610100808354040283529160200191610fec565b820191906000526020600020905b815481529060010190602001808311610fcf57829003601f168201915b50505050508152602001600382018054600181600116156101000203166002900480601f01602080910402602001604051908101604052809291908181526020018280546001816001161561010002031660029004801561108e5780601f106110635761010080835404028352916020019161108e565b820191906000526020600020905b81548152906001019060200180831161107157829003601f168201915b50505050508152602001600482015481526020016005820160009054906101000a900473ffffffffffffffffffffffffffffffffffffffff1673ffffffffffffffffffffffffffffffffffffffff1673ffffffffffffffffffffffffffffffffffffffff1681526020016005820160149054906101000a900460ff161515151581526020016006820160009054906101000a900473ffffffffffffffffffffffffffffffffffffffff1673ffffffffffffffffffffffffffffffffffffffff1673ffffffffffffffffffffffffffffffffffffffff16815260200160078201548152505081526020019060010190610e82565b50505050905090565b60008181548110151561119957fe5b90600052602060002090600202016000915090508060000154908060010160009054906101000a900473ffffffffffffffffffffffffffffffffffffffff16905082565b6111e5611c3b565b6064831115156111f457600080fd5b6101206040519081016040528060018054905081526020018681526020018581526020018381526020018481526020016000151581526020013373ffffffffffffffffffffffffffffffffffffffff168152602001670de0b6b3a76400008152602001444260405180838152602001828152602001925050506040518091039020600190048152509050600180548060010182816112929190611cac565b916000526020600020906008020160008390919091506000820151816000015560208201518160010190805190602001906112ce929190611b1f565b506040820151816002015560608201518160030190805190602001906112f5929190611b1f565b506080820151816004015560a08201518160050160006101000a81548160ff02191690831515021790555060c08201518160050160016101000a81548173ffffffffffffffffffffffffffffffffffffffff021916908373ffffffffffffffffffffffffffffffffffffffff16021790555060e0820151816006015561010082015181600701555050505050505050565b600060078281548110151561139757fe5b9060005260206000209060080201905060018160050160146101000a81548160ff021916908315150217905550338160060160006101000a81548173ffffffffffffffffffffffffffffffffffffffff021916908373ffffffffffffffffffffffffffffffffffffffff1602179055505050565b611413611cde565b6008805480602002602001604051908101604052809291908181526020016000905b8282101561170e578382906000526020600020906007020160e06040519081016040529081600082018054600181600116156101000203166002900480601f0160208091040260200160405190810160405280929190818152602001828054600181600116156101000203166002900480156114f25780601f106114c7576101008083540402835291602001916114f2565b820191906000526020600020905b8154815290600101906020018083116114d557829003601f168201915b50505050508152602001600182018054600181600116156101000203166002900480601f0160208091040260200160405190810160405280929190818152602001828054600181600116156101000203166002900480156115945780601f1061156957610100808354040283529160200191611594565b820191906000526020600020905b81548152906001019060200180831161157757829003601f168201915b505050505081526020016002820154815260200160038201548152602001600482018054600181600116156101000203166002900480601f01602080910402602001604051908101604052809291908181526020018280546001816001161561010002031660029004801561164a5780601f1061161f5761010080835404028352916020019161164a565b820191906000526020600020905b81548152906001019060200180831161162d57829003601f168201915b5050505050815260200160058201548152602001600682018054600181600116156101000203166002900480601f0160208091040260200160405190810160405280929190818152602001828054600181600116156101000203166002900480156116f65780601f106116cb576101008083540402835291602001916116f6565b820191906000526020600020905b8154815290600101906020018083116116d957829003601f168201915b50505050508152505081526020019060010190611435565b50505050905090565b60078181548110151561172657fe5b90600052602060002090600802016000915090508060000154908060010190806002019080600301908060040154908060050160009054906101000a900473ffffffffffffffffffffffffffffffffffffffff16908060050160149054906101000a900460ff16908060060160009054906101000a900473ffffffffffffffffffffffffffffffffffffffff16908060070154905089565b6003818154811015156117cd57fe5b90600052602060002090016000915054906101000a900473ffffffffffffffffffffffffffffffffffffffff1681565b60065481565b60055481565b611811611cf2565b6000805480602002602001604051908101604052809291908181526020016000905b828210156118c55783829060005260206000209060020201604080519081016040529081600082015481526020016001820160009054906101000a900473ffffffffffffffffffffffffffffffffffffffff1673ffffffffffffffffffffffffffffffffffffffff1673ffffffffffffffffffffffffffffffffffffffff168152505081526020019060010190611833565b50505050905090565b60006007828154811015156118df57fe5b9060005260206000209060080201905060008160050160146101000a81548160ff021916908315150217905550338160060160006101000a81548173ffffffffffffffffffffffffffffffffffffffff021916908373ffffffffffffffffffffffffffffffffffffffff1602179055505050565b33600260006101000a81548173ffffffffffffffffffffffffffffffffffffffff021916908373ffffffffffffffffffffffffffffffffffffffff160217905550565b61199e611d06565b60408051908101604052803481526020013373ffffffffffffffffffffffffffffffffffffffff168152509050600080548060010182816119df9190611d36565b916000526020600020906002020160008390919091506000820151816000015560208201518160010160006101000a81548173ffffffffffffffffffffffffffffffffffffffff021916908373ffffffffffffffffffffffffffffffffffffffff16021790555050505050565b602060405190810160405280600081525090565b6101206040519081016040528060008152602001611a7c611d68565b8152602001611a89611d68565b8152602001611a96611d68565b815260200160008152602001600073ffffffffffffffffffffffffffffffffffffffff168152602001600015158152602001600073ffffffffffffffffffffffffffffffffffffffff168152602001600081525090565b815481835581811511611b1a57600802816008028360005260206000209182019101611b199190611d7c565b5b505050565b828054600181600116156101000203166002900490600052602060002090601f016020900481019282601f10611b6057805160ff1916838001178555611b8e565b82800160010185558215611b8e579182015b82811115611b8d578251825591602001919060010190611b72565b5b509050611b9b9190611e45565b5090565b60e060405190810160405280611bb3611d68565b8152602001611bc0611d68565b81526020016000815260200160008152602001611bdb611d68565b815260200160008152602001611bef611d68565b81525090565b815481835581811511611c2257600702816007028360005260206000209182019101611c219190611e6a565b5b505050565b602060405190810160405280600081525090565b6101206040519081016040528060008152602001611c57611d68565b815260200160008152602001611c6b611d68565b815260200160008152602001600015158152602001600073ffffffffffffffffffffffffffffffffffffffff16815260200160008152602001600081525090565b815481835581811511611cd957600802816008028360005260206000209182019101611cd89190611ee1565b5b505050565b602060405190810160405280600081525090565b602060405190810160405280600081525090565b604080519081016040528060008152602001600073ffffffffffffffffffffffffffffffffffffffff1681525090565b815481835581811511611d6357600202816002028360005260206000209182019101611d629190611f83565b5b505050565b602060405190810160405280600081525090565b611e4291905b80821115611e3e57600080820160009055600182016000611da39190611fd1565b600282016000611db39190611fd1565b600382016000611dc39190611fd1565b60048201600090556005820160006101000a81549073ffffffffffffffffffffffffffffffffffffffff02191690556005820160146101000a81549060ff02191690556006820160006101000a81549073ffffffffffffffffffffffffffffffffffffffff0219169055600782016000905550600801611d82565b5090565b90565b611e6791905b80821115611e63576000816000905550600101611e4b565b5090565b90565b611ede91905b80821115611eda5760008082016000611e899190611fd1565b600182016000611e999190611fd1565b60028201600090556003820160009055600482016000611eb99190611fd1565b6005820160009055600682016000611ed19190611fd1565b50600701611e70565b5090565b90565b611f8091905b80821115611f7c57600080820160009055600182016000611f089190611fd1565b6002820160009055600382016000611f209190611fd1565b60048201600090556005820160006101000a81549060ff02191690556005820160016101000a81549073ffffffffffffffffffffffffffffffffffffffff02191690556006820160009055600782016000905550600801611ee7565b5090565b90565b611fce91905b80821115611fca576000808201600090556001820160006101000a81549073ffffffffffffffffffffffffffffffffffffffff021916905550600201611f89565b5090565b90565b50805460018160011615610100020316600290046000825580601f10611ff75750612016565b601f0160209004906000526020600020908101906120159190611e45565b5b50565b61202281612888565b82525050565b60006120338261281d565b808452602084019350612045836127d7565b60005b828110156120775761205b86835161229a565b61206482612854565b9150604086019550600181019050612048565b50849250505092915050565b600061208e82612828565b808452602084019350836020820285016120a7856127e4565b60005b848110156120e05783830388526120c28383516122c9565b92506120cd82612861565b915060e0880197506001810190506120aa565b508196508694505050505092915050565b60006120fc82612833565b80845260208401935083602082028501612115856127f1565b60005b8481101561214f57838303885261213083835161237a565b925061213b8261286e565b915061012088019750600181019050612118565b508196508694505050505092915050565b600061216b8261283e565b80845260208401935083602082028501612184856127fe565b60005b848110156121be57838303885261219f838351612446565b92506121aa8261287b565b915061012088019750600181019050612187565b508196508694505050505092915050565b6121d8816128a8565b82525050565b60006121e982612849565b8084526121fd8160208601602086016128be565b612206816128fa565b602085010191505092915050565b600081546001811660008114612231576001811461225157612292565b607f600283041680865260ff198316602087015260408601935050612292565b600282048086526020860195506122678561280b565b60005b828110156122895781548189015260018201915060208101905061226a565b80880195505050505b505092915050565b6040820160008201516122b06000850182612519565b5060208201516122c36020850182612019565b50505050565b600060e08301600083015184820360008601526122e682826121de565b9150506020830151848203602086015261230082826121de565b91505060408301516123156040860182612519565b5060608301516123286060860182612519565b506080830151848203608086015261234082826121de565b91505060a083015161235560a0860182612519565b5060c083015184820360c086015261236d82826121de565b9150508091505092915050565b6000610120830160008301516123936000860182612519565b50602083015184820360208601526123ab82826121de565b91505060408301516123c06040860182612519565b50606083015184820360608601526123d882826121de565b91505060808301516123ed6080860182612519565b5060a083015161240060a08601826121cf565b5060c083015161241360c0860182612019565b5060e083015161242660e0860182612519565b5061010083015161243b610100860182612519565b508091505092915050565b60006101208301600083015161245f6000860182612519565b506020830151848203602086015261247782826121de565b9150506040830151848203604086015261249182826121de565b915050606083015184820360608601526124ab82826121de565b91505060808301516124c06080860182612519565b5060a08301516124d360a0860182612019565b5060c08301516124e660c08601826121cf565b5060e08301516124f960e0860182612019565b5061010083015161250e610100860182612519565b508091505092915050565b612522816128b4565b82525050565b600060208201905061253d6000830184612019565b92915050565b6000602082019050818103600083015261255d8184612028565b905092915050565b6000602082019050818103600083015261257f8184612083565b905092915050565b600060208201905081810360008301526125a181846120f1565b905092915050565b600060208201905081810360008301526125c38184612160565b905092915050565b600060e08201905081810360008301526125e5818a612214565b905081810360208301526125f98189612214565b90506126086040830188612519565b6126156060830187612519565b81810360808301526126278186612214565b905061263660a0830185612519565b81810360c08301526126488184612214565b905098975050505050505050565b600060208201905061266b6000830184612519565b92915050565b60006040820190506126866000830185612519565b6126936020830184612019565b9392505050565b6000610120820190506126b0600083018c612519565b81810360208301526126c2818b612214565b905081810360408301526126d6818a612214565b905081810360608301526126ea8189612214565b90506126f96080830188612519565b61270660a0830187612019565b61271360c08301866121cf565b61272060e0830185612019565b61272e610100830184612519565b9a9950505050505050505050565b600061012082019050612752600083018c612519565b8181036020830152612764818b612214565b9050612773604083018a612519565b81810360608301526127858189612214565b90506127946080830188612519565b6127a160a08301876121cf565b6127ae60c0830186612019565b6127bb60e0830185612519565b6127c9610100830184612519565b9a9950505050505050505050565b6000602082019050919050565b6000602082019050919050565b6000602082019050919050565b6000602082019050919050565b60008160005260206000209050919050565b600081519050919050565b600081519050919050565b600081519050919050565b600081519050919050565b600081519050919050565b6000602082019050919050565b6000602082019050919050565b6000602082019050919050565b6000602082019050919050565b600073ffffffffffffffffffffffffffffffffffffffff82169050919050565b60008115159050919050565b6000819050919050565b60005b838110156128dc5780820151818401526020810190506128c1565b838114600081146128ec576128f3565b6000858501525b5050505050565b6000601f19601f83011690509190505600a265627a7a723058204608d5f3e07f968636d72bb1cfa177682615aaeb6c898661c09dbc54c98597166c6578706572696d656e74616cf50037",
          "opcodes": "PUSH1 0x60 PUSH1 0x40 MSTORE CALLVALUE ISZERO PUSH2 0xF JUMPI PUSH1 0x0 DUP1 REVERT JUMPDEST PUSH2 0x2945 DUP1 PUSH2 0x1E PUSH1 0x0 CODECOPY PUSH1 0x0 RETURN STOP PUSH1 0x60 PUSH1 0x40 MSTORE CALLDATASIZE ISZERO PUSH2 0x110 JUMPI PUSH1 0x0 CALLDATALOAD PUSH29 0x100000000000000000000000000000000000000000000000000000000 SWAP1 DIV PUSH4 0xFFFFFFFF AND DUP1 PUSH4 0x6EAD22E EQ PUSH2 0x115 JUMPI DUP1 PUSH4 0x15F6FEBD EQ PUSH2 0x154 JUMPI DUP1 PUSH4 0x1C3A8890 EQ PUSH2 0x17D JUMPI DUP1 PUSH4 0x2C5D4725 EQ PUSH2 0x1BA JUMPI DUP1 PUSH4 0x3EE393F6 EQ PUSH2 0x1E3 JUMPI DUP1 PUSH4 0x465F6954 EQ PUSH2 0x2C4 JUMPI DUP1 PUSH4 0x481C6A75 EQ PUSH2 0x37D JUMPI DUP1 PUSH4 0x4F0CB18F EQ PUSH2 0x3A6 JUMPI DUP1 PUSH4 0x513E9848 EQ PUSH2 0x3CF JUMPI DUP1 PUSH4 0x6148C54C EQ PUSH2 0x407 JUMPI DUP1 PUSH4 0x6CE71786 EQ PUSH2 0x4AE JUMPI DUP1 PUSH4 0x86A447D9 EQ PUSH2 0x4C6 JUMPI DUP1 PUSH4 0xA08D986D EQ PUSH2 0x4EF JUMPI DUP1 PUSH4 0xA8233EE9 EQ PUSH2 0x52E JUMPI DUP1 PUSH4 0xAA8C217C EQ PUSH2 0x565 JUMPI DUP1 PUSH4 0xAC96BD6E EQ PUSH2 0x58E JUMPI DUP1 PUSH4 0xBAFDB029 EQ PUSH2 0x5B7 JUMPI DUP1 PUSH4 0xCA005940 EQ PUSH2 0x5E0 JUMPI DUP1 PUSH4 0xCE251A30 EQ PUSH2 0x5F8 JUMPI DUP1 PUSH4 0xE97DCB62 EQ PUSH2 0x60D JUMPI JUMPDEST PUSH1 0x0 DUP1 REVERT JUMPDEST CALLVALUE ISZERO PUSH2 0x120 JUMPI PUSH1 0x0 DUP1 REVERT JUMPDEST PUSH2 0x136 PUSH1 0x4 DUP1 DUP1 CALLDATALOAD SWAP1 PUSH1 0x20 ADD SWAP1 SWAP2 SWAP1 POP POP PUSH2 0x617 JUMP JUMPDEST PUSH1 0x40 MLOAD PUSH2 0x14B SWAP10 SWAP9 SWAP8 SWAP7 SWAP6 SWAP5 SWAP4 SWAP3 SWAP2 SWAP1 PUSH2 0x273C JUMP JUMPDEST PUSH1 0x40 MLOAD DUP1 SWAP2 SUB SWAP1 RETURN JUMPDEST CALLVALUE ISZERO PUSH2 0x15F JUMPI PUSH1 0x0 DUP1 REVERT JUMPDEST PUSH2 0x167 PUSH2 0x69F JUMP JUMPDEST PUSH1 0x40 MLOAD PUSH2 0x174 SWAP2 SWAP1 PUSH2 0x2587 JUMP JUMPDEST PUSH1 0x40 MLOAD DUP1 SWAP2 SUB SWAP1 RETURN JUMPDEST CALLVALUE ISZERO PUSH2 0x188 JUMPI PUSH1 0x0 DUP1 REVERT JUMPDEST PUSH2 0x19E PUSH1 0x4 DUP1 DUP1 CALLDATALOAD SWAP1 PUSH1 0x20 ADD SWAP1 SWAP2 SWAP1 POP POP PUSH2 0x8ED JUMP JUMPDEST PUSH1 0x40 MLOAD PUSH2 0x1B1 SWAP8 SWAP7 SWAP6 SWAP5 SWAP4 SWAP3 SWAP2 SWAP1 PUSH2 0x25CB JUMP JUMPDEST PUSH1 0x40 MLOAD DUP1 SWAP2 SUB SWAP1 RETURN JUMPDEST CALLVALUE ISZERO PUSH2 0x1C5 JUMPI PUSH1 0x0 DUP1 REVERT JUMPDEST PUSH2 0x1CD PUSH2 0x93A JUMP JUMPDEST PUSH1 0x40 MLOAD PUSH2 0x1DA SWAP2 SWAP1 PUSH2 0x2656 JUMP JUMPDEST PUSH1 0x40 MLOAD DUP1 SWAP2 SUB SWAP1 RETURN JUMPDEST PUSH2 0x2C2 PUSH1 0x4 DUP1 DUP1 CALLDATALOAD SWAP1 PUSH1 0x20 ADD SWAP1 DUP3 ADD DUP1 CALLDATALOAD SWAP1 PUSH1 0x20 ADD SWAP1 DUP1 DUP1 PUSH1 0x1F ADD PUSH1 0x20 DUP1 SWAP2 DIV MUL PUSH1 0x20 ADD PUSH1 0x40 MLOAD SWAP1 DUP2 ADD PUSH1 0x40 MSTORE DUP1 SWAP4 SWAP3 SWAP2 SWAP1 DUP2 DUP2 MSTORE PUSH1 0x20 ADD DUP4 DUP4 DUP1 DUP3 DUP5 CALLDATACOPY DUP3 ADD SWAP2 POP POP POP POP POP POP SWAP2 SWAP1 DUP1 CALLDATALOAD SWAP1 PUSH1 0x20 ADD SWAP1 DUP3 ADD DUP1 CALLDATALOAD SWAP1 PUSH1 0x20 ADD SWAP1 DUP1 DUP1 PUSH1 0x1F ADD PUSH1 0x20 DUP1 SWAP2 DIV MUL PUSH1 0x20 ADD PUSH1 0x40 MLOAD SWAP1 DUP2 ADD PUSH1 0x40 MSTORE DUP1 SWAP4 SWAP3 SWAP2 SWAP1 DUP2 DUP2 MSTORE PUSH1 0x20 ADD DUP4 DUP4 DUP1 DUP3 DUP5 CALLDATACOPY DUP3 ADD SWAP2 POP POP POP POP POP POP SWAP2 SWAP1 DUP1 CALLDATALOAD SWAP1 PUSH1 0x20 ADD SWAP1 DUP3 ADD DUP1 CALLDATALOAD SWAP1 PUSH1 0x20 ADD SWAP1 DUP1 DUP1 PUSH1 0x1F ADD PUSH1 0x20 DUP1 SWAP2 DIV MUL PUSH1 0x20 ADD PUSH1 0x40 MLOAD SWAP1 DUP2 ADD PUSH1 0x40 MSTORE DUP1 SWAP4 SWAP3 SWAP2 SWAP1 DUP2 DUP2 MSTORE PUSH1 0x20 ADD DUP4 DUP4 DUP1 DUP3 DUP5 CALLDATACOPY DUP3 ADD SWAP2 POP POP POP POP POP POP SWAP2 SWAP1 DUP1 CALLDATALOAD SWAP1 PUSH1 0x20 ADD SWAP1 SWAP2 SWAP1 POP POP PUSH2 0x940 JUMP JUMPDEST STOP JUMPDEST PUSH2 0x37B PUSH1 0x4 DUP1 DUP1 CALLDATALOAD SWAP1 PUSH1 0x20 ADD SWAP1 DUP3 ADD DUP1 CALLDATALOAD SWAP1 PUSH1 0x20 ADD SWAP1 DUP1 DUP1 PUSH1 0x1F ADD PUSH1 0x20 DUP1 SWAP2 DIV MUL PUSH1 0x20 ADD PUSH1 0x40 MLOAD SWAP1 DUP2 ADD PUSH1 0x40 MSTORE DUP1 SWAP4 SWAP3 SWAP2 SWAP1 DUP2 DUP2 MSTORE PUSH1 0x20 ADD DUP4 DUP4 DUP1 DUP3 DUP5 CALLDATACOPY DUP3 ADD SWAP2 POP POP POP POP POP POP SWAP2 SWAP1 DUP1 CALLDATALOAD SWAP1 PUSH1 0x20 ADD SWAP1 SWAP2 SWAP1 DUP1 CALLDATALOAD SWAP1 PUSH1 0x20 ADD SWAP1 SWAP2 SWAP1 DUP1 CALLDATALOAD SWAP1 PUSH1 0x20 ADD SWAP1 SWAP2 SWAP1 DUP1 CALLDATALOAD SWAP1 PUSH1 0x20 ADD SWAP1 SWAP2 SWAP1 DUP1 CALLDATALOAD SWAP1 PUSH1 0x20 ADD SWAP1 DUP3 ADD DUP1 CALLDATALOAD SWAP1 PUSH1 0x20 ADD SWAP1 DUP1 DUP1 PUSH1 0x1F ADD PUSH1 0x20 DUP1 SWAP2 DIV MUL PUSH1 0x20 ADD PUSH1 0x40 MLOAD SWAP1 DUP2 ADD PUSH1 0x40 MSTORE DUP1 SWAP4 SWAP3 SWAP2 SWAP1 DUP2 DUP2 MSTORE PUSH1 0x20 ADD DUP4 DUP4 DUP1 DUP3 DUP5 CALLDATACOPY DUP3 ADD SWAP2 POP POP POP POP POP POP SWAP2 SWAP1 POP POP PUSH2 0xB19 JUMP JUMPDEST STOP JUMPDEST CALLVALUE ISZERO PUSH2 0x388 JUMPI PUSH1 0x0 DUP1 REVERT JUMPDEST PUSH2 0x390 PUSH2 0xE32 JUMP JUMPDEST PUSH1 0x40 MLOAD PUSH2 0x39D SWAP2 SWAP1 PUSH2 0x2528 JUMP JUMPDEST PUSH1 0x40 MLOAD DUP1 SWAP2 SUB SWAP1 RETURN JUMPDEST CALLVALUE ISZERO PUSH2 0x3B1 JUMPI PUSH1 0x0 DUP1 REVERT JUMPDEST PUSH2 0x3B9 PUSH2 0xE58 JUMP JUMPDEST PUSH1 0x40 MLOAD PUSH2 0x3C6 SWAP2 SWAP1 PUSH2 0x25A9 JUMP JUMPDEST PUSH1 0x40 MLOAD DUP1 SWAP2 SUB SWAP1 RETURN JUMPDEST CALLVALUE ISZERO PUSH2 0x3DA JUMPI PUSH1 0x0 DUP1 REVERT JUMPDEST PUSH2 0x3F0 PUSH1 0x4 DUP1 DUP1 CALLDATALOAD SWAP1 PUSH1 0x20 ADD SWAP1 SWAP2 SWAP1 POP POP PUSH2 0x118A JUMP JUMPDEST PUSH1 0x40 MLOAD PUSH2 0x3FE SWAP3 SWAP2 SWAP1 PUSH2 0x2671 JUMP JUMPDEST PUSH1 0x40 MLOAD DUP1 SWAP2 SUB SWAP1 RETURN JUMPDEST PUSH2 0x4AC PUSH1 0x4 DUP1 DUP1 CALLDATALOAD SWAP1 PUSH1 0x20 ADD SWAP1 DUP3 ADD DUP1 CALLDATALOAD SWAP1 PUSH1 0x20 ADD SWAP1 DUP1 DUP1 PUSH1 0x1F ADD PUSH1 0x20 DUP1 SWAP2 DIV MUL PUSH1 0x20 ADD PUSH1 0x40 MLOAD SWAP1 DUP2 ADD PUSH1 0x40 MSTORE DUP1 SWAP4 SWAP3 SWAP2 SWAP1 DUP2 DUP2 MSTORE PUSH1 0x20 ADD DUP4 DUP4 DUP1 DUP3 DUP5 CALLDATACOPY DUP3 ADD SWAP2 POP POP POP POP POP POP SWAP2 SWAP1 DUP1 CALLDATALOAD SWAP1 PUSH1 0x20 ADD SWAP1 SWAP2 SWAP1 DUP1 CALLDATALOAD SWAP1 PUSH1 0x20 ADD SWAP1 SWAP2 SWAP1 DUP1 CALLDATALOAD SWAP1 PUSH1 0x20 ADD SWAP1 DUP3 ADD DUP1 CALLDATALOAD SWAP1 PUSH1 0x20 ADD SWAP1 DUP1 DUP1 PUSH1 0x1F ADD PUSH1 0x20 DUP1 SWAP2 DIV MUL PUSH1 0x20 ADD PUSH1 0x40 MLOAD SWAP1 DUP2 ADD PUSH1 0x40 MSTORE DUP1 SWAP4 SWAP3 SWAP2 SWAP1 DUP2 DUP2 MSTORE PUSH1 0x20 ADD DUP4 DUP4 DUP1 DUP3 DUP5 CALLDATACOPY DUP3 ADD SWAP2 POP POP POP POP POP POP SWAP2 SWAP1 POP POP PUSH2 0x11DD JUMP JUMPDEST STOP JUMPDEST PUSH2 0x4C4 PUSH1 0x4 DUP1 DUP1 CALLDATALOAD SWAP1 PUSH1 0x20 ADD SWAP1 SWAP2 SWAP1 POP POP PUSH2 0x1386 JUMP JUMPDEST STOP JUMPDEST CALLVALUE ISZERO PUSH2 0x4D1 JUMPI PUSH1 0x0 DUP1 REVERT JUMPDEST PUSH2 0x4D9 PUSH2 0x140B JUMP JUMPDEST PUSH1 0x40 MLOAD PUSH2 0x4E6 SWAP2 SWAP1 PUSH2 0x2565 JUMP JUMPDEST PUSH1 0x40 MLOAD DUP1 SWAP2 SUB SWAP1 RETURN JUMPDEST CALLVALUE ISZERO PUSH2 0x4FA JUMPI PUSH1 0x0 DUP1 REVERT JUMPDEST PUSH2 0x510 PUSH1 0x4 DUP1 DUP1 CALLDATALOAD SWAP1 PUSH1 0x20 ADD SWAP1 SWAP2 SWAP1 POP POP PUSH2 0x1717 JUMP JUMPDEST PUSH1 0x40 MLOAD PUSH2 0x525 SWAP10 SWAP9 SWAP8 SWAP7 SWAP6 SWAP5 SWAP4 SWAP3 SWAP2 SWAP1 PUSH2 0x269A JUMP JUMPDEST PUSH1 0x40 MLOAD DUP1 SWAP2 SUB SWAP1 RETURN JUMPDEST CALLVALUE ISZERO PUSH2 0x539 JUMPI PUSH1 0x0 DUP1 REVERT JUMPDEST PUSH2 0x54F PUSH1 0x4 DUP1 DUP1 CALLDATALOAD SWAP1 PUSH1 0x20 ADD SWAP1 SWAP2 SWAP1 POP POP PUSH2 0x17BE JUMP JUMPDEST PUSH1 0x40 MLOAD PUSH2 0x55C SWAP2 SWAP1 PUSH2 0x2528 JUMP JUMPDEST PUSH1 0x40 MLOAD DUP1 SWAP2 SUB SWAP1 RETURN JUMPDEST CALLVALUE ISZERO PUSH2 0x570 JUMPI PUSH1 0x0 DUP1 REVERT JUMPDEST PUSH2 0x578 PUSH2 0x17FD JUMP JUMPDEST PUSH1 0x40 MLOAD PUSH2 0x585 SWAP2 SWAP1 PUSH2 0x2656 JUMP JUMPDEST PUSH1 0x40 MLOAD DUP1 SWAP2 SUB SWAP1 RETURN JUMPDEST CALLVALUE ISZERO PUSH2 0x599 JUMPI PUSH1 0x0 DUP1 REVERT JUMPDEST PUSH2 0x5A1 PUSH2 0x1803 JUMP JUMPDEST PUSH1 0x40 MLOAD PUSH2 0x5AE SWAP2 SWAP1 PUSH2 0x2656 JUMP JUMPDEST PUSH1 0x40 MLOAD DUP1 SWAP2 SUB SWAP1 RETURN JUMPDEST CALLVALUE ISZERO PUSH2 0x5C2 JUMPI PUSH1 0x0 DUP1 REVERT JUMPDEST PUSH2 0x5CA PUSH2 0x1809 JUMP JUMPDEST PUSH1 0x40 MLOAD PUSH2 0x5D7 SWAP2 SWAP1 PUSH2 0x2543 JUMP JUMPDEST PUSH1 0x40 MLOAD DUP1 SWAP2 SUB SWAP1 RETURN JUMPDEST PUSH2 0x5F6 PUSH1 0x4 DUP1 DUP1 CALLDATALOAD SWAP1 PUSH1 0x20 ADD SWAP1 SWAP2 SWAP1 POP POP PUSH2 0x18CE JUMP JUMPDEST STOP JUMPDEST CALLVALUE ISZERO PUSH2 0x603 JUMPI PUSH1 0x0 DUP1 REVERT JUMPDEST PUSH2 0x60B PUSH2 0x1953 JUMP JUMPDEST STOP JUMPDEST PUSH2 0x615 PUSH2 0x1996 JUMP JUMPDEST STOP JUMPDEST PUSH1 0x1 DUP2 DUP2 SLOAD DUP2 LT ISZERO ISZERO PUSH2 0x626 JUMPI INVALID JUMPDEST SWAP1 PUSH1 0x0 MSTORE PUSH1 0x20 PUSH1 0x0 KECCAK256 SWAP1 PUSH1 0x8 MUL ADD PUSH1 0x0 SWAP2 POP SWAP1 POP DUP1 PUSH1 0x0 ADD SLOAD SWAP1 DUP1 PUSH1 0x1 ADD SWAP1 DUP1 PUSH1 0x2 ADD SLOAD SWAP1 DUP1 PUSH1 0x3 ADD SWAP1 DUP1 PUSH1 0x4 ADD SLOAD SWAP1 DUP1 PUSH1 0x5 ADD PUSH1 0x0 SWAP1 SLOAD SWAP1 PUSH2 0x100 EXP SWAP1 DIV PUSH1 0xFF AND SWAP1 DUP1 PUSH1 0x5 ADD PUSH1 0x1 SWAP1 SLOAD SWAP1 PUSH2 0x100 EXP SWAP1 DIV PUSH20 0xFFFFFFFFFFFFFFFFFFFFFFFFFFFFFFFFFFFFFFFF AND SWAP1 DUP1 PUSH1 0x6 ADD SLOAD SWAP1 DUP1 PUSH1 0x7 ADD SLOAD SWAP1 POP DUP10 JUMP JUMPDEST PUSH2 0x6A7 PUSH2 0x1A4C JUMP JUMPDEST PUSH1 0x1 DUP1 SLOAD DUP1 PUSH1 0x20 MUL PUSH1 0x20 ADD PUSH1 0x40 MLOAD SWAP1 DUP2 ADD PUSH1 0x40 MSTORE DUP1 SWAP3 SWAP2 SWAP1 DUP2 DUP2 MSTORE PUSH1 0x20 ADD PUSH1 0x0 SWAP1 JUMPDEST DUP3 DUP3 LT ISZERO PUSH2 0x8E4 JUMPI DUP4 DUP3 SWAP1 PUSH1 0x0 MSTORE PUSH1 0x20 PUSH1 0x0 KECCAK256 SWAP1 PUSH1 0x8 MUL ADD PUSH2 0x120 PUSH1 0x40 MLOAD SWAP1 DUP2 ADD PUSH1 0x40 MSTORE SWAP1 DUP2 PUSH1 0x0 DUP3 ADD SLOAD DUP2 MSTORE PUSH1 0x20 ADD PUSH1 0x1 DUP3 ADD DUP1 SLOAD PUSH1 0x1 DUP2 PUSH1 0x1 AND ISZERO PUSH2 0x100 MUL SUB AND PUSH1 0x2 SWAP1 DIV DUP1 PUSH1 0x1F ADD PUSH1 0x20 DUP1 SWAP2 DIV MUL PUSH1 0x20 ADD PUSH1 0x40 MLOAD SWAP1 DUP2 ADD PUSH1 0x40 MSTORE DUP1 SWAP3 SWAP2 SWAP1 DUP2 DUP2 MSTORE PUSH1 0x20 ADD DUP3 DUP1 SLOAD PUSH1 0x1 DUP2 PUSH1 0x1 AND ISZERO PUSH2 0x100 MUL SUB AND PUSH1 0x2 SWAP1 DIV DUP1 ISZERO PUSH2 0x791 JUMPI DUP1 PUSH1 0x1F LT PUSH2 0x766 JUMPI PUSH2 0x100 DUP1 DUP4 SLOAD DIV MUL DUP4 MSTORE SWAP2 PUSH1 0x20 ADD SWAP2 PUSH2 0x791 JUMP JUMPDEST DUP3 ADD SWAP2 SWAP1 PUSH1 0x0 MSTORE PUSH1 0x20 PUSH1 0x0 KECCAK256 SWAP1 JUMPDEST DUP2 SLOAD DUP2 MSTORE SWAP1 PUSH1 0x1 ADD SWAP1 PUSH1 0x20 ADD DUP1 DUP4 GT PUSH2 0x774 JUMPI DUP3 SWAP1 SUB PUSH1 0x1F AND DUP3 ADD SWAP2 JUMPDEST POP POP POP POP POP DUP2 MSTORE PUSH1 0x20 ADD PUSH1 0x2 DUP3 ADD SLOAD DUP2 MSTORE PUSH1 0x20 ADD PUSH1 0x3 DUP3 ADD DUP1 SLOAD PUSH1 0x1 DUP2 PUSH1 0x1 AND ISZERO PUSH2 0x100 MUL SUB AND PUSH1 0x2 SWAP1 DIV DUP1 PUSH1 0x1F ADD PUSH1 0x20 DUP1 SWAP2 DIV MUL PUSH1 0x20 ADD PUSH1 0x40 MLOAD SWAP1 DUP2 ADD PUSH1 0x40 MSTORE DUP1 SWAP3 SWAP2 SWAP1 DUP2 DUP2 MSTORE PUSH1 0x20 ADD DUP3 DUP1 SLOAD PUSH1 0x1 DUP2 PUSH1 0x1 AND ISZERO PUSH2 0x100 MUL SUB AND PUSH1 0x2 SWAP1 DIV DUP1 ISZERO PUSH2 0x83D JUMPI DUP1 PUSH1 0x1F LT PUSH2 0x812 JUMPI PUSH2 0x100 DUP1 DUP4 SLOAD DIV MUL DUP4 MSTORE SWAP2 PUSH1 0x20 ADD SWAP2 PUSH2 0x83D JUMP JUMPDEST DUP3 ADD SWAP2 SWAP1 PUSH1 0x0 MSTORE PUSH1 0x20 PUSH1 0x0 KECCAK256 SWAP1 JUMPDEST DUP2 SLOAD DUP2 MSTORE SWAP1 PUSH1 0x1 ADD SWAP1 PUSH1 0x20 ADD DUP1 DUP4 GT PUSH2 0x820 JUMPI DUP3 SWAP1 SUB PUSH1 0x1F AND DUP3 ADD SWAP2 JUMPDEST POP POP POP POP POP DUP2 MSTORE PUSH1 0x20 ADD PUSH1 0x4 DUP3 ADD SLOAD DUP2 MSTORE PUSH1 0x20 ADD PUSH1 0x5 DUP3 ADD PUSH1 0x0 SWAP1 SLOAD SWAP1 PUSH2 0x100 EXP SWAP1 DIV PUSH1 0xFF AND ISZERO ISZERO ISZERO ISZERO DUP2 MSTORE PUSH1 0x20 ADD PUSH1 0x5 DUP3 ADD PUSH1 0x1 SWAP1 SLOAD SWAP1 PUSH2 0x100 EXP SWAP1 DIV PUSH20 0xFFFFFFFFFFFFFFFFFFFFFFFFFFFFFFFFFFFFFFFF AND PUSH20 0xFFFFFFFFFFFFFFFFFFFFFFFFFFFFFFFFFFFFFFFF AND PUSH20 0xFFFFFFFFFFFFFFFFFFFFFFFFFFFFFFFFFFFFFFFF AND DUP2 MSTORE PUSH1 0x20 ADD PUSH1 0x6 DUP3 ADD SLOAD DUP2 MSTORE PUSH1 0x20 ADD PUSH1 0x7 DUP3 ADD SLOAD DUP2 MSTORE POP POP DUP2 MSTORE PUSH1 0x20 ADD SWAP1 PUSH1 0x1 ADD SWAP1 PUSH2 0x6C9 JUMP JUMPDEST POP POP POP POP SWAP1 POP SWAP1 JUMP JUMPDEST PUSH1 0x8 DUP2 DUP2 SLOAD DUP2 LT ISZERO ISZERO PUSH2 0x8FC JUMPI INVALID JUMPDEST SWAP1 PUSH1 0x0 MSTORE PUSH1 0x20 PUSH1 0x0 KECCAK256 SWAP1 PUSH1 0x7 MUL ADD PUSH1 0x0 SWAP2 POP SWAP1 POP DUP1 PUSH1 0x0 ADD SWAP1 DUP1 PUSH1 0x1 ADD SWAP1 DUP1 PUSH1 0x2 ADD SLOAD SWAP1 DUP1 PUSH1 0x3 ADD SLOAD SWAP1 DUP1 PUSH1 0x4 ADD SWAP1 DUP1 PUSH1 0x5 ADD SLOAD SWAP1 DUP1 PUSH1 0x6 ADD SWAP1 POP DUP8 JUMP JUMPDEST PUSH1 0x4 SLOAD DUP2 JUMP JUMPDEST PUSH2 0x948 PUSH2 0x1A60 JUMP JUMPDEST PUSH2 0x120 PUSH1 0x40 MLOAD SWAP1 DUP2 ADD PUSH1 0x40 MSTORE DUP1 PUSH1 0x7 DUP1 SLOAD SWAP1 POP DUP2 MSTORE PUSH1 0x20 ADD DUP7 DUP2 MSTORE PUSH1 0x20 ADD DUP6 DUP2 MSTORE PUSH1 0x20 ADD DUP5 DUP2 MSTORE PUSH1 0x20 ADD DUP4 DUP2 MSTORE PUSH1 0x20 ADD CALLER PUSH20 0xFFFFFFFFFFFFFFFFFFFFFFFFFFFFFFFFFFFFFFFF AND DUP2 MSTORE PUSH1 0x20 ADD PUSH1 0x0 ISZERO ISZERO DUP2 MSTORE PUSH1 0x20 ADD PUSH1 0x0 PUSH20 0xFFFFFFFFFFFFFFFFFFFFFFFFFFFFFFFFFFFFFFFF AND DUP2 MSTORE PUSH1 0x20 ADD PUSH1 0x0 DUP2 MSTORE POP SWAP1 POP PUSH1 0x7 DUP1 SLOAD DUP1 PUSH1 0x1 ADD DUP3 DUP2 PUSH2 0x9D5 SWAP2 SWAP1 PUSH2 0x1AED JUMP JUMPDEST SWAP2 PUSH1 0x0 MSTORE PUSH1 0x20 PUSH1 0x0 KECCAK256 SWAP1 PUSH1 0x8 MUL ADD PUSH1 0x0 DUP4 SWAP1 SWAP2 SWAP1 SWAP2 POP PUSH1 0x0 DUP3 ADD MLOAD DUP2 PUSH1 0x0 ADD SSTORE PUSH1 0x20 DUP3 ADD MLOAD DUP2 PUSH1 0x1 ADD SWAP1 DUP1 MLOAD SWAP1 PUSH1 0x20 ADD SWAP1 PUSH2 0xA11 SWAP3 SWAP2 SWAP1 PUSH2 0x1B1F JUMP JUMPDEST POP PUSH1 0x40 DUP3 ADD MLOAD DUP2 PUSH1 0x2 ADD SWAP1 DUP1 MLOAD SWAP1 PUSH1 0x20 ADD SWAP1 PUSH2 0xA2E SWAP3 SWAP2 SWAP1 PUSH2 0x1B1F JUMP JUMPDEST POP PUSH1 0x60 DUP3 ADD MLOAD DUP2 PUSH1 0x3 ADD SWAP1 DUP1 MLOAD SWAP1 PUSH1 0x20 ADD SWAP1 PUSH2 0xA4B SWAP3 SWAP2 SWAP1 PUSH2 0x1B1F JUMP JUMPDEST POP PUSH1 0x80 DUP3 ADD MLOAD DUP2 PUSH1 0x4 ADD SSTORE PUSH1 0xA0 DUP3 ADD MLOAD DUP2 PUSH1 0x5 ADD PUSH1 0x0 PUSH2 0x100 EXP DUP2 SLOAD DUP2 PUSH20 0xFFFFFFFFFFFFFFFFFFFFFFFFFFFFFFFFFFFFFFFF MUL NOT AND SWAP1 DUP4 PUSH20 0xFFFFFFFFFFFFFFFFFFFFFFFFFFFFFFFFFFFFFFFF AND MUL OR SWAP1 SSTORE POP PUSH1 0xC0 DUP3 ADD MLOAD DUP2 PUSH1 0x5 ADD PUSH1 0x14 PUSH2 0x100 EXP DUP2 SLOAD DUP2 PUSH1 0xFF MUL NOT AND SWAP1 DUP4 ISZERO ISZERO MUL OR SWAP1 SSTORE POP PUSH1 0xE0 DUP3 ADD MLOAD DUP2 PUSH1 0x6 ADD PUSH1 0x0 PUSH2 0x100 EXP DUP2 SLOAD DUP2 PUSH20 0xFFFFFFFFFFFFFFFFFFFFFFFFFFFFFFFFFFFFFFFF MUL NOT AND SWAP1 DUP4 PUSH20 0xFFFFFFFFFFFFFFFFFFFFFFFFFFFFFFFFFFFFFFFF AND MUL OR SWAP1 SSTORE POP PUSH2 0x100 DUP3 ADD MLOAD DUP2 PUSH1 0x7 ADD SSTORE POP POP POP POP POP POP POP POP JUMP JUMPDEST PUSH1 0x0 DUP1 PUSH2 0xB24 PUSH2 0x1B9F JUMP JUMPDEST PUSH1 0x1 DUP9 DUP2 SLOAD DUP2 LT ISZERO ISZERO PUSH2 0xB33 JUMPI INVALID JUMPDEST SWAP1 PUSH1 0x0 MSTORE PUSH1 0x20 PUSH1 0x0 KECCAK256 SWAP1 PUSH1 0x8 MUL ADD SWAP3 POP PUSH1 0x7 DUP7 DUP2 SLOAD DUP2 LT ISZERO ISZERO PUSH2 0xB52 JUMPI INVALID JUMPDEST SWAP1 PUSH1 0x0 MSTORE PUSH1 0x20 PUSH1 0x0 KECCAK256 SWAP1 PUSH1 0x8 MUL ADD SWAP2 POP DUP7 DUP4 PUSH1 0x7 ADD SLOAD EQ ISZERO ISZERO PUSH2 0xB74 JUMPI PUSH1 0x0 DUP1 REVERT JUMPDEST PUSH1 0x1 ISZERO ISZERO DUP3 PUSH1 0x5 ADD PUSH1 0x14 SWAP1 SLOAD SWAP1 PUSH2 0x100 EXP SWAP1 DIV PUSH1 0xFF AND ISZERO ISZERO EQ ISZERO ISZERO PUSH2 0xB98 JUMPI PUSH1 0x0 DUP1 REVERT JUMPDEST PUSH1 0xE0 PUSH1 0x40 MLOAD SWAP1 DUP2 ADD PUSH1 0x40 MSTORE DUP1 DUP5 PUSH1 0x1 ADD DUP1 SLOAD PUSH1 0x1 DUP2 PUSH1 0x1 AND ISZERO PUSH2 0x100 MUL SUB AND PUSH1 0x2 SWAP1 DIV DUP1 PUSH1 0x1F ADD PUSH1 0x20 DUP1 SWAP2 DIV MUL PUSH1 0x20 ADD PUSH1 0x40 MLOAD SWAP1 DUP2 ADD PUSH1 0x40 MSTORE DUP1 SWAP3 SWAP2 SWAP1 DUP2 DUP2 MSTORE PUSH1 0x20 ADD DUP3 DUP1 SLOAD PUSH1 0x1 DUP2 PUSH1 0x1 AND ISZERO PUSH2 0x100 MUL SUB AND PUSH1 0x2 SWAP1 DIV DUP1 ISZERO PUSH2 0xC3C JUMPI DUP1 PUSH1 0x1F LT PUSH2 0xC11 JUMPI PUSH2 0x100 DUP1 DUP4 SLOAD DIV MUL DUP4 MSTORE SWAP2 PUSH1 0x20 ADD SWAP2 PUSH2 0xC3C JUMP JUMPDEST DUP3 ADD SWAP2 SWAP1 PUSH1 0x0 MSTORE PUSH1 0x20 PUSH1 0x0 KECCAK256 SWAP1 JUMPDEST DUP2 SLOAD DUP2 MSTORE SWAP1 PUSH1 0x1 ADD SWAP1 PUSH1 0x20 ADD DUP1 DUP4 GT PUSH2 0xC1F JUMPI DUP3 SWAP1 SUB PUSH1 0x1F AND DUP3 ADD SWAP2 JUMPDEST POP POP POP POP POP DUP2 MSTORE PUSH1 0x20 ADD DUP4 PUSH1 0x1 ADD DUP1 SLOAD PUSH1 0x1 DUP2 PUSH1 0x1 AND ISZERO PUSH2 0x100 MUL SUB AND PUSH1 0x2 SWAP1 DIV DUP1 PUSH1 0x1F ADD PUSH1 0x20 DUP1 SWAP2 DIV MUL PUSH1 0x20 ADD PUSH1 0x40 MLOAD SWAP1 DUP2 ADD PUSH1 0x40 MSTORE DUP1 SWAP3 SWAP2 SWAP1 DUP2 DUP2 MSTORE PUSH1 0x20 ADD DUP3 DUP1 SLOAD PUSH1 0x1 DUP2 PUSH1 0x1 AND ISZERO PUSH2 0x100 MUL SUB AND PUSH1 0x2 SWAP1 DIV DUP1 ISZERO PUSH2 0xCDE JUMPI DUP1 PUSH1 0x1F LT PUSH2 0xCB3 JUMPI PUSH2 0x100 DUP1 DUP4 SLOAD DIV MUL DUP4 MSTORE SWAP2 PUSH1 0x20 ADD SWAP2 PUSH2 0xCDE JUMP JUMPDEST DUP3 ADD SWAP2 SWAP1 PUSH1 0x0 MSTORE PUSH1 0x20 PUSH1 0x0 KECCAK256 SWAP1 JUMPDEST DUP2 SLOAD DUP2 MSTORE SWAP1 PUSH1 0x1 ADD SWAP1 PUSH1 0x20 ADD DUP1 DUP4 GT PUSH2 0xCC1 JUMPI DUP3 SWAP1 SUB PUSH1 0x1F AND DUP3 ADD SWAP2 JUMPDEST POP POP POP POP POP DUP2 MSTORE PUSH1 0x20 ADD DUP8 DUP2 MSTORE PUSH1 0x20 ADD DUP5 PUSH1 0x2 ADD SLOAD DUP2 MSTORE PUSH1 0x20 ADD DUP11 DUP2 MSTORE PUSH1 0x20 ADD DUP7 DUP2 MSTORE PUSH1 0x20 ADD DUP6 DUP2 MSTORE POP SWAP1 POP PUSH1 0x8 DUP1 SLOAD DUP1 PUSH1 0x1 ADD DUP3 DUP2 PUSH2 0xD1E SWAP2 SWAP1 PUSH2 0x1BF5 JUMP JUMPDEST SWAP2 PUSH1 0x0 MSTORE PUSH1 0x20 PUSH1 0x0 KECCAK256 SWAP1 PUSH1 0x7 MUL ADD PUSH1 0x0 DUP4 SWAP1 SWAP2 SWAP1 SWAP2 POP PUSH1 0x0 DUP3 ADD MLOAD DUP2 PUSH1 0x0 ADD SWAP1 DUP1 MLOAD SWAP1 PUSH1 0x20 ADD SWAP1 PUSH2 0xD50 SWAP3 SWAP2 SWAP1 PUSH2 0x1B1F JUMP JUMPDEST POP PUSH1 0x20 DUP3 ADD MLOAD DUP2 PUSH1 0x1 ADD SWAP1 DUP1 MLOAD SWAP1 PUSH1 0x20 ADD SWAP1 PUSH2 0xD6D SWAP3 SWAP2 SWAP1 PUSH2 0x1B1F JUMP JUMPDEST POP PUSH1 0x40 DUP3 ADD MLOAD DUP2 PUSH1 0x2 ADD SSTORE PUSH1 0x60 DUP3 ADD MLOAD DUP2 PUSH1 0x3 ADD SSTORE PUSH1 0x80 DUP3 ADD MLOAD DUP2 PUSH1 0x4 ADD SWAP1 DUP1 MLOAD SWAP1 PUSH1 0x20 ADD SWAP1 PUSH2 0xD9E SWAP3 SWAP2 SWAP1 PUSH2 0x1B1F JUMP JUMPDEST POP PUSH1 0xA0 DUP3 ADD MLOAD DUP2 PUSH1 0x5 ADD SSTORE PUSH1 0xC0 DUP3 ADD MLOAD DUP2 PUSH1 0x6 ADD SWAP1 DUP1 MLOAD SWAP1 PUSH1 0x20 ADD SWAP1 PUSH2 0xDC5 SWAP3 SWAP2 SWAP1 PUSH2 0x1B1F JUMP JUMPDEST POP POP POP POP DUP5 DUP3 PUSH1 0x7 ADD SLOAD ADD DUP3 PUSH1 0x7 ADD DUP2 SWAP1 SSTORE POP DUP5 DUP4 PUSH1 0x6 ADD SLOAD SUB DUP4 PUSH1 0x6 ADD DUP2 SWAP1 SSTORE POP CALLER PUSH20 0xFFFFFFFFFFFFFFFFFFFFFFFFFFFFFFFFFFFFFFFF AND PUSH2 0x8FC DUP7 SWAP1 DUP2 ISZERO MUL SWAP1 PUSH1 0x40 MLOAD PUSH1 0x0 PUSH1 0x40 MLOAD DUP1 DUP4 SUB DUP2 DUP6 DUP9 DUP9 CALL SWAP4 POP POP POP POP ISZERO ISZERO PUSH2 0xE27 JUMPI PUSH1 0x0 DUP1 REVERT JUMPDEST POP POP POP POP POP POP POP POP POP JUMP JUMPDEST PUSH1 0x2 PUSH1 0x0 SWAP1 SLOAD SWAP1 PUSH2 0x100 EXP SWAP1 DIV PUSH20 0xFFFFFFFFFFFFFFFFFFFFFFFFFFFFFFFFFFFFFFFF AND DUP2 JUMP JUMPDEST PUSH2 0xE60 PUSH2 0x1C27 JUMP JUMPDEST PUSH1 0x7 DUP1 SLOAD DUP1 PUSH1 0x20 MUL PUSH1 0x20 ADD PUSH1 0x40 MLOAD SWAP1 DUP2 ADD PUSH1 0x40 MSTORE DUP1 SWAP3 SWAP2 SWAP1 DUP2 DUP2 MSTORE PUSH1 0x20 ADD PUSH1 0x0 SWAP1 JUMPDEST DUP3 DUP3 LT ISZERO PUSH2 0x1181 JUMPI DUP4 DUP3 SWAP1 PUSH1 0x0 MSTORE PUSH1 0x20 PUSH1 0x0 KECCAK256 SWAP1 PUSH1 0x8 MUL ADD PUSH2 0x120 PUSH1 0x40 MLOAD SWAP1 DUP2 ADD PUSH1 0x40 MSTORE SWAP1 DUP2 PUSH1 0x0 DUP3 ADD SLOAD DUP2 MSTORE PUSH1 0x20 ADD PUSH1 0x1 DUP3 ADD DUP1 SLOAD PUSH1 0x1 DUP2 PUSH1 0x1 AND ISZERO PUSH2 0x100 MUL SUB AND PUSH1 0x2 SWAP1 DIV DUP1 PUSH1 0x1F ADD PUSH1 0x20 DUP1 SWAP2 DIV MUL PUSH1 0x20 ADD PUSH1 0x40 MLOAD SWAP1 DUP2 ADD PUSH1 0x40 MSTORE DUP1 SWAP3 SWAP2 SWAP1 DUP2 DUP2 MSTORE PUSH1 0x20 ADD DUP3 DUP1 SLOAD PUSH1 0x1 DUP2 PUSH1 0x1 AND ISZERO PUSH2 0x100 MUL SUB AND PUSH1 0x2 SWAP1 DIV DUP1 ISZERO PUSH2 0xF4A JUMPI DUP1 PUSH1 0x1F LT PUSH2 0xF1F JUMPI PUSH2 0x100 DUP1 DUP4 SLOAD DIV MUL DUP4 MSTORE SWAP2 PUSH1 0x20 ADD SWAP2 PUSH2 0xF4A JUMP JUMPDEST DUP3 ADD SWAP2 SWAP1 PUSH1 0x0 MSTORE PUSH1 0x20 PUSH1 0x0 KECCAK256 SWAP1 JUMPDEST DUP2 SLOAD DUP2 MSTORE SWAP1 PUSH1 0x1 ADD SWAP1 PUSH1 0x20 ADD DUP1 DUP4 GT PUSH2 0xF2D JUMPI DUP3 SWAP1 SUB PUSH1 0x1F AND DUP3 ADD SWAP2 JUMPDEST POP POP POP POP POP DUP2 MSTORE PUSH1 0x20 ADD PUSH1 0x2 DUP3 ADD DUP1 SLOAD PUSH1 0x1 DUP2 PUSH1 0x1 AND ISZERO PUSH2 0x100 MUL SUB AND PUSH1 0x2 SWAP1 DIV DUP1 PUSH1 0x1F ADD PUSH1 0x20 DUP1 SWAP2 DIV MUL PUSH1 0x20 ADD PUSH1 0x40 MLOAD SWAP1 DUP2 ADD PUSH1 0x40 MSTORE DUP1 SWAP3 SWAP2 SWAP1 DUP2 DUP2 MSTORE PUSH1 0x20 ADD DUP3 DUP1 SLOAD PUSH1 0x1 DUP2 PUSH1 0x1 AND ISZERO PUSH2 0x100 MUL SUB AND PUSH1 0x2 SWAP1 DIV DUP1 ISZERO PUSH2 0xFEC JUMPI DUP1 PUSH1 0x1F LT PUSH2 0xFC1 JUMPI PUSH2 0x100 DUP1 DUP4 SLOAD DIV MUL DUP4 MSTORE SWAP2 PUSH1 0x20 ADD SWAP2 PUSH2 0xFEC JUMP JUMPDEST DUP3 ADD SWAP2 SWAP1 PUSH1 0x0 MSTORE PUSH1 0x20 PUSH1 0x0 KECCAK256 SWAP1 JUMPDEST DUP2 SLOAD DUP2 MSTORE SWAP1 PUSH1 0x1 ADD SWAP1 PUSH1 0x20 ADD DUP1 DUP4 GT PUSH2 0xFCF JUMPI DUP3 SWAP1 SUB PUSH1 0x1F AND DUP3 ADD SWAP2 JUMPDEST POP POP POP POP POP DUP2 MSTORE PUSH1 0x20 ADD PUSH1 0x3 DUP3 ADD DUP1 SLOAD PUSH1 0x1 DUP2 PUSH1 0x1 AND ISZERO PUSH2 0x100 MUL SUB AND PUSH1 0x2 SWAP1 DIV DUP1 PUSH1 0x1F ADD PUSH1 0x20 DUP1 SWAP2 DIV MUL PUSH1 0x20 ADD PUSH1 0x40 MLOAD SWAP1 DUP2 ADD PUSH1 0x40 MSTORE DUP1 SWAP3 SWAP2 SWAP1 DUP2 DUP2 MSTORE PUSH1 0x20 ADD DUP3 DUP1 SLOAD PUSH1 0x1 DUP2 PUSH1 0x1 AND ISZERO PUSH2 0x100 MUL SUB AND PUSH1 0x2 SWAP1 DIV DUP1 ISZERO PUSH2 0x108E JUMPI DUP1 PUSH1 0x1F LT PUSH2 0x1063 JUMPI PUSH2 0x100 DUP1 DUP4 SLOAD DIV MUL DUP4 MSTORE SWAP2 PUSH1 0x20 ADD SWAP2 PUSH2 0x108E JUMP JUMPDEST DUP3 ADD SWAP2 SWAP1 PUSH1 0x0 MSTORE PUSH1 0x20 PUSH1 0x0 KECCAK256 SWAP1 JUMPDEST DUP2 SLOAD DUP2 MSTORE SWAP1 PUSH1 0x1 ADD SWAP1 PUSH1 0x20 ADD DUP1 DUP4 GT PUSH2 0x1071 JUMPI DUP3 SWAP1 SUB PUSH1 0x1F AND DUP3 ADD SWAP2 JUMPDEST POP POP POP POP POP DUP2 MSTORE PUSH1 0x20 ADD PUSH1 0x4 DUP3 ADD SLOAD DUP2 MSTORE PUSH1 0x20 ADD PUSH1 0x5 DUP3 ADD PUSH1 0x0 SWAP1 SLOAD SWAP1 PUSH2 0x100 EXP SWAP1 DIV PUSH20 0xFFFFFFFFFFFFFFFFFFFFFFFFFFFFFFFFFFFFFFFF AND PUSH20 0xFFFFFFFFFFFFFFFFFFFFFFFFFFFFFFFFFFFFFFFF AND PUSH20 0xFFFFFFFFFFFFFFFFFFFFFFFFFFFFFFFFFFFFFFFF AND DUP2 MSTORE PUSH1 0x20 ADD PUSH1 0x5 DUP3 ADD PUSH1 0x14 SWAP1 SLOAD SWAP1 PUSH2 0x100 EXP SWAP1 DIV PUSH1 0xFF AND ISZERO ISZERO ISZERO ISZERO DUP2 MSTORE PUSH1 0x20 ADD PUSH1 0x6 DUP3 ADD PUSH1 0x0 SWAP1 SLOAD SWAP1 PUSH2 0x100 EXP SWAP1 DIV PUSH20 0xFFFFFFFFFFFFFFFFFFFFFFFFFFFFFFFFFFFFFFFF AND PUSH20 0xFFFFFFFFFFFFFFFFFFFFFFFFFFFFFFFFFFFFFFFF AND PUSH20 0xFFFFFFFFFFFFFFFFFFFFFFFFFFFFFFFFFFFFFFFF AND DUP2 MSTORE PUSH1 0x20 ADD PUSH1 0x7 DUP3 ADD SLOAD DUP2 MSTORE POP POP DUP2 MSTORE PUSH1 0x20 ADD SWAP1 PUSH1 0x1 ADD SWAP1 PUSH2 0xE82 JUMP JUMPDEST POP POP POP POP SWAP1 POP SWAP1 JUMP JUMPDEST PUSH1 0x0 DUP2 DUP2 SLOAD DUP2 LT ISZERO ISZERO PUSH2 0x1199 JUMPI INVALID JUMPDEST SWAP1 PUSH1 0x0 MSTORE PUSH1 0x20 PUSH1 0x0 KECCAK256 SWAP1 PUSH1 0x2 MUL ADD PUSH1 0x0 SWAP2 POP SWAP1 POP DUP1 PUSH1 0x0 ADD SLOAD SWAP1 DUP1 PUSH1 0x1 ADD PUSH1 0x0 SWAP1 SLOAD SWAP1 PUSH2 0x100 EXP SWAP1 DIV PUSH20 0xFFFFFFFFFFFFFFFFFFFFFFFFFFFFFFFFFFFFFFFF AND SWAP1 POP DUP3 JUMP JUMPDEST PUSH2 0x11E5 PUSH2 0x1C3B JUMP JUMPDEST PUSH1 0x64 DUP4 GT ISZERO ISZERO PUSH2 0x11F4 JUMPI PUSH1 0x0 DUP1 REVERT JUMPDEST PUSH2 0x120 PUSH1 0x40 MLOAD SWAP1 DUP2 ADD PUSH1 0x40 MSTORE DUP1 PUSH1 0x1 DUP1 SLOAD SWAP1 POP DUP2 MSTORE PUSH1 0x20 ADD DUP7 DUP2 MSTORE PUSH1 0x20 ADD DUP6 DUP2 MSTORE PUSH1 0x20 ADD DUP4 DUP2 MSTORE PUSH1 0x20 ADD DUP5 DUP2 MSTORE PUSH1 0x20 ADD PUSH1 0x0 ISZERO ISZERO DUP2 MSTORE PUSH1 0x20 ADD CALLER PUSH20 0xFFFFFFFFFFFFFFFFFFFFFFFFFFFFFFFFFFFFFFFF AND DUP2 MSTORE PUSH1 0x20 ADD PUSH8 0xDE0B6B3A7640000 DUP2 MSTORE PUSH1 0x20 ADD DIFFICULTY TIMESTAMP PUSH1 0x40 MLOAD DUP1 DUP4 DUP2 MSTORE PUSH1 0x20 ADD DUP3 DUP2 MSTORE PUSH1 0x20 ADD SWAP3 POP POP POP PUSH1 0x40 MLOAD DUP1 SWAP2 SUB SWAP1 KECCAK256 PUSH1 0x1 SWAP1 DIV DUP2 MSTORE POP SWAP1 POP PUSH1 0x1 DUP1 SLOAD DUP1 PUSH1 0x1 ADD DUP3 DUP2 PUSH2 0x1292 SWAP2 SWAP1 PUSH2 0x1CAC JUMP JUMPDEST SWAP2 PUSH1 0x0 MSTORE PUSH1 0x20 PUSH1 0x0 KECCAK256 SWAP1 PUSH1 0x8 MUL ADD PUSH1 0x0 DUP4 SWAP1 SWAP2 SWAP1 SWAP2 POP PUSH1 0x0 DUP3 ADD MLOAD DUP2 PUSH1 0x0 ADD SSTORE PUSH1 0x20 DUP3 ADD MLOAD DUP2 PUSH1 0x1 ADD SWAP1 DUP1 MLOAD SWAP1 PUSH1 0x20 ADD SWAP1 PUSH2 0x12CE SWAP3 SWAP2 SWAP1 PUSH2 0x1B1F JUMP JUMPDEST POP PUSH1 0x40 DUP3 ADD MLOAD DUP2 PUSH1 0x2 ADD SSTORE PUSH1 0x60 DUP3 ADD MLOAD DUP2 PUSH1 0x3 ADD SWAP1 DUP1 MLOAD SWAP1 PUSH1 0x20 ADD SWAP1 PUSH2 0x12F5 SWAP3 SWAP2 SWAP1 PUSH2 0x1B1F JUMP JUMPDEST POP PUSH1 0x80 DUP3 ADD MLOAD DUP2 PUSH1 0x4 ADD SSTORE PUSH1 0xA0 DUP3 ADD MLOAD DUP2 PUSH1 0x5 ADD PUSH1 0x0 PUSH2 0x100 EXP DUP2 SLOAD DUP2 PUSH1 0xFF MUL NOT AND SWAP1 DUP4 ISZERO ISZERO MUL OR SWAP1 SSTORE POP PUSH1 0xC0 DUP3 ADD MLOAD DUP2 PUSH1 0x5 ADD PUSH1 0x1 PUSH2 0x100 EXP DUP2 SLOAD DUP2 PUSH20 0xFFFFFFFFFFFFFFFFFFFFFFFFFFFFFFFFFFFFFFFF MUL NOT AND SWAP1 DUP4 PUSH20 0xFFFFFFFFFFFFFFFFFFFFFFFFFFFFFFFFFFFFFFFF AND MUL OR SWAP1 SSTORE POP PUSH1 0xE0 DUP3 ADD MLOAD DUP2 PUSH1 0x6 ADD SSTORE PUSH2 0x100 DUP3 ADD MLOAD DUP2 PUSH1 0x7 ADD SSTORE POP POP POP POP POP POP POP POP JUMP JUMPDEST PUSH1 0x0 PUSH1 0x7 DUP3 DUP2 SLOAD DUP2 LT ISZERO ISZERO PUSH2 0x1397 JUMPI INVALID JUMPDEST SWAP1 PUSH1 0x0 MSTORE PUSH1 0x20 PUSH1 0x0 KECCAK256 SWAP1 PUSH1 0x8 MUL ADD SWAP1 POP PUSH1 0x1 DUP2 PUSH1 0x5 ADD PUSH1 0x14 PUSH2 0x100 EXP DUP2 SLOAD DUP2 PUSH1 0xFF MUL NOT AND SWAP1 DUP4 ISZERO ISZERO MUL OR SWAP1 SSTORE POP CALLER DUP2 PUSH1 0x6 ADD PUSH1 0x0 PUSH2 0x100 EXP DUP2 SLOAD DUP2 PUSH20 0xFFFFFFFFFFFFFFFFFFFFFFFFFFFFFFFFFFFFFFFF MUL NOT AND SWAP1 DUP4 PUSH20 0xFFFFFFFFFFFFFFFFFFFFFFFFFFFFFFFFFFFFFFFF AND MUL OR SWAP1 SSTORE POP POP POP JUMP JUMPDEST PUSH2 0x1413 PUSH2 0x1CDE JUMP JUMPDEST PUSH1 0x8 DUP1 SLOAD DUP1 PUSH1 0x20 MUL PUSH1 0x20 ADD PUSH1 0x40 MLOAD SWAP1 DUP2 ADD PUSH1 0x40 MSTORE DUP1 SWAP3 SWAP2 SWAP1 DUP2 DUP2 MSTORE PUSH1 0x20 ADD PUSH1 0x0 SWAP1 JUMPDEST DUP3 DUP3 LT ISZERO PUSH2 0x170E JUMPI DUP4 DUP3 SWAP1 PUSH1 0x0 MSTORE PUSH1 0x20 PUSH1 0x0 KECCAK256 SWAP1 PUSH1 0x7 MUL ADD PUSH1 0xE0 PUSH1 0x40 MLOAD SWAP1 DUP2 ADD PUSH1 0x40 MSTORE SWAP1 DUP2 PUSH1 0x0 DUP3 ADD DUP1 SLOAD PUSH1 0x1 DUP2 PUSH1 0x1 AND ISZERO PUSH2 0x100 MUL SUB AND PUSH1 0x2 SWAP1 DIV DUP1 PUSH1 0x1F ADD PUSH1 0x20 DUP1 SWAP2 DIV MUL PUSH1 0x20 ADD PUSH1 0x40 MLOAD SWAP1 DUP2 ADD PUSH1 0x40 MSTORE DUP1 SWAP3 SWAP2 SWAP1 DUP2 DUP2 MSTORE PUSH1 0x20 ADD DUP3 DUP1 SLOAD PUSH1 0x1 DUP2 PUSH1 0x1 AND ISZERO PUSH2 0x100 MUL SUB AND PUSH1 0x2 SWAP1 DIV DUP1 ISZERO PUSH2 0x14F2 JUMPI DUP1 PUSH1 0x1F LT PUSH2 0x14C7 JUMPI PUSH2 0x100 DUP1 DUP4 SLOAD DIV MUL DUP4 MSTORE SWAP2 PUSH1 0x20 ADD SWAP2 PUSH2 0x14F2 JUMP JUMPDEST DUP3 ADD SWAP2 SWAP1 PUSH1 0x0 MSTORE PUSH1 0x20 PUSH1 0x0 KECCAK256 SWAP1 JUMPDEST DUP2 SLOAD DUP2 MSTORE SWAP1 PUSH1 0x1 ADD SWAP1 PUSH1 0x20 ADD DUP1 DUP4 GT PUSH2 0x14D5 JUMPI DUP3 SWAP1 SUB PUSH1 0x1F AND DUP3 ADD SWAP2 JUMPDEST POP POP POP POP POP DUP2 MSTORE PUSH1 0x20 ADD PUSH1 0x1 DUP3 ADD DUP1 SLOAD PUSH1 0x1 DUP2 PUSH1 0x1 AND ISZERO PUSH2 0x100 MUL SUB AND PUSH1 0x2 SWAP1 DIV DUP1 PUSH1 0x1F ADD PUSH1 0x20 DUP1 SWAP2 DIV MUL PUSH1 0x20 ADD PUSH1 0x40 MLOAD SWAP1 DUP2 ADD PUSH1 0x40 MSTORE DUP1 SWAP3 SWAP2 SWAP1 DUP2 DUP2 MSTORE PUSH1 0x20 ADD DUP3 DUP1 SLOAD PUSH1 0x1 DUP2 PUSH1 0x1 AND ISZERO PUSH2 0x100 MUL SUB AND PUSH1 0x2 SWAP1 DIV DUP1 ISZERO PUSH2 0x1594 JUMPI DUP1 PUSH1 0x1F LT PUSH2 0x1569 JUMPI PUSH2 0x100 DUP1 DUP4 SLOAD DIV MUL DUP4 MSTORE SWAP2 PUSH1 0x20 ADD SWAP2 PUSH2 0x1594 JUMP JUMPDEST DUP3 ADD SWAP2 SWAP1 PUSH1 0x0 MSTORE PUSH1 0x20 PUSH1 0x0 KECCAK256 SWAP1 JUMPDEST DUP2 SLOAD DUP2 MSTORE SWAP1 PUSH1 0x1 ADD SWAP1 PUSH1 0x20 ADD DUP1 DUP4 GT PUSH2 0x1577 JUMPI DUP3 SWAP1 SUB PUSH1 0x1F AND DUP3 ADD SWAP2 JUMPDEST POP POP POP POP POP DUP2 MSTORE PUSH1 0x20 ADD PUSH1 0x2 DUP3 ADD SLOAD DUP2 MSTORE PUSH1 0x20 ADD PUSH1 0x3 DUP3 ADD SLOAD DUP2 MSTORE PUSH1 0x20 ADD PUSH1 0x4 DUP3 ADD DUP1 SLOAD PUSH1 0x1 DUP2 PUSH1 0x1 AND ISZERO PUSH2 0x100 MUL SUB AND PUSH1 0x2 SWAP1 DIV DUP1 PUSH1 0x1F ADD PUSH1 0x20 DUP1 SWAP2 DIV MUL PUSH1 0x20 ADD PUSH1 0x40 MLOAD SWAP1 DUP2 ADD PUSH1 0x40 MSTORE DUP1 SWAP3 SWAP2 SWAP1 DUP2 DUP2 MSTORE PUSH1 0x20 ADD DUP3 DUP1 SLOAD PUSH1 0x1 DUP2 PUSH1 0x1 AND ISZERO PUSH2 0x100 MUL SUB AND PUSH1 0x2 SWAP1 DIV DUP1 ISZERO PUSH2 0x164A JUMPI DUP1 PUSH1 0x1F LT PUSH2 0x161F JUMPI PUSH2 0x100 DUP1 DUP4 SLOAD DIV MUL DUP4 MSTORE SWAP2 PUSH1 0x20 ADD SWAP2 PUSH2 0x164A JUMP JUMPDEST DUP3 ADD SWAP2 SWAP1 PUSH1 0x0 MSTORE PUSH1 0x20 PUSH1 0x0 KECCAK256 SWAP1 JUMPDEST DUP2 SLOAD DUP2 MSTORE SWAP1 PUSH1 0x1 ADD SWAP1 PUSH1 0x20 ADD DUP1 DUP4 GT PUSH2 0x162D JUMPI DUP3 SWAP1 SUB PUSH1 0x1F AND DUP3 ADD SWAP2 JUMPDEST POP POP POP POP POP DUP2 MSTORE PUSH1 0x20 ADD PUSH1 0x5 DUP3 ADD SLOAD DUP2 MSTORE PUSH1 0x20 ADD PUSH1 0x6 DUP3 ADD DUP1 SLOAD PUSH1 0x1 DUP2 PUSH1 0x1 AND ISZERO PUSH2 0x100 MUL SUB AND PUSH1 0x2 SWAP1 DIV DUP1 PUSH1 0x1F ADD PUSH1 0x20 DUP1 SWAP2 DIV MUL PUSH1 0x20 ADD PUSH1 0x40 MLOAD SWAP1 DUP2 ADD PUSH1 0x40 MSTORE DUP1 SWAP3 SWAP2 SWAP1 DUP2 DUP2 MSTORE PUSH1 0x20 ADD DUP3 DUP1 SLOAD PUSH1 0x1 DUP2 PUSH1 0x1 AND ISZERO PUSH2 0x100 MUL SUB AND PUSH1 0x2 SWAP1 DIV DUP1 ISZERO PUSH2 0x16F6 JUMPI DUP1 PUSH1 0x1F LT PUSH2 0x16CB JUMPI PUSH2 0x100 DUP1 DUP4 SLOAD DIV MUL DUP4 MSTORE SWAP2 PUSH1 0x20 ADD SWAP2 PUSH2 0x16F6 JUMP JUMPDEST DUP3 ADD SWAP2 SWAP1 PUSH1 0x0 MSTORE PUSH1 0x20 PUSH1 0x0 KECCAK256 SWAP1 JUMPDEST DUP2 SLOAD DUP2 MSTORE SWAP1 PUSH1 0x1 ADD SWAP1 PUSH1 0x20 ADD DUP1 DUP4 GT PUSH2 0x16D9 JUMPI DUP3 SWAP1 SUB PUSH1 0x1F AND DUP3 ADD SWAP2 JUMPDEST POP POP POP POP POP DUP2 MSTORE POP POP DUP2 MSTORE PUSH1 0x20 ADD SWAP1 PUSH1 0x1 ADD SWAP1 PUSH2 0x1435 JUMP JUMPDEST POP POP POP POP SWAP1 POP SWAP1 JUMP JUMPDEST PUSH1 0x7 DUP2 DUP2 SLOAD DUP2 LT ISZERO ISZERO PUSH2 0x1726 JUMPI INVALID JUMPDEST SWAP1 PUSH1 0x0 MSTORE PUSH1 0x20 PUSH1 0x0 KECCAK256 SWAP1 PUSH1 0x8 MUL ADD PUSH1 0x0 SWAP2 POP SWAP1 POP DUP1 PUSH1 0x0 ADD SLOAD SWAP1 DUP1 PUSH1 0x1 ADD SWAP1 DUP1 PUSH1 0x2 ADD SWAP1 DUP1 PUSH1 0x3 ADD SWAP1 DUP1 PUSH1 0x4 ADD SLOAD SWAP1 DUP1 PUSH1 0x5 ADD PUSH1 0x0 SWAP1 SLOAD SWAP1 PUSH2 0x100 EXP SWAP1 DIV PUSH20 0xFFFFFFFFFFFFFFFFFFFFFFFFFFFFFFFFFFFFFFFF AND SWAP1 DUP1 PUSH1 0x5 ADD PUSH1 0x14 SWAP1 SLOAD SWAP1 PUSH2 0x100 EXP SWAP1 DIV PUSH1 0xFF AND SWAP1 DUP1 PUSH1 0x6 ADD PUSH1 0x0 SWAP1 SLOAD SWAP1 PUSH2 0x100 EXP SWAP1 DIV PUSH20 0xFFFFFFFFFFFFFFFFFFFFFFFFFFFFFFFFFFFFFFFF AND SWAP1 DUP1 PUSH1 0x7 ADD SLOAD SWAP1 POP DUP10 JUMP JUMPDEST PUSH1 0x3 DUP2 DUP2 SLOAD DUP2 LT ISZERO ISZERO PUSH2 0x17CD JUMPI INVALID JUMPDEST SWAP1 PUSH1 0x0 MSTORE PUSH1 0x20 PUSH1 0x0 KECCAK256 SWAP1 ADD PUSH1 0x0 SWAP2 POP SLOAD SWAP1 PUSH2 0x100 EXP SWAP1 DIV PUSH20 0xFFFFFFFFFFFFFFFFFFFFFFFFFFFFFFFFFFFFFFFF AND DUP2 JUMP JUMPDEST PUSH1 0x6 SLOAD DUP2 JUMP JUMPDEST PUSH1 0x5 SLOAD DUP2 JUMP JUMPDEST PUSH2 0x1811 PUSH2 0x1CF2 JUMP JUMPDEST PUSH1 0x0 DUP1 SLOAD DUP1 PUSH1 0x20 MUL PUSH1 0x20 ADD PUSH1 0x40 MLOAD SWAP1 DUP2 ADD PUSH1 0x40 MSTORE DUP1 SWAP3 SWAP2 SWAP1 DUP2 DUP2 MSTORE PUSH1 0x20 ADD PUSH1 0x0 SWAP1 JUMPDEST DUP3 DUP3 LT ISZERO PUSH2 0x18C5 JUMPI DUP4 DUP3 SWAP1 PUSH1 0x0 MSTORE PUSH1 0x20 PUSH1 0x0 KECCAK256 SWAP1 PUSH1 0x2 MUL ADD PUSH1 0x40 DUP1 MLOAD SWAP1 DUP2 ADD PUSH1 0x40 MSTORE SWAP1 DUP2 PUSH1 0x0 DUP3 ADD SLOAD DUP2 MSTORE PUSH1 0x20 ADD PUSH1 0x1 DUP3 ADD PUSH1 0x0 SWAP1 SLOAD SWAP1 PUSH2 0x100 EXP SWAP1 DIV PUSH20 0xFFFFFFFFFFFFFFFFFFFFFFFFFFFFFFFFFFFFFFFF AND PUSH20 0xFFFFFFFFFFFFFFFFFFFFFFFFFFFFFFFFFFFFFFFF AND PUSH20 0xFFFFFFFFFFFFFFFFFFFFFFFFFFFFFFFFFFFFFFFF AND DUP2 MSTORE POP POP DUP2 MSTORE PUSH1 0x20 ADD SWAP1 PUSH1 0x1 ADD SWAP1 PUSH2 0x1833 JUMP JUMPDEST POP POP POP POP SWAP1 POP SWAP1 JUMP JUMPDEST PUSH1 0x0 PUSH1 0x7 DUP3 DUP2 SLOAD DUP2 LT ISZERO ISZERO PUSH2 0x18DF JUMPI INVALID JUMPDEST SWAP1 PUSH1 0x0 MSTORE PUSH1 0x20 PUSH1 0x0 KECCAK256 SWAP1 PUSH1 0x8 MUL ADD SWAP1 POP PUSH1 0x0 DUP2 PUSH1 0x5 ADD PUSH1 0x14 PUSH2 0x100 EXP DUP2 SLOAD DUP2 PUSH1 0xFF MUL NOT AND SWAP1 DUP4 ISZERO ISZERO MUL OR SWAP1 SSTORE POP CALLER DUP2 PUSH1 0x6 ADD PUSH1 0x0 PUSH2 0x100 EXP DUP2 SLOAD DUP2 PUSH20 0xFFFFFFFFFFFFFFFFFFFFFFFFFFFFFFFFFFFFFFFF MUL NOT AND SWAP1 DUP4 PUSH20 0xFFFFFFFFFFFFFFFFFFFFFFFFFFFFFFFFFFFFFFFF AND MUL OR SWAP1 SSTORE POP POP POP JUMP JUMPDEST CALLER PUSH1 0x2 PUSH1 0x0 PUSH2 0x100 EXP DUP2 SLOAD DUP2 PUSH20 0xFFFFFFFFFFFFFFFFFFFFFFFFFFFFFFFFFFFFFFFF MUL NOT AND SWAP1 DUP4 PUSH20 0xFFFFFFFFFFFFFFFFFFFFFFFFFFFFFFFFFFFFFFFF AND MUL OR SWAP1 SSTORE POP JUMP JUMPDEST PUSH2 0x199E PUSH2 0x1D06 JUMP JUMPDEST PUSH1 0x40 DUP1 MLOAD SWAP1 DUP2 ADD PUSH1 0x40 MSTORE DUP1 CALLVALUE DUP2 MSTORE PUSH1 0x20 ADD CALLER PUSH20 0xFFFFFFFFFFFFFFFFFFFFFFFFFFFFFFFFFFFFFFFF AND DUP2 MSTORE POP SWAP1 POP PUSH1 0x0 DUP1 SLOAD DUP1 PUSH1 0x1 ADD DUP3 DUP2 PUSH2 0x19DF SWAP2 SWAP1 PUSH2 0x1D36 JUMP JUMPDEST SWAP2 PUSH1 0x0 MSTORE PUSH1 0x20 PUSH1 0x0 KECCAK256 SWAP1 PUSH1 0x2 MUL ADD PUSH1 0x0 DUP4 SWAP1 SWAP2 SWAP1 SWAP2 POP PUSH1 0x0 DUP3 ADD MLOAD DUP2 PUSH1 0x0 ADD SSTORE PUSH1 0x20 DUP3 ADD MLOAD DUP2 PUSH1 0x1 ADD PUSH1 0x0 PUSH2 0x100 EXP DUP2 SLOAD DUP2 PUSH20 0xFFFFFFFFFFFFFFFFFFFFFFFFFFFFFFFFFFFFFFFF MUL NOT AND SWAP1 DUP4 PUSH20 0xFFFFFFFFFFFFFFFFFFFFFFFFFFFFFFFFFFFFFFFF AND MUL OR SWAP1 SSTORE POP POP POP POP POP JUMP JUMPDEST PUSH1 0x20 PUSH1 0x40 MLOAD SWAP1 DUP2 ADD PUSH1 0x40 MSTORE DUP1 PUSH1 0x0 DUP2 MSTORE POP SWAP1 JUMP JUMPDEST PUSH2 0x120 PUSH1 0x40 MLOAD SWAP1 DUP2 ADD PUSH1 0x40 MSTORE DUP1 PUSH1 0x0 DUP2 MSTORE PUSH1 0x20 ADD PUSH2 0x1A7C PUSH2 0x1D68 JUMP JUMPDEST DUP2 MSTORE PUSH1 0x20 ADD PUSH2 0x1A89 PUSH2 0x1D68 JUMP JUMPDEST DUP2 MSTORE PUSH1 0x20 ADD PUSH2 0x1A96 PUSH2 0x1D68 JUMP JUMPDEST DUP2 MSTORE PUSH1 0x20 ADD PUSH1 0x0 DUP2 MSTORE PUSH1 0x20 ADD PUSH1 0x0 PUSH20 0xFFFFFFFFFFFFFFFFFFFFFFFFFFFFFFFFFFFFFFFF AND DUP2 MSTORE PUSH1 0x20 ADD PUSH1 0x0 ISZERO ISZERO DUP2 MSTORE PUSH1 0x20 ADD PUSH1 0x0 PUSH20 0xFFFFFFFFFFFFFFFFFFFFFFFFFFFFFFFFFFFFFFFF AND DUP2 MSTORE PUSH1 0x20 ADD PUSH1 0x0 DUP2 MSTORE POP SWAP1 JUMP JUMPDEST DUP2 SLOAD DUP2 DUP4 SSTORE DUP2 DUP2 ISZERO GT PUSH2 0x1B1A JUMPI PUSH1 0x8 MUL DUP2 PUSH1 0x8 MUL DUP4 PUSH1 0x0 MSTORE PUSH1 0x20 PUSH1 0x0 KECCAK256 SWAP2 DUP3 ADD SWAP2 ADD PUSH2 0x1B19 SWAP2 SWAP1 PUSH2 0x1D7C JUMP JUMPDEST JUMPDEST POP POP POP JUMP JUMPDEST DUP3 DUP1 SLOAD PUSH1 0x1 DUP2 PUSH1 0x1 AND ISZERO PUSH2 0x100 MUL SUB AND PUSH1 0x2 SWAP1 DIV SWAP1 PUSH1 0x0 MSTORE PUSH1 0x20 PUSH1 0x0 KECCAK256 SWAP1 PUSH1 0x1F ADD PUSH1 0x20 SWAP1 DIV DUP2 ADD SWAP3 DUP3 PUSH1 0x1F LT PUSH2 0x1B60 JUMPI DUP1 MLOAD PUSH1 0xFF NOT AND DUP4 DUP1 ADD OR DUP6 SSTORE PUSH2 0x1B8E JUMP JUMPDEST DUP3 DUP1 ADD PUSH1 0x1 ADD DUP6 SSTORE DUP3 ISZERO PUSH2 0x1B8E JUMPI SWAP2 DUP3 ADD JUMPDEST DUP3 DUP2 GT ISZERO PUSH2 0x1B8D JUMPI DUP3 MLOAD DUP3 SSTORE SWAP2 PUSH1 0x20 ADD SWAP2 SWAP1 PUSH1 0x1 ADD SWAP1 PUSH2 0x1B72 JUMP JUMPDEST JUMPDEST POP SWAP1 POP PUSH2 0x1B9B SWAP2 SWAP1 PUSH2 0x1E45 JUMP JUMPDEST POP SWAP1 JUMP JUMPDEST PUSH1 0xE0 PUSH1 0x40 MLOAD SWAP1 DUP2 ADD PUSH1 0x40 MSTORE DUP1 PUSH2 0x1BB3 PUSH2 0x1D68 JUMP JUMPDEST DUP2 MSTORE PUSH1 0x20 ADD PUSH2 0x1BC0 PUSH2 0x1D68 JUMP JUMPDEST DUP2 MSTORE PUSH1 0x20 ADD PUSH1 0x0 DUP2 MSTORE PUSH1 0x20 ADD PUSH1 0x0 DUP2 MSTORE PUSH1 0x20 ADD PUSH2 0x1BDB PUSH2 0x1D68 JUMP JUMPDEST DUP2 MSTORE PUSH1 0x20 ADD PUSH1 0x0 DUP2 MSTORE PUSH1 0x20 ADD PUSH2 0x1BEF PUSH2 0x1D68 JUMP JUMPDEST DUP2 MSTORE POP SWAP1 JUMP JUMPDEST DUP2 SLOAD DUP2 DUP4 SSTORE DUP2 DUP2 ISZERO GT PUSH2 0x1C22 JUMPI PUSH1 0x7 MUL DUP2 PUSH1 0x7 MUL DUP4 PUSH1 0x0 MSTORE PUSH1 0x20 PUSH1 0x0 KECCAK256 SWAP2 DUP3 ADD SWAP2 ADD PUSH2 0x1C21 SWAP2 SWAP1 PUSH2 0x1E6A JUMP JUMPDEST JUMPDEST POP POP POP JUMP JUMPDEST PUSH1 0x20 PUSH1 0x40 MLOAD SWAP1 DUP2 ADD PUSH1 0x40 MSTORE DUP1 PUSH1 0x0 DUP2 MSTORE POP SWAP1 JUMP JUMPDEST PUSH2 0x120 PUSH1 0x40 MLOAD SWAP1 DUP2 ADD PUSH1 0x40 MSTORE DUP1 PUSH1 0x0 DUP2 MSTORE PUSH1 0x20 ADD PUSH2 0x1C57 PUSH2 0x1D68 JUMP JUMPDEST DUP2 MSTORE PUSH1 0x20 ADD PUSH1 0x0 DUP2 MSTORE PUSH1 0x20 ADD PUSH2 0x1C6B PUSH2 0x1D68 JUMP JUMPDEST DUP2 MSTORE PUSH1 0x20 ADD PUSH1 0x0 DUP2 MSTORE PUSH1 0x20 ADD PUSH1 0x0 ISZERO ISZERO DUP2 MSTORE PUSH1 0x20 ADD PUSH1 0x0 PUSH20 0xFFFFFFFFFFFFFFFFFFFFFFFFFFFFFFFFFFFFFFFF AND DUP2 MSTORE PUSH1 0x20 ADD PUSH1 0x0 DUP2 MSTORE PUSH1 0x20 ADD PUSH1 0x0 DUP2 MSTORE POP SWAP1 JUMP JUMPDEST DUP2 SLOAD DUP2 DUP4 SSTORE DUP2 DUP2 ISZERO GT PUSH2 0x1CD9 JUMPI PUSH1 0x8 MUL DUP2 PUSH1 0x8 MUL DUP4 PUSH1 0x0 MSTORE PUSH1 0x20 PUSH1 0x0 KECCAK256 SWAP2 DUP3 ADD SWAP2 ADD PUSH2 0x1CD8 SWAP2 SWAP1 PUSH2 0x1EE1 JUMP JUMPDEST JUMPDEST POP POP POP JUMP JUMPDEST PUSH1 0x20 PUSH1 0x40 MLOAD SWAP1 DUP2 ADD PUSH1 0x40 MSTORE DUP1 PUSH1 0x0 DUP2 MSTORE POP SWAP1 JUMP JUMPDEST PUSH1 0x20 PUSH1 0x40 MLOAD SWAP1 DUP2 ADD PUSH1 0x40 MSTORE DUP1 PUSH1 0x0 DUP2 MSTORE POP SWAP1 JUMP JUMPDEST PUSH1 0x40 DUP1 MLOAD SWAP1 DUP2 ADD PUSH1 0x40 MSTORE DUP1 PUSH1 0x0 DUP2 MSTORE PUSH1 0x20 ADD PUSH1 0x0 PUSH20 0xFFFFFFFFFFFFFFFFFFFFFFFFFFFFFFFFFFFFFFFF AND DUP2 MSTORE POP SWAP1 JUMP JUMPDEST DUP2 SLOAD DUP2 DUP4 SSTORE DUP2 DUP2 ISZERO GT PUSH2 0x1D63 JUMPI PUSH1 0x2 MUL DUP2 PUSH1 0x2 MUL DUP4 PUSH1 0x0 MSTORE PUSH1 0x20 PUSH1 0x0 KECCAK256 SWAP2 DUP3 ADD SWAP2 ADD PUSH2 0x1D62 SWAP2 SWAP1 PUSH2 0x1F83 JUMP JUMPDEST JUMPDEST POP POP POP JUMP JUMPDEST PUSH1 0x20 PUSH1 0x40 MLOAD SWAP1 DUP2 ADD PUSH1 0x40 MSTORE DUP1 PUSH1 0x0 DUP2 MSTORE POP SWAP1 JUMP JUMPDEST PUSH2 0x1E42 SWAP2 SWAP1 JUMPDEST DUP1 DUP3 GT ISZERO PUSH2 0x1E3E JUMPI PUSH1 0x0 DUP1 DUP3 ADD PUSH1 0x0 SWAP1 SSTORE PUSH1 0x1 DUP3 ADD PUSH1 0x0 PUSH2 0x1DA3 SWAP2 SWAP1 PUSH2 0x1FD1 JUMP JUMPDEST PUSH1 0x2 DUP3 ADD PUSH1 0x0 PUSH2 0x1DB3 SWAP2 SWAP1 PUSH2 0x1FD1 JUMP JUMPDEST PUSH1 0x3 DUP3 ADD PUSH1 0x0 PUSH2 0x1DC3 SWAP2 SWAP1 PUSH2 0x1FD1 JUMP JUMPDEST PUSH1 0x4 DUP3 ADD PUSH1 0x0 SWAP1 SSTORE PUSH1 0x5 DUP3 ADD PUSH1 0x0 PUSH2 0x100 EXP DUP2 SLOAD SWAP1 PUSH20 0xFFFFFFFFFFFFFFFFFFFFFFFFFFFFFFFFFFFFFFFF MUL NOT AND SWAP1 SSTORE PUSH1 0x5 DUP3 ADD PUSH1 0x14 PUSH2 0x100 EXP DUP2 SLOAD SWAP1 PUSH1 0xFF MUL NOT AND SWAP1 SSTORE PUSH1 0x6 DUP3 ADD PUSH1 0x0 PUSH2 0x100 EXP DUP2 SLOAD SWAP1 PUSH20 0xFFFFFFFFFFFFFFFFFFFFFFFFFFFFFFFFFFFFFFFF MUL NOT AND SWAP1 SSTORE PUSH1 0x7 DUP3 ADD PUSH1 0x0 SWAP1 SSTORE POP PUSH1 0x8 ADD PUSH2 0x1D82 JUMP JUMPDEST POP SWAP1 JUMP JUMPDEST SWAP1 JUMP JUMPDEST PUSH2 0x1E67 SWAP2 SWAP1 JUMPDEST DUP1 DUP3 GT ISZERO PUSH2 0x1E63 JUMPI PUSH1 0x0 DUP2 PUSH1 0x0 SWAP1 SSTORE POP PUSH1 0x1 ADD PUSH2 0x1E4B JUMP JUMPDEST POP SWAP1 JUMP JUMPDEST SWAP1 JUMP JUMPDEST PUSH2 0x1EDE SWAP2 SWAP1 JUMPDEST DUP1 DUP3 GT ISZERO PUSH2 0x1EDA JUMPI PUSH1 0x0 DUP1 DUP3 ADD PUSH1 0x0 PUSH2 0x1E89 SWAP2 SWAP1 PUSH2 0x1FD1 JUMP JUMPDEST PUSH1 0x1 DUP3 ADD PUSH1 0x0 PUSH2 0x1E99 SWAP2 SWAP1 PUSH2 0x1FD1 JUMP JUMPDEST PUSH1 0x2 DUP3 ADD PUSH1 0x0 SWAP1 SSTORE PUSH1 0x3 DUP3 ADD PUSH1 0x0 SWAP1 SSTORE PUSH1 0x4 DUP3 ADD PUSH1 0x0 PUSH2 0x1EB9 SWAP2 SWAP1 PUSH2 0x1FD1 JUMP JUMPDEST PUSH1 0x5 DUP3 ADD PUSH1 0x0 SWAP1 SSTORE PUSH1 0x6 DUP3 ADD PUSH1 0x0 PUSH2 0x1ED1 SWAP2 SWAP1 PUSH2 0x1FD1 JUMP JUMPDEST POP PUSH1 0x7 ADD PUSH2 0x1E70 JUMP JUMPDEST POP SWAP1 JUMP JUMPDEST SWAP1 JUMP JUMPDEST PUSH2 0x1F80 SWAP2 SWAP1 JUMPDEST DUP1 DUP3 GT ISZERO PUSH2 0x1F7C JUMPI PUSH1 0x0 DUP1 DUP3 ADD PUSH1 0x0 SWAP1 SSTORE PUSH1 0x1 DUP3 ADD PUSH1 0x0 PUSH2 0x1F08 SWAP2 SWAP1 PUSH2 0x1FD1 JUMP JUMPDEST PUSH1 0x2 DUP3 ADD PUSH1 0x0 SWAP1 SSTORE PUSH1 0x3 DUP3 ADD PUSH1 0x0 PUSH2 0x1F20 SWAP2 SWAP1 PUSH2 0x1FD1 JUMP JUMPDEST PUSH1 0x4 DUP3 ADD PUSH1 0x0 SWAP1 SSTORE PUSH1 0x5 DUP3 ADD PUSH1 0x0 PUSH2 0x100 EXP DUP2 SLOAD SWAP1 PUSH1 0xFF MUL NOT AND SWAP1 SSTORE PUSH1 0x5 DUP3 ADD PUSH1 0x1 PUSH2 0x100 EXP DUP2 SLOAD SWAP1 PUSH20 0xFFFFFFFFFFFFFFFFFFFFFFFFFFFFFFFFFFFFFFFF MUL NOT AND SWAP1 SSTORE PUSH1 0x6 DUP3 ADD PUSH1 0x0 SWAP1 SSTORE PUSH1 0x7 DUP3 ADD PUSH1 0x0 SWAP1 SSTORE POP PUSH1 0x8 ADD PUSH2 0x1EE7 JUMP JUMPDEST POP SWAP1 JUMP JUMPDEST SWAP1 JUMP JUMPDEST PUSH2 0x1FCE SWAP2 SWAP1 JUMPDEST DUP1 DUP3 GT ISZERO PUSH2 0x1FCA JUMPI PUSH1 0x0 DUP1 DUP3 ADD PUSH1 0x0 SWAP1 SSTORE PUSH1 0x1 DUP3 ADD PUSH1 0x0 PUSH2 0x100 EXP DUP2 SLOAD SWAP1 PUSH20 0xFFFFFFFFFFFFFFFFFFFFFFFFFFFFFFFFFFFFFFFF MUL NOT AND SWAP1 SSTORE POP PUSH1 0x2 ADD PUSH2 0x1F89 JUMP JUMPDEST POP SWAP1 JUMP JUMPDEST SWAP1 JUMP JUMPDEST POP DUP1 SLOAD PUSH1 0x1 DUP2 PUSH1 0x1 AND ISZERO PUSH2 0x100 MUL SUB AND PUSH1 0x2 SWAP1 DIV PUSH1 0x0 DUP3 SSTORE DUP1 PUSH1 0x1F LT PUSH2 0x1FF7 JUMPI POP PUSH2 0x2016 JUMP JUMPDEST PUSH1 0x1F ADD PUSH1 0x20 SWAP1 DIV SWAP1 PUSH1 0x0 MSTORE PUSH1 0x20 PUSH1 0x0 KECCAK256 SWAP1 DUP2 ADD SWAP1 PUSH2 0x2015 SWAP2 SWAP1 PUSH2 0x1E45 JUMP JUMPDEST JUMPDEST POP JUMP JUMPDEST PUSH2 0x2022 DUP2 PUSH2 0x2888 JUMP JUMPDEST DUP3 MSTORE POP POP JUMP JUMPDEST PUSH1 0x0 PUSH2 0x2033 DUP3 PUSH2 0x281D JUMP JUMPDEST DUP1 DUP5 MSTORE PUSH1 0x20 DUP5 ADD SWAP4 POP PUSH2 0x2045 DUP4 PUSH2 0x27D7 JUMP JUMPDEST PUSH1 0x0 JUMPDEST DUP3 DUP2 LT ISZERO PUSH2 0x2077 JUMPI PUSH2 0x205B DUP7 DUP4 MLOAD PUSH2 0x229A JUMP JUMPDEST PUSH2 0x2064 DUP3 PUSH2 0x2854 JUMP JUMPDEST SWAP2 POP PUSH1 0x40 DUP7 ADD SWAP6 POP PUSH1 0x1 DUP2 ADD SWAP1 POP PUSH2 0x2048 JUMP JUMPDEST POP DUP5 SWAP3 POP POP POP SWAP3 SWAP2 POP POP JUMP JUMPDEST PUSH1 0x0 PUSH2 0x208E DUP3 PUSH2 0x2828 JUMP JUMPDEST DUP1 DUP5 MSTORE PUSH1 0x20 DUP5 ADD SWAP4 POP DUP4 PUSH1 0x20 DUP3 MUL DUP6 ADD PUSH2 0x20A7 DUP6 PUSH2 0x27E4 JUMP JUMPDEST PUSH1 0x0 JUMPDEST DUP5 DUP2 LT ISZERO PUSH2 0x20E0 JUMPI DUP4 DUP4 SUB DUP9 MSTORE PUSH2 0x20C2 DUP4 DUP4 MLOAD PUSH2 0x22C9 JUMP JUMPDEST SWAP3 POP PUSH2 0x20CD DUP3 PUSH2 0x2861 JUMP JUMPDEST SWAP2 POP PUSH1 0xE0 DUP9 ADD SWAP8 POP PUSH1 0x1 DUP2 ADD SWAP1 POP PUSH2 0x20AA JUMP JUMPDEST POP DUP2 SWAP7 POP DUP7 SWAP5 POP POP POP POP POP SWAP3 SWAP2 POP POP JUMP JUMPDEST PUSH1 0x0 PUSH2 0x20FC DUP3 PUSH2 0x2833 JUMP JUMPDEST DUP1 DUP5 MSTORE PUSH1 0x20 DUP5 ADD SWAP4 POP DUP4 PUSH1 0x20 DUP3 MUL DUP6 ADD PUSH2 0x2115 DUP6 PUSH2 0x27F1 JUMP JUMPDEST PUSH1 0x0 JUMPDEST DUP5 DUP2 LT ISZERO PUSH2 0x214F JUMPI DUP4 DUP4 SUB DUP9 MSTORE PUSH2 0x2130 DUP4 DUP4 MLOAD PUSH2 0x237A JUMP JUMPDEST SWAP3 POP PUSH2 0x213B DUP3 PUSH2 0x286E JUMP JUMPDEST SWAP2 POP PUSH2 0x120 DUP9 ADD SWAP8 POP PUSH1 0x1 DUP2 ADD SWAP1 POP PUSH2 0x2118 JUMP JUMPDEST POP DUP2 SWAP7 POP DUP7 SWAP5 POP POP POP POP POP SWAP3 SWAP2 POP POP JUMP JUMPDEST PUSH1 0x0 PUSH2 0x216B DUP3 PUSH2 0x283E JUMP JUMPDEST DUP1 DUP5 MSTORE PUSH1 0x20 DUP5 ADD SWAP4 POP DUP4 PUSH1 0x20 DUP3 MUL DUP6 ADD PUSH2 0x2184 DUP6 PUSH2 0x27FE JUMP JUMPDEST PUSH1 0x0 JUMPDEST DUP5 DUP2 LT ISZERO PUSH2 0x21BE JUMPI DUP4 DUP4 SUB DUP9 MSTORE PUSH2 0x219F DUP4 DUP4 MLOAD PUSH2 0x2446 JUMP JUMPDEST SWAP3 POP PUSH2 0x21AA DUP3 PUSH2 0x287B JUMP JUMPDEST SWAP2 POP PUSH2 0x120 DUP9 ADD SWAP8 POP PUSH1 0x1 DUP2 ADD SWAP1 POP PUSH2 0x2187 JUMP JUMPDEST POP DUP2 SWAP7 POP DUP7 SWAP5 POP POP POP POP POP SWAP3 SWAP2 POP POP JUMP JUMPDEST PUSH2 0x21D8 DUP2 PUSH2 0x28A8 JUMP JUMPDEST DUP3 MSTORE POP POP JUMP JUMPDEST PUSH1 0x0 PUSH2 0x21E9 DUP3 PUSH2 0x2849 JUMP JUMPDEST DUP1 DUP5 MSTORE PUSH2 0x21FD DUP2 PUSH1 0x20 DUP7 ADD PUSH1 0x20 DUP7 ADD PUSH2 0x28BE JUMP JUMPDEST PUSH2 0x2206 DUP2 PUSH2 0x28FA JUMP JUMPDEST PUSH1 0x20 DUP6 ADD ADD SWAP2 POP POP SWAP3 SWAP2 POP POP JUMP JUMPDEST PUSH1 0x0 DUP2 SLOAD PUSH1 0x1 DUP2 AND PUSH1 0x0 DUP2 EQ PUSH2 0x2231 JUMPI PUSH1 0x1 DUP2 EQ PUSH2 0x2251 JUMPI PUSH2 0x2292 JUMP JUMPDEST PUSH1 0x7F PUSH1 0x2 DUP4 DIV AND DUP1 DUP7 MSTORE PUSH1 0xFF NOT DUP4 AND PUSH1 0x20 DUP8 ADD MSTORE PUSH1 0x40 DUP7 ADD SWAP4 POP POP PUSH2 0x2292 JUMP JUMPDEST PUSH1 0x2 DUP3 DIV DUP1 DUP7 MSTORE PUSH1 0x20 DUP7 ADD SWAP6 POP PUSH2 0x2267 DUP6 PUSH2 0x280B JUMP JUMPDEST PUSH1 0x0 JUMPDEST DUP3 DUP2 LT ISZERO PUSH2 0x2289 JUMPI DUP2 SLOAD DUP2 DUP10 ADD MSTORE PUSH1 0x1 DUP3 ADD SWAP2 POP PUSH1 0x20 DUP2 ADD SWAP1 POP PUSH2 0x226A JUMP JUMPDEST DUP1 DUP9 ADD SWAP6 POP POP POP POP JUMPDEST POP POP SWAP3 SWAP2 POP POP JUMP JUMPDEST PUSH1 0x40 DUP3 ADD PUSH1 0x0 DUP3 ADD MLOAD PUSH2 0x22B0 PUSH1 0x0 DUP6 ADD DUP3 PUSH2 0x2519 JUMP JUMPDEST POP PUSH1 0x20 DUP3 ADD MLOAD PUSH2 0x22C3 PUSH1 0x20 DUP6 ADD DUP3 PUSH2 0x2019 JUMP JUMPDEST POP POP POP POP JUMP JUMPDEST PUSH1 0x0 PUSH1 0xE0 DUP4 ADD PUSH1 0x0 DUP4 ADD MLOAD DUP5 DUP3 SUB PUSH1 0x0 DUP7 ADD MSTORE PUSH2 0x22E6 DUP3 DUP3 PUSH2 0x21DE JUMP JUMPDEST SWAP2 POP POP PUSH1 0x20 DUP4 ADD MLOAD DUP5 DUP3 SUB PUSH1 0x20 DUP7 ADD MSTORE PUSH2 0x2300 DUP3 DUP3 PUSH2 0x21DE JUMP JUMPDEST SWAP2 POP POP PUSH1 0x40 DUP4 ADD MLOAD PUSH2 0x2315 PUSH1 0x40 DUP7 ADD DUP3 PUSH2 0x2519 JUMP JUMPDEST POP PUSH1 0x60 DUP4 ADD MLOAD PUSH2 0x2328 PUSH1 0x60 DUP7 ADD DUP3 PUSH2 0x2519 JUMP JUMPDEST POP PUSH1 0x80 DUP4 ADD MLOAD DUP5 DUP3 SUB PUSH1 0x80 DUP7 ADD MSTORE PUSH2 0x2340 DUP3 DUP3 PUSH2 0x21DE JUMP JUMPDEST SWAP2 POP POP PUSH1 0xA0 DUP4 ADD MLOAD PUSH2 0x2355 PUSH1 0xA0 DUP7 ADD DUP3 PUSH2 0x2519 JUMP JUMPDEST POP PUSH1 0xC0 DUP4 ADD MLOAD DUP5 DUP3 SUB PUSH1 0xC0 DUP7 ADD MSTORE PUSH2 0x236D DUP3 DUP3 PUSH2 0x21DE JUMP JUMPDEST SWAP2 POP POP DUP1 SWAP2 POP POP SWAP3 SWAP2 POP POP JUMP JUMPDEST PUSH1 0x0 PUSH2 0x120 DUP4 ADD PUSH1 0x0 DUP4 ADD MLOAD PUSH2 0x2393 PUSH1 0x0 DUP7 ADD DUP3 PUSH2 0x2519 JUMP JUMPDEST POP PUSH1 0x20 DUP4 ADD MLOAD DUP5 DUP3 SUB PUSH1 0x20 DUP7 ADD MSTORE PUSH2 0x23AB DUP3 DUP3 PUSH2 0x21DE JUMP JUMPDEST SWAP2 POP POP PUSH1 0x40 DUP4 ADD MLOAD PUSH2 0x23C0 PUSH1 0x40 DUP7 ADD DUP3 PUSH2 0x2519 JUMP JUMPDEST POP PUSH1 0x60 DUP4 ADD MLOAD DUP5 DUP3 SUB PUSH1 0x60 DUP7 ADD MSTORE PUSH2 0x23D8 DUP3 DUP3 PUSH2 0x21DE JUMP JUMPDEST SWAP2 POP POP PUSH1 0x80 DUP4 ADD MLOAD PUSH2 0x23ED PUSH1 0x80 DUP7 ADD DUP3 PUSH2 0x2519 JUMP JUMPDEST POP PUSH1 0xA0 DUP4 ADD MLOAD PUSH2 0x2400 PUSH1 0xA0 DUP7 ADD DUP3 PUSH2 0x21CF JUMP JUMPDEST POP PUSH1 0xC0 DUP4 ADD MLOAD PUSH2 0x2413 PUSH1 0xC0 DUP7 ADD DUP3 PUSH2 0x2019 JUMP JUMPDEST POP PUSH1 0xE0 DUP4 ADD MLOAD PUSH2 0x2426 PUSH1 0xE0 DUP7 ADD DUP3 PUSH2 0x2519 JUMP JUMPDEST POP PUSH2 0x100 DUP4 ADD MLOAD PUSH2 0x243B PUSH2 0x100 DUP7 ADD DUP3 PUSH2 0x2519 JUMP JUMPDEST POP DUP1 SWAP2 POP POP SWAP3 SWAP2 POP POP JUMP JUMPDEST PUSH1 0x0 PUSH2 0x120 DUP4 ADD PUSH1 0x0 DUP4 ADD MLOAD PUSH2 0x245F PUSH1 0x0 DUP7 ADD DUP3 PUSH2 0x2519 JUMP JUMPDEST POP PUSH1 0x20 DUP4 ADD MLOAD DUP5 DUP3 SUB PUSH1 0x20 DUP7 ADD MSTORE PUSH2 0x2477 DUP3 DUP3 PUSH2 0x21DE JUMP JUMPDEST SWAP2 POP POP PUSH1 0x40 DUP4 ADD MLOAD DUP5 DUP3 SUB PUSH1 0x40 DUP7 ADD MSTORE PUSH2 0x2491 DUP3 DUP3 PUSH2 0x21DE JUMP JUMPDEST SWAP2 POP POP PUSH1 0x60 DUP4 ADD MLOAD DUP5 DUP3 SUB PUSH1 0x60 DUP7 ADD MSTORE PUSH2 0x24AB DUP3 DUP3 PUSH2 0x21DE JUMP JUMPDEST SWAP2 POP POP PUSH1 0x80 DUP4 ADD MLOAD PUSH2 0x24C0 PUSH1 0x80 DUP7 ADD DUP3 PUSH2 0x2519 JUMP JUMPDEST POP PUSH1 0xA0 DUP4 ADD MLOAD PUSH2 0x24D3 PUSH1 0xA0 DUP7 ADD DUP3 PUSH2 0x2019 JUMP JUMPDEST POP PUSH1 0xC0 DUP4 ADD MLOAD PUSH2 0x24E6 PUSH1 0xC0 DUP7 ADD DUP3 PUSH2 0x21CF JUMP JUMPDEST POP PUSH1 0xE0 DUP4 ADD MLOAD PUSH2 0x24F9 PUSH1 0xE0 DUP7 ADD DUP3 PUSH2 0x2019 JUMP JUMPDEST POP PUSH2 0x100 DUP4 ADD MLOAD PUSH2 0x250E PUSH2 0x100 DUP7 ADD DUP3 PUSH2 0x2519 JUMP JUMPDEST POP DUP1 SWAP2 POP POP SWAP3 SWAP2 POP POP JUMP JUMPDEST PUSH2 0x2522 DUP2 PUSH2 0x28B4 JUMP JUMPDEST DUP3 MSTORE POP POP JUMP JUMPDEST PUSH1 0x0 PUSH1 0x20 DUP3 ADD SWAP1 POP PUSH2 0x253D PUSH1 0x0 DUP4 ADD DUP5 PUSH2 0x2019 JUMP JUMPDEST SWAP3 SWAP2 POP POP JUMP JUMPDEST PUSH1 0x0 PUSH1 0x20 DUP3 ADD SWAP1 POP DUP2 DUP2 SUB PUSH1 0x0 DUP4 ADD MSTORE PUSH2 0x255D DUP2 DUP5 PUSH2 0x2028 JUMP JUMPDEST SWAP1 POP SWAP3 SWAP2 POP POP JUMP JUMPDEST PUSH1 0x0 PUSH1 0x20 DUP3 ADD SWAP1 POP DUP2 DUP2 SUB PUSH1 0x0 DUP4 ADD MSTORE PUSH2 0x257F DUP2 DUP5 PUSH2 0x2083 JUMP JUMPDEST SWAP1 POP SWAP3 SWAP2 POP POP JUMP JUMPDEST PUSH1 0x0 PUSH1 0x20 DUP3 ADD SWAP1 POP DUP2 DUP2 SUB PUSH1 0x0 DUP4 ADD MSTORE PUSH2 0x25A1 DUP2 DUP5 PUSH2 0x20F1 JUMP JUMPDEST SWAP1 POP SWAP3 SWAP2 POP POP JUMP JUMPDEST PUSH1 0x0 PUSH1 0x20 DUP3 ADD SWAP1 POP DUP2 DUP2 SUB PUSH1 0x0 DUP4 ADD MSTORE PUSH2 0x25C3 DUP2 DUP5 PUSH2 0x2160 JUMP JUMPDEST SWAP1 POP SWAP3 SWAP2 POP POP JUMP JUMPDEST PUSH1 0x0 PUSH1 0xE0 DUP3 ADD SWAP1 POP DUP2 DUP2 SUB PUSH1 0x0 DUP4 ADD MSTORE PUSH2 0x25E5 DUP2 DUP11 PUSH2 0x2214 JUMP JUMPDEST SWAP1 POP DUP2 DUP2 SUB PUSH1 0x20 DUP4 ADD MSTORE PUSH2 0x25F9 DUP2 DUP10 PUSH2 0x2214 JUMP JUMPDEST SWAP1 POP PUSH2 0x2608 PUSH1 0x40 DUP4 ADD DUP9 PUSH2 0x2519 JUMP JUMPDEST PUSH2 0x2615 PUSH1 0x60 DUP4 ADD DUP8 PUSH2 0x2519 JUMP JUMPDEST DUP2 DUP2 SUB PUSH1 0x80 DUP4 ADD MSTORE PUSH2 0x2627 DUP2 DUP7 PUSH2 0x2214 JUMP JUMPDEST SWAP1 POP PUSH2 0x2636 PUSH1 0xA0 DUP4 ADD DUP6 PUSH2 0x2519 JUMP JUMPDEST DUP2 DUP2 SUB PUSH1 0xC0 DUP4 ADD MSTORE PUSH2 0x2648 DUP2 DUP5 PUSH2 0x2214 JUMP JUMPDEST SWAP1 POP SWAP9 SWAP8 POP POP POP POP POP POP POP POP JUMP JUMPDEST PUSH1 0x0 PUSH1 0x20 DUP3 ADD SWAP1 POP PUSH2 0x266B PUSH1 0x0 DUP4 ADD DUP5 PUSH2 0x2519 JUMP JUMPDEST SWAP3 SWAP2 POP POP JUMP JUMPDEST PUSH1 0x0 PUSH1 0x40 DUP3 ADD SWAP1 POP PUSH2 0x2686 PUSH1 0x0 DUP4 ADD DUP6 PUSH2 0x2519 JUMP JUMPDEST PUSH2 0x2693 PUSH1 0x20 DUP4 ADD DUP5 PUSH2 0x2019 JUMP JUMPDEST SWAP4 SWAP3 POP POP POP JUMP JUMPDEST PUSH1 0x0 PUSH2 0x120 DUP3 ADD SWAP1 POP PUSH2 0x26B0 PUSH1 0x0 DUP4 ADD DUP13 PUSH2 0x2519 JUMP JUMPDEST DUP2 DUP2 SUB PUSH1 0x20 DUP4 ADD MSTORE PUSH2 0x26C2 DUP2 DUP12 PUSH2 0x2214 JUMP JUMPDEST SWAP1 POP DUP2 DUP2 SUB PUSH1 0x40 DUP4 ADD MSTORE PUSH2 0x26D6 DUP2 DUP11 PUSH2 0x2214 JUMP JUMPDEST SWAP1 POP DUP2 DUP2 SUB PUSH1 0x60 DUP4 ADD MSTORE PUSH2 0x26EA DUP2 DUP10 PUSH2 0x2214 JUMP JUMPDEST SWAP1 POP PUSH2 0x26F9 PUSH1 0x80 DUP4 ADD DUP9 PUSH2 0x2519 JUMP JUMPDEST PUSH2 0x2706 PUSH1 0xA0 DUP4 ADD DUP8 PUSH2 0x2019 JUMP JUMPDEST PUSH2 0x2713 PUSH1 0xC0 DUP4 ADD DUP7 PUSH2 0x21CF JUMP JUMPDEST PUSH2 0x2720 PUSH1 0xE0 DUP4 ADD DUP6 PUSH2 0x2019 JUMP JUMPDEST PUSH2 0x272E PUSH2 0x100 DUP4 ADD DUP5 PUSH2 0x2519 JUMP JUMPDEST SWAP11 SWAP10 POP POP POP POP POP POP POP POP POP POP JUMP JUMPDEST PUSH1 0x0 PUSH2 0x120 DUP3 ADD SWAP1 POP PUSH2 0x2752 PUSH1 0x0 DUP4 ADD DUP13 PUSH2 0x2519 JUMP JUMPDEST DUP2 DUP2 SUB PUSH1 0x20 DUP4 ADD MSTORE PUSH2 0x2764 DUP2 DUP12 PUSH2 0x2214 JUMP JUMPDEST SWAP1 POP PUSH2 0x2773 PUSH1 0x40 DUP4 ADD DUP11 PUSH2 0x2519 JUMP JUMPDEST DUP2 DUP2 SUB PUSH1 0x60 DUP4 ADD MSTORE PUSH2 0x2785 DUP2 DUP10 PUSH2 0x2214 JUMP JUMPDEST SWAP1 POP PUSH2 0x2794 PUSH1 0x80 DUP4 ADD DUP9 PUSH2 0x2519 JUMP JUMPDEST PUSH2 0x27A1 PUSH1 0xA0 DUP4 ADD DUP8 PUSH2 0x21CF JUMP JUMPDEST PUSH2 0x27AE PUSH1 0xC0 DUP4 ADD DUP7 PUSH2 0x2019 JUMP JUMPDEST PUSH2 0x27BB PUSH1 0xE0 DUP4 ADD DUP6 PUSH2 0x2519 JUMP JUMPDEST PUSH2 0x27C9 PUSH2 0x100 DUP4 ADD DUP5 PUSH2 0x2519 JUMP JUMPDEST SWAP11 SWAP10 POP POP POP POP POP POP POP POP POP POP JUMP JUMPDEST PUSH1 0x0 PUSH1 0x20 DUP3 ADD SWAP1 POP SWAP2 SWAP1 POP JUMP JUMPDEST PUSH1 0x0 PUSH1 0x20 DUP3 ADD SWAP1 POP SWAP2 SWAP1 POP JUMP JUMPDEST PUSH1 0x0 PUSH1 0x20 DUP3 ADD SWAP1 POP SWAP2 SWAP1 POP JUMP JUMPDEST PUSH1 0x0 PUSH1 0x20 DUP3 ADD SWAP1 POP SWAP2 SWAP1 POP JUMP JUMPDEST PUSH1 0x0 DUP2 PUSH1 0x0 MSTORE PUSH1 0x20 PUSH1 0x0 KECCAK256 SWAP1 POP SWAP2 SWAP1 POP JUMP JUMPDEST PUSH1 0x0 DUP2 MLOAD SWAP1 POP SWAP2 SWAP1 POP JUMP JUMPDEST PUSH1 0x0 DUP2 MLOAD SWAP1 POP SWAP2 SWAP1 POP JUMP JUMPDEST PUSH1 0x0 DUP2 MLOAD SWAP1 POP SWAP2 SWAP1 POP JUMP JUMPDEST PUSH1 0x0 DUP2 MLOAD SWAP1 POP SWAP2 SWAP1 POP JUMP JUMPDEST PUSH1 0x0 DUP2 MLOAD SWAP1 POP SWAP2 SWAP1 POP JUMP JUMPDEST PUSH1 0x0 PUSH1 0x20 DUP3 ADD SWAP1 POP SWAP2 SWAP1 POP JUMP JUMPDEST PUSH1 0x0 PUSH1 0x20 DUP3 ADD SWAP1 POP SWAP2 SWAP1 POP JUMP JUMPDEST PUSH1 0x0 PUSH1 0x20 DUP3 ADD SWAP1 POP SWAP2 SWAP1 POP JUMP JUMPDEST PUSH1 0x0 PUSH1 0x20 DUP3 ADD SWAP1 POP SWAP2 SWAP1 POP JUMP JUMPDEST PUSH1 0x0 PUSH20 0xFFFFFFFFFFFFFFFFFFFFFFFFFFFFFFFFFFFFFFFF DUP3 AND SWAP1 POP SWAP2 SWAP1 POP JUMP JUMPDEST PUSH1 0x0 DUP2 ISZERO ISZERO SWAP1 POP SWAP2 SWAP1 POP JUMP JUMPDEST PUSH1 0x0 DUP2 SWAP1 POP SWAP2 SWAP1 POP JUMP JUMPDEST PUSH1 0x0 JUMPDEST DUP4 DUP2 LT ISZERO PUSH2 0x28DC JUMPI DUP1 DUP3 ADD MLOAD DUP2 DUP5 ADD MSTORE PUSH1 0x20 DUP2 ADD SWAP1 POP PUSH2 0x28C1 JUMP JUMPDEST DUP4 DUP2 EQ PUSH1 0x0 DUP2 EQ PUSH2 0x28EC JUMPI PUSH2 0x28F3 JUMP JUMPDEST PUSH1 0x0 DUP6 DUP6 ADD MSTORE JUMPDEST POP POP POP POP POP JUMP JUMPDEST PUSH1 0x0 PUSH1 0x1F NOT PUSH1 0x1F DUP4 ADD AND SWAP1 POP SWAP2 SWAP1 POP JUMP STOP LOG2 PUSH6 0x627A7A723058 KECCAK256 0x46 ADDMOD 0xd5 RETURN 0xe0 PUSH32 0x968636D72BB1CFA177682615AAEB6C898661C09DBC54C98597166C6578706572 PUSH10 0x6D656E74616CF5003700 "
        },
        "gasEstimates": {
          "creation": {
            "codeDepositCost": "2113000",
            "executionCost": "2245",
            "totalCost": "2115245"
          },
          "external": {
            "Scholarship()": "20787",
            "amount()": "815",
            "approveVendor(uint256)": "41267",
            "depositer(uint256)": "1395",
            "deviceIssue(uint256)": "infinite",
            "enter()": "infinite",
            "getListOfDepositors()": "infinite",
            "getListOfDeviceIssue()": "infinite",
            "getListOfStudents()": "infinite",
            "getListOfVendors()": "infinite",
            "issueNewDevice(string,uint256,uint256,uint256,uint256,string)": "infinite",
            "manager()": "681",
            "minimumScore()": "837",
            "rechargeAddress(uint256)": "1160",
            "registerStudent(string,uint256,uint256,string)": "infinite",
            "registerVendor(string,string,string,uint256)": "infinite",
            "rejectVendor(uint256)": "41421",
            "scholarshipAmout()": "573",
            "students(uint256)": "infinite",
            "vendors(uint256)": "infinite"
          }
        },
        "methodIdentifiers": {
          "Scholarship()": "ce251a30",
          "amount()": "aa8c217c",
          "approveVendor(uint256)": "6ce71786",
          "depositer(uint256)": "513e9848",
          "deviceIssue(uint256)": "1c3a8890",
          "enter()": "e97dcb62",
          "getListOfDepositors()": "bafdb029",
          "getListOfDeviceIssue()": "86a447d9",
          "getListOfStudents()": "15f6febd",
          "getListOfVendors()": "4f0cb18f",
          "issueNewDevice(string,uint256,uint256,uint256,uint256,string)": "465f6954",
          "manager()": "481c6a75",
          "minimumScore()": "ac96bd6e",
          "rechargeAddress(uint256)": "a8233ee9",
          "registerStudent(string,uint256,uint256,string)": "6148c54c",
          "registerVendor(string,string,string,uint256)": "3ee393f6",
          "rejectVendor(uint256)": "ca005940",
          "scholarshipAmout()": "2c5d4725",
          "students(uint256)": "06ead22e",
          "vendors(uint256)": "a08d986d"
        }
      },
      "userdoc": {
        "methods": {}
      }
    }
  }
}