{
  "contracts/Box.sol": {
    "Box": {
      "abi": [
        {
          "constant": true,
          "inputs": [
            {
              "name": "",
              "type": "uint256"
            }
          ],
          "name": "students",
          "outputs": [
            {
              "name": "slNo",
              "type": "uint256"
            },
            {
              "name": "name",
              "type": "string"
            },
            {
              "name": "rollNo",
              "type": "uint256"
            },
            {
              "name": "dob",
              "type": "string"
            },
            {
              "name": "score",
              "type": "uint256"
            },
            {
              "name": "complete",
              "type": "bool"
            },
            {
              "name": "StudentAddress",
              "type": "address"
            },
            {
              "name": "amount",
              "type": "uint256"
            },
            {
              "name": "otp",
              "type": "uint256"
            }
          ],
          "payable": false,
          "stateMutability": "view",
          "type": "function"
        },
        {
          "constant": true,
          "inputs": [],
          "name": "getListOfStudents",
          "outputs": [
            {
              "components": [
                {
                  "name": "slNo",
                  "type": "uint256"
                },
                {
                  "name": "name",
                  "type": "string"
                },
                {
                  "name": "rollNo",
                  "type": "uint256"
                },
                {
                  "name": "dob",
                  "type": "string"
                },
                {
                  "name": "score",
                  "type": "uint256"
                },
                {
                  "name": "complete",
                  "type": "bool"
                },
                {
                  "name": "StudentAddress",
                  "type": "address"
                },
                {
                  "name": "amount",
                  "type": "uint256"
                },
                {
                  "name": "otp",
                  "type": "uint256"
                }
              ],
              "name": "",
              "type": "tuple[]"
            }
          ],
          "payable": false,
          "stateMutability": "view",
          "type": "function"
        },
        {
          "constant": true,
          "inputs": [],
          "name": "scholarshipAmout",
          "outputs": [
            {
              "name": "",
              "type": "uint256"
            }
          ],
          "payable": false,
          "stateMutability": "view",
          "type": "function"
        },
        {
          "constant": true,
          "inputs": [],
          "name": "manager",
          "outputs": [
            {
              "name": "",
              "type": "address"
            }
          ],
          "payable": false,
          "stateMutability": "view",
          "type": "function"
        },
        {
          "constant": true,
          "inputs": [
            {
              "name": "",
              "type": "uint256"
            }
          ],
          "name": "depositer",
          "outputs": [
            {
              "name": "amount",
              "type": "uint256"
            },
            {
              "name": "depositerAddress",
              "type": "address"
            }
          ],
          "payable": false,
          "stateMutability": "view",
          "type": "function"
        },
        {
          "constant": false,
          "inputs": [
            {
              "name": "name",
              "type": "string"
            },
            {
              "name": "rollNo",
              "type": "uint256"
            },
            {
              "name": "score",
              "type": "uint256"
            },
            {
              "name": "dob",
              "type": "string"
            }
          ],
          "name": "registerStudent",
          "outputs": [],
          "payable": true,
          "stateMutability": "payable",
          "type": "function"
        },
        {
          "constant": true,
          "inputs": [
            {
              "name": "",
              "type": "uint256"
            }
          ],
          "name": "rechargeAddress",
          "outputs": [
            {
              "name": "",
              "type": "address"
            }
          ],
          "payable": false,
          "stateMutability": "view",
          "type": "function"
        },
        {
          "constant": true,
          "inputs": [],
          "name": "amount",
          "outputs": [
            {
              "name": "",
              "type": "uint256"
            }
          ],
          "payable": false,
          "stateMutability": "view",
          "type": "function"
        },
        {
          "constant": true,
          "inputs": [],
          "name": "minimumScore",
          "outputs": [
            {
              "name": "",
              "type": "uint256"
            }
          ],
          "payable": false,
          "stateMutability": "view",
          "type": "function"
        },
        {
          "constant": true,
          "inputs": [],
          "name": "getListOfDepositors",
          "outputs": [
            {
              "components": [
                {
                  "name": "amount",
                  "type": "uint256"
                },
                {
                  "name": "depositerAddress",
                  "type": "address"
                }
              ],
              "name": "",
              "type": "tuple[]"
            }
          ],
          "payable": false,
          "stateMutability": "view",
          "type": "function"
        },
        {
          "constant": false,
          "inputs": [],
          "name": "Scholarship",
          "outputs": [],
          "payable": false,
          "stateMutability": "nonpayable",
          "type": "function"
        },
        {
          "constant": false,
          "inputs": [],
          "name": "enter",
          "outputs": [],
          "payable": true,
          "stateMutability": "payable",
          "type": "function"
        }
      ],
      "devdoc": {
        "methods": {}
      },
      "evm": {
        "assembly": "    /* \"contracts/Box.sol\":63:1793  contract Box {\r... */\n  mstore(0x40, 0x60)\n  jumpi(tag_1, iszero(callvalue))\n  0x0\n  dup1\n  revert\ntag_1:\n  dataSize(sub_0)\n  dup1\n  dataOffset(sub_0)\n  0x0\n  codecopy\n  0x0\n  return\nstop\n\nsub_0: assembly {\n        /* \"contracts/Box.sol\":63:1793  contract Box {\r... */\n      mstore(0x40, 0x60)\n      jumpi(tag_1, iszero(calldatasize))\n      calldataload(0x0)\n      0x100000000000000000000000000000000000000000000000000000000\n      swap1\n      div\n      0xffffffff\n      and\n      dup1\n      0x6ead22e\n      eq\n      tag_2\n      jumpi\n      dup1\n      0x15f6febd\n      eq\n      tag_3\n      jumpi\n      dup1\n      0x2c5d4725\n      eq\n      tag_4\n      jumpi\n      dup1\n      0x481c6a75\n      eq\n      tag_5\n      jumpi\n      dup1\n      0x513e9848\n      eq\n      tag_6\n      jumpi\n      dup1\n      0x6148c54c\n      eq\n      tag_7\n      jumpi\n      dup1\n      0xa8233ee9\n      eq\n      tag_8\n      jumpi\n      dup1\n      0xaa8c217c\n      eq\n      tag_9\n      jumpi\n      dup1\n      0xac96bd6e\n      eq\n      tag_10\n      jumpi\n      dup1\n      0xbafdb029\n      eq\n      tag_11\n      jumpi\n      dup1\n      0xce251a30\n      eq\n      tag_12\n      jumpi\n      dup1\n      0xe97dcb62\n      eq\n      tag_13\n      jumpi\n    tag_1:\n      0x0\n      dup1\n      revert\n        /* \"contracts/Box.sol\":445:470  Student[] public students */\n    tag_2:\n      jumpi(tag_14, iszero(callvalue))\n      0x0\n      dup1\n      revert\n    tag_14:\n      tag_15\n      0x4\n      dup1\n      dup1\n      calldataload\n      swap1\n      0x20\n      add\n      swap1\n      swap2\n      swap1\n      pop\n      pop\n      jump(tag_16)\n    tag_15:\n      mload(0x40)\n      tag_17\n      swap10\n      swap9\n      swap8\n      swap7\n      swap6\n      swap5\n      swap4\n      swap3\n      swap2\n      swap1\n      jump(tag_18)\n    tag_17:\n      mload(0x40)\n      dup1\n      swap2\n      sub\n      swap1\n      return\n        /* \"contracts/Box.sol\":1599:1694  function getListOfStudents() public view returns (Student[]) {\r... */\n    tag_3:\n      jumpi(tag_19, iszero(callvalue))\n      0x0\n      dup1\n      revert\n    tag_19:\n      tag_20\n      jump(tag_21)\n    tag_20:\n      mload(0x40)\n      tag_22\n      swap2\n      swap1\n      jump(tag_23)\n    tag_22:\n      mload(0x40)\n      dup1\n      swap2\n      sub\n      swap1\n      return\n        /* \"contracts/Box.sol\":547:575  uint public scholarshipAmout */\n    tag_4:\n      jumpi(tag_24, iszero(callvalue))\n      0x0\n      dup1\n      revert\n    tag_24:\n      tag_25\n      jump(tag_26)\n    tag_25:\n      mload(0x40)\n      tag_27\n      swap2\n      swap1\n      jump(tag_28)\n    tag_27:\n      mload(0x40)\n      dup1\n      swap2\n      sub\n      swap1\n      return\n        /* \"contracts/Box.sol\":479:501  address public manager */\n    tag_5:\n      jumpi(tag_29, iszero(callvalue))\n      0x0\n      dup1\n      revert\n    tag_29:\n      tag_30\n      jump(tag_31)\n    tag_30:\n      mload(0x40)\n      tag_32\n      swap2\n      swap1\n      jump(tag_33)\n    tag_32:\n      mload(0x40)\n      dup1\n      swap2\n      sub\n      swap1\n      return\n        /* \"contracts/Box.sol\":410:438  Depositer[] public depositer */\n    tag_6:\n      jumpi(tag_34, iszero(callvalue))\n      0x0\n      dup1\n      revert\n    tag_34:\n      tag_35\n      0x4\n      dup1\n      dup1\n      calldataload\n      swap1\n      0x20\n      add\n      swap1\n      swap2\n      swap1\n      pop\n      pop\n      jump(tag_36)\n    tag_35:\n      mload(0x40)\n      tag_37\n      swap3\n      swap2\n      swap1\n      jump(tag_38)\n    tag_37:\n      mload(0x40)\n      dup1\n      swap2\n      sub\n      swap1\n      return\n        /* \"contracts/Box.sol\":1065:1591  function registerStudent(string name, uint rollNo, uint score, string dob) public payable {\r... */\n    tag_7:\n      tag_39\n      0x4\n      dup1\n      dup1\n      calldataload\n      swap1\n      0x20\n      add\n      swap1\n      dup3\n      add\n      dup1\n      calldataload\n      swap1\n      0x20\n      add\n      swap1\n      dup1\n      dup1\n      0x1f\n      add\n      0x20\n      dup1\n      swap2\n      div\n      mul\n      0x20\n      add\n      mload(0x40)\n      swap1\n      dup2\n      add\n      0x40\n      mstore\n      dup1\n      swap4\n      swap3\n      swap2\n      swap1\n      dup2\n      dup2\n      mstore\n      0x20\n      add\n      dup4\n      dup4\n      dup1\n      dup3\n      dup5\n      calldatacopy\n      dup3\n      add\n      swap2\n      pop\n      pop\n      pop\n      pop\n      pop\n      pop\n      swap2\n      swap1\n      dup1\n      calldataload\n      swap1\n      0x20\n      add\n      swap1\n      swap2\n      swap1\n      dup1\n      calldataload\n      swap1\n      0x20\n      add\n      swap1\n      swap2\n      swap1\n      dup1\n      calldataload\n      swap1\n      0x20\n      add\n      swap1\n      dup3\n      add\n      dup1\n      calldataload\n      swap1\n      0x20\n      add\n      swap1\n      dup1\n      dup1\n      0x1f\n      add\n      0x20\n      dup1\n      swap2\n      div\n      mul\n      0x20\n      add\n      mload(0x40)\n      swap1\n      dup2\n      add\n      0x40\n      mstore\n      dup1\n      swap4\n      swap3\n      swap2\n      swap1\n      dup2\n      dup2\n      mstore\n      0x20\n      add\n      dup4\n      dup4\n      dup1\n      dup3\n      dup5\n      calldatacopy\n      dup3\n      add\n      swap2\n      pop\n      pop\n      pop\n      pop\n      pop\n      pop\n      swap2\n      swap1\n      pop\n      pop\n      jump(tag_40)\n    tag_39:\n      stop\n        /* \"contracts/Box.sol\":508:540  address[] public rechargeAddress */\n    tag_8:\n      jumpi(tag_41, iszero(callvalue))\n      0x0\n      dup1\n      revert\n    tag_41:\n      tag_42\n      0x4\n      dup1\n      dup1\n      calldataload\n      swap1\n      0x20\n      add\n      swap1\n      swap2\n      swap1\n      pop\n      pop\n      jump(tag_43)\n    tag_42:\n      mload(0x40)\n      tag_44\n      swap2\n      swap1\n      jump(tag_33)\n    tag_44:\n      mload(0x40)\n      dup1\n      swap2\n      sub\n      swap1\n      return\n        /* \"contracts/Box.sol\":613:631  uint public amount */\n    tag_9:\n      jumpi(tag_45, iszero(callvalue))\n      0x0\n      dup1\n      revert\n    tag_45:\n      tag_46\n      jump(tag_47)\n    tag_46:\n      mload(0x40)\n      tag_48\n      swap2\n      swap1\n      jump(tag_28)\n    tag_48:\n      mload(0x40)\n      dup1\n      swap2\n      sub\n      swap1\n      return\n        /* \"contracts/Box.sol\":582:606  uint public minimumScore */\n    tag_10:\n      jumpi(tag_49, iszero(callvalue))\n      0x0\n      dup1\n      revert\n    tag_49:\n      tag_50\n      jump(tag_51)\n    tag_50:\n      mload(0x40)\n      tag_52\n      swap2\n      swap1\n      jump(tag_28)\n    tag_52:\n      mload(0x40)\n      dup1\n      swap2\n      sub\n      swap1\n      return\n        /* \"contracts/Box.sol\":957:1057  function getListOfDepositors() public view returns (Depositer[]) {\r... */\n    tag_11:\n      jumpi(tag_53, iszero(callvalue))\n      0x0\n      dup1\n      revert\n    tag_53:\n      tag_54\n      jump(tag_55)\n    tag_54:\n      mload(0x40)\n      tag_56\n      swap2\n      swap1\n      jump(tag_57)\n    tag_56:\n      mload(0x40)\n      dup1\n      swap2\n      sub\n      swap1\n      return\n        /* \"contracts/Box.sol\":644:723  function Scholarship() public {\r... */\n    tag_12:\n      jumpi(tag_58, iszero(callvalue))\n      0x0\n      dup1\n      revert\n    tag_58:\n      tag_59\n      jump(tag_60)\n    tag_59:\n      stop\n        /* \"contracts/Box.sol\":734:949  function enter() public payable {\r... */\n    tag_13:\n      tag_61\n      jump(tag_62)\n    tag_61:\n      stop\n        /* \"contracts/Box.sol\":445:470  Student[] public students */\n    tag_16:\n      0x1\n      dup2\n      dup2\n      sload\n      dup2\n      lt\n      iszero\n      iszero\n      tag_63\n      jumpi\n      invalid\n    tag_63:\n      swap1\n      0x0\n      mstore\n      keccak256(0x0, 0x20)\n      swap1\n      0x8\n      mul\n      add\n      0x0\n      swap2\n      pop\n      swap1\n      pop\n      dup1\n      0x0\n      add\n      sload\n      swap1\n      dup1\n      0x1\n      add\n      swap1\n      dup1\n      0x2\n      add\n      sload\n      swap1\n      dup1\n      0x3\n      add\n      swap1\n      dup1\n      0x4\n      add\n      sload\n      swap1\n      dup1\n      0x5\n      add\n      0x0\n      swap1\n      sload\n      swap1\n      0x100\n      exp\n      swap1\n      div\n      0xff\n      and\n      swap1\n      dup1\n      0x5\n      add\n      0x1\n      swap1\n      sload\n      swap1\n      0x100\n      exp\n      swap1\n      div\n      0xffffffffffffffffffffffffffffffffffffffff\n      and\n      swap1\n      dup1\n      0x6\n      add\n      sload\n      swap1\n      dup1\n      0x7\n      add\n      sload\n      swap1\n      pop\n      dup10\n      jump\t// out\n        /* \"contracts/Box.sol\":1599:1694  function getListOfStudents() public view returns (Student[]) {\r... */\n    tag_21:\n        /* \"contracts/Box.sol\":1649:1658  Student[] */\n      tag_65\n      jump\t// in(tag_66)\n    tag_65:\n        /* \"contracts/Box.sol\":1678:1686  students */\n      0x1\n        /* \"contracts/Box.sol\":1671:1686  return students */\n      dup1\n      sload\n      dup1\n      0x20\n      mul\n      0x20\n      add\n      mload(0x40)\n      swap1\n      dup2\n      add\n      0x40\n      mstore\n      dup1\n      swap3\n      swap2\n      swap1\n      dup2\n      dup2\n      mstore\n      0x20\n      add\n      0x0\n      swap1\n    tag_68:\n      dup3\n      dup3\n      lt\n      iszero\n      tag_69\n      jumpi\n      dup4\n      dup3\n      swap1\n      0x0\n      mstore\n      keccak256(0x0, 0x20)\n      swap1\n      0x8\n      mul\n      add\n      0x120\n      mload(0x40)\n      swap1\n      dup2\n      add\n      0x40\n      mstore\n      swap1\n      dup2\n      0x0\n      dup3\n      add\n      sload\n      dup2\n      mstore\n      0x20\n      add\n      0x1\n      dup3\n      add\n      dup1\n      sload\n      0x1\n      dup2\n      0x1\n      and\n      iszero\n      0x100\n      mul\n      sub\n      and\n      0x2\n      swap1\n      div\n      dup1\n      0x1f\n      add\n      0x20\n      dup1\n      swap2\n      div\n      mul\n      0x20\n      add\n      mload(0x40)\n      swap1\n      dup2\n      add\n      0x40\n      mstore\n      dup1\n      swap3\n      swap2\n      swap1\n      dup2\n      dup2\n      mstore\n      0x20\n      add\n      dup3\n      dup1\n      sload\n      0x1\n      dup2\n      0x1\n      and\n      iszero\n      0x100\n      mul\n      sub\n      and\n      0x2\n      swap1\n      div\n      dup1\n      iszero\n      tag_71\n      jumpi\n      dup1\n      0x1f\n      lt\n      tag_72\n      jumpi\n      0x100\n      dup1\n      dup4\n      sload\n      div\n      mul\n      dup4\n      mstore\n      swap2\n      0x20\n      add\n      swap2\n      jump(tag_71)\n    tag_72:\n      dup3\n      add\n      swap2\n      swap1\n      0x0\n      mstore\n      keccak256(0x0, 0x20)\n      swap1\n    tag_73:\n      dup2\n      sload\n      dup2\n      mstore\n      swap1\n      0x1\n      add\n      swap1\n      0x20\n      add\n      dup1\n      dup4\n      gt\n      tag_73\n      jumpi\n      dup3\n      swap1\n      sub\n      0x1f\n      and\n      dup3\n      add\n      swap2\n    tag_71:\n      pop\n      pop\n      pop\n      pop\n      pop\n      dup2\n      mstore\n      0x20\n      add\n      0x2\n      dup3\n      add\n      sload\n      dup2\n      mstore\n      0x20\n      add\n      0x3\n      dup3\n      add\n      dup1\n      sload\n      0x1\n      dup2\n      0x1\n      and\n      iszero\n      0x100\n      mul\n      sub\n      and\n      0x2\n      swap1\n      div\n      dup1\n      0x1f\n      add\n      0x20\n      dup1\n      swap2\n      div\n      mul\n      0x20\n      add\n      mload(0x40)\n      swap1\n      dup2\n      add\n      0x40\n      mstore\n      dup1\n      swap3\n      swap2\n      swap1\n      dup2\n      dup2\n      mstore\n      0x20\n      add\n      dup3\n      dup1\n      sload\n      0x1\n      dup2\n      0x1\n      and\n      iszero\n      0x100\n      mul\n      sub\n      and\n      0x2\n      swap1\n      div\n      dup1\n      iszero\n      tag_74\n      jumpi\n      dup1\n      0x1f\n      lt\n      tag_75\n      jumpi\n      0x100\n      dup1\n      dup4\n      sload\n      div\n      mul\n      dup4\n      mstore\n      swap2\n      0x20\n      add\n      swap2\n      jump(tag_74)\n    tag_75:\n      dup3\n      add\n      swap2\n      swap1\n      0x0\n      mstore\n      keccak256(0x0, 0x20)\n      swap1\n    tag_76:\n      dup2\n      sload\n      dup2\n      mstore\n      swap1\n      0x1\n      add\n      swap1\n      0x20\n      add\n      dup1\n      dup4\n      gt\n      tag_76\n      jumpi\n      dup3\n      swap1\n      sub\n      0x1f\n      and\n      dup3\n      add\n      swap2\n    tag_74:\n      pop\n      pop\n      pop\n      pop\n      pop\n      dup2\n      mstore\n      0x20\n      add\n      0x4\n      dup3\n      add\n      sload\n      dup2\n      mstore\n      0x20\n      add\n      0x5\n      dup3\n      add\n      0x0\n      swap1\n      sload\n      swap1\n      0x100\n      exp\n      swap1\n      div\n      0xff\n      and\n      iszero\n      iszero\n      iszero\n      iszero\n      dup2\n      mstore\n      0x20\n      add\n      0x5\n      dup3\n      add\n      0x1\n      swap1\n      sload\n      swap1\n      0x100\n      exp\n      swap1\n      div\n      0xffffffffffffffffffffffffffffffffffffffff\n      and\n      0xffffffffffffffffffffffffffffffffffffffff\n      and\n      0xffffffffffffffffffffffffffffffffffffffff\n      and\n      dup2\n      mstore\n      0x20\n      add\n      0x6\n      dup3\n      add\n      sload\n      dup2\n      mstore\n      0x20\n      add\n      0x7\n      dup3\n      add\n      sload\n      dup2\n      mstore\n      pop\n      pop\n      dup2\n      mstore\n      0x20\n      add\n      swap1\n      0x1\n      add\n      swap1\n      jump(tag_68)\n    tag_69:\n      pop\n      pop\n      pop\n      pop\n      swap1\n      pop\n        /* \"contracts/Box.sol\":1599:1694  function getListOfStudents() public view returns (Student[]) {\r... */\n      swap1\n      jump\t// out\n        /* \"contracts/Box.sol\":547:575  uint public scholarshipAmout */\n    tag_26:\n      sload(0x4)\n      dup2\n      jump\t// out\n        /* \"contracts/Box.sol\":479:501  address public manager */\n    tag_31:\n      0x2\n      0x0\n      swap1\n      sload\n      swap1\n      0x100\n      exp\n      swap1\n      div\n      0xffffffffffffffffffffffffffffffffffffffff\n      and\n      dup2\n      jump\t// out\n        /* \"contracts/Box.sol\":410:438  Depositer[] public depositer */\n    tag_36:\n      0x0\n      dup2\n      dup2\n      sload\n      dup2\n      lt\n      iszero\n      iszero\n      tag_77\n      jumpi\n      invalid\n    tag_77:\n      swap1\n      0x0\n      mstore\n      keccak256(0x0, 0x20)\n      swap1\n      0x2\n      mul\n      add\n      0x0\n      swap2\n      pop\n      swap1\n      pop\n      dup1\n      0x0\n      add\n      sload\n      swap1\n      dup1\n      0x1\n      add\n      0x0\n      swap1\n      sload\n      swap1\n      0x100\n      exp\n      swap1\n      div\n      0xffffffffffffffffffffffffffffffffffffffff\n      and\n      swap1\n      pop\n      dup3\n      jump\t// out\n        /* \"contracts/Box.sol\":1065:1591  function registerStudent(string name, uint rollNo, uint score, string dob) public payable {\r... */\n    tag_40:\n        /* \"contracts/Box.sol\":1197:1222  Student memory newStudent */\n      tag_79\n      jump\t// in(tag_80)\n    tag_79:\n        /* \"contracts/Box.sol\":1182:1185  100 */\n      0x64\n        /* \"contracts/Box.sol\":1174:1179  score */\n      dup4\n        /* \"contracts/Box.sol\":1174:1185  score > 100 */\n      gt\n        /* \"contracts/Box.sol\":1166:1186  require(score > 100) */\n      iszero\n      iszero\n      tag_82\n      jumpi\n      0x0\n      dup1\n      revert\n    tag_82:\n        /* \"contracts/Box.sol\":1225:1547  Student({\r... */\n      0x120\n      mload(0x40)\n      swap1\n      dup2\n      add\n      0x40\n      mstore\n      dup1\n        /* \"contracts/Box.sol\":1253:1261  students */\n      0x1\n        /* \"contracts/Box.sol\":1253:1268  students.length */\n      dup1\n      sload\n      swap1\n      pop\n        /* \"contracts/Box.sol\":1225:1547  Student({\r... */\n      dup2\n      mstore\n      0x20\n      add\n        /* \"contracts/Box.sol\":1288:1292  name */\n      dup7\n        /* \"contracts/Box.sol\":1225:1547  Student({\r... */\n      dup2\n      mstore\n      0x20\n      add\n        /* \"contracts/Box.sol\":1314:1320  rollNo */\n      dup6\n        /* \"contracts/Box.sol\":1225:1547  Student({\r... */\n      dup2\n      mstore\n      0x20\n      add\n        /* \"contracts/Box.sol\":1339:1342  dob */\n      dup4\n        /* \"contracts/Box.sol\":1225:1547  Student({\r... */\n      dup2\n      mstore\n      0x20\n      add\n        /* \"contracts/Box.sol\":1363:1368  score */\n      dup5\n        /* \"contracts/Box.sol\":1225:1547  Student({\r... */\n      dup2\n      mstore\n      0x20\n      add\n        /* \"contracts/Box.sol\":1392:1397  false */\n      0x0\n        /* \"contracts/Box.sol\":1225:1547  Student({\r... */\n      iszero\n      iszero\n      dup2\n      mstore\n      0x20\n      add\n        /* \"contracts/Box.sol\":1427:1437  msg.sender */\n      caller\n        /* \"contracts/Box.sol\":1225:1547  Student({\r... */\n      0xffffffffffffffffffffffffffffffffffffffff\n      and\n      dup2\n      mstore\n      0x20\n      add\n        /* \"contracts/Box.sol\":1459:1478  1000000000000000000 */\n      0xde0b6b3a7640000\n        /* \"contracts/Box.sol\":1225:1547  Student({\r... */\n      dup2\n      mstore\n      0x20\n      add\n        /* \"contracts/Box.sol\":1512:1528  block.difficulty */\n      difficulty\n        /* \"contracts/Box.sol\":1530:1533  now */\n      timestamp\n        /* \"contracts/Box.sol\":1502:1534  keccak256(block.difficulty, now) */\n      mload(0x40)\n      dup1\n      dup4\n      dup2\n      mstore\n      0x20\n      add\n      dup3\n      dup2\n      mstore\n      0x20\n      add\n      swap3\n      pop\n      pop\n      pop\n      mload(0x40)\n      dup1\n      swap2\n      sub\n      swap1\n      keccak256\n        /* \"contracts/Box.sol\":1497:1535  uint(keccak256(block.difficulty, now)) */\n      0x1\n      swap1\n      div\n        /* \"contracts/Box.sol\":1225:1547  Student({\r... */\n      dup2\n      mstore\n      pop\n        /* \"contracts/Box.sol\":1197:1547  Student memory newStudent = Student({\r... */\n      swap1\n      pop\n        /* \"contracts/Box.sol\":1558:1566  students */\n      0x1\n        /* \"contracts/Box.sol\":1558:1583  students.push(newStudent) */\n      dup1\n      sload\n      dup1\n      0x1\n      add\n      dup3\n      dup2\n      tag_83\n      swap2\n      swap1\n      jump\t// in(tag_84)\n    tag_83:\n      swap2\n      0x0\n      mstore\n      keccak256(0x0, 0x20)\n      swap1\n      0x8\n      mul\n      add\n      0x0\n        /* \"contracts/Box.sol\":1572:1582  newStudent */\n      dup4\n        /* \"contracts/Box.sol\":1558:1583  students.push(newStudent) */\n      swap1\n      swap2\n      swap1\n      swap2\n      pop\n      0x0\n      dup3\n      add\n      mload\n      dup2\n      0x0\n      add\n      sstore\n      0x20\n      dup3\n      add\n      mload\n      dup2\n      0x1\n      add\n      swap1\n      dup1\n      mload\n      swap1\n      0x20\n      add\n      swap1\n      tag_86\n      swap3\n      swap2\n      swap1\n      jump\t// in(tag_87)\n    tag_86:\n      pop\n      0x40\n      dup3\n      add\n      mload\n      dup2\n      0x2\n      add\n      sstore\n      0x60\n      dup3\n      add\n      mload\n      dup2\n      0x3\n      add\n      swap1\n      dup1\n      mload\n      swap1\n      0x20\n      add\n      swap1\n      tag_88\n      swap3\n      swap2\n      swap1\n      jump\t// in(tag_87)\n    tag_88:\n      pop\n      0x80\n      dup3\n      add\n      mload\n      dup2\n      0x4\n      add\n      sstore\n      0xa0\n      dup3\n      add\n      mload\n      dup2\n      0x5\n      add\n      exp(0x100, 0x0)\n      dup2\n      sload\n      dup2\n      0xff\n      mul\n      not\n      and\n      swap1\n      dup4\n      iszero\n      iszero\n      mul\n      or\n      swap1\n      sstore\n      pop\n      0xc0\n      dup3\n      add\n      mload\n      dup2\n      0x5\n      add\n      exp(0x100, 0x1)\n      dup2\n      sload\n      dup2\n      0xffffffffffffffffffffffffffffffffffffffff\n      mul\n      not\n      and\n      swap1\n      dup4\n      0xffffffffffffffffffffffffffffffffffffffff\n      and\n      mul\n      or\n      swap1\n      sstore\n      pop\n      0xe0\n      dup3\n      add\n      mload\n      dup2\n      0x6\n      add\n      sstore\n      0x100\n      dup3\n      add\n      mload\n      dup2\n      0x7\n      add\n      sstore\n      pop\n      pop\n      pop\n        /* \"contracts/Box.sol\":1065:1591  function registerStudent(string name, uint rollNo, uint score, string dob) public payable {\r... */\n      pop\n      pop\n      pop\n      pop\n      pop\n      jump\t// out\n        /* \"contracts/Box.sol\":508:540  address[] public rechargeAddress */\n    tag_43:\n      0x3\n      dup2\n      dup2\n      sload\n      dup2\n      lt\n      iszero\n      iszero\n      tag_89\n      jumpi\n      invalid\n    tag_89:\n      swap1\n      0x0\n      mstore\n      keccak256(0x0, 0x20)\n      swap1\n      add\n      0x0\n      swap2\n      pop\n      sload\n      swap1\n      0x100\n      exp\n      swap1\n      div\n      0xffffffffffffffffffffffffffffffffffffffff\n      and\n      dup2\n      jump\t// out\n        /* \"contracts/Box.sol\":613:631  uint public amount */\n    tag_47:\n      sload(0x6)\n      dup2\n      jump\t// out\n        /* \"contracts/Box.sol\":582:606  uint public minimumScore */\n    tag_51:\n      sload(0x5)\n      dup2\n      jump\t// out\n        /* \"contracts/Box.sol\":957:1057  function getListOfDepositors() public view returns (Depositer[]) {\r... */\n    tag_55:\n        /* \"contracts/Box.sol\":1009:1020  Depositer[] */\n      tag_91\n      jump\t// in(tag_92)\n    tag_91:\n        /* \"contracts/Box.sol\":1040:1049  depositer */\n      0x0\n        /* \"contracts/Box.sol\":1033:1049  return depositer */\n      dup1\n      sload\n      dup1\n      0x20\n      mul\n      0x20\n      add\n      mload(0x40)\n      swap1\n      dup2\n      add\n      0x40\n      mstore\n      dup1\n      swap3\n      swap2\n      swap1\n      dup2\n      dup2\n      mstore\n      0x20\n      add\n      0x0\n      swap1\n    tag_94:\n      dup3\n      dup3\n      lt\n      iszero\n      tag_95\n      jumpi\n      dup4\n      dup3\n      swap1\n      0x0\n      mstore\n      keccak256(0x0, 0x20)\n      swap1\n      0x2\n      mul\n      add\n      0x40\n      dup1\n      mload\n      swap1\n      dup2\n      add\n      0x40\n      mstore\n      swap1\n      dup2\n      0x0\n      dup3\n      add\n      sload\n      dup2\n      mstore\n      0x20\n      add\n      0x1\n      dup3\n      add\n      0x0\n      swap1\n      sload\n      swap1\n      0x100\n      exp\n      swap1\n      div\n      0xffffffffffffffffffffffffffffffffffffffff\n      and\n      0xffffffffffffffffffffffffffffffffffffffff\n      and\n      0xffffffffffffffffffffffffffffffffffffffff\n      and\n      dup2\n      mstore\n      pop\n      pop\n      dup2\n      mstore\n      0x20\n      add\n      swap1\n      0x1\n      add\n      swap1\n      jump(tag_94)\n    tag_95:\n      pop\n      pop\n      pop\n      pop\n      swap1\n      pop\n        /* \"contracts/Box.sol\":957:1057  function getListOfDepositors() public view returns (Depositer[]) {\r... */\n      swap1\n      jump\t// out\n        /* \"contracts/Box.sol\":644:723  function Scholarship() public {\r... */\n    tag_60:\n        /* \"contracts/Box.sol\":695:705  msg.sender */\n      caller\n        /* \"contracts/Box.sol\":685:692  manager */\n      0x2\n      0x0\n        /* \"contracts/Box.sol\":685:705  manager = msg.sender */\n      0x100\n      exp\n      dup2\n      sload\n      dup2\n      0xffffffffffffffffffffffffffffffffffffffff\n      mul\n      not\n      and\n      swap1\n      dup4\n      0xffffffffffffffffffffffffffffffffffffffff\n      and\n      mul\n      or\n      swap1\n      sstore\n      pop\n        /* \"contracts/Box.sol\":644:723  function Scholarship() public {\r... */\n      jump\t// out\n        /* \"contracts/Box.sol\":734:949  function enter() public payable {\r... */\n    tag_62:\n        /* \"contracts/Box.sol\":776:805  Depositer memory newDepositer */\n      tag_98\n      jump\t// in(tag_99)\n    tag_98:\n        /* \"contracts/Box.sol\":808:903  Depositer({\r... */\n      0x40\n      dup1\n      mload\n      swap1\n      dup2\n      add\n      0x40\n      mstore\n      dup1\n        /* \"contracts/Box.sol\":840:849  msg.value */\n      callvalue\n        /* \"contracts/Box.sol\":808:903  Depositer({\r... */\n      dup2\n      mstore\n      0x20\n      add\n        /* \"contracts/Box.sol\":881:891  msg.sender */\n      caller\n        /* \"contracts/Box.sol\":808:903  Depositer({\r... */\n      0xffffffffffffffffffffffffffffffffffffffff\n      and\n      dup2\n      mstore\n      pop\n        /* \"contracts/Box.sol\":776:903  Depositer memory newDepositer = Depositer({\r... */\n      swap1\n      pop\n        /* \"contracts/Box.sol\":913:922  depositer */\n      0x0\n        /* \"contracts/Box.sol\":913:941  depositer.push(newDepositer) */\n      dup1\n      sload\n      dup1\n      0x1\n      add\n      dup3\n      dup2\n      tag_101\n      swap2\n      swap1\n      jump\t// in(tag_102)\n    tag_101:\n      swap2\n      0x0\n      mstore\n      keccak256(0x0, 0x20)\n      swap1\n      0x2\n      mul\n      add\n      0x0\n        /* \"contracts/Box.sol\":928:940  newDepositer */\n      dup4\n        /* \"contracts/Box.sol\":913:941  depositer.push(newDepositer) */\n      swap1\n      swap2\n      swap1\n      swap2\n      pop\n      0x0\n      dup3\n      add\n      mload\n      dup2\n      0x0\n      add\n      sstore\n      0x20\n      dup3\n      add\n      mload\n      dup2\n      0x1\n      add\n      exp(0x100, 0x0)\n      dup2\n      sload\n      dup2\n      0xffffffffffffffffffffffffffffffffffffffff\n      mul\n      not\n      and\n      swap1\n      dup4\n      0xffffffffffffffffffffffffffffffffffffffff\n      and\n      mul\n      or\n      swap1\n      sstore\n      pop\n      pop\n      pop\n      pop\n        /* \"contracts/Box.sol\":734:949  function enter() public payable {\r... */\n      pop\n      jump\t// out\n        /* \"contracts/Box.sol\":63:1793  contract Box {\r... */\n    tag_66:\n      0x20\n      mload(0x40)\n      swap1\n      dup2\n      add\n      0x40\n      mstore\n      dup1\n      0x0\n      dup2\n      mstore\n      pop\n      swap1\n      jump\t// out\n    tag_80:\n      0x120\n      mload(0x40)\n      swap1\n      dup2\n      add\n      0x40\n      mstore\n      dup1\n      0x0\n      dup2\n      mstore\n      0x20\n      add\n      tag_104\n      jump\t// in(tag_105)\n    tag_104:\n      dup2\n      mstore\n      0x20\n      add\n      0x0\n      dup2\n      mstore\n      0x20\n      add\n      tag_106\n      jump\t// in(tag_105)\n    tag_106:\n      dup2\n      mstore\n      0x20\n      add\n      0x0\n      dup2\n      mstore\n      0x20\n      add\n      iszero(iszero(0x0))\n      dup2\n      mstore\n      0x20\n      add\n      and(0xffffffffffffffffffffffffffffffffffffffff, 0x0)\n      dup2\n      mstore\n      0x20\n      add\n      0x0\n      dup2\n      mstore\n      0x20\n      add\n      0x0\n      dup2\n      mstore\n      pop\n      swap1\n      jump\t// out\n    tag_84:\n      dup2\n      sload\n      dup2\n      dup4\n      sstore\n      dup2\n      dup2\n      iszero\n      gt\n      tag_107\n      jumpi\n      0x8\n      mul\n      dup2\n      0x8\n      mul\n      dup4\n      0x0\n      mstore\n      keccak256(0x0, 0x20)\n      swap2\n      dup3\n      add\n      swap2\n      add\n      tag_108\n      swap2\n      swap1\n      jump\t// in(tag_109)\n    tag_108:\n    tag_107:\n      pop\n      pop\n      pop\n      jump\t// out\n    tag_87:\n      dup3\n      dup1\n      sload\n      0x1\n      dup2\n      0x1\n      and\n      iszero\n      0x100\n      mul\n      sub\n      and\n      0x2\n      swap1\n      div\n      swap1\n      0x0\n      mstore\n      keccak256(0x0, 0x20)\n      swap1\n      0x1f\n      add\n      0x20\n      swap1\n      div\n      dup2\n      add\n      swap3\n      dup3\n      0x1f\n      lt\n      tag_111\n      jumpi\n      dup1\n      mload\n      not(0xff)\n      and\n      dup4\n      dup1\n      add\n      or\n      dup6\n      sstore\n      jump(tag_110)\n    tag_111:\n      dup3\n      dup1\n      add\n      0x1\n      add\n      dup6\n      sstore\n      dup3\n      iszero\n      tag_110\n      jumpi\n      swap2\n      dup3\n      add\n    tag_112:\n      dup3\n      dup2\n      gt\n      iszero\n      tag_113\n      jumpi\n      dup3\n      mload\n      dup3\n      sstore\n      swap2\n      0x20\n      add\n      swap2\n      swap1\n      0x1\n      add\n      swap1\n      jump(tag_112)\n    tag_113:\n    tag_110:\n      pop\n      swap1\n      pop\n      tag_114\n      swap2\n      swap1\n      jump\t// in(tag_115)\n    tag_114:\n      pop\n      swap1\n      jump\t// out\n    tag_92:\n      0x20\n      mload(0x40)\n      swap1\n      dup2\n      add\n      0x40\n      mstore\n      dup1\n      0x0\n      dup2\n      mstore\n      pop\n      swap1\n      jump\t// out\n    tag_99:\n      0x40\n      dup1\n      mload\n      swap1\n      dup2\n      add\n      0x40\n      mstore\n      dup1\n      0x0\n      dup2\n      mstore\n      0x20\n      add\n      and(0xffffffffffffffffffffffffffffffffffffffff, 0x0)\n      dup2\n      mstore\n      pop\n      swap1\n      jump\t// out\n    tag_102:\n      dup2\n      sload\n      dup2\n      dup4\n      sstore\n      dup2\n      dup2\n      iszero\n      gt\n      tag_116\n      jumpi\n      0x2\n      mul\n      dup2\n      0x2\n      mul\n      dup4\n      0x0\n      mstore\n      keccak256(0x0, 0x20)\n      swap2\n      dup3\n      add\n      swap2\n      add\n      tag_117\n      swap2\n      swap1\n      jump\t// in(tag_118)\n    tag_117:\n    tag_116:\n      pop\n      pop\n      pop\n      jump\t// out\n    tag_105:\n      0x20\n      mload(0x40)\n      swap1\n      dup2\n      add\n      0x40\n      mstore\n      dup1\n      0x0\n      dup2\n      mstore\n      pop\n      swap1\n      jump\t// out\n    tag_109:\n      tag_119\n      swap2\n      swap1\n    tag_120:\n      dup1\n      dup3\n      gt\n      iszero\n      tag_121\n      jumpi\n      0x0\n      dup1\n      dup3\n      add\n      0x0\n      swap1\n      sstore\n      0x1\n      dup3\n      add\n      0x0\n      tag_122\n      swap2\n      swap1\n      jump\t// in(tag_123)\n    tag_122:\n      0x2\n      dup3\n      add\n      0x0\n      swap1\n      sstore\n      0x3\n      dup3\n      add\n      0x0\n      tag_124\n      swap2\n      swap1\n      jump\t// in(tag_123)\n    tag_124:\n      0x4\n      dup3\n      add\n      0x0\n      swap1\n      sstore\n      0x5\n      dup3\n      add\n      exp(0x100, 0x0)\n      dup2\n      sload\n      swap1\n      0xff\n      mul\n      not\n      and\n      swap1\n      sstore\n      0x5\n      dup3\n      add\n      exp(0x100, 0x1)\n      dup2\n      sload\n      swap1\n      0xffffffffffffffffffffffffffffffffffffffff\n      mul\n      not\n      and\n      swap1\n      sstore\n      0x6\n      dup3\n      add\n      0x0\n      swap1\n      sstore\n      0x7\n      dup3\n      add\n      0x0\n      swap1\n      sstore\n      pop\n      0x8\n      add\n      jump(tag_120)\n    tag_121:\n      pop\n      swap1\n      jump\n    tag_119:\n      swap1\n      jump\t// out\n    tag_115:\n      tag_125\n      swap2\n      swap1\n    tag_126:\n      dup1\n      dup3\n      gt\n      iszero\n      tag_127\n      jumpi\n      0x0\n      dup2\n      0x0\n      swap1\n      sstore\n      pop\n      0x1\n      add\n      jump(tag_126)\n    tag_127:\n      pop\n      swap1\n      jump\n    tag_125:\n      swap1\n      jump\t// out\n    tag_118:\n      tag_128\n      swap2\n      swap1\n    tag_129:\n      dup1\n      dup3\n      gt\n      iszero\n      tag_130\n      jumpi\n      0x0\n      dup1\n      dup3\n      add\n      0x0\n      swap1\n      sstore\n      0x1\n      dup3\n      add\n      exp(0x100, 0x0)\n      dup2\n      sload\n      swap1\n      0xffffffffffffffffffffffffffffffffffffffff\n      mul\n      not\n      and\n      swap1\n      sstore\n      pop\n      0x2\n      add\n      jump(tag_129)\n    tag_130:\n      pop\n      swap1\n      jump\n    tag_128:\n      swap1\n      jump\t// out\n    tag_123:\n      pop\n      dup1\n      sload\n      0x1\n      dup2\n      0x1\n      and\n      iszero\n      0x100\n      mul\n      sub\n      and\n      0x2\n      swap1\n      div\n      0x0\n      dup3\n      sstore\n      dup1\n      0x1f\n      lt\n      tag_132\n      jumpi\n      pop\n      jump(tag_131)\n    tag_132:\n      0x1f\n      add\n      0x20\n      swap1\n      div\n      swap1\n      0x0\n      mstore\n      keccak256(0x0, 0x20)\n      swap1\n      dup2\n      add\n      swap1\n      tag_133\n      swap2\n      swap1\n      jump\t// in(tag_115)\n    tag_133:\n    tag_131:\n      pop\n      jump\t// out\n        /* \"--CODEGEN--\":5:115   */\n    tag_135:\n        /* \"--CODEGEN--\":78:109   */\n      tag_136\n        /* \"--CODEGEN--\":103:108   */\n      dup2\n        /* \"--CODEGEN--\":78:109   */\n      jump(tag_137)\n    tag_136:\n        /* \"--CODEGEN--\":73:76   */\n      dup3\n        /* \"--CODEGEN--\":66:72   */\n      mstore\n        /* \"--CODEGEN--\":60:115   */\n      pop\n      pop\n      jump\n        /* \"--CODEGEN--\":123:864   */\n    tag_139:\n      0x0\n        /* \"--CODEGEN--\":300:375   */\n      tag_140\n        /* \"--CODEGEN--\":369:374   */\n      dup3\n        /* \"--CODEGEN--\":300:375   */\n      jump(tag_141)\n    tag_140:\n        /* \"--CODEGEN--\":393:399   */\n      dup1\n        /* \"--CODEGEN--\":388:391   */\n      dup5\n        /* \"--CODEGEN--\":381:387   */\n      mstore\n        /* \"--CODEGEN--\":417:421   */\n      0x20\n        /* \"--CODEGEN--\":412:415   */\n      dup5\n        /* \"--CODEGEN--\":408:411   */\n      add\n        /* \"--CODEGEN--\":401:422   */\n      swap4\n      pop\n        /* \"--CODEGEN--\":462:539   */\n      tag_142\n        /* \"--CODEGEN--\":533:538   */\n      dup4\n        /* \"--CODEGEN--\":462:539   */\n      jump(tag_143)\n    tag_142:\n        /* \"--CODEGEN--\":560:561   */\n      0x0\n        /* \"--CODEGEN--\":545:842   */\n    tag_144:\n        /* \"--CODEGEN--\":570:576   */\n      dup3\n        /* \"--CODEGEN--\":567:568   */\n      dup2\n        /* \"--CODEGEN--\":564:566   */\n      lt\n        /* \"--CODEGEN--\":545:842   */\n      iszero\n      tag_145\n      jumpi\n        /* \"--CODEGEN--\":610:709   */\n      tag_147\n        /* \"--CODEGEN--\":705:708   */\n      dup7\n        /* \"--CODEGEN--\":696:702   */\n      dup4\n        /* \"--CODEGEN--\":690:695   */\n      mload\n        /* \"--CODEGEN--\":610:709   */\n      jump(tag_148)\n    tag_147:\n        /* \"--CODEGEN--\":726:807   */\n      tag_149\n        /* \"--CODEGEN--\":800:806   */\n      dup3\n        /* \"--CODEGEN--\":726:807   */\n      jump(tag_150)\n    tag_149:\n        /* \"--CODEGEN--\":716:807   */\n      swap2\n      pop\n        /* \"--CODEGEN--\":830:834   */\n      0x40\n        /* \"--CODEGEN--\":825:828   */\n      dup7\n        /* \"--CODEGEN--\":821:824   */\n      add\n        /* \"--CODEGEN--\":814:835   */\n      swap6\n      pop\n        /* \"--CODEGEN--\":592:593   */\n      0x1\n        /* \"--CODEGEN--\":589:590   */\n      dup2\n        /* \"--CODEGEN--\":585:588   */\n      add\n        /* \"--CODEGEN--\":580:594   */\n      swap1\n      pop\n        /* \"--CODEGEN--\":545:842   */\n      jump(tag_144)\n    tag_145:\n        /* \"--CODEGEN--\":549:563   */\n      pop\n        /* \"--CODEGEN--\":855:858   */\n      dup5\n        /* \"--CODEGEN--\":848:858   */\n      swap3\n      pop\n        /* \"--CODEGEN--\":279:864   */\n      pop\n      pop\n      swap3\n      swap2\n      pop\n      pop\n      jump\n        /* \"--CODEGEN--\":873:1738   */\n    tag_152:\n      0x0\n        /* \"--CODEGEN--\":1046:1119   */\n      tag_153\n        /* \"--CODEGEN--\":1113:1118   */\n      dup3\n        /* \"--CODEGEN--\":1046:1119   */\n      jump(tag_154)\n    tag_153:\n        /* \"--CODEGEN--\":1137:1143   */\n      dup1\n        /* \"--CODEGEN--\":1132:1135   */\n      dup5\n        /* \"--CODEGEN--\":1125:1131   */\n      mstore\n        /* \"--CODEGEN--\":1161:1165   */\n      0x20\n        /* \"--CODEGEN--\":1156:1159   */\n      dup5\n        /* \"--CODEGEN--\":1152:1155   */\n      add\n        /* \"--CODEGEN--\":1145:1166   */\n      swap4\n      pop\n        /* \"--CODEGEN--\":1209:1212   */\n      dup4\n        /* \"--CODEGEN--\":1251:1255   */\n      0x20\n        /* \"--CODEGEN--\":1243:1249   */\n      dup3\n        /* \"--CODEGEN--\":1239:1242   */\n      mul\n        /* \"--CODEGEN--\":1234:1237   */\n      dup6\n        /* \"--CODEGEN--\":1230:1233   */\n      add\n        /* \"--CODEGEN--\":1277:1352   */\n      tag_155\n        /* \"--CODEGEN--\":1346:1351   */\n      dup6\n        /* \"--CODEGEN--\":1277:1352   */\n      jump(tag_156)\n    tag_155:\n        /* \"--CODEGEN--\":1373:1374   */\n      0x0\n        /* \"--CODEGEN--\":1358:1699   */\n    tag_157:\n        /* \"--CODEGEN--\":1383:1389   */\n      dup5\n        /* \"--CODEGEN--\":1380:1381   */\n      dup2\n        /* \"--CODEGEN--\":1377:1379   */\n      lt\n        /* \"--CODEGEN--\":1358:1699   */\n      iszero\n      tag_158\n      jumpi\n        /* \"--CODEGEN--\":1445:1454   */\n      dup4\n        /* \"--CODEGEN--\":1439:1443   */\n      dup4\n        /* \"--CODEGEN--\":1435:1438   */\n      sub\n        /* \"--CODEGEN--\":1430:1433   */\n      dup9\n        /* \"--CODEGEN--\":1423:1429   */\n      mstore\n        /* \"--CODEGEN--\":1471:1567   */\n      tag_160\n        /* \"--CODEGEN--\":1562:1566   */\n      dup4\n        /* \"--CODEGEN--\":1553:1559   */\n      dup4\n        /* \"--CODEGEN--\":1547:1552   */\n      mload\n        /* \"--CODEGEN--\":1471:1567   */\n      jump(tag_161)\n    tag_160:\n        /* \"--CODEGEN--\":1463:1567   */\n      swap3\n      pop\n        /* \"--CODEGEN--\":1584:1663   */\n      tag_162\n        /* \"--CODEGEN--\":1656:1662   */\n      dup3\n        /* \"--CODEGEN--\":1584:1663   */\n      jump(tag_163)\n    tag_162:\n        /* \"--CODEGEN--\":1574:1663   */\n      swap2\n      pop\n        /* \"--CODEGEN--\":1686:1691   */\n      0x120\n        /* \"--CODEGEN--\":1681:1684   */\n      dup9\n        /* \"--CODEGEN--\":1677:1680   */\n      add\n        /* \"--CODEGEN--\":1670:1692   */\n      swap8\n      pop\n        /* \"--CODEGEN--\":1405:1406   */\n      0x1\n        /* \"--CODEGEN--\":1402:1403   */\n      dup2\n        /* \"--CODEGEN--\":1398:1401   */\n      add\n        /* \"--CODEGEN--\":1393:1407   */\n      swap1\n      pop\n        /* \"--CODEGEN--\":1358:1699   */\n      jump(tag_157)\n    tag_158:\n        /* \"--CODEGEN--\":1362:1376   */\n      pop\n        /* \"--CODEGEN--\":1712:1716   */\n      dup2\n        /* \"--CODEGEN--\":1705:1716   */\n      swap7\n      pop\n        /* \"--CODEGEN--\":1729:1732   */\n      dup7\n        /* \"--CODEGEN--\":1722:1732   */\n      swap5\n      pop\n        /* \"--CODEGEN--\":1025:1738   */\n      pop\n      pop\n      pop\n      pop\n      swap3\n      swap2\n      pop\n      pop\n      jump\n        /* \"--CODEGEN--\":1746:1847   */\n    tag_165:\n        /* \"--CODEGEN--\":1813:1841   */\n      tag_166\n        /* \"--CODEGEN--\":1835:1840   */\n      dup2\n        /* \"--CODEGEN--\":1813:1841   */\n      jump(tag_167)\n    tag_166:\n        /* \"--CODEGEN--\":1808:1811   */\n      dup3\n        /* \"--CODEGEN--\":1801:1807   */\n      mstore\n        /* \"--CODEGEN--\":1795:1847   */\n      pop\n      pop\n      jump\n        /* \"--CODEGEN--\":1854:2146   */\n    tag_169:\n      0x0\n        /* \"--CODEGEN--\":1952:1987   */\n      tag_170\n        /* \"--CODEGEN--\":1981:1986   */\n      dup3\n        /* \"--CODEGEN--\":1952:1987   */\n      jump(tag_171)\n    tag_170:\n        /* \"--CODEGEN--\":2004:2010   */\n      dup1\n        /* \"--CODEGEN--\":1999:2002   */\n      dup5\n        /* \"--CODEGEN--\":1992:1998   */\n      mstore\n        /* \"--CODEGEN--\":2016:2079   */\n      tag_172\n        /* \"--CODEGEN--\":2072:2078   */\n      dup2\n        /* \"--CODEGEN--\":2065:2069   */\n      0x20\n        /* \"--CODEGEN--\":2060:2063   */\n      dup7\n        /* \"--CODEGEN--\":2056:2059   */\n      add\n        /* \"--CODEGEN--\":2049:2053   */\n      0x20\n        /* \"--CODEGEN--\":2042:2047   */\n      dup7\n        /* \"--CODEGEN--\":2038:2041   */\n      add\n        /* \"--CODEGEN--\":2016:2079   */\n      jump(tag_173)\n    tag_172:\n        /* \"--CODEGEN--\":2111:2140   */\n      tag_174\n        /* \"--CODEGEN--\":2133:2139   */\n      dup2\n        /* \"--CODEGEN--\":2111:2140   */\n      jump(tag_175)\n    tag_174:\n        /* \"--CODEGEN--\":2104:2108   */\n      0x20\n        /* \"--CODEGEN--\":2099:2102   */\n      dup6\n        /* \"--CODEGEN--\":2095:2098   */\n      add\n        /* \"--CODEGEN--\":2091:2094   */\n      add\n        /* \"--CODEGEN--\":2084:2141   */\n      swap2\n      pop\n        /* \"--CODEGEN--\":1932:2146   */\n      pop\n      swap3\n      swap2\n      pop\n      pop\n      jump\n        /* \"--CODEGEN--\":2154:2888   */\n    tag_177:\n      0x0\n        /* \"--CODEGEN--\":2263:2268   */\n      dup2\n        /* \"--CODEGEN--\":2257:2262   */\n      sload\n        /* \"--CODEGEN--\":2297:2298   */\n      0x1\n        /* \"--CODEGEN--\":2286:2295   */\n      dup2\n        /* \"--CODEGEN--\":2282:2285   */\n      and\n        /* \"--CODEGEN--\":2310:2311   */\n      0x0\n        /* \"--CODEGEN--\":2305:2505   */\n      dup2\n      eq\n      tag_179\n      jumpi\n        /* \"--CODEGEN--\":2516:2517   */\n      0x1\n        /* \"--CODEGEN--\":2511:2882   */\n      dup2\n      eq\n      tag_180\n      jumpi\n        /* \"--CODEGEN--\":2275:2882   */\n      jump(tag_178)\n        /* \"--CODEGEN--\":2305:2505   */\n    tag_179:\n        /* \"--CODEGEN--\":2383:2387   */\n      0x7f\n        /* \"--CODEGEN--\":2379:2380   */\n      0x2\n        /* \"--CODEGEN--\":2368:2377   */\n      dup4\n        /* \"--CODEGEN--\":2364:2367   */\n      div\n        /* \"--CODEGEN--\":2360:2363   */\n      and\n        /* \"--CODEGEN--\":2407:2413   */\n      dup1\n        /* \"--CODEGEN--\":2402:2405   */\n      dup7\n        /* \"--CODEGEN--\":2395:2401   */\n      mstore\n        /* \"--CODEGEN--\":2463:2467   */\n      0xff\n        /* \"--CODEGEN--\":2459:2462   */\n      not\n        /* \"--CODEGEN--\":2448:2457   */\n      dup4\n        /* \"--CODEGEN--\":2444:2447   */\n      and\n        /* \"--CODEGEN--\":2437:2441   */\n      0x20\n        /* \"--CODEGEN--\":2432:2435   */\n      dup8\n        /* \"--CODEGEN--\":2428:2431   */\n      add\n        /* \"--CODEGEN--\":2421:2427   */\n      mstore\n        /* \"--CODEGEN--\":2493:2497   */\n      0x40\n        /* \"--CODEGEN--\":2488:2491   */\n      dup7\n        /* \"--CODEGEN--\":2484:2487   */\n      add\n        /* \"--CODEGEN--\":2477:2498   */\n      swap4\n      pop\n        /* \"--CODEGEN--\":2312:2505   */\n      pop\n        /* \"--CODEGEN--\":2305:2505   */\n      jump(tag_178)\n        /* \"--CODEGEN--\":2511:2882   */\n    tag_180:\n        /* \"--CODEGEN--\":2580:2581   */\n      0x2\n        /* \"--CODEGEN--\":2569:2578   */\n      dup3\n        /* \"--CODEGEN--\":2565:2568   */\n      div\n        /* \"--CODEGEN--\":2601:2607   */\n      dup1\n        /* \"--CODEGEN--\":2596:2599   */\n      dup7\n        /* \"--CODEGEN--\":2589:2595   */\n      mstore\n        /* \"--CODEGEN--\":2631:2635   */\n      0x20\n        /* \"--CODEGEN--\":2626:2629   */\n      dup7\n        /* \"--CODEGEN--\":2622:2625   */\n      add\n        /* \"--CODEGEN--\":2615:2636   */\n      swap6\n      pop\n        /* \"--CODEGEN--\":2658:2696   */\n      tag_181\n        /* \"--CODEGEN--\":2690:2695   */\n      dup6\n        /* \"--CODEGEN--\":2658:2696   */\n      jump(tag_182)\n    tag_181:\n        /* \"--CODEGEN--\":2712:2713   */\n      0x0\n        /* \"--CODEGEN--\":2720:2850   */\n    tag_183:\n        /* \"--CODEGEN--\":2734:2740   */\n      dup3\n        /* \"--CODEGEN--\":2731:2732   */\n      dup2\n        /* \"--CODEGEN--\":2728:2730   */\n      lt\n        /* \"--CODEGEN--\":2720:2850   */\n      iszero\n      tag_184\n      jumpi\n        /* \"--CODEGEN--\":2799:2806   */\n      dup2\n        /* \"--CODEGEN--\":2793:2798   */\n      sload\n        /* \"--CODEGEN--\":2789:2790   */\n      dup2\n        /* \"--CODEGEN--\":2784:2787   */\n      dup10\n        /* \"--CODEGEN--\":2780:2783   */\n      add\n        /* \"--CODEGEN--\":2773:2779   */\n      mstore\n        /* \"--CODEGEN--\":2840:2841   */\n      0x1\n        /* \"--CODEGEN--\":2831:2838   */\n      dup3\n        /* \"--CODEGEN--\":2827:2830   */\n      add\n        /* \"--CODEGEN--\":2816:2842   */\n      swap2\n      pop\n        /* \"--CODEGEN--\":2756:2760   */\n      0x20\n        /* \"--CODEGEN--\":2753:2754   */\n      dup2\n        /* \"--CODEGEN--\":2749:2752   */\n      add\n        /* \"--CODEGEN--\":2744:2761   */\n      swap1\n      pop\n        /* \"--CODEGEN--\":2720:2850   */\n      jump(tag_183)\n    tag_184:\n        /* \"--CODEGEN--\":2873:2874   */\n      dup1\n        /* \"--CODEGEN--\":2868:2871   */\n      dup9\n        /* \"--CODEGEN--\":2864:2867   */\n      add\n        /* \"--CODEGEN--\":2857:2875   */\n      swap6\n      pop\n        /* \"--CODEGEN--\":2518:2882   */\n      pop\n      pop\n      pop\n        /* \"--CODEGEN--\":2275:2882   */\n    tag_178:\n      pop\n        /* \"--CODEGEN--\":2233:2888   */\n      pop\n      swap3\n      swap2\n      pop\n      pop\n      jump\n        /* \"--CODEGEN--\":2896:3398   */\n    tag_148:\n        /* \"--CODEGEN--\":3025:3029   */\n      0x40\n        /* \"--CODEGEN--\":3020:3023   */\n      dup3\n        /* \"--CODEGEN--\":3016:3019   */\n      add\n        /* \"--CODEGEN--\":3113:3116   */\n      0x0\n        /* \"--CODEGEN--\":3106:3111   */\n      dup3\n        /* \"--CODEGEN--\":3102:3105   */\n      add\n        /* \"--CODEGEN--\":3096:3101   */\n      mload\n        /* \"--CODEGEN--\":3130:3191   */\n      tag_187\n        /* \"--CODEGEN--\":3186:3189   */\n      0x0\n        /* \"--CODEGEN--\":3181:3184   */\n      dup6\n        /* \"--CODEGEN--\":3177:3180   */\n      add\n        /* \"--CODEGEN--\":3164:3175   */\n      dup3\n        /* \"--CODEGEN--\":3130:3191   */\n      jump(tag_188)\n    tag_187:\n        /* \"--CODEGEN--\":3045:3203   */\n      pop\n        /* \"--CODEGEN--\":3291:3295   */\n      0x20\n        /* \"--CODEGEN--\":3284:3289   */\n      dup3\n        /* \"--CODEGEN--\":3280:3283   */\n      add\n        /* \"--CODEGEN--\":3274:3279   */\n      mload\n        /* \"--CODEGEN--\":3309:3371   */\n      tag_189\n        /* \"--CODEGEN--\":3365:3369   */\n      0x20\n        /* \"--CODEGEN--\":3360:3363   */\n      dup6\n        /* \"--CODEGEN--\":3356:3359   */\n      add\n        /* \"--CODEGEN--\":3343:3354   */\n      dup3\n        /* \"--CODEGEN--\":3309:3371   */\n      jump(tag_135)\n    tag_189:\n        /* \"--CODEGEN--\":3213:3383   */\n      pop\n        /* \"--CODEGEN--\":2998:3398   */\n      pop\n      pop\n      pop\n      jump\n        /* \"--CODEGEN--\":3405:5216   */\n    tag_161:\n      0x0\n        /* \"--CODEGEN--\":3538:3543   */\n      0x120\n        /* \"--CODEGEN--\":3533:3536   */\n      dup4\n        /* \"--CODEGEN--\":3529:3532   */\n      add\n        /* \"--CODEGEN--\":3625:3628   */\n      0x0\n        /* \"--CODEGEN--\":3618:3623   */\n      dup4\n        /* \"--CODEGEN--\":3614:3617   */\n      add\n        /* \"--CODEGEN--\":3608:3613   */\n      mload\n        /* \"--CODEGEN--\":3642:3703   */\n      tag_191\n        /* \"--CODEGEN--\":3698:3701   */\n      0x0\n        /* \"--CODEGEN--\":3693:3696   */\n      dup7\n        /* \"--CODEGEN--\":3689:3692   */\n      add\n        /* \"--CODEGEN--\":3676:3687   */\n      dup3\n        /* \"--CODEGEN--\":3642:3703   */\n      jump(tag_188)\n    tag_191:\n        /* \"--CODEGEN--\":3559:3715   */\n      pop\n        /* \"--CODEGEN--\":3791:3795   */\n      0x20\n        /* \"--CODEGEN--\":3784:3789   */\n      dup4\n        /* \"--CODEGEN--\":3780:3783   */\n      add\n        /* \"--CODEGEN--\":3774:3779   */\n      mload\n        /* \"--CODEGEN--\":3842:3845   */\n      dup5\n        /* \"--CODEGEN--\":3836:3840   */\n      dup3\n        /* \"--CODEGEN--\":3832:3835   */\n      sub\n        /* \"--CODEGEN--\":3825:3829   */\n      0x20\n        /* \"--CODEGEN--\":3820:3823   */\n      dup7\n        /* \"--CODEGEN--\":3816:3819   */\n      add\n        /* \"--CODEGEN--\":3809:3815   */\n      mstore\n        /* \"--CODEGEN--\":3862:3930   */\n      tag_192\n        /* \"--CODEGEN--\":3925:3929   */\n      dup3\n        /* \"--CODEGEN--\":3912:3923   */\n      dup3\n        /* \"--CODEGEN--\":3862:3930   */\n      jump(tag_169)\n    tag_192:\n        /* \"--CODEGEN--\":3854:3930   */\n      swap2\n      pop\n        /* \"--CODEGEN--\":3725:3942   */\n      pop\n        /* \"--CODEGEN--\":4020:4024   */\n      0x40\n        /* \"--CODEGEN--\":4013:4018   */\n      dup4\n        /* \"--CODEGEN--\":4009:4012   */\n      add\n        /* \"--CODEGEN--\":4003:4008   */\n      mload\n        /* \"--CODEGEN--\":4038:4100   */\n      tag_193\n        /* \"--CODEGEN--\":4094:4098   */\n      0x40\n        /* \"--CODEGEN--\":4089:4092   */\n      dup7\n        /* \"--CODEGEN--\":4085:4088   */\n      add\n        /* \"--CODEGEN--\":4072:4083   */\n      dup3\n        /* \"--CODEGEN--\":4038:4100   */\n      jump(tag_188)\n    tag_193:\n        /* \"--CODEGEN--\":3952:4112   */\n      pop\n        /* \"--CODEGEN--\":4187:4191   */\n      0x60\n        /* \"--CODEGEN--\":4180:4185   */\n      dup4\n        /* \"--CODEGEN--\":4176:4179   */\n      add\n        /* \"--CODEGEN--\":4170:4175   */\n      mload\n        /* \"--CODEGEN--\":4238:4241   */\n      dup5\n        /* \"--CODEGEN--\":4232:4236   */\n      dup3\n        /* \"--CODEGEN--\":4228:4231   */\n      sub\n        /* \"--CODEGEN--\":4221:4225   */\n      0x60\n        /* \"--CODEGEN--\":4216:4219   */\n      dup7\n        /* \"--CODEGEN--\":4212:4215   */\n      add\n        /* \"--CODEGEN--\":4205:4211   */\n      mstore\n        /* \"--CODEGEN--\":4258:4326   */\n      tag_194\n        /* \"--CODEGEN--\":4321:4325   */\n      dup3\n        /* \"--CODEGEN--\":4308:4319   */\n      dup3\n        /* \"--CODEGEN--\":4258:4326   */\n      jump(tag_169)\n    tag_194:\n        /* \"--CODEGEN--\":4250:4326   */\n      swap2\n      pop\n        /* \"--CODEGEN--\":4122:4338   */\n      pop\n        /* \"--CODEGEN--\":4415:4419   */\n      0x80\n        /* \"--CODEGEN--\":4408:4413   */\n      dup4\n        /* \"--CODEGEN--\":4404:4407   */\n      add\n        /* \"--CODEGEN--\":4398:4403   */\n      mload\n        /* \"--CODEGEN--\":4433:4495   */\n      tag_195\n        /* \"--CODEGEN--\":4489:4493   */\n      0x80\n        /* \"--CODEGEN--\":4484:4487   */\n      dup7\n        /* \"--CODEGEN--\":4480:4483   */\n      add\n        /* \"--CODEGEN--\":4467:4478   */\n      dup3\n        /* \"--CODEGEN--\":4433:4495   */\n      jump(tag_188)\n    tag_195:\n        /* \"--CODEGEN--\":4348:4507   */\n      pop\n        /* \"--CODEGEN--\":4587:4591   */\n      0xa0\n        /* \"--CODEGEN--\":4580:4585   */\n      dup4\n        /* \"--CODEGEN--\":4576:4579   */\n      add\n        /* \"--CODEGEN--\":4570:4575   */\n      mload\n        /* \"--CODEGEN--\":4605:4661   */\n      tag_196\n        /* \"--CODEGEN--\":4655:4659   */\n      0xa0\n        /* \"--CODEGEN--\":4650:4653   */\n      dup7\n        /* \"--CODEGEN--\":4646:4649   */\n      add\n        /* \"--CODEGEN--\":4633:4644   */\n      dup3\n        /* \"--CODEGEN--\":4605:4661   */\n      jump(tag_165)\n    tag_196:\n        /* \"--CODEGEN--\":4517:4673   */\n      pop\n        /* \"--CODEGEN--\":4759:4763   */\n      0xc0\n        /* \"--CODEGEN--\":4752:4757   */\n      dup4\n        /* \"--CODEGEN--\":4748:4751   */\n      add\n        /* \"--CODEGEN--\":4742:4747   */\n      mload\n        /* \"--CODEGEN--\":4777:4839   */\n      tag_197\n        /* \"--CODEGEN--\":4833:4837   */\n      0xc0\n        /* \"--CODEGEN--\":4828:4831   */\n      dup7\n        /* \"--CODEGEN--\":4824:4827   */\n      add\n        /* \"--CODEGEN--\":4811:4822   */\n      dup3\n        /* \"--CODEGEN--\":4777:4839   */\n      jump(tag_135)\n    tag_197:\n        /* \"--CODEGEN--\":4683:4851   */\n      pop\n        /* \"--CODEGEN--\":4929:4933   */\n      0xe0\n        /* \"--CODEGEN--\":4922:4927   */\n      dup4\n        /* \"--CODEGEN--\":4918:4921   */\n      add\n        /* \"--CODEGEN--\":4912:4917   */\n      mload\n        /* \"--CODEGEN--\":4947:5009   */\n      tag_198\n        /* \"--CODEGEN--\":5003:5007   */\n      0xe0\n        /* \"--CODEGEN--\":4998:5001   */\n      dup7\n        /* \"--CODEGEN--\":4994:4997   */\n      add\n        /* \"--CODEGEN--\":4981:4992   */\n      dup3\n        /* \"--CODEGEN--\":4947:5009   */\n      jump(tag_188)\n    tag_198:\n        /* \"--CODEGEN--\":4861:5021   */\n      pop\n        /* \"--CODEGEN--\":5096:5101   */\n      0x100\n        /* \"--CODEGEN--\":5089:5094   */\n      dup4\n        /* \"--CODEGEN--\":5085:5088   */\n      add\n        /* \"--CODEGEN--\":5079:5084   */\n      mload\n        /* \"--CODEGEN--\":5115:5178   */\n      tag_199\n        /* \"--CODEGEN--\":5171:5176   */\n      0x100\n        /* \"--CODEGEN--\":5166:5169   */\n      dup7\n        /* \"--CODEGEN--\":5162:5165   */\n      add\n        /* \"--CODEGEN--\":5149:5160   */\n      dup3\n        /* \"--CODEGEN--\":5115:5178   */\n      jump(tag_188)\n    tag_199:\n        /* \"--CODEGEN--\":5031:5190   */\n      pop\n        /* \"--CODEGEN--\":5207:5211   */\n      dup1\n        /* \"--CODEGEN--\":5200:5211   */\n      swap2\n      pop\n        /* \"--CODEGEN--\":3511:5216   */\n      pop\n      swap3\n      swap2\n      pop\n      pop\n      jump\n        /* \"--CODEGEN--\":5223:5333   */\n    tag_188:\n        /* \"--CODEGEN--\":5296:5327   */\n      tag_201\n        /* \"--CODEGEN--\":5321:5326   */\n      dup2\n        /* \"--CODEGEN--\":5296:5327   */\n      jump(tag_202)\n    tag_201:\n        /* \"--CODEGEN--\":5291:5294   */\n      dup3\n        /* \"--CODEGEN--\":5284:5290   */\n      mstore\n        /* \"--CODEGEN--\":5278:5333   */\n      pop\n      pop\n      jump\n        /* \"--CODEGEN--\":5340:5533   */\n    tag_33:\n      0x0\n        /* \"--CODEGEN--\":5448:5450   */\n      0x20\n        /* \"--CODEGEN--\":5437:5446   */\n      dup3\n        /* \"--CODEGEN--\":5433:5436   */\n      add\n        /* \"--CODEGEN--\":5425:5451   */\n      swap1\n      pop\n        /* \"--CODEGEN--\":5462:5523   */\n      tag_204\n        /* \"--CODEGEN--\":5520:5521   */\n      0x0\n        /* \"--CODEGEN--\":5509:5518   */\n      dup4\n        /* \"--CODEGEN--\":5505:5508   */\n      add\n        /* \"--CODEGEN--\":5496:5502   */\n      dup5\n        /* \"--CODEGEN--\":5462:5523   */\n      jump(tag_135)\n    tag_204:\n        /* \"--CODEGEN--\":5419:5533   */\n      swap3\n      swap2\n      pop\n      pop\n      jump\n        /* \"--CODEGEN--\":5540:5965   */\n    tag_57:\n      0x0\n        /* \"--CODEGEN--\":5740:5742   */\n      0x20\n        /* \"--CODEGEN--\":5729:5738   */\n      dup3\n        /* \"--CODEGEN--\":5725:5728   */\n      add\n        /* \"--CODEGEN--\":5717:5743   */\n      swap1\n      pop\n        /* \"--CODEGEN--\":5790:5799   */\n      dup2\n        /* \"--CODEGEN--\":5784:5788   */\n      dup2\n        /* \"--CODEGEN--\":5780:5783   */\n      sub\n        /* \"--CODEGEN--\":5776:5777   */\n      0x0\n        /* \"--CODEGEN--\":5765:5774   */\n      dup4\n        /* \"--CODEGEN--\":5761:5764   */\n      add\n        /* \"--CODEGEN--\":5754:5760   */\n      mstore\n        /* \"--CODEGEN--\":5815:5955   */\n      tag_206\n        /* \"--CODEGEN--\":5950:5954   */\n      dup2\n        /* \"--CODEGEN--\":5941:5947   */\n      dup5\n        /* \"--CODEGEN--\":5815:5955   */\n      jump(tag_139)\n    tag_206:\n        /* \"--CODEGEN--\":5807:5955   */\n      swap1\n      pop\n        /* \"--CODEGEN--\":5711:5965   */\n      swap3\n      swap2\n      pop\n      pop\n      jump\n        /* \"--CODEGEN--\":5972:6389   */\n    tag_23:\n      0x0\n        /* \"--CODEGEN--\":6168:6170   */\n      0x20\n        /* \"--CODEGEN--\":6157:6166   */\n      dup3\n        /* \"--CODEGEN--\":6153:6156   */\n      add\n        /* \"--CODEGEN--\":6145:6171   */\n      swap1\n      pop\n        /* \"--CODEGEN--\":6218:6227   */\n      dup2\n        /* \"--CODEGEN--\":6212:6216   */\n      dup2\n        /* \"--CODEGEN--\":6208:6211   */\n      sub\n        /* \"--CODEGEN--\":6204:6205   */\n      0x0\n        /* \"--CODEGEN--\":6193:6202   */\n      dup4\n        /* \"--CODEGEN--\":6189:6192   */\n      add\n        /* \"--CODEGEN--\":6182:6188   */\n      mstore\n        /* \"--CODEGEN--\":6243:6379   */\n      tag_208\n        /* \"--CODEGEN--\":6374:6378   */\n      dup2\n        /* \"--CODEGEN--\":6365:6371   */\n      dup5\n        /* \"--CODEGEN--\":6243:6379   */\n      jump(tag_152)\n    tag_208:\n        /* \"--CODEGEN--\":6235:6379   */\n      swap1\n      pop\n        /* \"--CODEGEN--\":6139:6389   */\n      swap3\n      swap2\n      pop\n      pop\n      jump\n        /* \"--CODEGEN--\":6396:6589   */\n    tag_28:\n      0x0\n        /* \"--CODEGEN--\":6504:6506   */\n      0x20\n        /* \"--CODEGEN--\":6493:6502   */\n      dup3\n        /* \"--CODEGEN--\":6489:6492   */\n      add\n        /* \"--CODEGEN--\":6481:6507   */\n      swap1\n      pop\n        /* \"--CODEGEN--\":6518:6579   */\n      tag_210\n        /* \"--CODEGEN--\":6576:6577   */\n      0x0\n        /* \"--CODEGEN--\":6565:6574   */\n      dup4\n        /* \"--CODEGEN--\":6561:6564   */\n      add\n        /* \"--CODEGEN--\":6552:6558   */\n      dup5\n        /* \"--CODEGEN--\":6518:6579   */\n      jump(tag_188)\n    tag_210:\n        /* \"--CODEGEN--\":6475:6589   */\n      swap3\n      swap2\n      pop\n      pop\n      jump\n        /* \"--CODEGEN--\":6596:6890   */\n    tag_38:\n      0x0\n        /* \"--CODEGEN--\":6732:6734   */\n      0x40\n        /* \"--CODEGEN--\":6721:6730   */\n      dup3\n        /* \"--CODEGEN--\":6717:6720   */\n      add\n        /* \"--CODEGEN--\":6709:6735   */\n      swap1\n      pop\n        /* \"--CODEGEN--\":6746:6807   */\n      tag_212\n        /* \"--CODEGEN--\":6804:6805   */\n      0x0\n        /* \"--CODEGEN--\":6793:6802   */\n      dup4\n        /* \"--CODEGEN--\":6789:6792   */\n      add\n        /* \"--CODEGEN--\":6780:6786   */\n      dup6\n        /* \"--CODEGEN--\":6746:6807   */\n      jump(tag_188)\n    tag_212:\n        /* \"--CODEGEN--\":6818:6880   */\n      tag_213\n        /* \"--CODEGEN--\":6876:6878   */\n      0x20\n        /* \"--CODEGEN--\":6865:6874   */\n      dup4\n        /* \"--CODEGEN--\":6861:6864   */\n      add\n        /* \"--CODEGEN--\":6852:6858   */\n      dup5\n        /* \"--CODEGEN--\":6818:6880   */\n      jump(tag_135)\n    tag_213:\n        /* \"--CODEGEN--\":6703:6890   */\n      swap4\n      swap3\n      pop\n      pop\n      pop\n      jump\n        /* \"--CODEGEN--\":6897:8056   */\n    tag_18:\n      0x0\n        /* \"--CODEGEN--\":7257:7260   */\n      0x120\n        /* \"--CODEGEN--\":7246:7255   */\n      dup3\n        /* \"--CODEGEN--\":7242:7245   */\n      add\n        /* \"--CODEGEN--\":7234:7261   */\n      swap1\n      pop\n        /* \"--CODEGEN--\":7272:7333   */\n      tag_215\n        /* \"--CODEGEN--\":7330:7331   */\n      0x0\n        /* \"--CODEGEN--\":7319:7328   */\n      dup4\n        /* \"--CODEGEN--\":7315:7318   */\n      add\n        /* \"--CODEGEN--\":7306:7312   */\n      dup13\n        /* \"--CODEGEN--\":7272:7333   */\n      jump(tag_188)\n    tag_215:\n        /* \"--CODEGEN--\":7381:7390   */\n      dup2\n        /* \"--CODEGEN--\":7375:7379   */\n      dup2\n        /* \"--CODEGEN--\":7371:7374   */\n      sub\n        /* \"--CODEGEN--\":7366:7368   */\n      0x20\n        /* \"--CODEGEN--\":7355:7364   */\n      dup4\n        /* \"--CODEGEN--\":7351:7354   */\n      add\n        /* \"--CODEGEN--\":7344:7350   */\n      mstore\n        /* \"--CODEGEN--\":7406:7471   */\n      tag_216\n        /* \"--CODEGEN--\":7466:7470   */\n      dup2\n        /* \"--CODEGEN--\":7457:7463   */\n      dup12\n        /* \"--CODEGEN--\":7406:7471   */\n      jump(tag_177)\n    tag_216:\n        /* \"--CODEGEN--\":7398:7471   */\n      swap1\n      pop\n        /* \"--CODEGEN--\":7482:7544   */\n      tag_217\n        /* \"--CODEGEN--\":7540:7542   */\n      0x40\n        /* \"--CODEGEN--\":7529:7538   */\n      dup4\n        /* \"--CODEGEN--\":7525:7528   */\n      add\n        /* \"--CODEGEN--\":7516:7522   */\n      dup11\n        /* \"--CODEGEN--\":7482:7544   */\n      jump(tag_188)\n    tag_217:\n        /* \"--CODEGEN--\":7592:7601   */\n      dup2\n        /* \"--CODEGEN--\":7586:7590   */\n      dup2\n        /* \"--CODEGEN--\":7582:7585   */\n      sub\n        /* \"--CODEGEN--\":7577:7579   */\n      0x60\n        /* \"--CODEGEN--\":7566:7575   */\n      dup4\n        /* \"--CODEGEN--\":7562:7565   */\n      add\n        /* \"--CODEGEN--\":7555:7561   */\n      mstore\n        /* \"--CODEGEN--\":7617:7682   */\n      tag_218\n        /* \"--CODEGEN--\":7677:7681   */\n      dup2\n        /* \"--CODEGEN--\":7668:7674   */\n      dup10\n        /* \"--CODEGEN--\":7617:7682   */\n      jump(tag_177)\n    tag_218:\n        /* \"--CODEGEN--\":7609:7682   */\n      swap1\n      pop\n        /* \"--CODEGEN--\":7693:7756   */\n      tag_219\n        /* \"--CODEGEN--\":7751:7754   */\n      0x80\n        /* \"--CODEGEN--\":7740:7749   */\n      dup4\n        /* \"--CODEGEN--\":7736:7739   */\n      add\n        /* \"--CODEGEN--\":7727:7733   */\n      dup9\n        /* \"--CODEGEN--\":7693:7756   */\n      jump(tag_188)\n    tag_219:\n        /* \"--CODEGEN--\":7767:7824   */\n      tag_220\n        /* \"--CODEGEN--\":7819:7822   */\n      0xa0\n        /* \"--CODEGEN--\":7808:7817   */\n      dup4\n        /* \"--CODEGEN--\":7804:7807   */\n      add\n        /* \"--CODEGEN--\":7795:7801   */\n      dup8\n        /* \"--CODEGEN--\":7767:7824   */\n      jump(tag_165)\n    tag_220:\n        /* \"--CODEGEN--\":7835:7898   */\n      tag_221\n        /* \"--CODEGEN--\":7893:7896   */\n      0xc0\n        /* \"--CODEGEN--\":7882:7891   */\n      dup4\n        /* \"--CODEGEN--\":7878:7881   */\n      add\n        /* \"--CODEGEN--\":7869:7875   */\n      dup7\n        /* \"--CODEGEN--\":7835:7898   */\n      jump(tag_135)\n    tag_221:\n        /* \"--CODEGEN--\":7909:7972   */\n      tag_222\n        /* \"--CODEGEN--\":7967:7970   */\n      0xe0\n        /* \"--CODEGEN--\":7956:7965   */\n      dup4\n        /* \"--CODEGEN--\":7952:7955   */\n      add\n        /* \"--CODEGEN--\":7943:7949   */\n      dup6\n        /* \"--CODEGEN--\":7909:7972   */\n      jump(tag_188)\n    tag_222:\n        /* \"--CODEGEN--\":7983:8046   */\n      tag_223\n        /* \"--CODEGEN--\":8041:8044   */\n      0x100\n        /* \"--CODEGEN--\":8030:8039   */\n      dup4\n        /* \"--CODEGEN--\":8026:8029   */\n      add\n        /* \"--CODEGEN--\":8017:8023   */\n      dup5\n        /* \"--CODEGEN--\":7983:8046   */\n      jump(tag_188)\n    tag_223:\n        /* \"--CODEGEN--\":7228:8056   */\n      swap11\n      swap10\n      pop\n      pop\n      pop\n      pop\n      pop\n      pop\n      pop\n      pop\n      pop\n      pop\n      jump\n        /* \"--CODEGEN--\":8065:8207   */\n    tag_143:\n      0x0\n        /* \"--CODEGEN--\":8195:8199   */\n      0x20\n        /* \"--CODEGEN--\":8187:8193   */\n      dup3\n        /* \"--CODEGEN--\":8183:8186   */\n      add\n        /* \"--CODEGEN--\":8172:8200   */\n      swap1\n      pop\n        /* \"--CODEGEN--\":8164:8207   */\n      swap2\n      swap1\n      pop\n      jump\n        /* \"--CODEGEN--\":8218:8358   */\n    tag_156:\n      0x0\n        /* \"--CODEGEN--\":8346:8350   */\n      0x20\n        /* \"--CODEGEN--\":8338:8344   */\n      dup3\n        /* \"--CODEGEN--\":8334:8337   */\n      add\n        /* \"--CODEGEN--\":8323:8351   */\n      swap1\n      pop\n        /* \"--CODEGEN--\":8315:8358   */\n      swap2\n      swap1\n      pop\n      jump\n        /* \"--CODEGEN--\":8369:8495   */\n    tag_182:\n      0x0\n        /* \"--CODEGEN--\":8446:8450   */\n      dup2\n        /* \"--CODEGEN--\":8443:8444   */\n      0x0\n        /* \"--CODEGEN--\":8436:8442   */\n      mstore\n        /* \"--CODEGEN--\":8483:8487   */\n      0x20\n        /* \"--CODEGEN--\":8480:8481   */\n      0x0\n        /* \"--CODEGEN--\":8470:8479   */\n      keccak256\n        /* \"--CODEGEN--\":8458:8488   */\n      swap1\n      pop\n        /* \"--CODEGEN--\":8428:8495   */\n      swap2\n      swap1\n      pop\n      jump\n        /* \"--CODEGEN--\":8504:8632   */\n    tag_141:\n      0x0\n        /* \"--CODEGEN--\":8621:8626   */\n      dup2\n        /* \"--CODEGEN--\":8615:8620   */\n      mload\n        /* \"--CODEGEN--\":8605:8627   */\n      swap1\n      pop\n        /* \"--CODEGEN--\":8599:8632   */\n      swap2\n      swap1\n      pop\n      jump\n        /* \"--CODEGEN--\":8639:8765   */\n    tag_154:\n      0x0\n        /* \"--CODEGEN--\":8754:8759   */\n      dup2\n        /* \"--CODEGEN--\":8748:8753   */\n      mload\n        /* \"--CODEGEN--\":8738:8760   */\n      swap1\n      pop\n        /* \"--CODEGEN--\":8732:8765   */\n      swap2\n      swap1\n      pop\n      jump\n        /* \"--CODEGEN--\":8772:8860   */\n    tag_171:\n      0x0\n        /* \"--CODEGEN--\":8849:8854   */\n      dup2\n        /* \"--CODEGEN--\":8843:8848   */\n      mload\n        /* \"--CODEGEN--\":8833:8855   */\n      swap1\n      pop\n        /* \"--CODEGEN--\":8827:8860   */\n      swap2\n      swap1\n      pop\n      jump\n        /* \"--CODEGEN--\":8868:9011   */\n    tag_150:\n      0x0\n        /* \"--CODEGEN--\":9000:9004   */\n      0x20\n        /* \"--CODEGEN--\":8992:8998   */\n      dup3\n        /* \"--CODEGEN--\":8988:8991   */\n      add\n        /* \"--CODEGEN--\":8977:9005   */\n      swap1\n      pop\n        /* \"--CODEGEN--\":8970:9011   */\n      swap2\n      swap1\n      pop\n      jump\n        /* \"--CODEGEN--\":9020:9161   */\n    tag_163:\n      0x0\n        /* \"--CODEGEN--\":9150:9154   */\n      0x20\n        /* \"--CODEGEN--\":9142:9148   */\n      dup3\n        /* \"--CODEGEN--\":9138:9141   */\n      add\n        /* \"--CODEGEN--\":9127:9155   */\n      swap1\n      pop\n        /* \"--CODEGEN--\":9120:9161   */\n      swap2\n      swap1\n      pop\n      jump\n        /* \"--CODEGEN--\":9169:9297   */\n    tag_137:\n      0x0\n        /* \"--CODEGEN--\":9249:9291   */\n      0xffffffffffffffffffffffffffffffffffffffff\n        /* \"--CODEGEN--\":9242:9247   */\n      dup3\n        /* \"--CODEGEN--\":9238:9241   */\n      and\n        /* \"--CODEGEN--\":9227:9292   */\n      swap1\n      pop\n        /* \"--CODEGEN--\":9221:9297   */\n      swap2\n      swap1\n      pop\n      jump\n        /* \"--CODEGEN--\":9304:9396   */\n    tag_167:\n      0x0\n        /* \"--CODEGEN--\":9384:9389   */\n      dup2\n        /* \"--CODEGEN--\":9377:9383   */\n      iszero\n        /* \"--CODEGEN--\":9370:9376   */\n      iszero\n        /* \"--CODEGEN--\":9359:9391   */\n      swap1\n      pop\n        /* \"--CODEGEN--\":9353:9396   */\n      swap2\n      swap1\n      pop\n      jump\n        /* \"--CODEGEN--\":9403:9482   */\n    tag_202:\n      0x0\n        /* \"--CODEGEN--\":9472:9477   */\n      dup2\n        /* \"--CODEGEN--\":9461:9477   */\n      swap1\n      pop\n        /* \"--CODEGEN--\":9455:9482   */\n      swap2\n      swap1\n      pop\n      jump\n        /* \"--CODEGEN--\":9490:9769   */\n    tag_173:\n        /* \"--CODEGEN--\":9555:9556   */\n      0x0\n        /* \"--CODEGEN--\":9562:9663   */\n    tag_236:\n        /* \"--CODEGEN--\":9576:9582   */\n      dup4\n        /* \"--CODEGEN--\":9573:9574   */\n      dup2\n        /* \"--CODEGEN--\":9570:9572   */\n      lt\n        /* \"--CODEGEN--\":9562:9663   */\n      iszero\n      tag_237\n      jumpi\n        /* \"--CODEGEN--\":9652:9653   */\n      dup1\n        /* \"--CODEGEN--\":9647:9650   */\n      dup3\n        /* \"--CODEGEN--\":9643:9646   */\n      add\n        /* \"--CODEGEN--\":9637:9642   */\n      mload\n        /* \"--CODEGEN--\":9633:9634   */\n      dup2\n        /* \"--CODEGEN--\":9628:9631   */\n      dup5\n        /* \"--CODEGEN--\":9624:9627   */\n      add\n        /* \"--CODEGEN--\":9617:9623   */\n      mstore\n        /* \"--CODEGEN--\":9598:9600   */\n      0x20\n        /* \"--CODEGEN--\":9595:9596   */\n      dup2\n        /* \"--CODEGEN--\":9591:9594   */\n      add\n        /* \"--CODEGEN--\":9586:9601   */\n      swap1\n      pop\n        /* \"--CODEGEN--\":9562:9663   */\n      jump(tag_236)\n    tag_237:\n        /* \"--CODEGEN--\":9682:9688   */\n      dup4\n        /* \"--CODEGEN--\":9679:9680   */\n      dup2\n        /* \"--CODEGEN--\":9676:9678   */\n      eq\n        /* \"--CODEGEN--\":9700:9701   */\n      0x0\n        /* \"--CODEGEN--\":9695:9763   */\n      dup2\n      eq\n      tag_240\n      jumpi\n        /* \"--CODEGEN--\":9669:9763   */\n      jump(tag_239)\n        /* \"--CODEGEN--\":9695:9763   */\n    tag_240:\n        /* \"--CODEGEN--\":9754:9755   */\n      0x0\n        /* \"--CODEGEN--\":9745:9751   */\n      dup6\n        /* \"--CODEGEN--\":9740:9743   */\n      dup6\n        /* \"--CODEGEN--\":9736:9739   */\n      add\n        /* \"--CODEGEN--\":9729:9735   */\n      mstore\n        /* \"--CODEGEN--\":9669:9763   */\n    tag_239:\n      pop\n        /* \"--CODEGEN--\":9539:9769   */\n      pop\n      pop\n      pop\n      pop\n      jump\n        /* \"--CODEGEN--\":9773:9870   */\n    tag_175:\n      0x0\n        /* \"--CODEGEN--\":9861:9863   */\n      0x1f\n        /* \"--CODEGEN--\":9857:9860   */\n      not\n        /* \"--CODEGEN--\":9852:9854   */\n      0x1f\n        /* \"--CODEGEN--\":9845:9850   */\n      dup4\n        /* \"--CODEGEN--\":9841:9844   */\n      add\n        /* \"--CODEGEN--\":9837:9840   */\n      and\n        /* \"--CODEGEN--\":9827:9865   */\n      swap1\n      pop\n        /* \"--CODEGEN--\":9821:9870   */\n      swap2\n      swap1\n      pop\n      jump\n\n    auxdata: 0xa265627a7a72305820cf844b4785b9e33a9655009ed0315e32e976b3ca76273e62105b1c2d86064d446c6578706572696d656e74616cf50037\n}\n",
        "bytecode": {
          "linkReferences": {},
          "object": "6060604052341561000f57600080fd5b61125c8061001e6000396000f300606060405236156100b8576000357c0100000000000000000000000000000000000000000000000000000000900463ffffffff16806306ead22e146100bd57806315f6febd146100fc5780632c5d472514610125578063481c6a751461014e578063513e9848146101775780636148c54c146101af578063a8233ee914610256578063aa8c217c1461028d578063ac96bd6e146102b6578063bafdb029146102df578063ce251a3014610308578063e97dcb621461031d575b600080fd5b34156100c857600080fd5b6100de6004808035906020019091905050610327565b6040516100f39998979695949392919061109d565b60405180910390f35b341561010757600080fd5b61010f6103af565b60405161011c9190611037565b60405180910390f35b341561013057600080fd5b6101386105fd565b6040516101459190611059565b60405180910390f35b341561015957600080fd5b610161610603565b60405161016e9190610ffa565b60405180910390f35b341561018257600080fd5b6101986004808035906020019091905050610629565b6040516101a6929190611074565b60405180910390f35b610254600480803590602001908201803590602001908080601f0160208091040260200160405190810160405280939291908181526020018383808284378201915050505050509190803590602001909190803590602001909190803590602001908201803590602001908080601f0160208091040260200160405190810160405280939291908181526020018383808284378201915050505050509190505061067c565b005b341561026157600080fd5b6102776004808035906020019091905050610825565b6040516102849190610ffa565b60405180910390f35b341561029857600080fd5b6102a0610864565b6040516102ad9190611059565b60405180910390f35b34156102c157600080fd5b6102c961086a565b6040516102d69190611059565b60405180910390f35b34156102ea57600080fd5b6102f2610870565b6040516102ff9190611015565b60405180910390f35b341561031357600080fd5b61031b610935565b005b610325610978565b005b60018181548110151561033657fe5b9060005260206000209060080201600091509050806000015490806001019080600201549080600301908060040154908060050160009054906101000a900460ff16908060050160019054906101000a900473ffffffffffffffffffffffffffffffffffffffff16908060060154908060070154905089565b6103b7610a2e565b6001805480602002602001604051908101604052809291908181526020016000905b828210156105f45783829060005260206000209060080201610120604051908101604052908160008201548152602001600182018054600181600116156101000203166002900480601f0160208091040260200160405190810160405280929190818152602001828054600181600116156101000203166002900480156104a15780601f10610476576101008083540402835291602001916104a1565b820191906000526020600020905b81548152906001019060200180831161048457829003601f168201915b5050505050815260200160028201548152602001600382018054600181600116156101000203166002900480601f01602080910402602001604051908101604052809291908181526020018280546001816001161561010002031660029004801561054d5780601f106105225761010080835404028352916020019161054d565b820191906000526020600020905b81548152906001019060200180831161053057829003601f168201915b50505050508152602001600482015481526020016005820160009054906101000a900460ff161515151581526020016005820160019054906101000a900473ffffffffffffffffffffffffffffffffffffffff1673ffffffffffffffffffffffffffffffffffffffff1673ffffffffffffffffffffffffffffffffffffffff16815260200160068201548152602001600782015481525050815260200190600101906103d9565b50505050905090565b60045481565b600260009054906101000a900473ffffffffffffffffffffffffffffffffffffffff1681565b60008181548110151561063857fe5b90600052602060002090600202016000915090508060000154908060010160009054906101000a900473ffffffffffffffffffffffffffffffffffffffff16905082565b610684610a42565b60648311151561069357600080fd5b6101206040519081016040528060018054905081526020018681526020018581526020018381526020018481526020016000151581526020013373ffffffffffffffffffffffffffffffffffffffff168152602001670de0b6b3a76400008152602001444260405180838152602001828152602001925050506040518091039020600190048152509050600180548060010182816107319190610ab3565b9160005260206000209060080201600083909190915060008201518160000155602082015181600101908051906020019061076d929190610ae5565b50604082015181600201556060820151816003019080519060200190610794929190610ae5565b506080820151816004015560a08201518160050160006101000a81548160ff02191690831515021790555060c08201518160050160016101000a81548173ffffffffffffffffffffffffffffffffffffffff021916908373ffffffffffffffffffffffffffffffffffffffff16021790555060e0820151816006015561010082015181600701555050505050505050565b60038181548110151561083457fe5b90600052602060002090016000915054906101000a900473ffffffffffffffffffffffffffffffffffffffff1681565b60065481565b60055481565b610878610b65565b6000805480602002602001604051908101604052809291908181526020016000905b8282101561092c5783829060005260206000209060020201604080519081016040529081600082015481526020016001820160009054906101000a900473ffffffffffffffffffffffffffffffffffffffff1673ffffffffffffffffffffffffffffffffffffffff1673ffffffffffffffffffffffffffffffffffffffff16815250508152602001906001019061089a565b50505050905090565b33600260006101000a81548173ffffffffffffffffffffffffffffffffffffffff021916908373ffffffffffffffffffffffffffffffffffffffff160217905550565b610980610b79565b60408051908101604052803481526020013373ffffffffffffffffffffffffffffffffffffffff168152509050600080548060010182816109c19190610ba9565b916000526020600020906002020160008390919091506000820151816000015560208201518160010160006101000a81548173ffffffffffffffffffffffffffffffffffffffff021916908373ffffffffffffffffffffffffffffffffffffffff16021790555050505050565b602060405190810160405280600081525090565b6101206040519081016040528060008152602001610a5e610bdb565b815260200160008152602001610a72610bdb565b815260200160008152602001600015158152602001600073ffffffffffffffffffffffffffffffffffffffff16815260200160008152602001600081525090565b815481835581811511610ae057600802816008028360005260206000209182019101610adf9190610bef565b5b505050565b828054600181600116156101000203166002900490600052602060002090601f016020900481019282601f10610b2657805160ff1916838001178555610b54565b82800160010185558215610b54579182015b82811115610b53578251825591602001919060010190610b38565b5b509050610b619190610c91565b5090565b602060405190810160405280600081525090565b604080519081016040528060008152602001600073ffffffffffffffffffffffffffffffffffffffff1681525090565b815481835581811511610bd657600202816002028360005260206000209182019101610bd59190610cb6565b5b505050565b602060405190810160405280600081525090565b610c8e91905b80821115610c8a57600080820160009055600182016000610c169190610d04565b6002820160009055600382016000610c2e9190610d04565b60048201600090556005820160006101000a81549060ff02191690556005820160016101000a81549073ffffffffffffffffffffffffffffffffffffffff02191690556006820160009055600782016000905550600801610bf5565b5090565b90565b610cb391905b80821115610caf576000816000905550600101610c97565b5090565b90565b610d0191905b80821115610cfd576000808201600090556001820160006101000a81549073ffffffffffffffffffffffffffffffffffffffff021916905550600201610cbc565b5090565b90565b50805460018160011615610100020316600290046000825580601f10610d2a5750610d49565b601f016020900490600052602060002090810190610d489190610c91565b5b50565b610d558161119f565b82525050565b6000610d6682611164565b808452602084019350610d7883611138565b60005b82811015610daa57610d8e868351610ef0565b610d9782611185565b9150604086019550600181019050610d7b565b50849250505092915050565b6000610dc18261116f565b80845260208401935083602082028501610dda85611145565b60005b84811015610e14578383038852610df5838351610f1f565b9250610e0082611192565b915061012088019750600181019050610ddd565b508196508694505050505092915050565b610e2e816111bf565b82525050565b6000610e3f8261117a565b808452610e538160208601602086016111d5565b610e5c81611211565b602085010191505092915050565b600081546001811660008114610e875760018114610ea757610ee8565b607f600283041680865260ff198316602087015260408601935050610ee8565b60028204808652602086019550610ebd85611152565b60005b82811015610edf57815481890152600182019150602081019050610ec0565b80880195505050505b505092915050565b604082016000820151610f066000850182610feb565b506020820151610f196020850182610d4c565b50505050565b600061012083016000830151610f386000860182610feb565b5060208301518482036020860152610f508282610e34565b9150506040830151610f656040860182610feb565b5060608301518482036060860152610f7d8282610e34565b9150506080830151610f926080860182610feb565b5060a0830151610fa560a0860182610e25565b5060c0830151610fb860c0860182610d4c565b5060e0830151610fcb60e0860182610feb565b50610100830151610fe0610100860182610feb565b508091505092915050565b610ff4816111cb565b82525050565b600060208201905061100f6000830184610d4c565b92915050565b6000602082019050818103600083015261102f8184610d5b565b905092915050565b600060208201905081810360008301526110518184610db6565b905092915050565b600060208201905061106e6000830184610feb565b92915050565b60006040820190506110896000830185610feb565b6110966020830184610d4c565b9392505050565b6000610120820190506110b3600083018c610feb565b81810360208301526110c5818b610e6a565b90506110d4604083018a610feb565b81810360608301526110e68189610e6a565b90506110f56080830188610feb565b61110260a0830187610e25565b61110f60c0830186610d4c565b61111c60e0830185610feb565b61112a610100830184610feb565b9a9950505050505050505050565b6000602082019050919050565b6000602082019050919050565b60008160005260206000209050919050565b600081519050919050565b600081519050919050565b600081519050919050565b6000602082019050919050565b6000602082019050919050565b600073ffffffffffffffffffffffffffffffffffffffff82169050919050565b60008115159050919050565b6000819050919050565b60005b838110156111f35780820151818401526020810190506111d8565b838114600081146112035761120a565b6000858501525b5050505050565b6000601f19601f83011690509190505600a265627a7a72305820cf844b4785b9e33a9655009ed0315e32e976b3ca76273e62105b1c2d86064d446c6578706572696d656e74616cf50037",
          "opcodes": "PUSH1 0x60 PUSH1 0x40 MSTORE CALLVALUE ISZERO PUSH2 0xF JUMPI PUSH1 0x0 DUP1 REVERT JUMPDEST PUSH2 0x125C DUP1 PUSH2 0x1E PUSH1 0x0 CODECOPY PUSH1 0x0 RETURN STOP PUSH1 0x60 PUSH1 0x40 MSTORE CALLDATASIZE ISZERO PUSH2 0xB8 JUMPI PUSH1 0x0 CALLDATALOAD PUSH29 0x100000000000000000000000000000000000000000000000000000000 SWAP1 DIV PUSH4 0xFFFFFFFF AND DUP1 PUSH4 0x6EAD22E EQ PUSH2 0xBD JUMPI DUP1 PUSH4 0x15F6FEBD EQ PUSH2 0xFC JUMPI DUP1 PUSH4 0x2C5D4725 EQ PUSH2 0x125 JUMPI DUP1 PUSH4 0x481C6A75 EQ PUSH2 0x14E JUMPI DUP1 PUSH4 0x513E9848 EQ PUSH2 0x177 JUMPI DUP1 PUSH4 0x6148C54C EQ PUSH2 0x1AF JUMPI DUP1 PUSH4 0xA8233EE9 EQ PUSH2 0x256 JUMPI DUP1 PUSH4 0xAA8C217C EQ PUSH2 0x28D JUMPI DUP1 PUSH4 0xAC96BD6E EQ PUSH2 0x2B6 JUMPI DUP1 PUSH4 0xBAFDB029 EQ PUSH2 0x2DF JUMPI DUP1 PUSH4 0xCE251A30 EQ PUSH2 0x308 JUMPI DUP1 PUSH4 0xE97DCB62 EQ PUSH2 0x31D JUMPI JUMPDEST PUSH1 0x0 DUP1 REVERT JUMPDEST CALLVALUE ISZERO PUSH2 0xC8 JUMPI PUSH1 0x0 DUP1 REVERT JUMPDEST PUSH2 0xDE PUSH1 0x4 DUP1 DUP1 CALLDATALOAD SWAP1 PUSH1 0x20 ADD SWAP1 SWAP2 SWAP1 POP POP PUSH2 0x327 JUMP JUMPDEST PUSH1 0x40 MLOAD PUSH2 0xF3 SWAP10 SWAP9 SWAP8 SWAP7 SWAP6 SWAP5 SWAP4 SWAP3 SWAP2 SWAP1 PUSH2 0x109D JUMP JUMPDEST PUSH1 0x40 MLOAD DUP1 SWAP2 SUB SWAP1 RETURN JUMPDEST CALLVALUE ISZERO PUSH2 0x107 JUMPI PUSH1 0x0 DUP1 REVERT JUMPDEST PUSH2 0x10F PUSH2 0x3AF JUMP JUMPDEST PUSH1 0x40 MLOAD PUSH2 0x11C SWAP2 SWAP1 PUSH2 0x1037 JUMP JUMPDEST PUSH1 0x40 MLOAD DUP1 SWAP2 SUB SWAP1 RETURN JUMPDEST CALLVALUE ISZERO PUSH2 0x130 JUMPI PUSH1 0x0 DUP1 REVERT JUMPDEST PUSH2 0x138 PUSH2 0x5FD JUMP JUMPDEST PUSH1 0x40 MLOAD PUSH2 0x145 SWAP2 SWAP1 PUSH2 0x1059 JUMP JUMPDEST PUSH1 0x40 MLOAD DUP1 SWAP2 SUB SWAP1 RETURN JUMPDEST CALLVALUE ISZERO PUSH2 0x159 JUMPI PUSH1 0x0 DUP1 REVERT JUMPDEST PUSH2 0x161 PUSH2 0x603 JUMP JUMPDEST PUSH1 0x40 MLOAD PUSH2 0x16E SWAP2 SWAP1 PUSH2 0xFFA JUMP JUMPDEST PUSH1 0x40 MLOAD DUP1 SWAP2 SUB SWAP1 RETURN JUMPDEST CALLVALUE ISZERO PUSH2 0x182 JUMPI PUSH1 0x0 DUP1 REVERT JUMPDEST PUSH2 0x198 PUSH1 0x4 DUP1 DUP1 CALLDATALOAD SWAP1 PUSH1 0x20 ADD SWAP1 SWAP2 SWAP1 POP POP PUSH2 0x629 JUMP JUMPDEST PUSH1 0x40 MLOAD PUSH2 0x1A6 SWAP3 SWAP2 SWAP1 PUSH2 0x1074 JUMP JUMPDEST PUSH1 0x40 MLOAD DUP1 SWAP2 SUB SWAP1 RETURN JUMPDEST PUSH2 0x254 PUSH1 0x4 DUP1 DUP1 CALLDATALOAD SWAP1 PUSH1 0x20 ADD SWAP1 DUP3 ADD DUP1 CALLDATALOAD SWAP1 PUSH1 0x20 ADD SWAP1 DUP1 DUP1 PUSH1 0x1F ADD PUSH1 0x20 DUP1 SWAP2 DIV MUL PUSH1 0x20 ADD PUSH1 0x40 MLOAD SWAP1 DUP2 ADD PUSH1 0x40 MSTORE DUP1 SWAP4 SWAP3 SWAP2 SWAP1 DUP2 DUP2 MSTORE PUSH1 0x20 ADD DUP4 DUP4 DUP1 DUP3 DUP5 CALLDATACOPY DUP3 ADD SWAP2 POP POP POP POP POP POP SWAP2 SWAP1 DUP1 CALLDATALOAD SWAP1 PUSH1 0x20 ADD SWAP1 SWAP2 SWAP1 DUP1 CALLDATALOAD SWAP1 PUSH1 0x20 ADD SWAP1 SWAP2 SWAP1 DUP1 CALLDATALOAD SWAP1 PUSH1 0x20 ADD SWAP1 DUP3 ADD DUP1 CALLDATALOAD SWAP1 PUSH1 0x20 ADD SWAP1 DUP1 DUP1 PUSH1 0x1F ADD PUSH1 0x20 DUP1 SWAP2 DIV MUL PUSH1 0x20 ADD PUSH1 0x40 MLOAD SWAP1 DUP2 ADD PUSH1 0x40 MSTORE DUP1 SWAP4 SWAP3 SWAP2 SWAP1 DUP2 DUP2 MSTORE PUSH1 0x20 ADD DUP4 DUP4 DUP1 DUP3 DUP5 CALLDATACOPY DUP3 ADD SWAP2 POP POP POP POP POP POP SWAP2 SWAP1 POP POP PUSH2 0x67C JUMP JUMPDEST STOP JUMPDEST CALLVALUE ISZERO PUSH2 0x261 JUMPI PUSH1 0x0 DUP1 REVERT JUMPDEST PUSH2 0x277 PUSH1 0x4 DUP1 DUP1 CALLDATALOAD SWAP1 PUSH1 0x20 ADD SWAP1 SWAP2 SWAP1 POP POP PUSH2 0x825 JUMP JUMPDEST PUSH1 0x40 MLOAD PUSH2 0x284 SWAP2 SWAP1 PUSH2 0xFFA JUMP JUMPDEST PUSH1 0x40 MLOAD DUP1 SWAP2 SUB SWAP1 RETURN JUMPDEST CALLVALUE ISZERO PUSH2 0x298 JUMPI PUSH1 0x0 DUP1 REVERT JUMPDEST PUSH2 0x2A0 PUSH2 0x864 JUMP JUMPDEST PUSH1 0x40 MLOAD PUSH2 0x2AD SWAP2 SWAP1 PUSH2 0x1059 JUMP JUMPDEST PUSH1 0x40 MLOAD DUP1 SWAP2 SUB SWAP1 RETURN JUMPDEST CALLVALUE ISZERO PUSH2 0x2C1 JUMPI PUSH1 0x0 DUP1 REVERT JUMPDEST PUSH2 0x2C9 PUSH2 0x86A JUMP JUMPDEST PUSH1 0x40 MLOAD PUSH2 0x2D6 SWAP2 SWAP1 PUSH2 0x1059 JUMP JUMPDEST PUSH1 0x40 MLOAD DUP1 SWAP2 SUB SWAP1 RETURN JUMPDEST CALLVALUE ISZERO PUSH2 0x2EA JUMPI PUSH1 0x0 DUP1 REVERT JUMPDEST PUSH2 0x2F2 PUSH2 0x870 JUMP JUMPDEST PUSH1 0x40 MLOAD PUSH2 0x2FF SWAP2 SWAP1 PUSH2 0x1015 JUMP JUMPDEST PUSH1 0x40 MLOAD DUP1 SWAP2 SUB SWAP1 RETURN JUMPDEST CALLVALUE ISZERO PUSH2 0x313 JUMPI PUSH1 0x0 DUP1 REVERT JUMPDEST PUSH2 0x31B PUSH2 0x935 JUMP JUMPDEST STOP JUMPDEST PUSH2 0x325 PUSH2 0x978 JUMP JUMPDEST STOP JUMPDEST PUSH1 0x1 DUP2 DUP2 SLOAD DUP2 LT ISZERO ISZERO PUSH2 0x336 JUMPI INVALID JUMPDEST SWAP1 PUSH1 0x0 MSTORE PUSH1 0x20 PUSH1 0x0 KECCAK256 SWAP1 PUSH1 0x8 MUL ADD PUSH1 0x0 SWAP2 POP SWAP1 POP DUP1 PUSH1 0x0 ADD SLOAD SWAP1 DUP1 PUSH1 0x1 ADD SWAP1 DUP1 PUSH1 0x2 ADD SLOAD SWAP1 DUP1 PUSH1 0x3 ADD SWAP1 DUP1 PUSH1 0x4 ADD SLOAD SWAP1 DUP1 PUSH1 0x5 ADD PUSH1 0x0 SWAP1 SLOAD SWAP1 PUSH2 0x100 EXP SWAP1 DIV PUSH1 0xFF AND SWAP1 DUP1 PUSH1 0x5 ADD PUSH1 0x1 SWAP1 SLOAD SWAP1 PUSH2 0x100 EXP SWAP1 DIV PUSH20 0xFFFFFFFFFFFFFFFFFFFFFFFFFFFFFFFFFFFFFFFF AND SWAP1 DUP1 PUSH1 0x6 ADD SLOAD SWAP1 DUP1 PUSH1 0x7 ADD SLOAD SWAP1 POP DUP10 JUMP JUMPDEST PUSH2 0x3B7 PUSH2 0xA2E JUMP JUMPDEST PUSH1 0x1 DUP1 SLOAD DUP1 PUSH1 0x20 MUL PUSH1 0x20 ADD PUSH1 0x40 MLOAD SWAP1 DUP2 ADD PUSH1 0x40 MSTORE DUP1 SWAP3 SWAP2 SWAP1 DUP2 DUP2 MSTORE PUSH1 0x20 ADD PUSH1 0x0 SWAP1 JUMPDEST DUP3 DUP3 LT ISZERO PUSH2 0x5F4 JUMPI DUP4 DUP3 SWAP1 PUSH1 0x0 MSTORE PUSH1 0x20 PUSH1 0x0 KECCAK256 SWAP1 PUSH1 0x8 MUL ADD PUSH2 0x120 PUSH1 0x40 MLOAD SWAP1 DUP2 ADD PUSH1 0x40 MSTORE SWAP1 DUP2 PUSH1 0x0 DUP3 ADD SLOAD DUP2 MSTORE PUSH1 0x20 ADD PUSH1 0x1 DUP3 ADD DUP1 SLOAD PUSH1 0x1 DUP2 PUSH1 0x1 AND ISZERO PUSH2 0x100 MUL SUB AND PUSH1 0x2 SWAP1 DIV DUP1 PUSH1 0x1F ADD PUSH1 0x20 DUP1 SWAP2 DIV MUL PUSH1 0x20 ADD PUSH1 0x40 MLOAD SWAP1 DUP2 ADD PUSH1 0x40 MSTORE DUP1 SWAP3 SWAP2 SWAP1 DUP2 DUP2 MSTORE PUSH1 0x20 ADD DUP3 DUP1 SLOAD PUSH1 0x1 DUP2 PUSH1 0x1 AND ISZERO PUSH2 0x100 MUL SUB AND PUSH1 0x2 SWAP1 DIV DUP1 ISZERO PUSH2 0x4A1 JUMPI DUP1 PUSH1 0x1F LT PUSH2 0x476 JUMPI PUSH2 0x100 DUP1 DUP4 SLOAD DIV MUL DUP4 MSTORE SWAP2 PUSH1 0x20 ADD SWAP2 PUSH2 0x4A1 JUMP JUMPDEST DUP3 ADD SWAP2 SWAP1 PUSH1 0x0 MSTORE PUSH1 0x20 PUSH1 0x0 KECCAK256 SWAP1 JUMPDEST DUP2 SLOAD DUP2 MSTORE SWAP1 PUSH1 0x1 ADD SWAP1 PUSH1 0x20 ADD DUP1 DUP4 GT PUSH2 0x484 JUMPI DUP3 SWAP1 SUB PUSH1 0x1F AND DUP3 ADD SWAP2 JUMPDEST POP POP POP POP POP DUP2 MSTORE PUSH1 0x20 ADD PUSH1 0x2 DUP3 ADD SLOAD DUP2 MSTORE PUSH1 0x20 ADD PUSH1 0x3 DUP3 ADD DUP1 SLOAD PUSH1 0x1 DUP2 PUSH1 0x1 AND ISZERO PUSH2 0x100 MUL SUB AND PUSH1 0x2 SWAP1 DIV DUP1 PUSH1 0x1F ADD PUSH1 0x20 DUP1 SWAP2 DIV MUL PUSH1 0x20 ADD PUSH1 0x40 MLOAD SWAP1 DUP2 ADD PUSH1 0x40 MSTORE DUP1 SWAP3 SWAP2 SWAP1 DUP2 DUP2 MSTORE PUSH1 0x20 ADD DUP3 DUP1 SLOAD PUSH1 0x1 DUP2 PUSH1 0x1 AND ISZERO PUSH2 0x100 MUL SUB AND PUSH1 0x2 SWAP1 DIV DUP1 ISZERO PUSH2 0x54D JUMPI DUP1 PUSH1 0x1F LT PUSH2 0x522 JUMPI PUSH2 0x100 DUP1 DUP4 SLOAD DIV MUL DUP4 MSTORE SWAP2 PUSH1 0x20 ADD SWAP2 PUSH2 0x54D JUMP JUMPDEST DUP3 ADD SWAP2 SWAP1 PUSH1 0x0 MSTORE PUSH1 0x20 PUSH1 0x0 KECCAK256 SWAP1 JUMPDEST DUP2 SLOAD DUP2 MSTORE SWAP1 PUSH1 0x1 ADD SWAP1 PUSH1 0x20 ADD DUP1 DUP4 GT PUSH2 0x530 JUMPI DUP3 SWAP1 SUB PUSH1 0x1F AND DUP3 ADD SWAP2 JUMPDEST POP POP POP POP POP DUP2 MSTORE PUSH1 0x20 ADD PUSH1 0x4 DUP3 ADD SLOAD DUP2 MSTORE PUSH1 0x20 ADD PUSH1 0x5 DUP3 ADD PUSH1 0x0 SWAP1 SLOAD SWAP1 PUSH2 0x100 EXP SWAP1 DIV PUSH1 0xFF AND ISZERO ISZERO ISZERO ISZERO DUP2 MSTORE PUSH1 0x20 ADD PUSH1 0x5 DUP3 ADD PUSH1 0x1 SWAP1 SLOAD SWAP1 PUSH2 0x100 EXP SWAP1 DIV PUSH20 0xFFFFFFFFFFFFFFFFFFFFFFFFFFFFFFFFFFFFFFFF AND PUSH20 0xFFFFFFFFFFFFFFFFFFFFFFFFFFFFFFFFFFFFFFFF AND PUSH20 0xFFFFFFFFFFFFFFFFFFFFFFFFFFFFFFFFFFFFFFFF AND DUP2 MSTORE PUSH1 0x20 ADD PUSH1 0x6 DUP3 ADD SLOAD DUP2 MSTORE PUSH1 0x20 ADD PUSH1 0x7 DUP3 ADD SLOAD DUP2 MSTORE POP POP DUP2 MSTORE PUSH1 0x20 ADD SWAP1 PUSH1 0x1 ADD SWAP1 PUSH2 0x3D9 JUMP JUMPDEST POP POP POP POP SWAP1 POP SWAP1 JUMP JUMPDEST PUSH1 0x4 SLOAD DUP2 JUMP JUMPDEST PUSH1 0x2 PUSH1 0x0 SWAP1 SLOAD SWAP1 PUSH2 0x100 EXP SWAP1 DIV PUSH20 0xFFFFFFFFFFFFFFFFFFFFFFFFFFFFFFFFFFFFFFFF AND DUP2 JUMP JUMPDEST PUSH1 0x0 DUP2 DUP2 SLOAD DUP2 LT ISZERO ISZERO PUSH2 0x638 JUMPI INVALID JUMPDEST SWAP1 PUSH1 0x0 MSTORE PUSH1 0x20 PUSH1 0x0 KECCAK256 SWAP1 PUSH1 0x2 MUL ADD PUSH1 0x0 SWAP2 POP SWAP1 POP DUP1 PUSH1 0x0 ADD SLOAD SWAP1 DUP1 PUSH1 0x1 ADD PUSH1 0x0 SWAP1 SLOAD SWAP1 PUSH2 0x100 EXP SWAP1 DIV PUSH20 0xFFFFFFFFFFFFFFFFFFFFFFFFFFFFFFFFFFFFFFFF AND SWAP1 POP DUP3 JUMP JUMPDEST PUSH2 0x684 PUSH2 0xA42 JUMP JUMPDEST PUSH1 0x64 DUP4 GT ISZERO ISZERO PUSH2 0x693 JUMPI PUSH1 0x0 DUP1 REVERT JUMPDEST PUSH2 0x120 PUSH1 0x40 MLOAD SWAP1 DUP2 ADD PUSH1 0x40 MSTORE DUP1 PUSH1 0x1 DUP1 SLOAD SWAP1 POP DUP2 MSTORE PUSH1 0x20 ADD DUP7 DUP2 MSTORE PUSH1 0x20 ADD DUP6 DUP2 MSTORE PUSH1 0x20 ADD DUP4 DUP2 MSTORE PUSH1 0x20 ADD DUP5 DUP2 MSTORE PUSH1 0x20 ADD PUSH1 0x0 ISZERO ISZERO DUP2 MSTORE PUSH1 0x20 ADD CALLER PUSH20 0xFFFFFFFFFFFFFFFFFFFFFFFFFFFFFFFFFFFFFFFF AND DUP2 MSTORE PUSH1 0x20 ADD PUSH8 0xDE0B6B3A7640000 DUP2 MSTORE PUSH1 0x20 ADD DIFFICULTY TIMESTAMP PUSH1 0x40 MLOAD DUP1 DUP4 DUP2 MSTORE PUSH1 0x20 ADD DUP3 DUP2 MSTORE PUSH1 0x20 ADD SWAP3 POP POP POP PUSH1 0x40 MLOAD DUP1 SWAP2 SUB SWAP1 KECCAK256 PUSH1 0x1 SWAP1 DIV DUP2 MSTORE POP SWAP1 POP PUSH1 0x1 DUP1 SLOAD DUP1 PUSH1 0x1 ADD DUP3 DUP2 PUSH2 0x731 SWAP2 SWAP1 PUSH2 0xAB3 JUMP JUMPDEST SWAP2 PUSH1 0x0 MSTORE PUSH1 0x20 PUSH1 0x0 KECCAK256 SWAP1 PUSH1 0x8 MUL ADD PUSH1 0x0 DUP4 SWAP1 SWAP2 SWAP1 SWAP2 POP PUSH1 0x0 DUP3 ADD MLOAD DUP2 PUSH1 0x0 ADD SSTORE PUSH1 0x20 DUP3 ADD MLOAD DUP2 PUSH1 0x1 ADD SWAP1 DUP1 MLOAD SWAP1 PUSH1 0x20 ADD SWAP1 PUSH2 0x76D SWAP3 SWAP2 SWAP1 PUSH2 0xAE5 JUMP JUMPDEST POP PUSH1 0x40 DUP3 ADD MLOAD DUP2 PUSH1 0x2 ADD SSTORE PUSH1 0x60 DUP3 ADD MLOAD DUP2 PUSH1 0x3 ADD SWAP1 DUP1 MLOAD SWAP1 PUSH1 0x20 ADD SWAP1 PUSH2 0x794 SWAP3 SWAP2 SWAP1 PUSH2 0xAE5 JUMP JUMPDEST POP PUSH1 0x80 DUP3 ADD MLOAD DUP2 PUSH1 0x4 ADD SSTORE PUSH1 0xA0 DUP3 ADD MLOAD DUP2 PUSH1 0x5 ADD PUSH1 0x0 PUSH2 0x100 EXP DUP2 SLOAD DUP2 PUSH1 0xFF MUL NOT AND SWAP1 DUP4 ISZERO ISZERO MUL OR SWAP1 SSTORE POP PUSH1 0xC0 DUP3 ADD MLOAD DUP2 PUSH1 0x5 ADD PUSH1 0x1 PUSH2 0x100 EXP DUP2 SLOAD DUP2 PUSH20 0xFFFFFFFFFFFFFFFFFFFFFFFFFFFFFFFFFFFFFFFF MUL NOT AND SWAP1 DUP4 PUSH20 0xFFFFFFFFFFFFFFFFFFFFFFFFFFFFFFFFFFFFFFFF AND MUL OR SWAP1 SSTORE POP PUSH1 0xE0 DUP3 ADD MLOAD DUP2 PUSH1 0x6 ADD SSTORE PUSH2 0x100 DUP3 ADD MLOAD DUP2 PUSH1 0x7 ADD SSTORE POP POP POP POP POP POP POP POP JUMP JUMPDEST PUSH1 0x3 DUP2 DUP2 SLOAD DUP2 LT ISZERO ISZERO PUSH2 0x834 JUMPI INVALID JUMPDEST SWAP1 PUSH1 0x0 MSTORE PUSH1 0x20 PUSH1 0x0 KECCAK256 SWAP1 ADD PUSH1 0x0 SWAP2 POP SLOAD SWAP1 PUSH2 0x100 EXP SWAP1 DIV PUSH20 0xFFFFFFFFFFFFFFFFFFFFFFFFFFFFFFFFFFFFFFFF AND DUP2 JUMP JUMPDEST PUSH1 0x6 SLOAD DUP2 JUMP JUMPDEST PUSH1 0x5 SLOAD DUP2 JUMP JUMPDEST PUSH2 0x878 PUSH2 0xB65 JUMP JUMPDEST PUSH1 0x0 DUP1 SLOAD DUP1 PUSH1 0x20 MUL PUSH1 0x20 ADD PUSH1 0x40 MLOAD SWAP1 DUP2 ADD PUSH1 0x40 MSTORE DUP1 SWAP3 SWAP2 SWAP1 DUP2 DUP2 MSTORE PUSH1 0x20 ADD PUSH1 0x0 SWAP1 JUMPDEST DUP3 DUP3 LT ISZERO PUSH2 0x92C JUMPI DUP4 DUP3 SWAP1 PUSH1 0x0 MSTORE PUSH1 0x20 PUSH1 0x0 KECCAK256 SWAP1 PUSH1 0x2 MUL ADD PUSH1 0x40 DUP1 MLOAD SWAP1 DUP2 ADD PUSH1 0x40 MSTORE SWAP1 DUP2 PUSH1 0x0 DUP3 ADD SLOAD DUP2 MSTORE PUSH1 0x20 ADD PUSH1 0x1 DUP3 ADD PUSH1 0x0 SWAP1 SLOAD SWAP1 PUSH2 0x100 EXP SWAP1 DIV PUSH20 0xFFFFFFFFFFFFFFFFFFFFFFFFFFFFFFFFFFFFFFFF AND PUSH20 0xFFFFFFFFFFFFFFFFFFFFFFFFFFFFFFFFFFFFFFFF AND PUSH20 0xFFFFFFFFFFFFFFFFFFFFFFFFFFFFFFFFFFFFFFFF AND DUP2 MSTORE POP POP DUP2 MSTORE PUSH1 0x20 ADD SWAP1 PUSH1 0x1 ADD SWAP1 PUSH2 0x89A JUMP JUMPDEST POP POP POP POP SWAP1 POP SWAP1 JUMP JUMPDEST CALLER PUSH1 0x2 PUSH1 0x0 PUSH2 0x100 EXP DUP2 SLOAD DUP2 PUSH20 0xFFFFFFFFFFFFFFFFFFFFFFFFFFFFFFFFFFFFFFFF MUL NOT AND SWAP1 DUP4 PUSH20 0xFFFFFFFFFFFFFFFFFFFFFFFFFFFFFFFFFFFFFFFF AND MUL OR SWAP1 SSTORE POP JUMP JUMPDEST PUSH2 0x980 PUSH2 0xB79 JUMP JUMPDEST PUSH1 0x40 DUP1 MLOAD SWAP1 DUP2 ADD PUSH1 0x40 MSTORE DUP1 CALLVALUE DUP2 MSTORE PUSH1 0x20 ADD CALLER PUSH20 0xFFFFFFFFFFFFFFFFFFFFFFFFFFFFFFFFFFFFFFFF AND DUP2 MSTORE POP SWAP1 POP PUSH1 0x0 DUP1 SLOAD DUP1 PUSH1 0x1 ADD DUP3 DUP2 PUSH2 0x9C1 SWAP2 SWAP1 PUSH2 0xBA9 JUMP JUMPDEST SWAP2 PUSH1 0x0 MSTORE PUSH1 0x20 PUSH1 0x0 KECCAK256 SWAP1 PUSH1 0x2 MUL ADD PUSH1 0x0 DUP4 SWAP1 SWAP2 SWAP1 SWAP2 POP PUSH1 0x0 DUP3 ADD MLOAD DUP2 PUSH1 0x0 ADD SSTORE PUSH1 0x20 DUP3 ADD MLOAD DUP2 PUSH1 0x1 ADD PUSH1 0x0 PUSH2 0x100 EXP DUP2 SLOAD DUP2 PUSH20 0xFFFFFFFFFFFFFFFFFFFFFFFFFFFFFFFFFFFFFFFF MUL NOT AND SWAP1 DUP4 PUSH20 0xFFFFFFFFFFFFFFFFFFFFFFFFFFFFFFFFFFFFFFFF AND MUL OR SWAP1 SSTORE POP POP POP POP POP JUMP JUMPDEST PUSH1 0x20 PUSH1 0x40 MLOAD SWAP1 DUP2 ADD PUSH1 0x40 MSTORE DUP1 PUSH1 0x0 DUP2 MSTORE POP SWAP1 JUMP JUMPDEST PUSH2 0x120 PUSH1 0x40 MLOAD SWAP1 DUP2 ADD PUSH1 0x40 MSTORE DUP1 PUSH1 0x0 DUP2 MSTORE PUSH1 0x20 ADD PUSH2 0xA5E PUSH2 0xBDB JUMP JUMPDEST DUP2 MSTORE PUSH1 0x20 ADD PUSH1 0x0 DUP2 MSTORE PUSH1 0x20 ADD PUSH2 0xA72 PUSH2 0xBDB JUMP JUMPDEST DUP2 MSTORE PUSH1 0x20 ADD PUSH1 0x0 DUP2 MSTORE PUSH1 0x20 ADD PUSH1 0x0 ISZERO ISZERO DUP2 MSTORE PUSH1 0x20 ADD PUSH1 0x0 PUSH20 0xFFFFFFFFFFFFFFFFFFFFFFFFFFFFFFFFFFFFFFFF AND DUP2 MSTORE PUSH1 0x20 ADD PUSH1 0x0 DUP2 MSTORE PUSH1 0x20 ADD PUSH1 0x0 DUP2 MSTORE POP SWAP1 JUMP JUMPDEST DUP2 SLOAD DUP2 DUP4 SSTORE DUP2 DUP2 ISZERO GT PUSH2 0xAE0 JUMPI PUSH1 0x8 MUL DUP2 PUSH1 0x8 MUL DUP4 PUSH1 0x0 MSTORE PUSH1 0x20 PUSH1 0x0 KECCAK256 SWAP2 DUP3 ADD SWAP2 ADD PUSH2 0xADF SWAP2 SWAP1 PUSH2 0xBEF JUMP JUMPDEST JUMPDEST POP POP POP JUMP JUMPDEST DUP3 DUP1 SLOAD PUSH1 0x1 DUP2 PUSH1 0x1 AND ISZERO PUSH2 0x100 MUL SUB AND PUSH1 0x2 SWAP1 DIV SWAP1 PUSH1 0x0 MSTORE PUSH1 0x20 PUSH1 0x0 KECCAK256 SWAP1 PUSH1 0x1F ADD PUSH1 0x20 SWAP1 DIV DUP2 ADD SWAP3 DUP3 PUSH1 0x1F LT PUSH2 0xB26 JUMPI DUP1 MLOAD PUSH1 0xFF NOT AND DUP4 DUP1 ADD OR DUP6 SSTORE PUSH2 0xB54 JUMP JUMPDEST DUP3 DUP1 ADD PUSH1 0x1 ADD DUP6 SSTORE DUP3 ISZERO PUSH2 0xB54 JUMPI SWAP2 DUP3 ADD JUMPDEST DUP3 DUP2 GT ISZERO PUSH2 0xB53 JUMPI DUP3 MLOAD DUP3 SSTORE SWAP2 PUSH1 0x20 ADD SWAP2 SWAP1 PUSH1 0x1 ADD SWAP1 PUSH2 0xB38 JUMP JUMPDEST JUMPDEST POP SWAP1 POP PUSH2 0xB61 SWAP2 SWAP1 PUSH2 0xC91 JUMP JUMPDEST POP SWAP1 JUMP JUMPDEST PUSH1 0x20 PUSH1 0x40 MLOAD SWAP1 DUP2 ADD PUSH1 0x40 MSTORE DUP1 PUSH1 0x0 DUP2 MSTORE POP SWAP1 JUMP JUMPDEST PUSH1 0x40 DUP1 MLOAD SWAP1 DUP2 ADD PUSH1 0x40 MSTORE DUP1 PUSH1 0x0 DUP2 MSTORE PUSH1 0x20 ADD PUSH1 0x0 PUSH20 0xFFFFFFFFFFFFFFFFFFFFFFFFFFFFFFFFFFFFFFFF AND DUP2 MSTORE POP SWAP1 JUMP JUMPDEST DUP2 SLOAD DUP2 DUP4 SSTORE DUP2 DUP2 ISZERO GT PUSH2 0xBD6 JUMPI PUSH1 0x2 MUL DUP2 PUSH1 0x2 MUL DUP4 PUSH1 0x0 MSTORE PUSH1 0x20 PUSH1 0x0 KECCAK256 SWAP2 DUP3 ADD SWAP2 ADD PUSH2 0xBD5 SWAP2 SWAP1 PUSH2 0xCB6 JUMP JUMPDEST JUMPDEST POP POP POP JUMP JUMPDEST PUSH1 0x20 PUSH1 0x40 MLOAD SWAP1 DUP2 ADD PUSH1 0x40 MSTORE DUP1 PUSH1 0x0 DUP2 MSTORE POP SWAP1 JUMP JUMPDEST PUSH2 0xC8E SWAP2 SWAP1 JUMPDEST DUP1 DUP3 GT ISZERO PUSH2 0xC8A JUMPI PUSH1 0x0 DUP1 DUP3 ADD PUSH1 0x0 SWAP1 SSTORE PUSH1 0x1 DUP3 ADD PUSH1 0x0 PUSH2 0xC16 SWAP2 SWAP1 PUSH2 0xD04 JUMP JUMPDEST PUSH1 0x2 DUP3 ADD PUSH1 0x0 SWAP1 SSTORE PUSH1 0x3 DUP3 ADD PUSH1 0x0 PUSH2 0xC2E SWAP2 SWAP1 PUSH2 0xD04 JUMP JUMPDEST PUSH1 0x4 DUP3 ADD PUSH1 0x0 SWAP1 SSTORE PUSH1 0x5 DUP3 ADD PUSH1 0x0 PUSH2 0x100 EXP DUP2 SLOAD SWAP1 PUSH1 0xFF MUL NOT AND SWAP1 SSTORE PUSH1 0x5 DUP3 ADD PUSH1 0x1 PUSH2 0x100 EXP DUP2 SLOAD SWAP1 PUSH20 0xFFFFFFFFFFFFFFFFFFFFFFFFFFFFFFFFFFFFFFFF MUL NOT AND SWAP1 SSTORE PUSH1 0x6 DUP3 ADD PUSH1 0x0 SWAP1 SSTORE PUSH1 0x7 DUP3 ADD PUSH1 0x0 SWAP1 SSTORE POP PUSH1 0x8 ADD PUSH2 0xBF5 JUMP JUMPDEST POP SWAP1 JUMP JUMPDEST SWAP1 JUMP JUMPDEST PUSH2 0xCB3 SWAP2 SWAP1 JUMPDEST DUP1 DUP3 GT ISZERO PUSH2 0xCAF JUMPI PUSH1 0x0 DUP2 PUSH1 0x0 SWAP1 SSTORE POP PUSH1 0x1 ADD PUSH2 0xC97 JUMP JUMPDEST POP SWAP1 JUMP JUMPDEST SWAP1 JUMP JUMPDEST PUSH2 0xD01 SWAP2 SWAP1 JUMPDEST DUP1 DUP3 GT ISZERO PUSH2 0xCFD JUMPI PUSH1 0x0 DUP1 DUP3 ADD PUSH1 0x0 SWAP1 SSTORE PUSH1 0x1 DUP3 ADD PUSH1 0x0 PUSH2 0x100 EXP DUP2 SLOAD SWAP1 PUSH20 0xFFFFFFFFFFFFFFFFFFFFFFFFFFFFFFFFFFFFFFFF MUL NOT AND SWAP1 SSTORE POP PUSH1 0x2 ADD PUSH2 0xCBC JUMP JUMPDEST POP SWAP1 JUMP JUMPDEST SWAP1 JUMP JUMPDEST POP DUP1 SLOAD PUSH1 0x1 DUP2 PUSH1 0x1 AND ISZERO PUSH2 0x100 MUL SUB AND PUSH1 0x2 SWAP1 DIV PUSH1 0x0 DUP3 SSTORE DUP1 PUSH1 0x1F LT PUSH2 0xD2A JUMPI POP PUSH2 0xD49 JUMP JUMPDEST PUSH1 0x1F ADD PUSH1 0x20 SWAP1 DIV SWAP1 PUSH1 0x0 MSTORE PUSH1 0x20 PUSH1 0x0 KECCAK256 SWAP1 DUP2 ADD SWAP1 PUSH2 0xD48 SWAP2 SWAP1 PUSH2 0xC91 JUMP JUMPDEST JUMPDEST POP JUMP JUMPDEST PUSH2 0xD55 DUP2 PUSH2 0x119F JUMP JUMPDEST DUP3 MSTORE POP POP JUMP JUMPDEST PUSH1 0x0 PUSH2 0xD66 DUP3 PUSH2 0x1164 JUMP JUMPDEST DUP1 DUP5 MSTORE PUSH1 0x20 DUP5 ADD SWAP4 POP PUSH2 0xD78 DUP4 PUSH2 0x1138 JUMP JUMPDEST PUSH1 0x0 JUMPDEST DUP3 DUP2 LT ISZERO PUSH2 0xDAA JUMPI PUSH2 0xD8E DUP7 DUP4 MLOAD PUSH2 0xEF0 JUMP JUMPDEST PUSH2 0xD97 DUP3 PUSH2 0x1185 JUMP JUMPDEST SWAP2 POP PUSH1 0x40 DUP7 ADD SWAP6 POP PUSH1 0x1 DUP2 ADD SWAP1 POP PUSH2 0xD7B JUMP JUMPDEST POP DUP5 SWAP3 POP POP POP SWAP3 SWAP2 POP POP JUMP JUMPDEST PUSH1 0x0 PUSH2 0xDC1 DUP3 PUSH2 0x116F JUMP JUMPDEST DUP1 DUP5 MSTORE PUSH1 0x20 DUP5 ADD SWAP4 POP DUP4 PUSH1 0x20 DUP3 MUL DUP6 ADD PUSH2 0xDDA DUP6 PUSH2 0x1145 JUMP JUMPDEST PUSH1 0x0 JUMPDEST DUP5 DUP2 LT ISZERO PUSH2 0xE14 JUMPI DUP4 DUP4 SUB DUP9 MSTORE PUSH2 0xDF5 DUP4 DUP4 MLOAD PUSH2 0xF1F JUMP JUMPDEST SWAP3 POP PUSH2 0xE00 DUP3 PUSH2 0x1192 JUMP JUMPDEST SWAP2 POP PUSH2 0x120 DUP9 ADD SWAP8 POP PUSH1 0x1 DUP2 ADD SWAP1 POP PUSH2 0xDDD JUMP JUMPDEST POP DUP2 SWAP7 POP DUP7 SWAP5 POP POP POP POP POP SWAP3 SWAP2 POP POP JUMP JUMPDEST PUSH2 0xE2E DUP2 PUSH2 0x11BF JUMP JUMPDEST DUP3 MSTORE POP POP JUMP JUMPDEST PUSH1 0x0 PUSH2 0xE3F DUP3 PUSH2 0x117A JUMP JUMPDEST DUP1 DUP5 MSTORE PUSH2 0xE53 DUP2 PUSH1 0x20 DUP7 ADD PUSH1 0x20 DUP7 ADD PUSH2 0x11D5 JUMP JUMPDEST PUSH2 0xE5C DUP2 PUSH2 0x1211 JUMP JUMPDEST PUSH1 0x20 DUP6 ADD ADD SWAP2 POP POP SWAP3 SWAP2 POP POP JUMP JUMPDEST PUSH1 0x0 DUP2 SLOAD PUSH1 0x1 DUP2 AND PUSH1 0x0 DUP2 EQ PUSH2 0xE87 JUMPI PUSH1 0x1 DUP2 EQ PUSH2 0xEA7 JUMPI PUSH2 0xEE8 JUMP JUMPDEST PUSH1 0x7F PUSH1 0x2 DUP4 DIV AND DUP1 DUP7 MSTORE PUSH1 0xFF NOT DUP4 AND PUSH1 0x20 DUP8 ADD MSTORE PUSH1 0x40 DUP7 ADD SWAP4 POP POP PUSH2 0xEE8 JUMP JUMPDEST PUSH1 0x2 DUP3 DIV DUP1 DUP7 MSTORE PUSH1 0x20 DUP7 ADD SWAP6 POP PUSH2 0xEBD DUP6 PUSH2 0x1152 JUMP JUMPDEST PUSH1 0x0 JUMPDEST DUP3 DUP2 LT ISZERO PUSH2 0xEDF JUMPI DUP2 SLOAD DUP2 DUP10 ADD MSTORE PUSH1 0x1 DUP3 ADD SWAP2 POP PUSH1 0x20 DUP2 ADD SWAP1 POP PUSH2 0xEC0 JUMP JUMPDEST DUP1 DUP9 ADD SWAP6 POP POP POP POP JUMPDEST POP POP SWAP3 SWAP2 POP POP JUMP JUMPDEST PUSH1 0x40 DUP3 ADD PUSH1 0x0 DUP3 ADD MLOAD PUSH2 0xF06 PUSH1 0x0 DUP6 ADD DUP3 PUSH2 0xFEB JUMP JUMPDEST POP PUSH1 0x20 DUP3 ADD MLOAD PUSH2 0xF19 PUSH1 0x20 DUP6 ADD DUP3 PUSH2 0xD4C JUMP JUMPDEST POP POP POP POP JUMP JUMPDEST PUSH1 0x0 PUSH2 0x120 DUP4 ADD PUSH1 0x0 DUP4 ADD MLOAD PUSH2 0xF38 PUSH1 0x0 DUP7 ADD DUP3 PUSH2 0xFEB JUMP JUMPDEST POP PUSH1 0x20 DUP4 ADD MLOAD DUP5 DUP3 SUB PUSH1 0x20 DUP7 ADD MSTORE PUSH2 0xF50 DUP3 DUP3 PUSH2 0xE34 JUMP JUMPDEST SWAP2 POP POP PUSH1 0x40 DUP4 ADD MLOAD PUSH2 0xF65 PUSH1 0x40 DUP7 ADD DUP3 PUSH2 0xFEB JUMP JUMPDEST POP PUSH1 0x60 DUP4 ADD MLOAD DUP5 DUP3 SUB PUSH1 0x60 DUP7 ADD MSTORE PUSH2 0xF7D DUP3 DUP3 PUSH2 0xE34 JUMP JUMPDEST SWAP2 POP POP PUSH1 0x80 DUP4 ADD MLOAD PUSH2 0xF92 PUSH1 0x80 DUP7 ADD DUP3 PUSH2 0xFEB JUMP JUMPDEST POP PUSH1 0xA0 DUP4 ADD MLOAD PUSH2 0xFA5 PUSH1 0xA0 DUP7 ADD DUP3 PUSH2 0xE25 JUMP JUMPDEST POP PUSH1 0xC0 DUP4 ADD MLOAD PUSH2 0xFB8 PUSH1 0xC0 DUP7 ADD DUP3 PUSH2 0xD4C JUMP JUMPDEST POP PUSH1 0xE0 DUP4 ADD MLOAD PUSH2 0xFCB PUSH1 0xE0 DUP7 ADD DUP3 PUSH2 0xFEB JUMP JUMPDEST POP PUSH2 0x100 DUP4 ADD MLOAD PUSH2 0xFE0 PUSH2 0x100 DUP7 ADD DUP3 PUSH2 0xFEB JUMP JUMPDEST POP DUP1 SWAP2 POP POP SWAP3 SWAP2 POP POP JUMP JUMPDEST PUSH2 0xFF4 DUP2 PUSH2 0x11CB JUMP JUMPDEST DUP3 MSTORE POP POP JUMP JUMPDEST PUSH1 0x0 PUSH1 0x20 DUP3 ADD SWAP1 POP PUSH2 0x100F PUSH1 0x0 DUP4 ADD DUP5 PUSH2 0xD4C JUMP JUMPDEST SWAP3 SWAP2 POP POP JUMP JUMPDEST PUSH1 0x0 PUSH1 0x20 DUP3 ADD SWAP1 POP DUP2 DUP2 SUB PUSH1 0x0 DUP4 ADD MSTORE PUSH2 0x102F DUP2 DUP5 PUSH2 0xD5B JUMP JUMPDEST SWAP1 POP SWAP3 SWAP2 POP POP JUMP JUMPDEST PUSH1 0x0 PUSH1 0x20 DUP3 ADD SWAP1 POP DUP2 DUP2 SUB PUSH1 0x0 DUP4 ADD MSTORE PUSH2 0x1051 DUP2 DUP5 PUSH2 0xDB6 JUMP JUMPDEST SWAP1 POP SWAP3 SWAP2 POP POP JUMP JUMPDEST PUSH1 0x0 PUSH1 0x20 DUP3 ADD SWAP1 POP PUSH2 0x106E PUSH1 0x0 DUP4 ADD DUP5 PUSH2 0xFEB JUMP JUMPDEST SWAP3 SWAP2 POP POP JUMP JUMPDEST PUSH1 0x0 PUSH1 0x40 DUP3 ADD SWAP1 POP PUSH2 0x1089 PUSH1 0x0 DUP4 ADD DUP6 PUSH2 0xFEB JUMP JUMPDEST PUSH2 0x1096 PUSH1 0x20 DUP4 ADD DUP5 PUSH2 0xD4C JUMP JUMPDEST SWAP4 SWAP3 POP POP POP JUMP JUMPDEST PUSH1 0x0 PUSH2 0x120 DUP3 ADD SWAP1 POP PUSH2 0x10B3 PUSH1 0x0 DUP4 ADD DUP13 PUSH2 0xFEB JUMP JUMPDEST DUP2 DUP2 SUB PUSH1 0x20 DUP4 ADD MSTORE PUSH2 0x10C5 DUP2 DUP12 PUSH2 0xE6A JUMP JUMPDEST SWAP1 POP PUSH2 0x10D4 PUSH1 0x40 DUP4 ADD DUP11 PUSH2 0xFEB JUMP JUMPDEST DUP2 DUP2 SUB PUSH1 0x60 DUP4 ADD MSTORE PUSH2 0x10E6 DUP2 DUP10 PUSH2 0xE6A JUMP JUMPDEST SWAP1 POP PUSH2 0x10F5 PUSH1 0x80 DUP4 ADD DUP9 PUSH2 0xFEB JUMP JUMPDEST PUSH2 0x1102 PUSH1 0xA0 DUP4 ADD DUP8 PUSH2 0xE25 JUMP JUMPDEST PUSH2 0x110F PUSH1 0xC0 DUP4 ADD DUP7 PUSH2 0xD4C JUMP JUMPDEST PUSH2 0x111C PUSH1 0xE0 DUP4 ADD DUP6 PUSH2 0xFEB JUMP JUMPDEST PUSH2 0x112A PUSH2 0x100 DUP4 ADD DUP5 PUSH2 0xFEB JUMP JUMPDEST SWAP11 SWAP10 POP POP POP POP POP POP POP POP POP POP JUMP JUMPDEST PUSH1 0x0 PUSH1 0x20 DUP3 ADD SWAP1 POP SWAP2 SWAP1 POP JUMP JUMPDEST PUSH1 0x0 PUSH1 0x20 DUP3 ADD SWAP1 POP SWAP2 SWAP1 POP JUMP JUMPDEST PUSH1 0x0 DUP2 PUSH1 0x0 MSTORE PUSH1 0x20 PUSH1 0x0 KECCAK256 SWAP1 POP SWAP2 SWAP1 POP JUMP JUMPDEST PUSH1 0x0 DUP2 MLOAD SWAP1 POP SWAP2 SWAP1 POP JUMP JUMPDEST PUSH1 0x0 DUP2 MLOAD SWAP1 POP SWAP2 SWAP1 POP JUMP JUMPDEST PUSH1 0x0 DUP2 MLOAD SWAP1 POP SWAP2 SWAP1 POP JUMP JUMPDEST PUSH1 0x0 PUSH1 0x20 DUP3 ADD SWAP1 POP SWAP2 SWAP1 POP JUMP JUMPDEST PUSH1 0x0 PUSH1 0x20 DUP3 ADD SWAP1 POP SWAP2 SWAP1 POP JUMP JUMPDEST PUSH1 0x0 PUSH20 0xFFFFFFFFFFFFFFFFFFFFFFFFFFFFFFFFFFFFFFFF DUP3 AND SWAP1 POP SWAP2 SWAP1 POP JUMP JUMPDEST PUSH1 0x0 DUP2 ISZERO ISZERO SWAP1 POP SWAP2 SWAP1 POP JUMP JUMPDEST PUSH1 0x0 DUP2 SWAP1 POP SWAP2 SWAP1 POP JUMP JUMPDEST PUSH1 0x0 JUMPDEST DUP4 DUP2 LT ISZERO PUSH2 0x11F3 JUMPI DUP1 DUP3 ADD MLOAD DUP2 DUP5 ADD MSTORE PUSH1 0x20 DUP2 ADD SWAP1 POP PUSH2 0x11D8 JUMP JUMPDEST DUP4 DUP2 EQ PUSH1 0x0 DUP2 EQ PUSH2 0x1203 JUMPI PUSH2 0x120A JUMP JUMPDEST PUSH1 0x0 DUP6 DUP6 ADD MSTORE JUMPDEST POP POP POP POP POP JUMP JUMPDEST PUSH1 0x0 PUSH1 0x1F NOT PUSH1 0x1F DUP4 ADD AND SWAP1 POP SWAP2 SWAP1 POP JUMP STOP LOG2 PUSH6 0x627A7A723058 KECCAK256 0xcf DUP5 0x4b 0x47 DUP6 0xb9 0xe3 GASPRICE SWAP7 SSTORE STOP SWAP15 0xd0 BALANCE 0x5e ORIGIN 0xe9 PUSH23 0xB3CA76273E62105B1C2D86064D446C6578706572696D65 PUSH15 0x74616CF50037000000000000000000 "
        },
        "gasEstimates": {
          "creation": {
            "codeDepositCost": "940000",
            "executionCost": "970",
            "totalCost": "940970"
          },
          "external": {
            "Scholarship()": "20611",
            "amount()": "661",
            "depositer(uint256)": "1307",
            "enter()": "infinite",
            "getListOfDepositors()": "infinite",
            "getListOfStudents()": "infinite",
            "manager()": "615",
            "minimumScore()": "683",
            "rechargeAddress(uint256)": "1006",
            "registerStudent(string,uint256,uint256,string)": "infinite",
            "scholarshipAmout()": "551",
            "students(uint256)": "infinite"
          }
        },
        "methodIdentifiers": {
          "Scholarship()": "ce251a30",
          "amount()": "aa8c217c",
          "depositer(uint256)": "513e9848",
          "enter()": "e97dcb62",
          "getListOfDepositors()": "bafdb029",
          "getListOfStudents()": "15f6febd",
          "manager()": "481c6a75",
          "minimumScore()": "ac96bd6e",
          "rechargeAddress(uint256)": "a8233ee9",
          "registerStudent(string,uint256,uint256,string)": "6148c54c",
          "scholarshipAmout()": "2c5d4725",
          "students(uint256)": "06ead22e"
        }
      },
      "userdoc": {
        "methods": {}
      }
    }
  }
}