{
  "_format": "hh-sol-artifact-1",
  "contractName": "Box",
  "sourceName": "contracts/Box.sol",
  "abi": [
    {
      "constant": true,
      "inputs": [
        {
          "name": "",
          "type": "uint256"
        }
      ],
      "name": "students",
      "outputs": [
        {
          "name": "slNo",
          "type": "uint256"
        },
        {
          "name": "name",
          "type": "string"
        },
        {
          "name": "rollNo",
          "type": "uint256"
        },
        {
          "name": "dob",
          "type": "string"
        },
        {
          "name": "score",
          "type": "uint256"
        },
        {
          "name": "complete",
          "type": "bool"
        },
        {
          "name": "StudentAddress",
          "type": "address"
        },
        {
          "name": "amount",
          "type": "uint256"
        },
        {
          "name": "otp",
          "type": "uint256"
        }
      ],
      "payable": false,
      "stateMutability": "view",
      "type": "function"
    },
    {
      "constant": true,
      "inputs": [],
      "name": "getListOfStudents",
      "outputs": [
        {
          "components": [
            {
              "name": "slNo",
              "type": "uint256"
            },
            {
              "name": "name",
              "type": "string"
            },
            {
              "name": "rollNo",
              "type": "uint256"
            },
            {
              "name": "dob",
              "type": "string"
            },
            {
              "name": "score",
              "type": "uint256"
            },
            {
              "name": "complete",
              "type": "bool"
            },
            {
              "name": "StudentAddress",
              "type": "address"
            },
            {
              "name": "amount",
              "type": "uint256"
            },
            {
              "name": "otp",
              "type": "uint256"
            }
          ],
          "name": "",
          "type": "tuple[]"
        }
      ],
      "payable": false,
      "stateMutability": "view",
      "type": "function"
    },
    {
      "constant": true,
      "inputs": [],
      "name": "scholarshipAmout",
      "outputs": [
        {
          "name": "",
          "type": "uint256"
        }
      ],
      "payable": false,
      "stateMutability": "view",
      "type": "function"
    },
    {
      "constant": true,
      "inputs": [],
      "name": "manager",
      "outputs": [
        {
          "name": "",
          "type": "address"
        }
      ],
      "payable": false,
      "stateMutability": "view",
      "type": "function"
    },
    {
      "constant": true,
      "inputs": [
        {
          "name": "",
          "type": "uint256"
        }
      ],
      "name": "depositer",
      "outputs": [
        {
          "name": "amount",
          "type": "uint256"
        },
        {
          "name": "depositerAddress",
          "type": "address"
        }
      ],
      "payable": false,
      "stateMutability": "view",
      "type": "function"
    },
    {
      "constant": false,
      "inputs": [
        {
          "name": "name",
          "type": "string"
        },
        {
          "name": "rollNo",
          "type": "uint256"
        },
        {
          "name": "score",
          "type": "uint256"
        },
        {
          "name": "dob",
          "type": "string"
        }
      ],
      "name": "registerStudent",
      "outputs": [],
      "payable": true,
      "stateMutability": "payable",
      "type": "function"
    },
    {
      "constant": true,
      "inputs": [
        {
          "name": "",
          "type": "uint256"
        }
      ],
      "name": "rechargeAddress",
      "outputs": [
        {
          "name": "",
          "type": "address"
        }
      ],
      "payable": false,
      "stateMutability": "view",
      "type": "function"
    },
    {
      "constant": true,
      "inputs": [],
      "name": "amount",
      "outputs": [
        {
          "name": "",
          "type": "uint256"
        }
      ],
      "payable": false,
      "stateMutability": "view",
      "type": "function"
    },
    {
      "constant": true,
      "inputs": [],
      "name": "minimumScore",
      "outputs": [
        {
          "name": "",
          "type": "uint256"
        }
      ],
      "payable": false,
      "stateMutability": "view",
      "type": "function"
    },
    {
      "constant": true,
      "inputs": [],
      "name": "getListOfDepositors",
      "outputs": [
        {
          "components": [
            {
              "name": "amount",
              "type": "uint256"
            },
            {
              "name": "depositerAddress",
              "type": "address"
            }
          ],
          "name": "",
          "type": "tuple[]"
        }
      ],
      "payable": false,
      "stateMutability": "view",
      "type": "function"
    },
    {
      "constant": false,
      "inputs": [],
      "name": "Scholarship",
      "outputs": [],
      "payable": false,
      "stateMutability": "nonpayable",
      "type": "function"
    },
    {
      "constant": false,
      "inputs": [],
      "name": "enter",
      "outputs": [],
      "payable": true,
      "stateMutability": "payable",
      "type": "function"
    }
  ],
  "bytecode": "0x6060604052341561000f57600080fd5b61125c8061001e6000396000f300606060405236156100b8576000357c0100000000000000000000000000000000000000000000000000000000900463ffffffff16806306ead22e146100bd57806315f6febd146100fc5780632c5d472514610125578063481c6a751461014e578063513e9848146101775780636148c54c146101af578063a8233ee914610256578063aa8c217c1461028d578063ac96bd6e146102b6578063bafdb029146102df578063ce251a3014610308578063e97dcb621461031d575b600080fd5b34156100c857600080fd5b6100de6004808035906020019091905050610327565b6040516100f39998979695949392919061109d565b60405180910390f35b341561010757600080fd5b61010f6103af565b60405161011c9190611037565b60405180910390f35b341561013057600080fd5b6101386105fd565b6040516101459190611059565b60405180910390f35b341561015957600080fd5b610161610603565b60405161016e9190610ffa565b60405180910390f35b341561018257600080fd5b6101986004808035906020019091905050610629565b6040516101a6929190611074565b60405180910390f35b610254600480803590602001908201803590602001908080601f0160208091040260200160405190810160405280939291908181526020018383808284378201915050505050509190803590602001909190803590602001909190803590602001908201803590602001908080601f0160208091040260200160405190810160405280939291908181526020018383808284378201915050505050509190505061067c565b005b341561026157600080fd5b6102776004808035906020019091905050610825565b6040516102849190610ffa565b60405180910390f35b341561029857600080fd5b6102a0610864565b6040516102ad9190611059565b60405180910390f35b34156102c157600080fd5b6102c961086a565b6040516102d69190611059565b60405180910390f35b34156102ea57600080fd5b6102f2610870565b6040516102ff9190611015565b60405180910390f35b341561031357600080fd5b61031b610935565b005b610325610978565b005b60018181548110151561033657fe5b9060005260206000209060080201600091509050806000015490806001019080600201549080600301908060040154908060050160009054906101000a900460ff16908060050160019054906101000a900473ffffffffffffffffffffffffffffffffffffffff16908060060154908060070154905089565b6103b7610a2e565b6001805480602002602001604051908101604052809291908181526020016000905b828210156105f45783829060005260206000209060080201610120604051908101604052908160008201548152602001600182018054600181600116156101000203166002900480601f0160208091040260200160405190810160405280929190818152602001828054600181600116156101000203166002900480156104a15780601f10610476576101008083540402835291602001916104a1565b820191906000526020600020905b81548152906001019060200180831161048457829003601f168201915b5050505050815260200160028201548152602001600382018054600181600116156101000203166002900480601f01602080910402602001604051908101604052809291908181526020018280546001816001161561010002031660029004801561054d5780601f106105225761010080835404028352916020019161054d565b820191906000526020600020905b81548152906001019060200180831161053057829003601f168201915b50505050508152602001600482015481526020016005820160009054906101000a900460ff161515151581526020016005820160019054906101000a900473ffffffffffffffffffffffffffffffffffffffff1673ffffffffffffffffffffffffffffffffffffffff1673ffffffffffffffffffffffffffffffffffffffff16815260200160068201548152602001600782015481525050815260200190600101906103d9565b50505050905090565b60045481565b600260009054906101000a900473ffffffffffffffffffffffffffffffffffffffff1681565b60008181548110151561063857fe5b90600052602060002090600202016000915090508060000154908060010160009054906101000a900473ffffffffffffffffffffffffffffffffffffffff16905082565b610684610a42565b60648311151561069357600080fd5b6101206040519081016040528060018054905081526020018681526020018581526020018381526020018481526020016000151581526020013373ffffffffffffffffffffffffffffffffffffffff168152602001670de0b6b3a76400008152602001444260405180838152602001828152602001925050506040518091039020600190048152509050600180548060010182816107319190610ab3565b9160005260206000209060080201600083909190915060008201518160000155602082015181600101908051906020019061076d929190610ae5565b50604082015181600201556060820151816003019080519060200190610794929190610ae5565b506080820151816004015560a08201518160050160006101000a81548160ff02191690831515021790555060c08201518160050160016101000a81548173ffffffffffffffffffffffffffffffffffffffff021916908373ffffffffffffffffffffffffffffffffffffffff16021790555060e0820151816006015561010082015181600701555050505050505050565b60038181548110151561083457fe5b90600052602060002090016000915054906101000a900473ffffffffffffffffffffffffffffffffffffffff1681565b60065481565b60055481565b610878610b65565b6000805480602002602001604051908101604052809291908181526020016000905b8282101561092c5783829060005260206000209060020201604080519081016040529081600082015481526020016001820160009054906101000a900473ffffffffffffffffffffffffffffffffffffffff1673ffffffffffffffffffffffffffffffffffffffff1673ffffffffffffffffffffffffffffffffffffffff16815250508152602001906001019061089a565b50505050905090565b33600260006101000a81548173ffffffffffffffffffffffffffffffffffffffff021916908373ffffffffffffffffffffffffffffffffffffffff160217905550565b610980610b79565b60408051908101604052803481526020013373ffffffffffffffffffffffffffffffffffffffff168152509050600080548060010182816109c19190610ba9565b916000526020600020906002020160008390919091506000820151816000015560208201518160010160006101000a81548173ffffffffffffffffffffffffffffffffffffffff021916908373ffffffffffffffffffffffffffffffffffffffff16021790555050505050565b602060405190810160405280600081525090565b6101206040519081016040528060008152602001610a5e610bdb565b815260200160008152602001610a72610bdb565b815260200160008152602001600015158152602001600073ffffffffffffffffffffffffffffffffffffffff16815260200160008152602001600081525090565b815481835581811511610ae057600802816008028360005260206000209182019101610adf9190610bef565b5b505050565b828054600181600116156101000203166002900490600052602060002090601f016020900481019282601f10610b2657805160ff1916838001178555610b54565b82800160010185558215610b54579182015b82811115610b53578251825591602001919060010190610b38565b5b509050610b619190610c91565b5090565b602060405190810160405280600081525090565b604080519081016040528060008152602001600073ffffffffffffffffffffffffffffffffffffffff1681525090565b815481835581811511610bd657600202816002028360005260206000209182019101610bd59190610cb6565b5b505050565b602060405190810160405280600081525090565b610c8e91905b80821115610c8a57600080820160009055600182016000610c169190610d04565b6002820160009055600382016000610c2e9190610d04565b60048201600090556005820160006101000a81549060ff02191690556005820160016101000a81549073ffffffffffffffffffffffffffffffffffffffff02191690556006820160009055600782016000905550600801610bf5565b5090565b90565b610cb391905b80821115610caf576000816000905550600101610c97565b5090565b90565b610d0191905b80821115610cfd576000808201600090556001820160006101000a81549073ffffffffffffffffffffffffffffffffffffffff021916905550600201610cbc565b5090565b90565b50805460018160011615610100020316600290046000825580601f10610d2a5750610d49565b601f016020900490600052602060002090810190610d489190610c91565b5b50565b610d558161119f565b82525050565b6000610d6682611164565b808452602084019350610d7883611138565b60005b82811015610daa57610d8e868351610ef0565b610d9782611185565b9150604086019550600181019050610d7b565b50849250505092915050565b6000610dc18261116f565b80845260208401935083602082028501610dda85611145565b60005b84811015610e14578383038852610df5838351610f1f565b9250610e0082611192565b915061012088019750600181019050610ddd565b508196508694505050505092915050565b610e2e816111bf565b82525050565b6000610e3f8261117a565b808452610e538160208601602086016111d5565b610e5c81611211565b602085010191505092915050565b600081546001811660008114610e875760018114610ea757610ee8565b607f600283041680865260ff198316602087015260408601935050610ee8565b60028204808652602086019550610ebd85611152565b60005b82811015610edf57815481890152600182019150602081019050610ec0565b80880195505050505b505092915050565b604082016000820151610f066000850182610feb565b506020820151610f196020850182610d4c565b50505050565b600061012083016000830151610f386000860182610feb565b5060208301518482036020860152610f508282610e34565b9150506040830151610f656040860182610feb565b5060608301518482036060860152610f7d8282610e34565b9150506080830151610f926080860182610feb565b5060a0830151610fa560a0860182610e25565b5060c0830151610fb860c0860182610d4c565b5060e0830151610fcb60e0860182610feb565b50610100830151610fe0610100860182610feb565b508091505092915050565b610ff4816111cb565b82525050565b600060208201905061100f6000830184610d4c565b92915050565b6000602082019050818103600083015261102f8184610d5b565b905092915050565b600060208201905081810360008301526110518184610db6565b905092915050565b600060208201905061106e6000830184610feb565b92915050565b60006040820190506110896000830185610feb565b6110966020830184610d4c565b9392505050565b6000610120820190506110b3600083018c610feb565b81810360208301526110c5818b610e6a565b90506110d4604083018a610feb565b81810360608301526110e68189610e6a565b90506110f56080830188610feb565b61110260a0830187610e25565b61110f60c0830186610d4c565b61111c60e0830185610feb565b61112a610100830184610feb565b9a9950505050505050505050565b6000602082019050919050565b6000602082019050919050565b60008160005260206000209050919050565b600081519050919050565b600081519050919050565b600081519050919050565b6000602082019050919050565b6000602082019050919050565b600073ffffffffffffffffffffffffffffffffffffffff82169050919050565b60008115159050919050565b6000819050919050565b60005b838110156111f35780820151818401526020810190506111d8565b838114600081146112035761120a565b6000858501525b5050505050565b6000601f19601f83011690509190505600a265627a7a72305820cf844b4785b9e33a9655009ed0315e32e976b3ca76273e62105b1c2d86064d446c6578706572696d656e74616cf50037",
  "linkReferences": {},
  "deployedLinkReferences": {}
}