{
  "_format": "hh-sol-artifact-1",
  "contractName": "BoxV2",
  "sourceName": "contracts/BoxV2.sol",
  "abi": [
    {
      "constant": true,
      "inputs": [
        {
          "name": "",
          "type": "uint256"
        }
      ],
      "name": "students",
      "outputs": [
        {
          "name": "slNo",
          "type": "uint256"
        },
        {
          "name": "name",
          "type": "string"
        },
        {
          "name": "rollNo",
          "type": "uint256"
        },
        {
          "name": "dob",
          "type": "string"
        },
        {
          "name": "score",
          "type": "uint256"
        },
        {
          "name": "complete",
          "type": "bool"
        },
        {
          "name": "StudentAddress",
          "type": "address"
        },
        {
          "name": "amount",
          "type": "uint256"
        },
        {
          "name": "otp",
          "type": "uint256"
        }
      ],
      "payable": false,
      "stateMutability": "view",
      "type": "function"
    },
    {
      "constant": true,
      "inputs": [],
      "name": "getListOfStudents",
      "outputs": [
        {
          "components": [
            {
              "name": "slNo",
              "type": "uint256"
            },
            {
              "name": "name",
              "type": "string"
            },
            {
              "name": "rollNo",
              "type": "uint256"
            },
            {
              "name": "dob",
              "type": "string"
            },
            {
              "name": "score",
              "type": "uint256"
            },
            {
              "name": "complete",
              "type": "bool"
            },
            {
              "name": "StudentAddress",
              "type": "address"
            },
            {
              "name": "amount",
              "type": "uint256"
            },
            {
              "name": "otp",
              "type": "uint256"
            }
          ],
          "name": "",
          "type": "tuple[]"
        }
      ],
      "payable": false,
      "stateMutability": "view",
      "type": "function"
    },
    {
      "constant": true,
      "inputs": [
        {
          "name": "",
          "type": "uint256"
        }
      ],
      "name": "deviceIssue",
      "outputs": [
        {
          "name": "name",
          "type": "string"
        },
        {
          "name": "vendorName",
          "type": "string"
        },
        {
          "name": "vendorIndex",
          "type": "uint256"
        },
        {
          "name": "rollNo",
          "type": "uint256"
        },
        {
          "name": "deviceIMEI",
          "type": "string"
        },
        {
          "name": "amount",
          "type": "uint256"
        },
        {
          "name": "remark",
          "type": "string"
        }
      ],
      "payable": false,
      "stateMutability": "view",
      "type": "function"
    },
    {
      "constant": true,
      "inputs": [],
      "name": "scholarshipAmout",
      "outputs": [
        {
          "name": "",
          "type": "uint256"
        }
      ],
      "payable": false,
      "stateMutability": "view",
      "type": "function"
    },
    {
      "constant": false,
      "inputs": [
        {
          "name": "name",
          "type": "string"
        },
        {
          "name": "registrationNo",
          "type": "string"
        },
        {
          "name": "vendorAddress",
          "type": "string"
        },
        {
          "name": "pincode",
          "type": "uint256"
        }
      ],
      "name": "registerVendor",
      "outputs": [],
      "payable": true,
      "stateMutability": "payable",
      "type": "function"
    },
    {
      "constant": false,
      "inputs": [
        {
          "name": "deviceIMEI",
          "type": "string"
        },
        {
          "name": "studentIndex",
          "type": "uint256"
        },
        {
          "name": "otp",
          "type": "uint256"
        },
        {
          "name": "vendorIndex",
          "type": "uint256"
        },
        {
          "name": "amount",
          "type": "uint256"
        },
        {
          "name": "remark",
          "type": "string"
        }
      ],
      "name": "issueNewDevice",
      "outputs": [],
      "payable": true,
      "stateMutability": "payable",
      "type": "function"
    },
    {
      "constant": true,
      "inputs": [],
      "name": "manager",
      "outputs": [
        {
          "name": "",
          "type": "address"
        }
      ],
      "payable": false,
      "stateMutability": "view",
      "type": "function"
    },
    {
      "constant": true,
      "inputs": [],
      "name": "getListOfVendors",
      "outputs": [
        {
          "components": [
            {
              "name": "slNo",
              "type": "uint256"
            },
            {
              "name": "name",
              "type": "string"
            },
            {
              "name": "registrationNo",
              "type": "string"
            },
            {
              "name": "vendorAddress",
              "type": "string"
            },
            {
              "name": "pincode",
              "type": "uint256"
            },
            {
              "name": "vendorWalletAddress",
              "type": "address"
            },
            {
              "name": "status",
              "type": "bool"
            },
            {
              "name": "approverAddress",
              "type": "address"
            },
            {
              "name": "amount",
              "type": "uint256"
            }
          ],
          "name": "",
          "type": "tuple[]"
        }
      ],
      "payable": false,
      "stateMutability": "view",
      "type": "function"
    },
    {
      "constant": true,
      "inputs": [
        {
          "name": "",
          "type": "uint256"
        }
      ],
      "name": "depositer",
      "outputs": [
        {
          "name": "amount",
          "type": "uint256"
        },
        {
          "name": "depositerAddress",
          "type": "address"
        }
      ],
      "payable": false,
      "stateMutability": "view",
      "type": "function"
    },
    {
      "constant": false,
      "inputs": [
        {
          "name": "name",
          "type": "string"
        },
        {
          "name": "rollNo",
          "type": "uint256"
        },
        {
          "name": "score",
          "type": "uint256"
        },
        {
          "name": "dob",
          "type": "string"
        }
      ],
      "name": "registerStudent",
      "outputs": [],
      "payable": true,
      "stateMutability": "payable",
      "type": "function"
    },
    {
      "constant": false,
      "inputs": [
        {
          "name": "vendorIndex",
          "type": "uint256"
        }
      ],
      "name": "approveVendor",
      "outputs": [],
      "payable": true,
      "stateMutability": "payable",
      "type": "function"
    },
    {
      "constant": true,
      "inputs": [],
      "name": "getListOfDeviceIssue",
      "outputs": [
        {
          "components": [
            {
              "name": "name",
              "type": "string"
            },
            {
              "name": "vendorName",
              "type": "string"
            },
            {
              "name": "vendorIndex",
              "type": "uint256"
            },
            {
              "name": "rollNo",
              "type": "uint256"
            },
            {
              "name": "deviceIMEI",
              "type": "string"
            },
            {
              "name": "amount",
              "type": "uint256"
            },
            {
              "name": "remark",
              "type": "string"
            }
          ],
          "name": "",
          "type": "tuple[]"
        }
      ],
      "payable": false,
      "stateMutability": "view",
      "type": "function"
    },
    {
      "constant": true,
      "inputs": [
        {
          "name": "",
          "type": "uint256"
        }
      ],
      "name": "vendors",
      "outputs": [
        {
          "name": "slNo",
          "type": "uint256"
        },
        {
          "name": "name",
          "type": "string"
        },
        {
          "name": "registrationNo",
          "type": "string"
        },
        {
          "name": "vendorAddress",
          "type": "string"
        },
        {
          "name": "pincode",
          "type": "uint256"
        },
        {
          "name": "vendorWalletAddress",
          "type": "address"
        },
        {
          "name": "status",
          "type": "bool"
        },
        {
          "name": "approverAddress",
          "type": "address"
        },
        {
          "name": "amount",
          "type": "uint256"
        }
      ],
      "payable": false,
      "stateMutability": "view",
      "type": "function"
    },
    {
      "constant": true,
      "inputs": [
        {
          "name": "",
          "type": "uint256"
        }
      ],
      "name": "rechargeAddress",
      "outputs": [
        {
          "name": "",
          "type": "address"
        }
      ],
      "payable": false,
      "stateMutability": "view",
      "type": "function"
    },
    {
      "constant": true,
      "inputs": [],
      "name": "amount",
      "outputs": [
        {
          "name": "",
          "type": "uint256"
        }
      ],
      "payable": false,
      "stateMutability": "view",
      "type": "function"
    },
    {
      "constant": true,
      "inputs": [],
      "name": "minimumScore",
      "outputs": [
        {
          "name": "",
          "type": "uint256"
        }
      ],
      "payable": false,
      "stateMutability": "view",
      "type": "function"
    },
    {
      "constant": true,
      "inputs": [],
      "name": "getListOfDepositors",
      "outputs": [
        {
          "components": [
            {
              "name": "amount",
              "type": "uint256"
            },
            {
              "name": "depositerAddress",
              "type": "address"
            }
          ],
          "name": "",
          "type": "tuple[]"
        }
      ],
      "payable": false,
      "stateMutability": "view",
      "type": "function"
    },
    {
      "constant": false,
      "inputs": [
        {
          "name": "vendorIndex",
          "type": "uint256"
        }
      ],
      "name": "rejectVendor",
      "outputs": [],
      "payable": true,
      "stateMutability": "payable",
      "type": "function"
    },
    {
      "constant": false,
      "inputs": [],
      "name": "Scholarship",
      "outputs": [],
      "payable": false,
      "stateMutability": "nonpayable",
      "type": "function"
    },
    {
      "constant": false,
      "inputs": [],
      "name": "enter",
      "outputs": [],
      "payable": true,
      "stateMutability": "payable",
      "type": "function"
    }
  ],
  "bytecode": "0x6060604052341561000f57600080fd5b6129458061001e6000396000f30060606040523615610110576000357c0100000000000000000000000000000000000000000000000000000000900463ffffffff16806306ead22e1461011557806315f6febd146101545780631c3a88901461017d5780632c5d4725146101ba5780633ee393f6146101e3578063465f6954146102c4578063481c6a751461037d5780634f0cb18f146103a6578063513e9848146103cf5780636148c54c146104075780636ce71786146104ae57806386a447d9146104c6578063a08d986d146104ef578063a8233ee91461052e578063aa8c217c14610565578063ac96bd6e1461058e578063bafdb029146105b7578063ca005940146105e0578063ce251a30146105f8578063e97dcb621461060d575b600080fd5b341561012057600080fd5b6101366004808035906020019091905050610617565b60405161014b9998979695949392919061273c565b60405180910390f35b341561015f57600080fd5b61016761069f565b6040516101749190612587565b60405180910390f35b341561018857600080fd5b61019e60048080359060200190919050506108ed565b6040516101b197969594939291906125cb565b60405180910390f35b34156101c557600080fd5b6101cd61093a565b6040516101da9190612656565b60405180910390f35b6102c2600480803590602001908201803590602001908080601f0160208091040260200160405190810160405280939291908181526020018383808284378201915050505050509190803590602001908201803590602001908080601f0160208091040260200160405190810160405280939291908181526020018383808284378201915050505050509190803590602001908201803590602001908080601f01602080910402602001604051908101604052809392919081815260200183838082843782019150505050505091908035906020019091905050610940565b005b61037b600480803590602001908201803590602001908080601f0160208091040260200160405190810160405280939291908181526020018383808284378201915050505050509190803590602001909190803590602001909190803590602001909190803590602001909190803590602001908201803590602001908080601f01602080910402602001604051908101604052809392919081815260200183838082843782019150505050505091905050610b19565b005b341561038857600080fd5b610390610e32565b60405161039d9190612528565b60405180910390f35b34156103b157600080fd5b6103b9610e58565b6040516103c691906125a9565b60405180910390f35b34156103da57600080fd5b6103f0600480803590602001909190505061118a565b6040516103fe929190612671565b60405180910390f35b6104ac600480803590602001908201803590602001908080601f0160208091040260200160405190810160405280939291908181526020018383808284378201915050505050509190803590602001909190803590602001909190803590602001908201803590602001908080601f016020809104026020016040519081016040528093929190818152602001838380828437820191505050505050919050506111dd565b005b6104c46004808035906020019091905050611386565b005b34156104d157600080fd5b6104d961140b565b6040516104e69190612565565b60405180910390f35b34156104fa57600080fd5b6105106004808035906020019091905050611717565b6040516105259998979695949392919061269a565b60405180910390f35b341561053957600080fd5b61054f60048080359060200190919050506117be565b60405161055c9190612528565b60405180910390f35b341561057057600080fd5b6105786117fd565b6040516105859190612656565b60405180910390f35b341561059957600080fd5b6105a1611803565b6040516105ae9190612656565b60405180910390f35b34156105c257600080fd5b6105ca611809565b6040516105d79190612543565b60405180910390f35b6105f660048080359060200190919050506118ce565b005b341561060357600080fd5b61060b611953565b005b610615611996565b005b60018181548110151561062657fe5b9060005260206000209060080201600091509050806000015490806001019080600201549080600301908060040154908060050160009054906101000a900460ff16908060050160019054906101000a900473ffffffffffffffffffffffffffffffffffffffff16908060060154908060070154905089565b6106a7611a4c565b6001805480602002602001604051908101604052809291908181526020016000905b828210156108e45783829060005260206000209060080201610120604051908101604052908160008201548152602001600182018054600181600116156101000203166002900480601f0160208091040260200160405190810160405280929190818152602001828054600181600116156101000203166002900480156107915780601f1061076657610100808354040283529160200191610791565b820191906000526020600020905b81548152906001019060200180831161077457829003601f168201915b5050505050815260200160028201548152602001600382018054600181600116156101000203166002900480601f01602080910402602001604051908101604052809291908181526020018280546001816001161561010002031660029004801561083d5780601f106108125761010080835404028352916020019161083d565b820191906000526020600020905b81548152906001019060200180831161082057829003601f168201915b50505050508152602001600482015481526020016005820160009054906101000a900460ff161515151581526020016005820160019054906101000a900473ffffffffffffffffffffffffffffffffffffffff1673ffffffffffffffffffffffffffffffffffffffff1673ffffffffffffffffffffffffffffffffffffffff16815260200160068201548152602001600782015481525050815260200190600101906106c9565b50505050905090565b6008818154811015156108fc57fe5b906000526020600020906007020160009150905080600001908060010190806002015490806003015490806004019080600501549080600601905087565b60045481565b610948611a60565b6101206040519081016040528060078054905081526020018681526020018581526020018481526020018381526020013373ffffffffffffffffffffffffffffffffffffffff168152602001600015158152602001600073ffffffffffffffffffffffffffffffffffffffff16815260200160008152509050600780548060010182816109d59190611aed565b91600052602060002090600802016000839091909150600082015181600001556020820151816001019080519060200190610a11929190611b1f565b506040820151816002019080519060200190610a2e929190611b1f565b506060820151816003019080519060200190610a4b929190611b1f565b506080820151816004015560a08201518160050160006101000a81548173ffffffffffffffffffffffffffffffffffffffff021916908373ffffffffffffffffffffffffffffffffffffffff16021790555060c08201518160050160146101000a81548160ff02191690831515021790555060e08201518160060160006101000a81548173ffffffffffffffffffffffffffffffffffffffff021916908373ffffffffffffffffffffffffffffffffffffffff16021790555061010082015181600701555050505050505050565b600080610b24611b9f565b600188815481101515610b3357fe5b90600052602060002090600802019250600786815481101515610b5257fe5b90600052602060002090600802019150868360070154141515610b7457600080fd5b600115158260050160149054906101000a900460ff161515141515610b9857600080fd5b60e060405190810160405280846001018054600181600116156101000203166002900480601f016020809104026020016040519081016040528092919081815260200182805460018160011615610100020316600290048015610c3c5780601f10610c1157610100808354040283529160200191610c3c565b820191906000526020600020905b815481529060010190602001808311610c1f57829003601f168201915b50505050508152602001836001018054600181600116156101000203166002900480601f016020809104026020016040519081016040528092919081815260200182805460018160011615610100020316600290048015610cde5780601f10610cb357610100808354040283529160200191610cde565b820191906000526020600020905b815481529060010190602001808311610cc157829003601f168201915b50505050508152602001878152602001846002015481526020018a815260200186815260200185815250905060088054806001018281610d1e9190611bf5565b916000526020600020906007020160008390919091506000820151816000019080519060200190610d50929190611b1f565b506020820151816001019080519060200190610d6d929190611b1f565b5060408201518160020155606082015181600301556080820151816004019080519060200190610d9e929190611b1f565b5060a0820151816005015560c0820151816006019080519060200190610dc5929190611b1f565b505050508482600701540182600701819055508483600601540383600601819055503373ffffffffffffffffffffffffffffffffffffffff166108fc869081150290604051600060405180830381858888f193505050501515610e2757600080fd5b505050505050505050565b600260009054906101000a900473ffffffffffffffffffffffffffffffffffffffff1681565b610e60611c27565b6007805480602002602001604051908101604052809291908181526020016000905b828210156111815783829060005260206000209060080201610120604051908101604052908160008201548152602001600182018054600181600116156101000203166002900480601f016020809104026020016040519081016040528092919081815260200182805460018160011615610100020316600290048015610f4a5780601f10610f1f57610100808354040283529160200191610f4a565b820191906000526020600020905b815481529060010190602001808311610f2d57829003601f168201915b50505050508152602001600282018054600181600116156101000203166002900480601f016020809104026020016040519081016040528092919081815260200182805460018160011615610100020316600290048015610fec5780601f10610fc157610100808354040283529160200191610fec565b820191906000526020600020905b815481529060010190602001808311610fcf57829003601f168201915b50505050508152602001600382018054600181600116156101000203166002900480601f01602080910402602001604051908101604052809291908181526020018280546001816001161561010002031660029004801561108e5780601f106110635761010080835404028352916020019161108e565b820191906000526020600020905b81548152906001019060200180831161107157829003601f168201915b50505050508152602001600482015481526020016005820160009054906101000a900473ffffffffffffffffffffffffffffffffffffffff1673ffffffffffffffffffffffffffffffffffffffff1673ffffffffffffffffffffffffffffffffffffffff1681526020016005820160149054906101000a900460ff161515151581526020016006820160009054906101000a900473ffffffffffffffffffffffffffffffffffffffff1673ffffffffffffffffffffffffffffffffffffffff1673ffffffffffffffffffffffffffffffffffffffff16815260200160078201548152505081526020019060010190610e82565b50505050905090565b60008181548110151561119957fe5b90600052602060002090600202016000915090508060000154908060010160009054906101000a900473ffffffffffffffffffffffffffffffffffffffff16905082565b6111e5611c3b565b6064831115156111f457600080fd5b6101206040519081016040528060018054905081526020018681526020018581526020018381526020018481526020016000151581526020013373ffffffffffffffffffffffffffffffffffffffff168152602001670de0b6b3a76400008152602001444260405180838152602001828152602001925050506040518091039020600190048152509050600180548060010182816112929190611cac565b916000526020600020906008020160008390919091506000820151816000015560208201518160010190805190602001906112ce929190611b1f565b506040820151816002015560608201518160030190805190602001906112f5929190611b1f565b506080820151816004015560a08201518160050160006101000a81548160ff02191690831515021790555060c08201518160050160016101000a81548173ffffffffffffffffffffffffffffffffffffffff021916908373ffffffffffffffffffffffffffffffffffffffff16021790555060e0820151816006015561010082015181600701555050505050505050565b600060078281548110151561139757fe5b9060005260206000209060080201905060018160050160146101000a81548160ff021916908315150217905550338160060160006101000a81548173ffffffffffffffffffffffffffffffffffffffff021916908373ffffffffffffffffffffffffffffffffffffffff1602179055505050565b611413611cde565b6008805480602002602001604051908101604052809291908181526020016000905b8282101561170e578382906000526020600020906007020160e06040519081016040529081600082018054600181600116156101000203166002900480601f0160208091040260200160405190810160405280929190818152602001828054600181600116156101000203166002900480156114f25780601f106114c7576101008083540402835291602001916114f2565b820191906000526020600020905b8154815290600101906020018083116114d557829003601f168201915b50505050508152602001600182018054600181600116156101000203166002900480601f0160208091040260200160405190810160405280929190818152602001828054600181600116156101000203166002900480156115945780601f1061156957610100808354040283529160200191611594565b820191906000526020600020905b81548152906001019060200180831161157757829003601f168201915b505050505081526020016002820154815260200160038201548152602001600482018054600181600116156101000203166002900480601f01602080910402602001604051908101604052809291908181526020018280546001816001161561010002031660029004801561164a5780601f1061161f5761010080835404028352916020019161164a565b820191906000526020600020905b81548152906001019060200180831161162d57829003601f168201915b5050505050815260200160058201548152602001600682018054600181600116156101000203166002900480601f0160208091040260200160405190810160405280929190818152602001828054600181600116156101000203166002900480156116f65780601f106116cb576101008083540402835291602001916116f6565b820191906000526020600020905b8154815290600101906020018083116116d957829003601f168201915b50505050508152505081526020019060010190611435565b50505050905090565b60078181548110151561172657fe5b90600052602060002090600802016000915090508060000154908060010190806002019080600301908060040154908060050160009054906101000a900473ffffffffffffffffffffffffffffffffffffffff16908060050160149054906101000a900460ff16908060060160009054906101000a900473ffffffffffffffffffffffffffffffffffffffff16908060070154905089565b6003818154811015156117cd57fe5b90600052602060002090016000915054906101000a900473ffffffffffffffffffffffffffffffffffffffff1681565b60065481565b60055481565b611811611cf2565b6000805480602002602001604051908101604052809291908181526020016000905b828210156118c55783829060005260206000209060020201604080519081016040529081600082015481526020016001820160009054906101000a900473ffffffffffffffffffffffffffffffffffffffff1673ffffffffffffffffffffffffffffffffffffffff1673ffffffffffffffffffffffffffffffffffffffff168152505081526020019060010190611833565b50505050905090565b60006007828154811015156118df57fe5b9060005260206000209060080201905060008160050160146101000a81548160ff021916908315150217905550338160060160006101000a81548173ffffffffffffffffffffffffffffffffffffffff021916908373ffffffffffffffffffffffffffffffffffffffff1602179055505050565b33600260006101000a81548173ffffffffffffffffffffffffffffffffffffffff021916908373ffffffffffffffffffffffffffffffffffffffff160217905550565b61199e611d06565b60408051908101604052803481526020013373ffffffffffffffffffffffffffffffffffffffff168152509050600080548060010182816119df9190611d36565b916000526020600020906002020160008390919091506000820151816000015560208201518160010160006101000a81548173ffffffffffffffffffffffffffffffffffffffff021916908373ffffffffffffffffffffffffffffffffffffffff16021790555050505050565b602060405190810160405280600081525090565b6101206040519081016040528060008152602001611a7c611d68565b8152602001611a89611d68565b8152602001611a96611d68565b815260200160008152602001600073ffffffffffffffffffffffffffffffffffffffff168152602001600015158152602001600073ffffffffffffffffffffffffffffffffffffffff168152602001600081525090565b815481835581811511611b1a57600802816008028360005260206000209182019101611b199190611d7c565b5b505050565b828054600181600116156101000203166002900490600052602060002090601f016020900481019282601f10611b6057805160ff1916838001178555611b8e565b82800160010185558215611b8e579182015b82811115611b8d578251825591602001919060010190611b72565b5b509050611b9b9190611e45565b5090565b60e060405190810160405280611bb3611d68565b8152602001611bc0611d68565b81526020016000815260200160008152602001611bdb611d68565b815260200160008152602001611bef611d68565b81525090565b815481835581811511611c2257600702816007028360005260206000209182019101611c219190611e6a565b5b505050565b602060405190810160405280600081525090565b6101206040519081016040528060008152602001611c57611d68565b815260200160008152602001611c6b611d68565b815260200160008152602001600015158152602001600073ffffffffffffffffffffffffffffffffffffffff16815260200160008152602001600081525090565b815481835581811511611cd957600802816008028360005260206000209182019101611cd89190611ee1565b5b505050565b602060405190810160405280600081525090565b602060405190810160405280600081525090565b604080519081016040528060008152602001600073ffffffffffffffffffffffffffffffffffffffff1681525090565b815481835581811511611d6357600202816002028360005260206000209182019101611d629190611f83565b5b505050565b602060405190810160405280600081525090565b611e4291905b80821115611e3e57600080820160009055600182016000611da39190611fd1565b600282016000611db39190611fd1565b600382016000611dc39190611fd1565b60048201600090556005820160006101000a81549073ffffffffffffffffffffffffffffffffffffffff02191690556005820160146101000a81549060ff02191690556006820160006101000a81549073ffffffffffffffffffffffffffffffffffffffff0219169055600782016000905550600801611d82565b5090565b90565b611e6791905b80821115611e63576000816000905550600101611e4b565b5090565b90565b611ede91905b80821115611eda5760008082016000611e899190611fd1565b600182016000611e999190611fd1565b60028201600090556003820160009055600482016000611eb99190611fd1565b6005820160009055600682016000611ed19190611fd1565b50600701611e70565b5090565b90565b611f8091905b80821115611f7c57600080820160009055600182016000611f089190611fd1565b6002820160009055600382016000611f209190611fd1565b60048201600090556005820160006101000a81549060ff02191690556005820160016101000a81549073ffffffffffffffffffffffffffffffffffffffff02191690556006820160009055600782016000905550600801611ee7565b5090565b90565b611fce91905b80821115611fca576000808201600090556001820160006101000a81549073ffffffffffffffffffffffffffffffffffffffff021916905550600201611f89565b5090565b90565b50805460018160011615610100020316600290046000825580601f10611ff75750612016565b601f0160209004906000526020600020908101906120159190611e45565b5b50565b61202281612888565b82525050565b60006120338261281d565b808452602084019350612045836127d7565b60005b828110156120775761205b86835161229a565b61206482612854565b9150604086019550600181019050612048565b50849250505092915050565b600061208e82612828565b808452602084019350836020820285016120a7856127e4565b60005b848110156120e05783830388526120c28383516122c9565b92506120cd82612861565b915060e0880197506001810190506120aa565b508196508694505050505092915050565b60006120fc82612833565b80845260208401935083602082028501612115856127f1565b60005b8481101561214f57838303885261213083835161237a565b925061213b8261286e565b915061012088019750600181019050612118565b508196508694505050505092915050565b600061216b8261283e565b80845260208401935083602082028501612184856127fe565b60005b848110156121be57838303885261219f838351612446565b92506121aa8261287b565b915061012088019750600181019050612187565b508196508694505050505092915050565b6121d8816128a8565b82525050565b60006121e982612849565b8084526121fd8160208601602086016128be565b612206816128fa565b602085010191505092915050565b600081546001811660008114612231576001811461225157612292565b607f600283041680865260ff198316602087015260408601935050612292565b600282048086526020860195506122678561280b565b60005b828110156122895781548189015260018201915060208101905061226a565b80880195505050505b505092915050565b6040820160008201516122b06000850182612519565b5060208201516122c36020850182612019565b50505050565b600060e08301600083015184820360008601526122e682826121de565b9150506020830151848203602086015261230082826121de565b91505060408301516123156040860182612519565b5060608301516123286060860182612519565b506080830151848203608086015261234082826121de565b91505060a083015161235560a0860182612519565b5060c083015184820360c086015261236d82826121de565b9150508091505092915050565b6000610120830160008301516123936000860182612519565b50602083015184820360208601526123ab82826121de565b91505060408301516123c06040860182612519565b50606083015184820360608601526123d882826121de565b91505060808301516123ed6080860182612519565b5060a083015161240060a08601826121cf565b5060c083015161241360c0860182612019565b5060e083015161242660e0860182612519565b5061010083015161243b610100860182612519565b508091505092915050565b60006101208301600083015161245f6000860182612519565b506020830151848203602086015261247782826121de565b9150506040830151848203604086015261249182826121de565b915050606083015184820360608601526124ab82826121de565b91505060808301516124c06080860182612519565b5060a08301516124d360a0860182612019565b5060c08301516124e660c08601826121cf565b5060e08301516124f960e0860182612019565b5061010083015161250e610100860182612519565b508091505092915050565b612522816128b4565b82525050565b600060208201905061253d6000830184612019565b92915050565b6000602082019050818103600083015261255d8184612028565b905092915050565b6000602082019050818103600083015261257f8184612083565b905092915050565b600060208201905081810360008301526125a181846120f1565b905092915050565b600060208201905081810360008301526125c38184612160565b905092915050565b600060e08201905081810360008301526125e5818a612214565b905081810360208301526125f98189612214565b90506126086040830188612519565b6126156060830187612519565b81810360808301526126278186612214565b905061263660a0830185612519565b81810360c08301526126488184612214565b905098975050505050505050565b600060208201905061266b6000830184612519565b92915050565b60006040820190506126866000830185612519565b6126936020830184612019565b9392505050565b6000610120820190506126b0600083018c612519565b81810360208301526126c2818b612214565b905081810360408301526126d6818a612214565b905081810360608301526126ea8189612214565b90506126f96080830188612519565b61270660a0830187612019565b61271360c08301866121cf565b61272060e0830185612019565b61272e610100830184612519565b9a9950505050505050505050565b600061012082019050612752600083018c612519565b8181036020830152612764818b612214565b9050612773604083018a612519565b81810360608301526127858189612214565b90506127946080830188612519565b6127a160a08301876121cf565b6127ae60c0830186612019565b6127bb60e0830185612519565b6127c9610100830184612519565b9a9950505050505050505050565b6000602082019050919050565b6000602082019050919050565b6000602082019050919050565b6000602082019050919050565b60008160005260206000209050919050565b600081519050919050565b600081519050919050565b600081519050919050565b600081519050919050565b600081519050919050565b6000602082019050919050565b6000602082019050919050565b6000602082019050919050565b6000602082019050919050565b600073ffffffffffffffffffffffffffffffffffffffff82169050919050565b60008115159050919050565b6000819050919050565b60005b838110156128dc5780820151818401526020810190506128c1565b838114600081146128ec576128f3565b6000858501525b5050505050565b6000601f19601f83011690509190505600a265627a7a723058204608d5f3e07f968636d72bb1cfa177682615aaeb6c898661c09dbc54c98597166c6578706572696d656e74616cf50037",
  "linkReferences": {},
  "deployedLinkReferences": {}
}